:020000040800F2
:10000000A0300020B5030008D9030008DB03000876
:10001000DD030008DF030008E10300080000000022
:100020000000000000000000000000009D0100082A
:10003000E303000800000000E10100087B5900080C
:10004000CF030008CF030008CF030008CF03000848
:10005000CF030008CF030008CF030008CF03000838
:10006000CF030008B7050008CF0300089504000877
:1000700057040008E1040008CF0300080904000841
:10008000CF03000811040008CF030008CF030008C5
:10009000CF030008CF030008CF030008CF030008F8
:1000A000CF0300081105000831050008CF03000840
:1000B000330500085305000873050008CF03000846
:1000C000CF030008CF030008CF030008B3050008E2
:1000D000CF030008E9030008CF030008CF0300089E
:1000E000CF030008CF030008CF030008CF030008A8
:1000F000CF030008CF030008CF030008B7040008AF
:10010000CF030008CF03000893050008B5050008D9
:10011000CF030008CF030008EB040008FF04000829
:10012000CF030008CF03000833040008CF03000802
:10013000CF030008CF030008CF030008CF03000857
:10014000CF030008CF030008CF030008CF03000847
:100150004D040008CF030008CF030008CF030008B8
:10016000CF030008CF030008CF030008CF03000827
:10017000CF030008CF030008CF030008CF03000817
:10018000CF030008CF030008DFF80CD006F0D2FC44
:10019000004800473D340008A0300020234B196878
:1001A0000868B0E8F04F80F309884FF0000080F352
:1001B000118870470000000003480068006880F361
:1001C000088862B600DF00BF08ED00E0DFF80C0031
:1001D000016841F470010160704700BF88ED00E0E4
:1001E000EFF30980114B1A681EF0100F08BF20EDC5
:1001F000108A20E9F04F106008B54FF0140080F32A
:10020000118805F090FE4FF0000080F31188BDE8E2
:10021000084019680868B0E8F04F1EF0100F08BFDA
:10022000B0EC108A80F30988704700BF5C010020A1
:10023000EFF311804FF0140181F31188704780F3C0
:10024000118870470CB500205149019000900A6850
:1002500042F480320A604FF4A0630A6802F400326C
:100260000092019A521C0192009A12B9019A9A4284
:10027000F3D10A68920334D50120009044484030FD
:10028000026842F0805202604248026842F48042B2
:1002900002603F48083002680260026842F400428F
:1002A0000260026842F4A0520260031F3A4A1A60D8
:1002B0000A6842F080720A600A689201FCD5374AE7
:1002C00040F205611160016821F0030101600168DD
:1002D00041F0020101600168C1F381010229FAD1F4
:1002E0000CBD00900CBD2A4810B5016841F0010119
:1002F0000160274A0021083211600268284B1A4029
:100300000260031D274A1A60026822F480220260FC
:100310001F480C300160FFF795FF23494FF0006044
:10032000086010BD70B51A4C083420681F4A10F0E0
:100330000C011F4804D05510042903D0082903D00C
:1003400002601BE0056019E01149091D0B68C3F349
:1003500080560B6803F03F0316B1B5FBF3F201E0E2
:10036000B2FBF3F20B680968C3F388135A43C1F375
:100370000141491C4900B2FBF1F1016021680C4ABE
:10038000C1F30311121D515C0268CA40026070BDC6
:10039000003802400070004008544007003C024012
:1003A000FFFFF6FE1030002408ED00E00024F4000A
:1003B000000000200648804706480047FEE7FEE7A9
:1003C000FEE7FEE7FEE7FEE7FEE7FEE7FEE7FEE705
:1003D000E7020008890100087047FEE7FEE7FEE734
:1003E000FEE770477047704710B5734C40F22551D7
:1003F000204604F048FD002805D02046BDE8104006
:10040000202104F03DBD10BD6C496D4803F0C1BE14
:1004100070B56B4D6B4C30352146284603F096FE87
:10042000002805D021462846BDE8704003F0B1BE43
:1004300070BD10B56449654803F0ABFE644841786F
:10044000007841EA00206349088010BD5F48624996
:10045000483003F09EBE70B5594D604C483D214672
:10046000284603F073FE002813D02146284603F0E7
:1004700090FE5B4801F09FFC00280AD1594C0021F6
:10048000204604F03FFC2046BDE87040012104F006
:1004900039BC70BD70B54A4D534C603D214628466D
:1004A00003F054FE002805D021462846BDE87040E0
:1004B00003F06FBE70BD70B5414C4C4D48342946B9
:1004C000204603F043FE002809D00021204603F017
:1004D000B2FD29462046BDE8704003F05ABE70BD0B
:1004E00037483649303803F054BE10B50121404832
:1004F00004F0A7FA3F480168491C016010BD10B51F
:1005000001213D4804F09DFA2B497A20888010BDD6
:1005100010B53A4C0121204604F093FA2088C10618
:100520003748016801D5491E00E0491C016010BD33
:10053000704710B501218C07204604F082FA20880C
:10054000C1063048016801D5491E00E0491C016020
:1005500010BD10B52C4C0121204604F072FA208801
:10056000C1062A48016801D5491E00E0491C016006
:1005700010BD10B5264C0121204604F062FA2088F7
:10058000C1062448016801D5491E00E0491C0160EC
:1005900010BD10B5204C0121204604F052FA2088ED
:1005A000C1061E48016801D5491E00E0491C0160D2
:1005B00010BD704770477047001001402080002038
:1005C00070600240008020200080201040640240C3
:1005D0006002002018000020008800200088001021
:1005E0007E0200200048004020800010008000288B
:1005F00000100040C800002000140040000001402E
:100600001C000020200000200004004024000020E6
:10061000000800401C010020000C004028000020C1
:1006200070B50546002405F099FFFE4902E02A5DF9
:100630000A55641C8442FADBBDE870400121FA4887
:1006400003F0F9BC70B5F94D06460024315D002970
:100650000BD0284604F07CFB8021284604F009FCDE
:100660000028F9D0641CE4B2F0E770BD70B5EF4E1D
:1006700005460024002D0DD02946304604F068FBC5
:100680008021304604F0F5FB0028F9D0641CE4B268
:10069000032CEFD370BD73B50C460020FFF7E6FFC7
:1006A000E3A0FFF7CFFFDF482246E2A1823806F041
:1006B000BBFADC488238FFF7C5FFDFA0FFF7C2FFB7
:1006C000DFA0FFF7BFFFD748DAA18238009A06F013
:1006D000ABFAD44E0024D54D823E2846315D04F05D
:1006E00037FB4021284604F0C4FB0028F9D0641CE5
:1006F000142CF2DBD2A0FFF7A5FFFF20FFF7B6FF17
:10070000FF20FFF7B3FFBDE87C40FF20AEE770B5E8
:1007100005460C46C6A0FFF795FFC2482246C5A174
:10072000823806F081FABF488238FFF78BFFC5A0F8
:10073000FFF788FF2846FFF785FFC1A0FFF782FF7C
:10074000BDE87040FF2091E777B5BEA185B00646B1
:10075000D1E90001CDE90001B9A0002200680390B1
:10076000B3A0B04D0068283DA5F128030290AD4C20
:100770001146A3F13200A95499548154A154521C3A
:10078000D2B21E2AF7D30A210170FF24447084706C
:10079000C470A448A7A15038079A06F045FAA149A9
:1007A00002A8503905F0C2FE9E4802A9823805F021
:1007B000BDFE9C486946823805F0B8FE994831462E
:1007C000823805F0B3FE97489AA15038069A06F091
:1007D0002BFA94495039A1F1320005F0A7FE914857
:1007E00003A9823805F0A2FE8E492C706C7028395E
:1007F000AC70A1F15A0005F099FE8A488238FFF7E3
:100800000FFF08B070BD2DE9F74188468DA185B076
:100810000646D1E90001CDE9000189A00022006867
:10082000039083A07F4D0068283DA5F12801029028
:100830001446A1F13200AC548C548454521CD2B2F0
:100840000A2AF8D30A210170FF2747708770C77002
:10085000744878A15038079A06F0E6F9714902A861
:10086000503905F063FE6F4802A9823805F05EFE3C
:100870006C486946823805F059FE6A48314682382C
:1008800005F054FE67484146823805F04FFE654842
:1008900003A9823805F04AFE2F706F706149AF706E
:1008A000EC7028392C71A1F15A0005F03FFE5D482B
:1008B0008238FFF7B5FE08B0BDE8F08170B50020C2
:1008C000FFF7D4FE5AA0FFF7BDFE56480D2259A1EE
:1008D000823806F0A9F953488238FFF7B3FE59A0D1
:1008E000FFF7B0FE594C2021204602F00BFF0246D4
:1008F0004C4850A1823806F097F94A488238FFF7F1
:10090000A1FE1021204602F0FDFE0246454849A105
:10091000823806F089F943488238FFF793FE4C4D40
:100920008021284602F0EEFE02463E4841A1823870
:1009300006F07AF93B488238FFF784FE40212846CA
:1009400002F0E0FE024637483AA1823806F06CF920
:1009500034488238FFF776FE4FF40041204602F01B
:10096000D1FE02462F4833A1823806F05DF92D48AA
:100970008238FFF767FE4FF48041204602F0C2FE46
:10098000024628482BA1823806F04EF925488238C5
:10099000FFF758FE4FF40051204602F0B3FE024626
:1009A000204824A1823806F03FF91E488238FFF71C
:1009B00049FE4021274802F0A5FE024619481DA124
:1009C000823806F031F917488238FFF73BFE1CA049
:1009D000FFF738FEFF20FFF749FEFF20FFF746FE36
:1009E000BDE87040FF2041E6FEB51BA10646D1E9F7
:1009F0000001CDE900011AA000210A4D0068283D40
:100A0000A5F1280202900C46A2F132006C54545415
:100A10004454491CC9B23229F8D30A210170FF2776
:100A200047701FE01E020020B860024000500040E6
:100A300074000000256400002E7478743D000000EE
:100A4000220000002E7478743D220000000802404D
:100A500000000240001002402E76616C3D00000054
:100A60006A0000008770C7700022AFF23801FE48AC
:100A700006F0DAF8FC4902A805F058FDFA4802A988
:100A8000323805F053FDF8486946323805F04EFD1E
:100A90003246AFF26001F44806F0C6F8F249A1F11F
:100AA000320005F043FD2F706F70EF49AF70EC70AE
:100AB00028312C71A1F15A0005F038FDEA4832388E
:100AC000FFF7AEFDFEBD2DE9FC4101211F2002F024
:100AD00081FF01248DF8044000268DF806604FF652
:100AE000FF758DF80740032700958DF8057069465E
:100AF000DE4802F0A1FD8DF804408DF806608DF807
:100B0000074000958DF805706946D94802F094FDBC
:100B10008DF804408DF806608DF8074000958DF83B
:100B200005706946D34802F087FDBDE8FC817CB5BD
:100B300001217E2002F04EFF0024C0208DF80440E9
:100B4000012500908DF8075002268DF80560694652
:100B5000C94802F071FD06208DF8044000908DF820
:100B600007508DF805606946C04802F065FD042015
:100B70008DF8044000908DF807508DF805606946A7
:100B8000BB4802F059FD7CBD1FB54FF4E06002F098
:100B90009BFC36208DF80C0000248DF80D408DF85C
:100BA0000E4001208DF80F0003A802F092FC0121F5
:100BB000102002F02DFF5320ADF80000ADF80840E2
:100BC000ADF8024040F2E730AC4C01906946204657
:100BD00003F08EFB0121204603F033FF0122114672
:100BE000204603F00EFF0021204603F0C3FB012145
:100BF000204603F0F5FB1FBD1FB54FF4E06002F087
:100C000063FC37208DF80C0000248DF80D408DF822
:100C10000E4001208DF80F0003A802F05AFC0121BC
:100C2000202002F0F5FE4FF4FA70ADF80000ADF8A8
:100C30000840ADF8024040F2E730914C019069461F
:100C4000204603F055FB0121204603F0FAFE012265
:100C50001146204603F0D5FE0021204603F08AFB12
:100C60000121204603F0BCFB1FBD70B58AB00121F5
:100C7000022002F0D7FE01210C2002F0ABFE7C4ED8
:100C800003220621304602F060FD03220721304690
:100C900002F05BFD03220821304602F056FD0322DC
:100CA0000921304602F051FD4FF47070059002208A
:100CB0008DF8180003208DF8190000248DF81A40D3
:100CC00001258DF81B5005A9304602F0B5FCA42083
:100CD000ADF81C0040F6B83008902802694EADF817
:100CE0002400ADF81E4007A9304603F001FB602048
:100CF000ADF80000ADF802500294ADF80C400121AF
:100D0000304603F06DFB0021304603F033FB6946AB
:100D1000304603F06FFB6946304603F097FB6946A7
:100D2000304603F0CFFB6946304603F005FC012155
:100D3000304603F047FE0AB070BD70B58AB001219D
:100D4000082002F065FE0121084602F043FE4A4EEB
:100D500002220021304602F0F8FC02220121304636
:100D600002F0F3FC02221146304602F0EEFC0222B1
:100D70000321304602F0E9FC0F20059002208DF897
:100D8000180003208DF8190000248DF81A40012561
:100D90008DF81B5005A9304602F04EFCBA20ADF884
:100DA0001C0042F21070384E0890ADF82440ADF8A7
:100DB0001E4007A9304603F09BFA6020ADF8000002
:100DC000ADF802500294ADF80C400121304603F01A
:100DD00007FB0021304603F0CDFA6946304603F0A8
:100DE00009FB6946304603F031FB6946304603F0A3
:100DF00069FB6946304603F09FFB0121304603F052
:100E0000E1FD98E770B58AB00121042002F000FEF0
:100E100001210D2002F0DEFD164E02220C2130468B
:100E200002F093FC02220D21304602F08EFC0222D9
:100E30000E21304602F089FC02220F21304602F0DA
:100E400084FC4FF47040059002208DF818000320B8
:100E50008DF8190000248DF81A4001258DF81B50DB
:100E600005A9304612E00000CE0100200004024037
:100E700000080240000C0240000002400010004048
:100E80000014004000040140000C004002F0D4FBBC
:100E9000A420ADF81C0040F6B83008902802ADF848
:100EA0002400ADF81E4007A9FE4E304603F020FA9C
:100EB0006020ADF80000ADF802500294ADF80C408F
:100EC0000121304603F08CFA0021304603F052FA3B
:100ED0006946304603F08EFA6946304603F0B6FAAA
:100EE0006946304603F0EEFA6946304603F024FBCB
:100EF00021E770B5012188B0080402F093FD0121BB
:100F0000084602F067FDE84E03221146304602F023
:100F10001CFC03220221304602F017FC0C2000903A
:100F200002208DF8040003208DF8050000248DF8C0
:100F3000064001258DF807506946304602F07CFBDB
:100F40004FF6FF70D94EADF808400390ADF8104051
:100F5000ADF80A4002A9304603F0CAF90420ADF802
:100F60001400C820ADF81C00ADF81640ADF81850BC
:100F700005A9304603F076FCCD4C00231A46032128
:100F8000204603F0D8FD0121204603F05AFD01223E
:100F90001146204603F035FD0121304603F020FACA
:100FA0000021204603F0E6F92BE42DE9F04701216A
:100FB0008AB0084602F02CFD0121022002F028FD33
:100FC0000121032002F006FDDFF8DC9201220F214F
:100FD000484602F0BAFBDFF8DC82012203214046DA
:100FE00002F0B3FB02220421404602F0AEFB0222D3
:100FF0000521404602F0A9FB02268DF80460032774
:1010000038208DF80570002400908DF806400125E9
:101010008DF807506946404602F00EFB8DF80460DB
:10102000E8038DF8057000908DF806408DF80750A4
:101030006946484602F000FB4FF6FF70ADF80C40E1
:1010400004904FF08049ADF81440ADF80E4003A96C
:10105000484603F04DF9DFF860A203A9504603F0BB
:1010600047F94FF004081420ADF81880ADF82000BF
:10107000ADF81A60ADF81C5006A9484603F0F2FB23
:1010800006A9504603F0EEFB02231A460321484608
:1010900003F051FD02231A460321504603F04BFD95
:1010A0000121484603F0CDFC0121504603F0C9FC64
:1010B00001221146484603F0A4FC01221146504685
:1010C00003F09FFC0121484603F08AF901215046B4
:1010D00003F086F90021484603F04CF90021504600
:1010E00003F048F9780202F0EFF91D208DF80800AE
:1010F0008DF809708DF80A408DF80B5002A802F0A7
:10110000E8F91C208DF808008DF809808DF80A4058
:101110008DF80B5002A802F0DCF90AB0BDE8F087A8
:1011200070B501218AB0084602F07CFC0121102034
:1011300002F050FC4FF42060009002208DF8040073
:1011400003208DF8050000245C4E8DF80640012533
:101150008DF807506946304602F06EFA01220921E7
:10116000304602F0F2FA01220B21304602F0EDFA8D
:101170004FF6FF704D4EADF808400390ADF81040AB
:10118000ADF80A4002A9304603F0B2F80420ADF8E9
:1011900014000A20ADF81C00ADF81640ADF8185048
:1011A00005A9304603F05EFB00231A4603213046B2
:1011B00003F0C1FC0121304603F043FC012211463B
:1011C000304603F01EFC0121304603F03AFC0122B8
:1011D0001146304603F015FC0121304603F000F9BA
:1011E0000021304603F0C6F84FF4C06002F06CF9FD
:1011F00019208DF820008DF821508DF822408DF8AF
:10120000235008A802F065F995E52DE9F0418AB070
:101210000121042002F0FCFB0121082002F0DAFB8E
:101220004FF44050022600908DF8046003208DF8A2
:1012300005000024224F8DF8064001258DF8075047
:101240006946384602F0F8F94FF6FF70DFF854802F
:10125000ADF808400390ADF81040ADF80A4002A97F
:10126000404603F045F802220C21384602F06DFAA0
:1012700002220D21384602F068FA0427C820ADF892
:101280001470ADF81C00ADF81660ADF8185005A943
:10129000404603F0E7FA02231A460321404603F0D2
:1012A0004AFC0FE00008004000000240000001403E
:1012B00000400140000402400004004000100240D1
:1012C000000C02400121404603F0BBFB0122114605
:1012D000404603F096FB0121404603F081F842F2BC
:1012E0001071404603F046F8FE480480A8F800500C
:1012F0004FF4C06002F0E8F81E208DF820008DF851
:1013000021708DF822408DF8235008A802F0E1F8F2
:101310000AB0BDE8F0812DE9F0418AB00121082032
:1013200002F076FB0121084602F054FB032002265E
:101330008DF804608DF805000024EB4F00908DF8C7
:10134000064001258DF807506946384602F074F9C9
:101350004FF6FF70DFF89483ADF808400390ADF8C6
:101360001040ADF80A4002A9404602F0C1FF022237
:101370000021384602F0E9F902220121384602F044
:10138000E4F90427C820ADF81470ADF81C00ADF8DE
:101390001660ADF8185005A9404603F063FA022321
:1013A0001A460321404603F0C6FB0121404603F0E4
:1013B00048FB01221146404603F023FB0121404631
:1013C00003F00EF80021404602F0D4FFC748143065
:1013D0000480A8F800504FF4C06002F075F8322085
:1013E0008DF820008DF821708DF822408DF8235063
:1013F00008A802F06EF88BE72DE9F0419CB00121BE
:10140000BB4802F0E7FA01210D02284602F00AFB70
:10141000B8480024CDE90040B74802A94FF00808B9
:1014200081E81101A800CDE9054040000790800047
:10143000CDE908050AA90001012581E83100AF4E78
:101440000D94694630460E9402F0BCFD01213046F1
:1014500002F0F1FD03273C268DF8587015968DF8A3
:101460005B4015A9A04802F0E7F88DF85870159672
:101470008DF85B4015A9A24802F0DEF83804CDE9EA
:101480001740B001CDE9194017A802F0A0FB119454
:10149000129413942806974C0F908DF840504C3CB2
:1014A0008DF841508DF850800FA9204602F064FB62
:1014B000042301220221204602F0D3FB042302224E
:1014C0000321204602F0CDFB0423032219462046C7
:1014D00002F0C7FB04231A460521204602F0C1FB97
:1014E000042305220C21204602F0BBFB0423062224
:1014F0000D21204602F0B5FB042307220E212046D1
:1015000002F0AFFB042308220F21204602F0A9FBC2
:101510000121204602F022FC0121204602F014FCA9
:101520000121204602F06AFB204602F0D4FB1CB0E9
:10153000EFE608B54FF4E06001F0C6FF25208DF816
:10154000000000208DF801008DF8020001208DF8C8
:101550000300684601F0BDFF08BD70B5054696B0B2
:101560000121102002F05EFA0121084602F032FA51
:101570000121880502F02EFA4FF4C060139002207A
:101580008DF8500000248DF852408DF85340564E8F
:101590008DF8510013A9304602F04EF807220921B8
:1015A000304602F0D2F807220A21304602F0CDF888
:1015B0000F95ADF844400C20524DADF84040ADF8C9
:1015C0004600ADF84240ADF848400FA9284603F068
:1015D00028FB0121284603F095FB4FF4A06001F0A1
:1015E00073FF3A208DF854008DF855408DF8564021
:1015F00001208DF8570015A801F06BFF3F4E3036E3
:10160000304602F057FC4FF0006000903A486946BF
:101610001030CDE902040A200490281D0190001525
:10162000CDE905408010CDE9084040020A90042031
:101630000B9007940320CDE90C0430460E9402F081
:10164000C1FC01224021284603F0F3FB01221021B6
:10165000304602F065FD0121304602F0ECFC16B088
:1016600070BDF0B50646012197B0480502F0B2F909
:1016700001214D04284602F0CBF90121082002F097
:10168000A9F96020139002208DF8500000248DF8F5
:1016900052408DF853401C4F8DF8510013A9384625
:1016A00001F0CAFF07220521384602F04EF8072252
:1016B0000621384602F049F80F96ADF844400C2058
:1016C000124EADF84040ADF84600ADF84240ADF8DE
:1016D00048400FA9304603F0A4FA0121304603F038
:1016E00011FB15E01408004000000240000C00400F
:1016F000050040004C2001405002002010640240D0
:101700000008024000100140000C0240004400406C
:101710004FF4A06001F0D8FE11208DF854008DF830
:1017200055408DF8564001208DF8570015A801F05E
:10173000D0FEF94F384602F0BDFBA80200904020D1
:101740000390F64802903C200490301D0190001553
:10175000CDE905408010CDE908400420CDE90A50CC
:1017600007940320CDE90C04694638460E9402F034
:1017700029FC01228021304603F05BFB01228021FD
:10178000304603F056FB01221021384602F0C8FC17
:101790000121384602F04FFC17B0F0BD70B5054688
:1017A000012196B0880402F033F90121082002F0EB
:1017B00011F90121480502F00DF94FF44070139022
:1017C00002208DF8500000248DF852408DF85340CF
:1017D000D34E8DF8510013A9304601F02DFF07229A
:1017E0000821304601F0B1FF07220921304601F0FF
:1017F000ACFF0F95CB4EADF84040ADF844400C2502
:10180000ADF84240ADF84840ADF846500FA930461B
:1018100003F007FA0121304603F074FA4FF4A06098
:1018200001F052FE8DF854508DF855408DF8564019
:1018300001208DF8570015A801F04BFEB64D783DFC
:10184000284602F037FB4FF000600090B648CDE923
:10185000020408200490301D01900015CDE90540D8
:101860008010CDE9084040020A9004200B900794B4
:101870000320CDE90C04694628460E9402F0A2FB31
:1018800001224021304603F0D4FA012240213046A3
:1018900003F0CFFA01221021284602F041FC012179
:1018A000284602F0C8FBDAE6F0B50646012197B0FB
:1018B000C80402F0ADF80121084602F08BF80121BE
:1018C000480502F087F802208DF8500000248DF8BA
:1018D00052408DF85340954F03258DF851001395D4
:1018E00013A9384601F0A8FE08220021384601F06D
:1018F0002CFF08220121384601F027FF0F96ADF892
:1019000044400C208A4EADF84040ADF84600ADF89A
:101910004240ADF848400FA9304603F082F901215A
:10192000304603F0EFF94FF4A06001F0CDFD0D203B
:101930008DF854008DF855408DF8564001208DF8F3
:10194000570015A801F0C5FD734F603F384602F0FF
:10195000B1FA78050090744869460F38CDE9020461
:1019600008200490301D01900015CDE9054080103D
:10197000CDE90840400207940A900420CDE90C54B8
:101980000B9038460E9402F01DFB01224021304698
:1019900003F04FFA01224021304603F04AFA0122B7
:1019A0001021384602F0BCFB0121384602F043FB0F
:1019B000F2E62DE9F0418046012196B0480502F09B
:1019C00009F80121080502F023F801210C2002F09A
:1019D00001F802258DF8405000248DF84240504F08
:1019E00004268DF843400F968DF841500FA93846D4
:1019F00001F022FE8DF840508DF842408DF84340B2
:101A0000E8028DF841504B4D0F900FA9284601F088
:101A100013FE08220221384601F097FE08220C210D
:101A2000284601F092FE4FF4A06001F04DFD2F20FA
:101A30008DF8540005208DF855008DF856000120D2
:101A40008DF8570015A801F044FDADF84C400C206E
:101A5000394DADF84840ADF84E00CDF84480ADF8B2
:101A60004A40ADF8504011A9284603F0DAF80121A8
:101A7000284603F047F9284F1837384602F01AFA7B
:101A80007006009040200390274869466038029015
:101A900031200490281D01900015CDE905408010EB
:101AA000CDE908404002CDE90A0607940320CDE9BC
:101AB0000C0438460E9402F085FA01228021284653
:101AC00003F0B7F901221021384602F029FB012169
:101AD000384602F0B0FA16B01BE410B5012810D059
:101AE00003282DD0042836D0052809D1124C2046D1
:101AF00003F02EF94021204603F0BBF90028F9D06D
:101B000010BD0E4C204603F023F94021204603F07F
:101B1000B0F90028F9D010BDA0600240D00000202C
:101B2000000C0240004800407E02002000000240FD
:101B3000004C0040000802400050004000100140EE
:101B4000F94C204603F004F94021204603F091F9B6
:101B50000028F9D0DFE7F54C204603F0F9F84021E2
:101B6000204603F086F90028F9D0D4E701B581B00A
:101B7000019800EBC00040000090002801D0401EFA
:101B8000FAE70CBD01B581B044F2506101984843B9
:101B90000090002801D0401EFAE70CBD70B5E44D5E
:101BA00000206870044661210120FFF796FF322073
:101BB000FFF7E8FF641C022CF5D3012068707A203F
:101BC000287070BD70B5DA4D0020E87004466121C0
:101BD0000320FFF782FF3220FFF7D4FF641C022CA2
:101BE000F5D30120E8707A20A87070BD0121D1489A
:101BF00002F021BA10B5401A029CE41A6043511A4F
:101C000090FBF1F0184486E710B510EE100A04F0CE
:101C100045FE9FEDC91B53EC112B04F04DFD04F064
:101C200050FE00EE100A76E710B510EE100A04F030
:101C300035FE9FEDC31B53EC112B04F03DFD04F06A
:101C400040FE00EE100A66E790FBF1F010B5400090
:101C500004F013FE9FEDBC1B53EC112B04F02CFD84
:101C600004F02FFE00EE100A55E710B5FFF7ECFF69
:101C7000BDE81040C8E7904200DD1046884200DA17
:101C800008467047AA488030406BA949C861704730
:101C9000A7498031496BA64AD269891A00D54942C1
:101CA000814201DD01207047002070472DE9F04797
:101CB0000025A74E074601244FF400594FF48048F1
:101CC0004FF4805A00224146304601F033FD102087
:101CD000FFF74CFF274201D0012200E000224946D5
:101CE000304601F027FD01224146304601F022FD39
:101CF0001020FFF73BFF5146304601F003FD00B1D5
:101D00002543600010F0FF04DCD12846BDE8F087D1
:101D100070B58F4E4FF4004500222946304601F041
:101D200009FD1020FFF722FF0120FFF7BFFF42202F
:101D3000FFF7BCFFFF20FFF7B9FFFF20FFF7B6FF5B
:101D40007B4CF8342070FF20FFF7B0FF6070FF205D
:101D5000FFF7ACFFA070FF20FFF7A8FFE070FF20A7
:101D6000FFF7A4FF2071FF20FFF7A0FF6071294655
:101D70003046BDE87040012201F0DCBC70B5744E05
:101D80004FF4004500222946304601F0D3FC1020D4
:101D9000FFF7ECFE0120FFF789FF4220FFF786FFE7
:101DA000044601222946304601F0C4FC1020FFF70A
:101DB000DDFE204670BD5E4A00211162C2795C4999
:101DC000F8310D2A09D0FF20087048708870C8705B
:101DD0000871487188710020704702780A70427853
:101DE0004A7082788A70C278CA7002790A71427920
:101DF0004A7180798871012070474D484C49F8300C
:101E00000278FF2A05D14278FF2A02D18278FF2A80
:101E100009D00A6A531C0B62C82A03DDFF21017036
:101E20004170817070470020086270474048F83068
:101E3000807970473E48F8300078400601D4012090
:101E40007047002070473A48F8300078800701D486
:101E5000012070470020704770B5354B01250026E2
:101E600093F85440BC33002803D004DDD8709E7032
:101E700005E0DC7003E0C0F10000D8709D7000291F
:101E800003D004DDD9719D7105E0DC7103E0C1F17F
:101E90000000D8719E71002A03D004DDDA729D72B1
:101EA00070BDDC7270BDC2F10000D8729E7270BD50
:101EB0001F49BC31C870C871C87270471C490120E5
:101EC000086570471A48BC30C178032907D2C17928
:101ED000032904D2C07A032801D2012070470020D0
:101EE00070471348C06FA0F5EA41303901D0012096
:101EF00070470020704751E60D48B0F90400404299
:101F000070470B48B5EEC00AD0ED0A0AF1EE10FAA0
:101F100002D230EE600A01E030EE200ABDEEC00AC7
:101F200010EE100A7047000000480040004C0040CE
:101F300014000020A0600240E5BF631ADCA54C40FD
:101F4000849E52A246DF913FEA2E4454FB21094071
:101F5000000C024010B5041E2DED048BF5489FEDDA
:101F6000F68B806E10D014DA04F087FC41EC190B6C
:101F7000204604F082FC53EC182B04F09DFB53EC3C
:101F8000182B04F093FB13E09FEDED0ABDEC048BDE
:101F9000C1E504F072FC41EC190B204604F06DFC25
:101FA00053EC182B04F088FB53EC182B04F0DDFAEB
:101FB00053EC192B04F0F2FB04F083FC00EE100A42
:101FC000E4E7B5EEC00AF1EE10FAABDAB1EE400A82
:101FD000A8E70028A6DA4042A4E7D64991ED120A04
:101FE000D1ED131AF1EE400A80EEA11A00EE900A2C
:101FF000F8EEE00A01EE200ABDEEC00A10EE100A6B
:1020000090E7F0EE401A9FEDCF0AF5EEC01AF1EE20
:1020100010FA01D2F1EE611AF5EEC00AF1EE10FAF3
:1020200001D2F1EE600AB5EEC01AF1EE10FA01D25B
:10203000B1EE411AF4EEC01AF1EE10FA01DDB0EE85
:10204000610AF4EEC00AF1EE10FA01DDB0EE600AAA
:10205000B4EEC01AF1EE10FA01DDB0EE410A61E70C
:10206000B448806E5EE7B348803040695AE770B587
:10207000B04D2DED048BB0EE408A05F18004E86F81
:10208000A0F5EA41303974D0A268E169D4ED030AC1
:10209000891A401A00EE100A95ED0D1A2069B8EE63
:1020A000C00A00EEC10AD5ED0C0AC0EE208A04F089
:1020B000F5FB95ED170A41EC190B20EE280A10EEFE
:1020C000100A04F0EBFB41EC100B05F03DF851EC6D
:1020D000100B81F0004153EC192B04F0E7FA04F0E7
:1020E000F0FBA062206904F0D9FB95ED0E0AD5ED56
:1020F000170A41EC190B38EE800A20EE200A10EE88
:10210000100A04F0CBFB41EC100B05F01DF853EC6A
:10211000192B51EC100B04F0C9FA04F0D2FBE06269
:1021200095ED0F0AD5ED170A38EE800A20EE200A49
:1021300010EE100A04F0B2FB41EC100B05F004F8AD
:1021400051EC100B04F0BDFB00EE100AB1EE400A9A
:1021500084ED0C0AB5EEC08AF1EE10FA38D0686E44
:1021600080B1012814D0022819D0032830D123E0EF
:10217000FFE79FED730A84ED0C0A84ED0B0A84EDF2
:102180000A0AE7E794ED0A0A30EE480A84ED0A0AE3
:1021900094ED0B0A30EE480A84ED0B0A05E094ED4D
:1021A0000A0A30EE480A84ED0A0A94ED0C0A30EE71
:1021B000480A84ED0C0A0BE094ED0A0A30EE480A56
:1021C00084ED0A0A94ED0B0A30EE480A84ED0B0AFE
:1021D000283494EC030AFFF714FFD5ED090AF8EE52
:1021E000E00A80EE801ABDEEC10A10EE100A2867E0
:1021F000A96E814200DDA86601202866BDEC048B33
:1022000070BD4C4900220028CA66486711D19FED75
:102210004C0A01F180008A6680ED040A47F23053CF
:10222000CB67036080ED030A4A66426042610A653B
:102230001DE777E63F483F49803090ED030AB5EE51
:10224000C00AF1EE10FA04D14A6E12B94268002AAF
:1022500009D000229FED3A0A80ED030A4A664260E7
:10226000C169816003E75DE63248C0ED120A80ED86
:10227000130A57E62F4A30B4D46F02F18003844228
:1022800009D1D46E8C4206D1D3ED040AF4EE400A93
:10229000F1EE10FA0FD0D166916E09B90521916661
:1022A000D969996083ED040AD0670020906793EDA7
:1022B000030A30BCDBE630BC70471E4B30B48033C1
:1022C0001C4A5C68844209D1D3ED030AF4EE400A4B
:1022D000F1EE10FA02D1546E8C42ECD0D56F47F279
:1022E0003054A54219D13225D56605259566A04200
:1022F00013DAB5EEC00A0124F1EE10FA5C6102DDDA
:10230000DC69844207DCB5EEC00AF1EE10FA04D2B3
:10231000DC69844201DAB1EE400A5860516683ED0F
:10232000030A0020906730BCA1E6C4E7014647F2EB
:102330003050C2E7140000209A9999999999B93FB1
:10234000000000006F12833A1FED030A92E710B5F8
:10235000FB4C01462DED028BF0EE608AD4ED000AB5
:10236000B0EE418AF8EEE00AF4EE400AF1EE10FA1F
:102370000DD1A4F18000C06E884208D1D4ED010ACD
:10238000F8EEE00AF4EE680AF1EE10FA49D0FDEE3C
:10239000C00AC4ED000AD4ED070AF8EEE00A30EEF8
:1023A000600ABDEEC00A10EE100A1FED1B0AFFF70F
:1023B00061FF94ED070AF8EEC00A78EEE00AFDEE40
:1023C000E00A10EE900A002800DA4042B8EEC00A97
:1023D000642819DDF4EEC08AF1EE10FA01DCB1EEEA
:1023E000488A18EE100A04F059FA00BF04F069FA9E
:1023F000FDEEE80ABDEC028B00EE100ABDE81040CD
:10240000002110EE900A58E738EEC00A10EE100ACC
:1024100004F044FA9FEDCB1B53EC112B04F04CF964
:10242000E4E7BDEC028B0EE4C54910B5486901280C
:102430002ADDCA694868801AFFF7CBFD052809DA4A
:102440004869421C4A61B0F57A7F1DDDBDE8104045
:102450000020D6E6BA4A0520803A4B69D066B3F52B
:10246000FA7F906602DD40F2F51048614A68C8695B
:10247000904202DDBFEE000A01E0B7EE000A81EDF6
:10248000030ABDE81040F2E510BD70B5AC4991ED0E
:10249000040AB5EEC00AF1EE10FA73D1A1F1800280
:1024A000936E002B6ED0486847F23054A04269DA30
:1024B00091ED030AB5EEC00AF1EE10FA7DD0D56FAA
:1024C000A54260D1B5EEC00A1346F1EE10FA5B6C7E
:1024D00003DDCD69C41AAC4208DBB5EEC00AF1EEEB
:1024E00010FA17D2CC690344A34213DD4B69032BC6
:1024F00048DACB69C01AFFF76CFD0A2848680ADA87
:102500008861002090661FED720AD06681ED030A93
:102510000220486179E092ED1A0AD1ED030ACB69F5
:10252000B8EEC00A984260EE200A92ED110AB8EEA9
:10253000C01A80EE810A0FDDFFF743FD4868C969C4
:10254000401AFFF746FD00EE900AB8EEE01AD2ED11
:102550000B0A40EE010A0EE0FFF733FD4868C96937
:10256000401AFFF736FD00EE900AB8EEE01AD2ED01
:102570000B0A50EE410A92ED1A0AB8EEC01A80EE2C
:10258000810A42E046E06E4AB5EEC00A803AD2EDDA
:10259000100AF1EE10FA18DD01EE100AF8EEC11A79
:1025A00001EE103AB8EEC11A41EE401AB8EEE01A48
:1025B00071EEC11A91ED071A00E029E0B8EEC11AD8
:1025C000F4EEC11AF1EE10FA1BD3B5EEC00AF1EE2B
:1025D00010FA1AD201EE100AF8EEE00AF8EEC11A6B
:1025E00001EE103AB8EEC11A41EE401A31EEA01ACF
:1025F000D1ED070AF8EEE00AB4EEE01AF1EE10FAB7
:1026000003DDC969401AFFF7A5FCBDE870402EE55F
:102610008868F6E770BD4A48A0F180014269022A45
:102620000CDA1FEDB90A002380ED040A80ED030ADD
:1026300047F230524B66CA67C0E900238B6F4048AF
:102640005B1C8B6780388A6D406D934202DB8A6722
:10265000096D01B12CE40020FCE7394A803A936F00
:102660005B1C9367834204DD906E084490660020F3
:10267000906757E470B5FFF73FFC314DE861FFF715
:10268000D3FEA5F180044FF0FF31E26EA06E002A68
:102690000BDD90420ED006DA216F88420ADAFFF78E
:1026A0009CFC012104E0686A02E0002831DD606FD3
:1026B000FFF7D3FFD5E90701814203D0FFF7E5FE1D
:1026C000E8692862206E002826D094ED1A0AD5ED1C
:1026D0000C0AB8EEC00A20EE200AFFF712FC94EDB7
:1026E0001A0AD5ED0B0A0246B8EEC00A20EE200AFF
:1026F000FFF707FC94ED1A0AD5ED0A0A0146B8EE79
:10270000C00A20EE200AFFF7FCFBBDE87040FFF78F
:10271000A3BBBDE870407EE770BD0C4BDA8800219A
:10272000D888821A00D55242322A01DA491C89B26D
:1027300002460229F4D3002800DA404248E40000AF
:10274000940000207B14AE47E17A743F50020020D1
:10275000FB480321B0EE080A016040F27531416088
:1027600080ED040A02211E22C0E902124FF4DE723B
:10277000C0E9052100224FF41673C261C0E9083197
:102780000121C0E90A1223E4401A00D540420A2878
:1027900001DA01201CE400201AE400B5FFF7BDFFB8
:1027A000E74B02461146186AFFF7EEFFE54908B10C
:1027B000187A07E0186A904201DD012000E000204D
:1027C0008874187BC87400BDDD48D0ED010A90ED17
:1027D000041AF8EEE00A40EE410ABDEEE00A10EEFF
:1027E000100A0DE4B5EEC00A00B5F1EE10FAD649B4
:1027F00002D29FEDD60A05E010EE100A884201DDF4
:102800009FEDD30AFFF7E0FFCD49086200BD26E443
:1028100025E424E42DE9F041DFF83883404601F057
:10282000ADFDC84EBC3E7169642740EA014090FB93
:10283000F7F40025404601F0A1FD716940EA01402E
:1028400090FBF7F0011B00D54942322900DA6D1CDC
:102850000446022DEEDBBDE8F0812DE9F041DFF802
:10286000F882404601F08AFDB64EBC3E31690A2727
:1028700040EA014090FBF7F40025404601F07EFD60
:10288000316940EA014090FBF7F0011B00D5494255
:10289000322901DA6D1CADB20446022DEDD3DAE720
:1028A00030B5A748AE4C5430AC49C0E90014002103
:1028B0004FF4E173C0E902130222FA25C0E90425AE
:1028C000C0E90612C0E90814C0E90A2101633430E6
:1028D0000A244FF491650460C0E901514FF4D275A8
:1028E000C0E9035228254561C0E90612C0E9081471
:1028F000C0E90A21016358384FF4C8714FF4966457
:10290000C0E9001440F2B634C0E902426422026118
:102910004FF4A5724C00C0E90524C0E90732914884
:10292000016030BD401A00D54042142801DA012070
:102930007FE400207DE42DE9F047814E814D54363F
:10294000307DE8760027AF76A5F1BC044FF48058BF
:10295000DFF81492A76102E0012003F076FA414605
:10296000484600F0CFFE0028F6D1A069401CA061C7
:102970003228F4DB307CE8767648243007606761E3
:10298000052003F062FA307DE8760120A876A76181
:1029900002E0012003F059FAFFF73CFF716888421A
:1029A000F7DCA069401CA0613228F5DB307CE876BA
:1029B000BDE8F087624954310A684243C86892FB17
:1029C000F0F036E410B5FFF725FF5D4B02465433B7
:1029D0001146586AFFF7A6FF5A4908B1187C07E06C
:1029E000586A904201DD002000E001208876187DC1
:1029F000C87610BD00B5FFF7DDFF514A54321168AB
:102A0000814200DD08465168814200DA0846506282
:102A100000BD51490020243108604A49BC39086191
:102A200007E4474988314A684243C86892FBF0F09E
:102A300019E410B5FFF711FF414B024688331146E8
:102A4000586AFFF76FFF3F4908B1187C07E0586AE2
:102A5000904201DD002000E001208875187DC875D6
:102A600010BD00B5FFF7DDFF35498831486200BD74
:102A70002DE9F041324E334D8836307DE875012026
:102A8000A875A5F1BC040020374FA06102E0012029
:102A900003F0DBF98021384600F034FE0028F6D13F
:102AA000A069401CA0613228F4DBFFF7B2FF307C44
:102AB000E875D0E62DE9F04105460C46684301FB78
:102AC00004002DED028B1E46174603F0D6FE41ECA6
:102AD000100B04F09DFB51EC100B03F0F2FE38607C
:102AE000284603F0CAFE41EC180B204603F0C5FE51
:102AF00041EC100BB0EE481AF0EE681A04F02CFA14
:102B00009FED1A1B51EC100B53EC112B03F0D4FD6D
:102B100003F0D7FE3060BDEC028B9CE61CB501AB28
:102B20006A46FFF7C7FF9DED000ABDEEC00A10EE32
:102B3000100AFFF75FFF9DED010AFFF753FE1CBD72
:102B400088020020D0000020000087430000000021
:102B500000008743000C004000040040A8E4FFFF91
:102B600044FDFFFF3808004000100240F8C1631A1E
:102B7000DCA54C40401A00D54042192801DA01205A
:102B800077E5002075E5FE4B9A8800219888821A27
:102B900000D55242322A01DA491C89B20246022982
:102BA000F4D3002800DA404263E500B5FFF7EBFFFD
:102BB000F34B024668331146186AFFF7DBFFF14911
:102BC00008B1187B07E0186A904201DD012000E09F
:102BD00000208873187CC87300BD2DE9F047FFF70B
:102BE000D2FFE74DDFF8A083683507466968C8F86B
:102BF000001068692862052003F027F9E14C0026DF
:102C0000BC3CA66106E000BFFFF7BDFF0746012000
:102C100003F01BF93946286AFFF7ACFF0028F3D010
:102C2000A069401CA0613228F4DBD84F4FF48069C2
:102C3000A66102E0012003F008F94946384600F099
:102C400061FD0028F6D1A069401CA0613228F4DBA8
:102C50004FF47A69484603F0F8F8FFF794FF82468C
:102C6000A8692862052003F0F0F8A66106E000BF1D
:102C7000FFF789FF8246012003F0E7F85146286AF2
:102C8000FFF778FF0028F3D0A069401CA06132282C
:102C9000F4DB0122D103BE4800F04CFD484603F0AE
:102CA000D4F8A968C8F80010A66102E0012003F07A
:102CB000CCF88021384600F025FD0028F6D1A16926
:102CC000491CA1613229F4DB72E62DE9F041FFF7DE
:102CD0005AFFAB4CAC4E6834074660683060E06920
:102CE0002062052003F0B1F8A64D0020BC3DA8618C
:102CF00006E000BFFFF747FF0746012003F0A5F8F5
:102D00003946206AFFF736FF0028F3D0A869401C37
:102D1000A8613228F4DB206830600122D1039C488E
:102D200000F008FDBDE8F0414FF4FA7003F08DB8F3
:102D30002DE9F14F96B0002014908DF80000914CD1
:102D40008DF828001699924A924E8D48924BDFF8E2
:102D50003C82BC3C64254FF400494FF480474FF45B
:102D6000806A4FF4805B112975D2DFE801F0092AEF
:102D70003034383C475369758185898E94A0FD00B5
:102D80000221104600F0BEFC68B100224C464946C4
:102D9000304600F0CFFC2146304600F0BDFC014635
:102DA00000227EA07EE001224C464946304600F0DB
:102DB000C1FC2146304600F0AFFC014600227FA056
:102DC00070E0704801223C38C16984A06AE0018942
:102DD000022284A066E04189032286A062E0818904
:102DE000042287A05EE0184601F0C8FAA168052217
:102DF00040EA014090FBF5F185A053E04FF08040A0
:102E000001F0BCFAE168062240EA014090FBF5F1CE
:102E100082A047E0184601F0B1FAA16840EA0140FB
:102E200090FBF5F64FF0804001F0A8FAE168072228
:102E300040EA014090FBF5F031187CA0FDF784FCDE
:102E40007D4801F09BFA6169082240EA014090FB4D
:102E5000F5F17AA026E027E07B4801F08FFA21699E
:102E600040EA01400A2190FBF1F1092277A019E024
:102E7000C1880A2278A015E081880B2279A011E090
:102E8000414801680C227AA00CE03D488C300D22AC
:102E9000016B7AA006E03946404600F033FC01465B
:102EA0000E227AA0FDF750FC17B0BDE8F08F01218B
:102EB000404600F027FC024677A1684603F0B4FEC6
:102EC00069460AA803F032FB0221404600F01AFCD2
:102ED000024671A1684603F0A7FE69460AA803F0FE
:102EE00025FB3946404600F00DFC02466AA16846C3
:102EF00003F09AFE69460AA803F018FB49464046CB
:102F000000F000FC024664A1684603F08DFE6946AD
:102F10000AA803F00BFB0821404600F0F3FB024631
:102F20005DA1684603F080FE69460AA803F0FEFA38
:102F30004FF48071404600F0E5FB024656A168461A
:102F400003F072FE69460AA803F0F0FA0421404635
:102F500000F0D8FB024650A1684603F065FE6946C2
:102F60000AA803F0E3FA00E011E18021404600F0F6
:102F7000C9FB024648A1684603F056FE69468DE04B
:102F800050020020D000002038080040001002400D
:102F9000000402400008024000000140524F424F2E
:102FA0005420322044414E47204348415920534148
:102FB0004E2058414E483A2020200000524F424FA8
:102FC0005420322044414E47204348415920534128
:102FD0004E20444F3A20202000000000494D553A31
:102FE000000000004C415A45522046524F4E543A80
:102FF000000000004C415A4552204C4546543A00CE
:103000004C415A45522052494748543A000000006A
:10301000454E205748204C4546543A00454E2057CF
:10302000482052494748543A00000000454E20339A
:10303000205748533A000000000C0040454E204104
:10304000524D20583A00000000040040454E2041F7
:10305000524D20593A000000425420424153453A13
:1030600000000000425420475249505045523A0057
:103070004D6F746F725F4875743A2000434254205C
:103080005920426F74746F6D3A000000434254201F
:103090005820496E3A000000256400000AA803F099
:1030A00045FA4021404600F02DFB0246AFF21801E0
:1030B000684603F0B9FD69460AA803F037FA51469D
:1030C000404600F01FFB0246AFF23401684603F0B1
:1030D000ABFD69460AA803F029FA5946404600F0BC
:1030E00011FB0246AFF25001684603F09DFD6946B0
:1030F0000AA803F01BFA4FF400542146404600F0A2
:1031000001FB0246AFF27001684603F08DFD69468F
:103110000AA803F00BFA2021404600F0F3FA024619
:10312000AFF28C01684603F07FFD69460AA803F000
:10313000FDF91021404600F0E5FA0246AFF2A80181
:10314000684603F071FD69460AA803F0EFF92146CD
:10315000304600F0D7FA0246AFF2C401684603F0E9
:1031600063FD69460AA803F0E1F93946304600F0EC
:10317000C9FA0246AFF2E001684603F055FD694620
:103180000AA803F0D3F910220AA9BBA0EBE0544629
:1031900051469046104600F0BFFA0246AFF20811C1
:1031A000684603F041FD69460AA803F0BFF9802193
:1031B000304600F0B1FA0246AFF22411684603F03F
:1031C00033FD69460AA803F0B1F94FF400713046A7
:1031D00000F0A2FA0246AFF24011684603F024FD67
:1031E00069460AA803F0A2F9A44E2146304600F031
:1031F00093FA0246AFF26011684603F015FD694686
:103200000AA803F093F94FF4006A5146404600F0D3
:1032100083FA0246AFF28011684603F005FD694665
:103220000AA803F083F95D465946404600F074FA57
:103230000246AFF29C11684603F0F6FC69460AA804
:1032400003F074F94FF40051404600F065FA02466D
:10325000AFF2BC11684603F0E7FC69460AA803F028
:1032600065F93946404600F057FA0246AFF2D811E8
:10327000684603F0D9FC69460AA803F057F94946A5
:10328000404600F049FA0246AFF2F411684603F0F6
:10329000CBFC69460AA803F049F92146304600F004
:1032A0003BFA0246AFF21021684603F0BDFC6946C6
:1032B0000AA803F03BF93946304600F02DFA0246E1
:1032C000AFF22C21684603F0AFFC69460AA803F070
:1032D0002DF95146304600F01FFA0246AFF2482160
:1032E000684603F0A1FC69460AA803F01FF9644C84
:1032F000B115204600F010FA0246AFF2642168468C
:1033000003F092FC69460AA803F010F951462046E2
:1033100000F002FA0246AFF28021684603F084FC16
:1033200069460AA803F002F92946204600F0F4F99C
:103330000246AFF29C21684603F076FC69460AA873
:1033400003F0F4F84021404600F0E6F90246AFF2FF
:10335000B821684603F068FC69460AA803F0E6F85D
:1033600011220AA947A0FDF74EFA9DE511B447487E
:10337000816B009A914201DD002101E0816B491CC3
:103380008163806B18BCD3E410B5FDF79CFBFDF79F
:10339000CEFBFDF70AFEFDF7C3FEFDF733FDFEF79A
:1033A0002BF8FDF7F1FBFDF727FC4FF4E134204645
:1033B000FEF7D3F82046FEF754F92046FEF7EEF963
:1033C0002046FEF771FAE000FEF7F3FAFDF7A3FFDF
:1033D000BDE81040052002F038BD1020FFF7C6FF01
:1033E0000F2002F032FDF8E7FFF7DFFB052002F0C7
:1033F0002CFDF9E71FB5FFF7C7FFFFF751FAFFF7FD
:10340000A7F90020009001900290034603904FF42A
:1034100080721FA1234802F041FB234D4FF400545A
:103420004FF4FA662146284600F06CF90028F9D1DD
:10343000FFF7D3FB304602F008FDF3E77FB5002429
:103440004FF4807500940194029423462A4617A1F4
:103450001948039402F022FB009401940294002383
:103460002A4616A11748039402F018FB02F03CFE0E
:1034700004B0002070BD0000493A0000000C02407A
:10348000000002404F55543A000000009400002014
:103490007461736B446965754B6869656E436F430E
:1034A00061750000E9330008001002407461736B1D
:1034B0004D61696E00000000F53300087461736BA4
:1034C0004C434400DB33000828490843284908607E
:1034D000704730B50F22C47801780123FCB1244C29
:1034E000246801F1E02104F4E064C4F5E064C4F36D
:1034F0000724C4F10405E2404478AC4085781540C7
:1035000025432A0181F80024007800F01F018B4038
:103510004009800000F1E020C0F8003130BD01F02A
:103520001F0083404809800000F1E020C0F880318E
:1035300030BD104A114001430D48001F0160704723
:103540000B4A121D0029116801D0014300E081439C
:10355000116070474FF0E0210428086903D020F083
:1035600004000861704740F00400FAE70000FA0523
:103570000CED00E080FFFF1F7C4910B5884206D1AA
:103580000121084600F058FA002101204FE0784957
:10359000884206D10121022000F04EFA00210220CB
:1035A00045E07449884206D10121042000F044FA24
:1035B000002104203BE07049884206D10121082007
:1035C00000F03AFA0021082031E06C49884206D127
:1035D0000121102000F030FA0021102027E0684976
:1035E000884206D10121202000F026FA0021202067
:1035F0001DE06449884206D10121402000F01CFAF8
:103600000021402013E06049884206D1012180203A
:1036100000F012FA0021802009E05C4988420AD1BA
:1036200084150121204600F007FA00212046BDE85C
:10363000104000F001BA10BDF0B5002301240327AB
:103640000D6804FA03F21540954242D1D0F800C04B
:103650005E0007FA06F52CEA050CC0F800C091F8E8
:1036600004C0D0F800E00CFA06FC4CEA0E0CC0F8DE
:1036700000C091F804C0BCF1010F02D0BCF1020FF0
:103680001FD1D0F808C02CEA050CC0F808C091F88A
:1036900005C0D0F808E00CFA06FC4CEA0E0CC0F8A5
:1036A00008C0D0F804C02CEA020CC0F804C042687C
:1036B00091F806C00CFA03FC1FFA8CFC42EA0C02DB
:1036C0004260C268AA43C260CA79C568B2402A4350
:1036D000C2605B1C102BB3D3F0BD4FF6FF710160CD
:1036E0000021017141718171C171704708B541F4C8
:1036F00080320092C261C1610099C161C169C06933
:10370000009008BD0246002012690A4200D0012044
:103710007047006980B270470246002052690A4231
:1037200000D001207047406980B270470183704724
:10373000418370470AB101837047418370474161FB
:10374000704742694A40426170474B07DB0E9A401E
:10375000C90810B500EB8100016A0F249C40A14309
:103760000162016A1143016210BD000000000240C5
:103770000004024000080240000C02400010024019
:103780000014024000180240001C024000200240C9
:10379000EA48016841F001010160E84A002108326D
:1037A00011600268E64B1A400260031DE54A1A6088
:1037B000026822F480220260E0480C300160704709
:1037C000DE490022891C0A700870704702460020FA
:1037D000510901290CD002290CD0D849743109684B
:1037E00002F01F02012393400B4200D001207047DA
:1037F000D249F4E7D1497031F1E718B500204FF410
:10380000A06400903120FFF7E1FF0099491C00916E
:10381000A14201D00028F5D03120FFF7D7FF0028C2
:1038200000D0012018BDC5490A6822F0F80242EA1A
:10383000C00008607047C44908607047BF49002253
:1038400070310A700A70012802D0042801D10520C5
:1038500008707047BD490860704741EA82115A08F4
:1038600010B5BB4B029C03EB02421143014341EAFA
:103870000460B249091D086010BDB349086670476D
:10388000800140EA0170AD49843108607047AE495B
:1038900088667047AC49C8647047A84A0832136804
:1038A000084323F0EC63184310607047A34A0832C2
:1038B0001368084323F078431843106070479F4A09
:1038C0000832116821F003010143116070479B48E1
:1038D0000830006800F00C007047984A0832116800
:1038E00021F0F001014311607047944A08321168D9
:1038F00021F4E051014311607047904908310A6892
:1039000022F4604242EAC0000860704770B58B4AFA
:10391000083211688F4C11F00C0104D06610042994
:1039200003D0082903D004601BE0066019E0834936
:10393000091D0B68C3F380550B6803F03F0315B1F5
:10394000B6FBF3F301E0B4FBF3F30C680968C4F3CE
:1039500088146343C1F30141491C4900B3FBF1F1F1
:10396000016011680F2303EA11117B4B5C5C016855
:10397000E14041601468072505EA94241C5D21FAA2
:1039800004F48460126805EA52329A5CD140C16046
:1039900070BDC0F30121032908D1684A08321168BB
:1039A00021F4F8136D4901401943116063497031E6
:1039B0000A68C0F30B0002430A6070476349443948
:1039C0000860704761494039086070475E49C1F836
:1039D0005C017047594A30320029116801D0014317
:1039E00000E0814311607047544A34320029116865
:1039F00001D0014300E08143116070474F4A3832E3
:103A00000029116801D0014300E081431160704733
:103A10004A4A40320029116801D0014300E0814345
:103A200011607047454A44320029116801D00143B2
:103A300000E0814311607047404A1032002911684C
:103A400001D0014300E08143116070473B4A1432CA
:103A50000029116801D0014300E0814311607047E3
:103A6000364A18320029116801D0014300E0814331
:103A700011607047314A20320029116801D001439A
:103A800000E08143116070472C4A243200291168FC
:103A900001D0014300E0814311607047274A503252
:103AA0000029116801D0014300E081431160704793
:103AB000224A54320029116801D0014300E08143B9
:103AC000116070471D4A58320029116801D0014326
:103AD00000E0814311607047184A60320029116884
:103AE00001D0014300E0814311607047134A643202
:103AF0000029116801D0014300E081431160704743
:103B00000E4A0D320029117801D0014300E08143B3
:103B10001170704709487430016841F0807101608C
:103B200070470146054A00200C3212680A4200D054
:103B30000120704701490E3108707047003802407B
:103B4000FFFFF6FE1030002400004742800E47427F
:103B50000000FFFF0024F40020010020FFFCFF0F05
:103B600010B501210C022046FFF78EFF2046BDE86C
:103B700010400021FFF788BF30B54268C84B0C7970
:103B80001A400B6842EA0422134343608268C54B23
:103B90004D791A40D1E9034323438C6844EA450434
:103BA000234313438360C26A097D22F47002491ED5
:103BB000C9B242EA0151C16230BD00210160017108
:103BC00041718160C1600161012101757047B64B8F
:103BD00010B5D3F80423B5490A40D0E900142143B5
:103BE000D0E90240044321431143C3F8041310BD3C
:103BF0000021016041608160C160704700298168D7
:103C000002D041F0010101E021F001018160704723
:103C10004268A74B1A400A43426070474162826281
:103C20007047426822F01F020A43426070479E4973
:103C30000028D1F8040302D040F4000001E020F491
:103C40000000C1F80403704797490028D1F8040325
:103C500002D040F4800001E020F48000C1F80403A9
:103C6000704770B5072409290AD9C568A1F10A0669
:103C700006EB4606B440A543B3401D43C56007E0CC
:103C8000056901EB4106B440A543B3401D430561FE
:103C90001F23072A09D2446B521E02EB8202934073
:103CA0009C4391400C43446370BD0D2A09D2046BC0
:103CB000D21F02EB820293409C4391400C43046369
:103CC00070BDC46A0D3A02EB820293409C4391405E
:103CD0000C43C46270BD816841F0804181607047CF
:103CE000014600208968490200D50120704700295B
:103CF000816802D041F4806101E021F4806181603B
:103D000070470029816802D041F0020101E021F0F2
:103D10000201816070474268491E22F4604242EA13
:103D20004131416070470029416802D041F400618F
:103D300001E021F4006141607047C06C80B27047BF
:103D40005948D0F8080370470029816802D041F42F
:103D5000807101E021F480718160704700298168E1
:103D600002D041F4007101E021F4007181607047DC
:103D70004D490028D1F8040302D040F4005001E07E
:103D800020F40050C1F80403704770B507240929D6
:103D90000AD9C568A1F10A0606EB4606B440A54358
:103DA000B3401D43C56007E0056901EB4106B4401F
:103DB000A543B3401D430561836BC3F30154121B3C
:103DC000921C02EB82041F22A2409343A1400B43AA
:103DD000836370BD826B491E22F4401242EA015196
:103DE0008163704708B508440090026008BD82688E
:103DF00022F470220A4382607047826822F44012E3
:103E00000A4382607047816841F480018160704795
:103E1000014600208968490200D501207047002929
:103E2000416802D041F4806101E021F48061416089
:103E300070470029416802D041F4805101E021F42B
:103E400080514160704708B50844283000900068F0
:103E500080B208BD01238B4041680AB1194300E0DC
:103E60009943416070470246002012680A4200D020
:103E700001207047C9430160704730B502460020F9
:103E800053680C0A01258D4011682B40214202D055
:103E9000002B00D0012030BD6FEA11210160704776
:103EA000FFFEFFFCFDF7FFC000200140E030FCFFFB
:103EB000FFFD3FFF2DE9F043016821F001010160A2
:103EC0000021016041608160C16001612121416187
:103ED000B849B84A3D251039904202D18D60BDE8FD
:103EE000F083B44A4FF474661832904201D18E6068
:103EF000F5E7B04A4FF474173032904201D18F6029
:103F0000EDE7AC4A4FF0746C4832904202D1C1F8F0
:103F100008C0E4E7A74BA84A6033984201D1CA60C1
:103F2000DDE7A44CA54B7834A04201D1CB60D6E7A5
:103F3000DFF88082A24C08F19008404501D1CC60A6
:103F4000CDE7DFF870824FF03D5908F1A8084045F1
:103F500002D1C1F80C90C2E79A49DFF868820839AB
:103F6000404501D10D60BAE7964D1835A84201D100
:103F70000E60B4E7934D3035A84201D10F60AEE733
:103F8000904D4835A84202D1C1F800C0A7E78D4D39
:103F90008C496035091FA84201D10A609FE7894A10
:103FA0007832904201D10B6099E7864A9032904274
:103FB00001D10C6093E7834AA83290428FD1C1F8B7
:103FC00000908CE730B503687F4ACC6813400A68DC
:103FD0002243D1E905452C432243CC6922430C6A94
:103FE00022434C6A22438C6A22434C6B22438C6BE3
:103FF00022431A430260426922F00703D1E90B24ED
:1040000022431A4342610A6942604A6882608968B1
:10401000C16030BD0021016041608160C16001610B
:1040200041618161C161016241628162C16201637A
:104030004163816370470029016802D041F00101AA
:1040400001E021F00101016070470029016802D000
:1040500041F4004101E021F4004101607047002972
:10406000016802D041F0200101E021F0200101604F
:10407000704741607047406880B27047002A02680C
:1040800002D042F4002201E022F400220260016129
:1040900070470029016802D041F4802101E021F439
:1040A0008021016070470AB101617047C1607047AB
:1040B000014600200968090300D501207047014628
:1040C00000200968C90700D001207047406900F04E
:1040D0003800704702463B4B00209A4202D2354AD4
:1040E000103A01E0374A103A8B0001D5526800E0DF
:1040F0001268364B1A400A4200D001207047314AFC
:10410000904202D22B48103801E02E4810382F4A36
:104110008B0001EA020101D5C160704781607047E0
:104120000B0607D5436912B143F0800301E023F089
:1041300080034361802908D0002A026801F01E0133
:1041400001D00A4300E08A430260704730B51D4A3F
:104150000024904202D2174B103B01E0194B103B58
:104160001B4A114205D01E2202EAD12502682A40CC
:1041700002E0406900F08002880001D5586800E044
:104180001868124B1840084201D002B101242046A1
:1041900030BD0C4A904202D20648103801E009486E
:1041A00010380A4A8B0001EA020101D5C16070474C
:1041B00081607047106002403D000020400F0020E9
:1041C00000003D20106402403F801CF07D0F7D0FF9
:1041D0003C0F3C0FFE4910B5884206D1012108462C
:1041E000FFF752FC002101205BE0B0F1804F09D0C5
:1041F000F84988420DD101210220FFF73BFC002144
:10420000022070E001210846FFF734FC0021012064
:1042100069E0F149884206D101210420FFF72AFC18
:10422000002104205FE0ED49884206D101210820E9
:10423000FFF720FC0021082055E0E949884206D11B
:1042400001211020FFF716FC002110204BE0E5496A
:10425000884206D101212020FFF70CFC00212020FC
:1042600041E0E149884206D101210220FFF70CFC20
:104270000021022015E0DD49884202D101210C0411
:104280000AE0DB49884202D101214C0404E0D9490B
:1042900088420AD101218C042046FFF7F5FB00215A
:1042A0002046BDE81040FFF7EFBBD349884206D156
:1042B00001214020FFF7DEFB0021402013E0CF4921
:1042C000884206D101218020FFF7D4FB0021802005
:1042D00009E0CB4988420AD1841501212046FFF725
:1042E000C9FB00212046BDE81040FFF7C3BB10BD4D
:1042F00030B50288B64BBC4C98420DD0A0420BD0D2
:10430000B0F1804F08D0B34DA84205D0B24DA842BD
:1043100002D0B24DA84203D122F070054A882A4348
:10432000AF4DA84206D0AF4DA84203D022F440754D
:104330000A892A4302804A68C2620A880285984232
:1043400001D0A04201D1897A01860121818230BD4C
:104350004FF0FF3141600021018001814180817275
:104360007047018582827047028822F070020A43FA
:104370000280704741627047C1627047406A70476F
:10438000008D70470029018802D041F0020101E050
:1043900021F00201018070470029018802D041F01C
:1043A000040101E021F00401018070470029018827
:1043B00002D041F0800101E021F0800101807047CE
:1043C000028822F00802028002880A4302807047B5
:1043D000028822F44072028002880A4302807047F9
:1043E0000029018802D041F0010101E021F0010122
:1043F0000180704730B5028C22F001020284028CE9
:104400008388048B22F0020224F073050C882C436D
:104410008D8915434A882A436D4DA84202D0724DBA
:10442000A8420DD122F00805CA8923F440732A431B
:1044300022F004058A882A430D8A1D434B8A2B43A8
:104440008380048389684163028430BD70B5028C27
:1044500022F010020284028C8488038B0D8823F4DE
:10446000E6464FF6FF7303EA052535438E8922F0B1
:10447000200203EA061616434A8803EA0212324370
:10448000534EB04202D0584EB04215D122F08006B1
:10449000CA8924F4406403EA0212324322F040063F
:1044A0008A8803EA021232430E8A03EA860626430A
:1044B0004C8A03EA840434438480058389688163D9
:1044C000028470BD70B5028C22F480720284028C6A
:1044D0008488838B0D8823F073031D4322F40073BB
:1044E0008E894FF6FF7202EA06261E434B8802EAC7
:1044F00003233343364EB04202D03B4EB04215D177
:1045000023F40066CB8924F4405402EA03233343A6
:1045100023F480668B8802EA032333430E8A02EA7F
:10452000061626434C8A02EA0414344384808583A9
:104530008968C163038470BD70B5028C22F4805217
:104540000284048C8288838B0D8823F4E6464FF620
:10455000FF7303EA0525354324F400568C8903EAEA
:10456000043434434E8803EA06362643184CA042EE
:1045700002D01D4CA04205D122F480440A8A03EAED
:10458000821222438280858389680164068470BD1B
:10459000002101804180818081608181C18101820F
:1045A0004182704730B50124058C00F118038C401E
:1045B000A543058431B308292CD0091FC1F34E004F
:1045C0001844016848F6FF731940016001681AE059
:1045D000000001400004004000080040000C0040C2
:1045E0000010004000140040000401400040014061
:1045F000004401400048014000180040001C0040F9
:104600000020004006E04FF6FF7303EA0222114348
:10461000016030BD03EB510001684FF68F73194004
:1046200001600168F3E74163704781637047C163CC
:10463000704701647047028B22F070020A430283C4
:104640007047028B4FF6FF7322F4E04203EA012128
:10465000114301837047828B22F070020A438283E8
:104660007047828B4FF6FF7322F4E04203EA012188
:10467000114381837047028B22F008020A430283B0
:104680007047028B4FF6FF7322F4006203EA0121A8
:10469000114301837047828B22F008020A43828310
:1046A0007047828B4FF6FF7322F4006203EA012108
:1046B000114381837047028B22F004020A43028374
:1046C0007047028B4FF6FF7322F4806203EA0121E8
:1046D000114301837047828B22F004020A438283D4
:1046E0007047828B4FF6FF7322F4806203EA012148
:1046F000114381837047028B22F080020A430283B8
:104700007047028B4FF6FF73C2F30E0203EA0121DA
:10471000114301837047828B22F080020A43828317
:104720007047828B4FF6FF73C2F30E0203EA01213A
:10473000114381837047028C22F002020A430284F3
:104740007047028C22F008020A4302847047028CF0
:104750004FF6FF7322F0200203EA01111143018496
:104760007047028C4FF6FF7322F0800203EA0111BA
:10477000114301847047028C4FF6FF7322F40072DC
:1047800003EA0121114301847047028C4FF6FF7345
:1047900022F4006203EA0121114301847047028C74
:1047A0004FF6FF7322F4005203EA013111430184F2
:1047B000704710B50123048C8B409C430484038C08
:1047C0008A401343038410BD10B50423048C8B402E
:1047D0009C430484038C8A401343038410BD828B62
:1047E00022F440628283828B4FF6FF7303EA012139
:1047F0000A4382837047828B22F00C028283828B71
:104800000A4382837047028B22F440620283028B48
:104810004FF6FF7303EA01210A4302837047F0B5A4
:10482000048C24F010040484078B068C4FF6FF746C
:1048300004EA011527F4734704EA0331394304EA13
:1048400002220A4326F0A001294341F0100102830D
:104850000184F0BD028B22F00C020283028B0A431A
:10486000028370472DE9F0410D460E884988AA88D9
:104870002B8904460EB3042E26D0082E268C4FF624
:10488000FF7028D026F480562684A78B268C00EA59
:10489000022200EA013127F473473A4300EA033069
:1048A000104326F420420A4342F48051A08321841D
:1048B000E9882046BDE8F04191E700F062F9E98817
:1048C0002046BDE8F041C5E7FFF7A9FFE98820468B
:1048D000BDE8F04197E726F480762684A78B268CE6
:1048E00000EA012100EA0310104327F0F3073843E0
:1048F00026F420620A4342F48071A0832184E9886F
:104900002046BDE8F04176E7002101804180012288
:104910008280C180018170472DE9F0410C4600265C
:1049200049880746012501B90226A288012A00D13B
:104930000225208823890028384610D0FFF76FFF12
:10494000E1883846FFF75FFF23892A46314638461B
:1049500000F017F9E1883846BDE8F0417AE700F049
:1049600010F9E1883846FFF775FF23892A4631465A
:104970003846FFF754FFE1883846BDE8F04142E78A
:10498000406B7047806B7047C06B7047006C70471E
:1049900010B50A884B88CC881A438B8823431A4366
:1049A0000B891A434B8989891A430A43A0F844208A
:1049B00010BD0021018041808180C1800181418141
:1049C00081817047002930F8441F02D041F4004132
:1049D00001E0C1F30E01018070470029818802D0F7
:1049E00041F0040101E021F00401818070470029B9
:1049F000818802D041F0010101E021F001018180B4
:104A00007047002A828901D00A4300E08A438281EC
:104A100070478182704702460020128A0A4200D005
:104A200001207047C9430182704702460020138A63
:104A300092890B4202EA010202D0002A00D0012032
:104A40007047C943018270471143A0F8481070476E
:104A5000002A828901D00A4300E08A43828170479C
:104A60000029818802D041F0080101E021F008010D
:104A700081807047018921F0070101817047028917
:104A800022F070020A430281704700B50346FFF727
:104A9000F6FF188940F00700188100BD70B5164672
:104AA0000D46602904464FF0010231460AD000F05D
:104AB00068F829462046FFF7E2FF208940F007000A
:104AC000208170BDFFF7ABFEF3E730B504894FF6E8
:104AD000FF7505EA03231343E4B20B432343038129
:104AE00030BD10B50446FFF7F0FF208940F0770095
:104AF000208110BD10B50446FFF7E7FF208940F480
:104B00008040208110BD828822F0700282808288DD
:104B10000A4382807047028922F0070202810289DB
:104B20000A4302817047028922F0800202810289D1
:104B30000A430281704770B50589048B068C25F005
:104B400007050D434FF6FC410C4040F201110C43A8
:104B50004FF6FF7101EA031126F02206114331439B
:104B600005810483018470BD0029818802D041F051
:104B7000800101E021F0800181807047A0F8501091
:104B8000704770B5048C24F001040484058B048CF8
:104B90004FF6FF7606EA0313134325F0F3052B4384
:104BA00024F00A020A4342F001010383018470BD2C
:104BB000C74910B5884206D101211020FEF764FFD5
:104BC0000021102028E0C349884202D101214C0471
:104BD00010E0C149884202D101218C040AE0BF499A
:104BE000884202D10121CC0404E0BD4988420AD1A7
:104BF00001210C052046FEF73DFF2046BDE8104090
:104C00000021FEF737BFB749884209D10121202092
:104C1000FEF73AFF00212020BDE81040FEF734BF28
:104C200010BD7FB50446008A0D4620F44051E88847
:104C300008432082A08941F20C618843A9882A890F
:104C400011436A8902431143A181A08A20F4407173
:104C5000A8890843A0826846FEF758FE9C48844213
:104C600002D0A048844201D1039800E00298A189B3
:104C7000090400EBC00101EB0010296801D54900CF
:104C800000E08900B0FBF1F26420B2FBF0F1090111
:104C90000B096FF018056B4302EB8302A3891D0417
:104CA0004FF0320306D503EBC202B2FBF0F000F086
:104CB000070005E003EB0212B2FBF0F000F00F007A
:104CC000084320817FBD4FF416510160002181808F
:104CD000C18001810C2242818181704710B5028A16
:104CE0004C8822F470630A8822438C88C9880C435C
:104CF00022431A43028210BD00210180418081803D
:104D0000C18070470029818902D041F4005101E03F
:104D100021F4005181817047028B02F47F420283AB
:104D2000028B0A43028370470029818902D041F433
:104D3000004101E0C1F30E01818170470029818AA1
:104D400002D041F4006101E021F4006181827047EA
:104D5000C1F30801818070478088C0F30800704764
:104D6000028A22F00F020282028A0A4302827047FC
:104D70000029818902D041F0020101E021F0020105
:104D800081817047828922F40062828182890A438C
:104D900082817047028A22F020020282028A0A433C
:104DA000028270470029018A02D041F4804101E06B
:104DB00021F4804101827047818941F001018181A4
:104DC00070470029818A02D041F0080101E021F0FA
:104DD000080181827047028BD2B20283028B42EAC1
:104DE0000121018370470029818A02D041F020010E
:104DF00001E021F02001818270470029818A02D0E0
:104E000041F0100101E021F0100181827047828A97
:104E100022F004028282828A0A4382827047002939
:104E2000818A02D041F0020101E021F00201818279
:104E30007047002A828A01D00A4300E08A438282B6
:104E4000704710B5C1F3421301F01F040121A140C6
:104E5000012B07D0022B07D01430002A026805D09E
:104E60000A4304E00C30F8E71030F6E78A430260AA
:104E700010BD0246002012880A4200D0012070476F
:104E8000C9430180704730B501F01F02012400259D
:104E9000C1F3421304FA02F2012B0FD0022B0FD000
:104EA000838A4FEA11210088134204FA01F400EAD0
:104EB000040001D000B10125284630BD8389F0E708
:104EC000038AEEE70A0A01219140C9430180704735
:104ED000001001400044004000480040004C0040E9
:104EE000005000400014014000F108014FF0FF3273
:104EF000C0E90112C1600161002101607047002119
:104F000001617047426853684B6043688B60536827
:104F100099605160416008610168491C01607047F7
:104F200010B50B685A1C02D000F1080202E00269B9
:104F300004E05268546824689C42FAD953684B6074
:104F400099608A60516008610168491C016010BD68
:104F5000D0E901128A60D0E90112516001694A6802
:104F6000824201D182684A60002202610868401EC4
:104F7000086008687047000070B50D4604001FD037
:104F800000F0EBFCD4E90F21206802FB0103636011
:104F90000023A363521EA06002FB0100E060581EC4
:104FA0006064A06404F110006DB1FFF79DFF04F18F
:104FB0002400FFF799FF00BF00F0D7FC012070BD6F
:104FC000FBF736F9FEE721690029F5D001F07BF9FE
:104FD0000128F1D100F0BBFCEEE72DE9F0411746C6
:104FE0000E46050019D0502000F0DEFC040014D05D
:104FF00005FB06F0401C00F0D7FC206050B1C4E96E
:105000000F5601212046FFF7B7FF84F84D70204668
:10501000BDE8F081204600F01CFDFBF709F9FEE732
:1050200070B5044600F099FC04F124050AE0606ABA
:1050300058B1284601F047F908B101F0BFF9A06C5A
:10504000401EA064A06C0028F1DC4FF0FF36A6647F
:1050500000F08BFC00F081FC04F110050AE02069EF
:1050600058B1284601F02FF908B101F0A7F9606C9A
:10507000401E6064606C0028F1DC6664BDE870402E
:1050800000F073BC10B51346026C04468AB1CBB174
:10509000E06801F027FAE168206C091AE1602268F3
:1050A000914202D26168081AE060A06B401CA063C4
:1050B00010BD20680028F8D1606801F0C7F9002011
:1050C0006060F2E7A06801F00DFA216CA068084466
:1050D000A06061688842E8D32068A060E5E72DE918
:1050E000FF4182B098460F4604004FF0000502D001
:1050F00000261FB107E0FBF79BF8FEE7206C10B11C
:10510000FBF796F8FEE700F028FCA16BE06B81420C
:1051100013D2424639462046FFF7B4FF606A38B1E1
:1051200004F1240001F0CFF8012801D100F00FFCB8
:1051300000F01BFC012006B06AE7049808B11DB11D
:1051400006E000F012FC1DE0684601F0E9F80125D8
:1051500000F00BFC00F046FE00F0FFFB606C401C12
:1051600000D16664A06C401C00D1A66400F0FDFB79
:1051700004A9684601F0DFF830B12046FFF750FF80
:1051800000F0C2FD0020D6E700F0E7FBA06BE16B6A
:10519000884210D100F0E9FB04F11000049901F0FD
:1051A00061F82046FFF73CFF00F0AEFD0028AAD1D1
:1051B00000F0CDFBA7E700F0D8FB2046FFF730FF5B
:1051C00000F0A2FD9FE770B50546502000F0ECFB13
:1051D00004001DD0002161602160A160E160A16335
:1051E0000120C4E90F01801E6064A06484F84D5062
:1051F00004F11000FFF778FE04F12400FFF774FEBD
:1052000000231A4619462046FFF769FF204670BD65
:10521000FBF70EF8FEE710B5040009D001F0DAF84C
:10522000616888420FD1E068401EE06003D008E06A
:10523000FAF7FEFFFEE700231A4619462046FFF75D
:105240004EFF012010BD002010BD30B403680D4694
:10525000002B0CD0026CC1688C18C46041688C4271
:1052600000D3C360C168284630BC01F03BB930BCF4
:1052700070472DE9FF4383B01F46884604004FF076
:10528000000506D0002604F12409B8F1000F03D070
:1052900007E0FAF7CDFFFEE7206C10B1FAF7C8FF80
:1052A000FEE700F05AFBA06B30B341462046E568AC
:1052B000FFF7CBFF77B1E560606A28B1484601F09F
:1052C00002F808B100F043FB00F04FFB012007B0EB
:1052D000BDE8F083A06B401EA063206810B901F008
:1052E00079F8606020690028EED004F1100000F029
:1052F000EAFF0128E6D0E7E7059808B11DB106E00E
:1053000000F033FB1DE0684601F00AF8012500F0CB
:105310002CFB00F067FD00F020FB606C401C00D10E
:105320006664A06C401C00D1A66400F01EFB05A9B9
:10533000684601F000F830B12046FFF771FE00F03A
:10534000E3FC0020C3E700F008FBA06B38B100F0DD
:105350000CFB2046FFF764FE00F0D6FCA1E700F04E
:1053600004FB206830B900F0F8FA606801F040F8FA
:1053700000F0FBFA4846059900F074FF2046FFF75D
:105380004FFE00F0C1FC00288BD100F0E0FA88E766
:1053900070B50D46040009D001F01CF86168884220
:1053A00007D1E068401CE060012070BDFAF740FFC3
:1053B000FEE700232A4619462046FFF75AFF012838
:1053C000F3D1E168491CE16070BD10B50C460222C2
:1053D0000021FFF702FE08B1846310BDFAF728FF31
:1053E000FEE72DE9F041984615460F46040001D02E
:1053F0001FB107E0FAF71CFFFEE7206C10B1FAF7C7
:1054000017FFFEE7FAF714FF0646A06BE16B884230
:105410001AD2424639462046FFF734FEA06C401CA3
:1054200004D0A06C401CA06401240EE0606A002837
:10543000FAD004F1240000F046FF0028F4D0002D3B
:10544000F2D001202860EFE700243046FAF7F7FE9B
:105450002046DDE52DE9F04115460F46040001D058
:105460001FB107E0FAF7E4FEFEE7206C10B1FAF78F
:10547000DFFEFEE7FAF7DCFE0646A06BE0B1394638
:105480002046FFF7E2FEA06B401EA063606C401C4C
:1054900004D0606C401C606401240EE02069002888
:1054A000FAD004F1100000F00EFF0028F4D0002D17
:1054B000F2D001202860EFE700243046FAF7BFFE63
:1054C0002046A5E510B5040006D000F046FAA46B0E
:1054D00000F04BFA204610BDFAF7AAFEFEE710B521
:1054E00008B1806B10BDFAF7A3FEFEE710B504000B
:1054F0000BD03348002100BF00EBC1025368A34228
:1055000006D1002240F8312005E0FAF791FEFEE7CF
:10551000491C0829F0D3206800F09BFA2046BDE81A
:10552000104000F096BA90F84C00704780F84C108C
:10553000704790F84D00704710B518B1806B20B1DE
:10554000002010BDFAF774FEFEE7012010BD10B573
:1055500028B1816BC06B814204D1012010BDFAF7E4
:1055600067FEFEE7002010BD10B5154B002200BFFE
:1055700053F832401CB1521C082AF9D310BD43F82D
:10558000321003EBC201486010BD70B50D460446F1
:1055900000F0E3F9626C0020521C00D16064A16C41
:1055A000491C00D1A06400F0E0F9A06B20B92946A5
:1055B00004F1240000F073FE2046BDE870402FE5A2
:1055C0004403002070B500244160BF4D006191424A
:1055D00006D8D11A8269914206D2011DE86807E017
:1055E0009A4203D2994201D3012403E0011DA86825
:1055F000FFF796FC204670BDFEB5B34C1D46034632
:1056000027680020089E002F08D08DE80E0035B1D5
:1056100000232A4669463846FFF7E3FEFEBD00F048
:10562000DCFE01284FF0000305D000226946206807
:10563000FFF755FDFEBD3246F8E770B5054600F0B0
:1056400080FDA14E04467068844203D200F078F8D1
:10565000012000E0002028602046746070BD9A4C54
:10566000A068016839B1C0680021006800F0E7F85F
:1056700000F095F8F4E701210020F7E710B500F0FD
:105680006CF9914C206880B99048FFF72DFC8F4849
:105690001430FFF729FC8D48A0601430E060002230
:1056A0000C210A20FFF799FC2060BDE8104000F0B3
:1056B0005CB91FB5FFF7E2FF8348006868B10020BE
:1056C0000221CDE90010029003460A02039080A156
:1056D000814800F0E3F9002802D1FAF7A9FDFEE7BE
:1056E00004B010BD2DE9F0471E46DDF820901746A6
:1056F0000D00804612D0282000F056F904000AD090
:10570000FFF7BCFFC4F80080C4E90657C4E9086984
:10571000201DFFF7F4FB2046BDE8F087FAF788FD6F
:10572000FEE710B5044600F018F9606908B10124DD
:1057300000E0002400F019F9204610BD006A70470F
:10574000F8B5614D20E0C1680E68C068C468201DCE
:10575000FFF7FEFB616A20468847E069012813D104
:10576000A0693044B04206D924616060211DA86858
:10577000FFF7D6FB08E000200346014600903246C2
:105780002046FFF739FF38B1A86801680029DAD14F
:10579000E968C5E90210F8BDFAF74AFDFEE770B501
:1057A00088B002A8FFF749FF0546474E3DE0069C3A
:1057B00024B1606910B1201DFFF7CAFB049830B115
:1057C000012832D0022820D003282ED12AE00598C3
:1057D000A169034601442A462046FFF7F3FE01284B
:1057E00023D1616A20468847E06901281DD1002045
:1057F00000900598A1690023421819462046FFF73A
:10580000FBFE90B9FAF714FDFEE70598A06130B1F0
:1058100041192B461A462046FFF7D4FE05E0FAF759
:1058200007FDFEE7204600F014F900231A4604A9FC
:105830003068FFF71EFD0028B9D108B070BD2DE912
:10584000FC410F46054600F0CDFA01A8FFF7F5FE32
:105850000446019818B100F057FABDE8FC811A4ED1
:1058600037BBA54224D800F04FFAB0682746C0687D
:10587000C468201DFFF76CFBE069012811D1A06905
:105880002B4641193A462046FFF79CFE012808D1D5
:1058900000200346014600902A462046FFF7ACFE52
:1058A00018B1616A20468847D7E7FAF7C1FCFEE7DE
:1058B000291B3068FFF769FE00F026FA0028CCD1DA
:1058C00000F045F8C9E70000300100208403002003
:1058D000546D7220537663005F56000810B5031FA5
:1058E0004FF080741C601B1F1960191F00230B6090
:1058F00014390A60091FDA1E44380A6010BD2648B0
:1059000042F210710068B0FBF1F14FF0E020491E47
:105910004161072101617047204810B5016841F4D9
:105920007C010160016841F07C410160FFF7E7FF05
:105930001B4900200860FAF749FC1A48016841F049
:1059400040410160FAF738FC002010BD7047134950
:105950004FF080501C390860704710B5FAF768FCAA
:105960000F480168491C016010BD0D490868401EC0
:10597000086001D1FAF763BC7047084910B51C39BB
:105980004FF080500860FAF753FC00F06CF9BDE866
:1059900010400020FAF753BC0000002020ED00E08A
:1059A0004001002034EF00E02DE9F04104460025DD
:1059B00000F018FA374A02F10801506801F10803B3
:1059C00060B93548086000204FF420564860C3E9AC
:1059D00000063148C0E900360120506042F2FF70F5
:1059E00094B31034660704D004F00706C6F1080625
:1059F0003444661E864227D226480968083001E0F2
:105A0000084631464E68A64202D20E68002EF7D1F3
:105A1000994219D005680B68036048681035001B6F
:105A200020280DD90B1958601A484C6008305E6860
:105A300000E0204604686768B742FAD31C60036040
:105A400048681168081A106000F05EF92846BDE841
:105A5000F08110B5002817D0A0F1100400F0C2F9B1
:105A60000C486168083000E01046026853688B42B9
:105A7000FAD322600460074861680268114401603B
:105A8000BDE8104000F040B910BD02480068704702
:105A90007047000044010020B00300202DE9FF5FA3
:105AA000DDE90E68109F15468A465FEA000B04D0B8
:105AB000052E05D3FAF7BCFBFEE7FAF7B9FBFEE7C4
:105AC0004C20FFF771FF04001CD0A80081469FB155
:105AD0003846206398B1A522494600F015FD6FF0C5
