:020000040800F2
:1000000078300020B5030008D9030008DB0300089E
:10001000DD030008DF030008E10300080000000022
:100020000000000000000000000000009D0100082A
:10003000E303000800000000E1010008F756000893
:10004000CF030008CF030008CF030008CF03000848
:10005000CF030008CF030008CF030008CF03000838
:10006000CF030008B7050008CF0300089504000877
:1000700057040008E1040008CF0300080904000841
:10008000CF03000811040008CF030008CF030008C5
:10009000CF030008CF030008CF030008CF030008F8
:1000A000CF0300081105000831050008CF03000840
:1000B000330500085305000873050008CF03000846
:1000C000CF030008CF030008CF030008B3050008E2
:1000D000CF030008E9030008CF030008CF0300089E
:1000E000CF030008CF030008CF030008CF030008A8
:1000F000CF030008CF030008CF030008B7040008AF
:10010000CF030008CF03000893050008B5050008D9
:10011000CF030008CF030008EB040008FF04000829
:10012000CF030008CF03000833040008CF03000802
:10013000CF030008CF030008CF030008CF03000857
:10014000CF030008CF030008CF030008CF03000847
:100150004D040008CF030008CF030008CF030008B8
:10016000CF030008CF030008CF030008CF03000827
:10017000CF030008CF030008CF030008CF03000817
:10018000CF030008CF030008DFF80CD006F03EFBD9
:1001900000480047C531000878300020234B19681B
:1001A0000868B0E8F04F80F309884FF0000080F352
:1001B000118870470000000003480068006880F361
:1001C000088862B600DF00BF08ED00E0DFF80C0031
:1001D000016841F470010160704700BF88ED00E0E4
:1001E000EFF30980114B1A681EF0100F08BF20EDC5
:1001F000108A20E9F04F106008B54FF0140080F32A
:10020000118805F04EFD4FF0000080F31188BDE825
:10021000084019680868B0E8F04F1EF0100F08BFDA
:10022000B0EC108A80F30988704700BF5C010020A1
:10023000EFF311804FF0140181F31188704780F3C0
:10024000118870470CB500205149019000900A6850
:1002500042F480320A604FF4A0630A6802F400326C
:100260000092019A521C0192009A12B9019A9A4284
:10027000F3D10A68920334D50120009044484030FD
:10028000026842F0805202604248026842F48042B2
:1002900002603F48083002680260026842F400428F
:1002A0000260026842F4A0520260031F3A4A1A60D8
:1002B0000A6842F080720A600A689201FCD5374AE7
:1002C00040F205611160016821F0030101600168DD
:1002D00041F0020101600168C1F381010229FAD1F4
:1002E0000CBD00900CBD2A4810B5016841F0010119
:1002F0000160274A0021083211600268284B1A4029
:100300000260031D274A1A60026822F480220260FC
:100310001F480C300160FFF795FF23494FF0006044
:10032000086010BD70B51A4C083420681F4A10F0E0
:100330000C011F4804D05510042903D0082903D00C
:1003400002601BE0056019E01149091D0B68C3F349
:1003500080560B6803F03F0316B1B5FBF3F201E0E2
:10036000B2FBF3F20B680968C3F388135A43C1F375
:100370000141491C4900B2FBF1F1016021680C4ABE
:10038000C1F30311121D515C0268CA40026070BDC6
:10039000003802400070004008544007003C024012
:1003A000FFFFF6FE1030002408ED00E00024F4000A
:1003B000000000200648804706480047FEE7FEE7A9
:1003C000FEE7FEE7FEE7FEE7FEE7FEE7FEE7FEE705
:1003D000E7020008890100087047FEE7FEE7FEE734
:1003E000FEE770477047704710B5734C40F22551D7
:1003F000204604F006FC002805D02046BDE8104049
:10040000202104F0FBBB10BD6C496D4803F07FBD9B
:1004100070B56B4D6B4C30352146284603F054FDCA
:10042000002805D021462846BDE8704003F06FBD86
:1004300070BD10B56449654803F069FD64484178B2
:10044000007841EA00206349088010BD5F48624996
:10045000483003F05CBD70B5594D604C483D2146B5
:10046000284603F031FD002813D02146284603F02A
:100470004EFD5B4801F09FFC00280AD1594C002139
:10048000204604F0FDFA2046BDE87040012104F04A
:10049000F7BA70BD70B54A4D534C603D21462846B1
:1004A00003F012FD002805D021462846BDE8704023
:1004B00003F02DBD70BD70B5414C4C4D48342946FC
:1004C000204603F001FD002809D00021204603F05A
:1004D00070FC29462046BDE8704003F018BD70BD91
:1004E00037483649303803F012BD10B50121404875
:1004F00004F065F93F480168491C016010BD10B562
:1005000001213D4804F05BF92B497A20888010BD19
:1005100010B53A4C0121204604F051F92088C1065B
:100520003748016801D5491E00E0491C016010BD33
:10053000704710B501218C07204604F040F920884F
:10054000C1063048016801D5491E00E0491C016020
:1005500010BD10B52C4C0121204604F030F9208844
:10056000C1062A48016801D5491E00E0491C016006
:1005700010BD10B5264C0121204604F020F920883A
:10058000C1062448016801D5491E00E0491C0160EC
:1005900010BD10B5204C0121204604F010F9208830
:1005A000C1061E48016801D5491E00E0491C0160D2
:1005B00010BD704770477047001001402080002038
:1005C00070600240008020200080201040640240C3
:1005D0006002002018000020008800200088001021
:1005E0007E0200200048004020800010008000288B
:1005F00000100040C800002000140040000001402E
:100600001C000020200000200004004024000020E6
:10061000000800401C010020000C004028000020C1
:1006200070B50546002405F057FEFE4902E02A5D3C
:100630000A55641C8442FADBBDE870400121FA4887
:1006400003F0B7BB70B5F94D06460024315D0029B3
:100650000BD0284604F03AFA8021284604F0C7FA65
:100660000028F9D0641CE4B2F0E770BD70B5EF4E1D
:1006700005460024002D0DD02946304604F026FA08
:100680008021304604F0B3FA0028F9D0641CE4B2AB
:10069000032CEFD370BD73B50C460020FFF7E6FFC7
:1006A000E3A0FFF7CFFFDF482246E2A1823806F041
:1006B00027F9DC488238FFF7C5FFDFA0FFF7C2FF4C
:1006C000DFA0FFF7BFFFD748DAA18238009A06F013
:1006D00017F9D44E0024D54D823E2846315D04F0F2
:1006E000F5F94021284604F082FA0028F9D0641C6C
:1006F000142CF2DBD2A0FFF7A5FFFF20FFF7B6FF17
:10070000FF20FFF7B3FFBDE87C40FF20AEE770B5E8
:1007100005460C46C6A0FFF795FFC2482246C5A174
:10072000823806F0EDF8BF488238FFF78BFFC5A08E
:10073000FFF788FF2846FFF785FFC1A0FFF782FF7C
:10074000BDE87040FF2091E777B5BEA185B00646B1
:10075000D1E90001CDE90001B9A0002200680390B1
:10076000B3A0B04D0068283DA5F128030290AD4C20
:100770001146A3F13200A95499548154A154521C3A
:10078000D2B21E2AF7D30A210170FF24447084706C
:10079000C470A448A7A15038079A06F0B1F8A1493F
:1007A00002A8503905F080FD9E4802A9823805F064
:1007B0007BFD9C486946823805F076FD99483146B4
:1007C000823805F071FD97489AA15038069A06F0D4
:1007D00097F894495039A1F1320005F065FD914830
:1007E00003A9823805F060FD8E492C706C702839A1
:1007F000AC70A1F15A0005F057FD8A488238FFF726
:100800000FFF08B070BD2DE9F74188468DA185B076
:100810000646D1E90001CDE9000189A00022006867
:10082000039083A07F4D0068283DA5F12801029028
:100830001446A1F13200AC548C548454521CD2B2F0
:100840000A2AF8D30A210170FF2747708770C77002
:10085000744878A15038079A06F052F8714902A8F6
:10086000503905F021FD6F4802A9823805F01CFDC2
:100870006C486946823805F017FD6A48314682386F
:1008800005F012FD67484146823805F00DFD6548C8
:1008900003A9823805F008FD2F706F706149AF70B1
:1008A000EC7028392C71A1F15A0005F0FDFC5D486F
:1008B0008238FFF7B5FE08B0BDE8F08170B50020C2
:1008C000FFF7D4FE5AA0FFF7BDFE56480D2259A1EE
:1008D000823806F015F853488238FFF7B3FE59A066
:1008E000FFF7B0FE594C2021204602F0C9FD024618
:1008F0004C4850A1823806F003F84A488238FFF786
:10090000A1FE1021204602F0BBFD0246454849A148
:10091000823805F0F5FF43488238FFF793FE4C4DCF
:100920008021284602F0ACFD02463E4841A18238B3
:1009300005F0E6FF3B488238FFF784FE4021284659
:1009400002F09EFD024637483AA1823805F0D8FFF2
:1009500034488238FFF776FE4FF40041204602F01B
:100960008FFD02462F4833A1823805F0C9FF2D487C
:100970008238FFF767FE4FF48041204602F080FD89
:10098000024628482BA1823805F0BAFF2548823854
:10099000FFF758FE4FF40051204602F071FD024669
:1009A000204824A1823805F0ABFF1E488238FFF7AB
:1009B00049FE4021274802F063FD024619481DA167
:1009C000823805F09DFF17488238FFF73BFE1CA0D8
:1009D000FFF738FEFF20FFF749FEFF20FFF746FE36
:1009E000BDE87040FF2041E6FEB51BA10646D1E9F7
:1009F0000001CDE900011AA000210A4D0068283D40
:100A0000A5F1280202900C46A2F132006C54545415
:100A10004454491CC9B23229F8D30A210170FF2776
:100A200047701FE01E020020B860024000500040E6
:100A300074000000256400002E7478743D000000EE
:100A4000220000002E7478743D220000000802404D
:100A500000000240001002402E76616C3D00000054
:100A60006A0000008770C7700022AFF23801FE48AC
:100A700005F046FFFC4902A805F016FCFA4802A959
:100A8000323805F011FCF8486946323805F00CFCA4
:100A90003246AFF26001F44805F032FFF249A1F1AD
:100AA000320005F001FC2F706F70EF49AF70EC70F1
:100AB00028312C71A1F15A0005F0F6FBEA483238D2
:100AC000FFF7AEFDFEBD2DE9FC4101211F2002F024
:100AD0003FFE01248DF8044000268DF806604FF695
:100AE000FF758DF80740032700958DF8057069465E
:100AF000DE4802F05FFC8DF804408DF806608DF84A
:100B0000074000958DF805706946D94802F052FCFF
:100B10008DF804408DF806608DF8074000958DF83B
:100B200005706946D34802F045FCBDE8FC817CB500
:100B300001217E2002F00CFE0024C0208DF804402C
:100B4000012500908DF8075002268DF80560694652
:100B5000C94802F02FFC06208DF8044000908DF863
:100B600007508DF805606946C04802F023FC042058
:100B70008DF8044000908DF807508DF805606946A7
:100B8000BB4802F017FC7CBD1FB54FF4E06002F0DB
:100B900059FB36208DF80C0000248DF80D408DF89F
:100BA0000E4001208DF80F0003A802F050FB012138
:100BB000102002F0EBFD5320ADF80000ADF8084026
:100BC000ADF8024040F2E730AC4C01906946204657
:100BD00003F04CFA0121204603F0F1FD01221146F9
:100BE000204603F0CCFD0021204603F081FA0121CC
:100BF000204603F0B3FA1FBD1FB54FF4E06002F0CA
:100C000021FB37208DF80C0000248DF80D408DF865
:100C10000E4001208DF80F0003A802F018FB0121FF
:100C2000202002F0B3FD4FF4FA70ADF80000ADF8EB
:100C30000840ADF8024040F2E730914C019069461F
:100C4000204603F013FA0121204603F0B8FD0122EB
:100C50001146204603F093FD0021204603F048FA98
:100C60000121204603F07AFA1FBD70B58AB0012138
:100C7000022002F095FD01210C2002F069FD7C4E5E
:100C800003220621304602F01EFC032207213046D3
:100C900002F019FC03220821304602F014FC032262
:100CA0000921304602F00FFC4FF4707005900220CD
:100CB0008DF8180003208DF8190000248DF81A40D3
:100CC00001258DF81B5005A9304602F073FBA420C6
:100CD000ADF81C0040F6B83008902802694EADF817
:100CE0002400ADF81E4007A9304603F0BFF960208C
:100CF000ADF80000ADF802500294ADF80C400121AF
:100D0000304603F02BFA0021304603F0F1F9694632
:100D1000304603F02DFA6946304603F055FA69462D
:100D2000304603F08DFA6946304603F0C3FA0121DC
:100D3000304603F005FD0AB070BD70B58AB00121E0
:100D4000082002F023FD0121084602F001FD4A4E71
:100D500002220021304602F0B6FB02220121304679
:100D600002F0B1FB02221146304602F0ACFB022237
:100D70000321304602F0A7FB0F20059002208DF8DA
:100D8000180003208DF8190000248DF81A40012561
:100D90008DF81B5005A9304602F00CFBBA20ADF8C7
:100DA0001C0042F21070384E0890ADF82440ADF8A7
:100DB0001E4007A9304603F059F96020ADF8000045
:100DC000ADF802500294ADF80C400121304603F01A
:100DD000C5F90021304603F08BF96946304603F02F
:100DE000C7F96946304603F0EFF96946304603F02B
:100DF00027FA6946304603F05DFA0121304603F0D8
:100E00009FFC98E770B58AB00121042002F0BEFC77
:100E100001210D2002F09CFC164E02220C213046CE
:100E200002F051FB02220D21304602F04CFB02225F
:100E30000E21304602F047FB02220F21304602F01D
:100E400042FB4FF47040059002208DF818000320FB
:100E50008DF8190000248DF81A4001258DF81B50DB
:100E600005A9304612E00000CE0100200004024037
:100E700000080240000C0240000002400010004048
:100E80000014004000040140000C004002F092FAFF
:100E9000A420ADF81C0040F6B83008902802ADF848
:100EA0002400ADF81E4007A9FE4E304603F0DEF8E0
:100EB0006020ADF80000ADF802500294ADF80C408F
:100EC0000121304603F04AF90021304603F010F9C1
:100ED0006946304603F04CF96946304603F074F930
:100EE0006946304603F0ACF96946304603F0E2F952
:100EF00021E770B5012188B0080402F051FC0121FE
:100F0000084602F025FCE84E03221146304602F066
:100F1000DAFA03220221304602F0D5FA0C200090C2
:100F200002208DF8040003208DF8050000248DF8C0
:100F3000064001258DF807506946304602F03AFA1E
:100F40004FF6FF70D94EADF808400390ADF8104051
:100F5000ADF80A4002A9304603F088F80420ADF845
:100F60001400C820ADF81C00ADF81640ADF81850BC
:100F700005A9304603F034FBCD4C00231A4603216B
:100F8000204603F096FC0121204603F018FC0122C4
:100F90001146204603F0F3FB0121304603F0DEF852
:100FA0000021204603F0A4F82BE42DE9F0470121AD
:100FB0008AB0084602F0EAFB0121022002F0E6FBBB
:100FC0000121032002F0C4FBDFF8DC9201220F2193
:100FD000484602F078FADFF8DC820122032140461D
:100FE00002F071FA02220421404602F06CFA022259
:100FF0000521404602F067FA02268DF804600327B7
:1010000038208DF80570002400908DF806400125E9
:101010008DF807506946404602F0CCF98DF804601F
:10102000E8038DF8057000908DF806408DF80750A4
:101030006946484602F0BEF94FF6FF70ADF80C4025
:1010400004904FF08049ADF81440ADF80E4003A96C
:10105000484603F00BF8DFF860A203A9504603F0FE
:1010600005F84FF004081420ADF81880ADF8200002
:10107000ADF81A60ADF81C5006A9484603F0B0FA66
:1010800006A9504603F0ACFA02231A46032148464B
:1010900003F00FFC02231A460321504603F009FC1B
:1010A0000121484603F08BFB0121504603F087FBEA
:1010B00001221146484603F062FB012211465046C8
:1010C00003F05DFB0121484603F048F8012150463A
:1010D00003F044F80021484603F00AF80021504686
:1010E00003F006F8780202F0ADF81D208DF8080034
:1010F0008DF809708DF80A408DF80B5002A802F0A7
:10110000A6F81C208DF808008DF809808DF80A409B
:101110008DF80B5002A802F09AF80AB0BDE8F087EB
:1011200070B501218AB0084602F03AFB0121102077
:1011300002F00EFB4FF42060009002208DF80400B6
:1011400003208DF8050000245C4E8DF80640012533
:101150008DF807506946304602F02CF9012209212A
:10116000304602F0B0F901220B21304602F0ABF913
:101170004FF6FF704D4EADF808400390ADF81040AB
:10118000ADF80A4002A9304602F070FF0420ADF825
:1011900014000A20ADF81C00ADF81640ADF8185048
:1011A00005A9304603F01CFA00231A4603213046F5
:1011B00003F07FFB0121304603F001FB01221146C1
:1011C000304603F0DCFA0121304603F0F8FA012240
:1011D0001146304603F0D3FA0121304602F0BEFF3B
:1011E0000021304602F084FF4FF4C06002F02AF87C
:1011F00019208DF820008DF821508DF822408DF8AF
:10120000235008A802F023F895E52DE9F0418AB0B3
:101210000121042002F0BAFA0121082002F098FA14
:101220004FF44050022600908DF8046003208DF8A2
:1012300005000024224F8DF8064001258DF8075047
:101240006946384602F0B6F84FF6FF70DFF8548072
:10125000ADF808400390ADF81040ADF80A4002A97F
:10126000404602F003FF02220C21384602F02BF91F
:1012700002220D21384602F026F90427C820ADF8D5
:101280001470ADF81C00ADF81660ADF8185005A943
:10129000404603F0A5F902231A460321404603F015
:1012A00008FB0FE000080040000002400000014081
:1012B00000400140000402400004004000100240D1
:1012C000000C02400121404603F079FA0122114648
:1012D000404603F054FA0121404602F03FFF42F23B
:1012E0001071404602F004FFFE480480A8F8005048
:1012F0004FF4C06001F0A6FF1E208DF820008DF88D
:1013000021708DF822408DF8235008A801F09FFF2E
:101310000AB0BDE8F0812DE9F0418AB00121082032
:1013200002F034FA0121084602F012FA03200226E4
:101330008DF804608DF805000024EB4F00908DF8C7
:10134000064001258DF807506946384602F032F80C
:101350004FF6FF70DFF89483ADF808400390ADF8C6
:101360001040ADF80A4002A9404602F07FFE02227A
:101370000021384602F0A7F802220121384602F087
:10138000A2F80427C820ADF81470ADF81C00ADF821
:101390001660ADF8185005A9404603F021F9022364
:1013A0001A460321404603F084FA0121404603F027
:1013B00006FA01221146404603F0E1F901214046B8
:1013C00002F0CCFE0021404602F092FEC7481430E5
:1013D0000480A8F800504FF4C06001F033FF3220C1
:1013E0008DF820008DF821708DF822408DF8235063
:1013F00008A801F02CFF8BE72DE9F0419CB00121FA
:10140000BB4802F0A5F901210D02284602F0C8F9F7
:10141000B8480024CDE90040B74802A94FF00808B9
:1014200081E81101A800CDE9054040000790800047
:10143000CDE908050AA90001012581E83100AF4E78
:101440000D94694630460E9402F07AFC0121304634
:1014500002F0AFFC03273C268DF8587015968DF8E6
:101460005B4015A9A04801F0A5FF8DF858701596AE
:101470008DF85B4015A9A24801F09CFF3804CDE926
:101480001740B001CDE9194017A802F05EFA119497
:10149000129413942806974C0F908DF840504C3CB2
:1014A0008DF841508DF850800FA9204602F022FAA5
:1014B000042301220221204602F091FA0423022291
:1014C0000321204602F08BFA04230322194620460A
:1014D00002F085FA04231A460521204602F07FFA1D
:1014E000042305220C21204602F079FA0423062267
:1014F0000D21204602F073FA042307220E21204614
:1015000002F06DFA042308220F21204602F067FA48
:101510000121204602F0E0FA0121204602F0D2FA31
:101520000121204602F028FA204602F092FA1CB06F
:10153000EFE608B54FF4E06001F084FE25208DF859
:10154000000000208DF801008DF8020001208DF8C8
:101550000300684601F07BFE08BD70B5054696B0F5
:101560000121102002F01CF90121084602F0F0F8D8
:101570000121880502F0ECF84FF4C06013900220BE
:101580008DF8500000248DF852408DF85340564E8F
:101590008DF8510013A9304601F00CFF07220921F4
:1015A000304601F090FF07220A21304601F08BFF00
:1015B0000F95ADF844400C20524DADF84040ADF8C9
:1015C0004600ADF84240ADF848400FA9284603F068
:1015D000E6F90121284603F053FA4FF4A06001F028
:1015E00031FE3A208DF854008DF855408DF8564064
:1015F00001208DF8570015A801F029FE3F4E303626
:10160000304602F015FB4FF0006000903A48694602
:101610001030CDE902040A200490281D0190001525
:10162000CDE905408010CDE9084040020A90042031
:101630000B9007940320CDE90C0430460E9402F081
:101640007FFB01224021284603F0B1FA012210213C
:10165000304602F023FC0121304602F0AAFB16B00E
:1016600070BDF0B50646012197B0480502F070F84C
:1016700001214D04284602F089F80121082002F0DA
:1016800067F86020139002208DF8500000248DF838
:1016900052408DF853401C4F8DF8510013A9384625
:1016A00001F088FE07220521384601F00CFF0722D1
:1016B0000621384601F007FF0F96ADF844400C2094
:1016C000124EADF84040ADF84600ADF84240ADF8DE
:1016D00048400FA9304603F062F90121304603F07B
:1016E000CFF915E01408004000000240000C004053
:1016F000050040004C2001405002002010640240D0
:101700000008024000100140000C0240004400406C
:101710004FF4A06001F096FD11208DF854008DF873
:1017200055408DF8564001208DF8570015A801F05E
:101730008EFDF94F384602F07BFAA8020090402057
:101740000390F64802903C200490301D0190001553
:10175000CDE905408010CDE908400420CDE90A50CC
:1017600007940320CDE90C04694638460E9402F034
:10177000E7FA01228021304603F019FA0122802184
:10178000304603F014FA01221021384602F086FB9D
:101790000121384602F00DFB17B0F0BD70B50546CB
:1017A000012196B0880401F0F1FF0121082001F029
:1017B000CFFF0121480501F0CBFF4FF4407013909B
:1017C00002208DF8500000248DF852408DF85340CF
:1017D000D34E8DF8510013A9304601F0EBFD0722DE
:1017E0000821304601F06FFE07220921304601F042
:1017F0006AFE0F95CB4EADF84040ADF844400C2545
:10180000ADF84240ADF84840ADF846500FA930461B
:1018100003F0C5F80121304603F032F94FF4A0601F
:1018200001F010FD8DF854508DF855408DF856405C
:1018300001208DF8570015A801F009FDB64D783D3F
:10184000284602F0F5F94FF000600090B648CDE967
:10185000020408200490301D01900015CDE90540D8
:101860008010CDE9084040020A9004200B900794B4
:101870000320CDE90C04694628460E9402F060FA74
:1018800001224021304603F092F9012240213046E6
:1018900003F08DF901221021284602F0FFFA012100
:1018A000284602F086FADAE6F0B50646012197B03E
:1018B000C80401F06BFF0121084601F049FF012136
:1018C000480501F045FF02208DF8500000248DF8F6
:1018D00052408DF85340954F03258DF851001395D4
:1018E00013A9384601F066FD08220021384601F0B0
:1018F000EAFD08220121384601F0E5FD0F96ADF81A
:1019000044400C208A4EADF84040ADF84600ADF89A
:101910004240ADF848400FA9304603F040F801219D
:10192000304603F0ADF84FF4A06001F08BFC0D20C1
:101930008DF854008DF855408DF8564001208DF8F3
:10194000570015A801F083FC734F603F384602F042
:101950006FF978050090744869460F38CDE90204A4
:1019600008200490301D01900015CDE9054080103D
:10197000CDE90840400207940A900420CDE90C54B8
:101980000B9038460E9402F0DBF9012240213046DC
:1019900003F00DF901224021304603F008F901223D
:1019A0001021384602F07AFA0121384602F001FA95
:1019B000F2E62DE9F0418046012196B0480501F09C
:1019C000C7FE0121080501F0E1FE01210C2001F014
:1019D000BFFE02258DF8405000248DF84240504F44
:1019E00004268DF843400F968DF841500FA93846D4
:1019F00001F0E0FC8DF840508DF842408DF84340F6
:101A0000E8028DF841504B4D0F900FA9284601F088
:101A1000D1FC08220221384601F055FD08220C2194
:101A2000284601F050FD4FF4A06001F00BFC2F2080
:101A30008DF8540005208DF855008DF856000120D2
:101A40008DF8570015A801F002FCADF84C400C20B1
:101A5000394DADF84840ADF84E00CDF84480ADF8B2
:101A60004A40ADF8504011A9284602F098FF0121E4
:101A7000284603F005F8284F1837384602F0D8F802
:101A80007006009040200390274869466038029015
:101A900031200490281D01900015CDE905408010EB
:101AA000CDE908404002CDE90A0607940320CDE9BC
:101AB0000C0438460E9402F043F901228021284696
:101AC00003F075F801221021384602F0E7F90121F0
:101AD000384602F06EF916B01BE410B5012810D09C
:101AE00003282DD0042836D0052809D1124C2046D1
:101AF00002F0ECFF4021204603F079F80028F9D0ED
:101B000010BD0E4C204602F0E1FF4021204603F0BC
:101B10006EF80028F9D010BDA0600240D00000206F
:101B2000000C0240004800407E02002000000240FD
:101B3000004C0040000802400050004000100140EE
:101B4000F94C204602F0C2FF4021204603F04FF836
:101B50000028F9D0DFE7F54C204602F0B7FF40211E
:101B6000204603F044F80028F9D0D4E701B581B04D
:101B7000019800EBC00040000090002801D0401EFA
:101B8000FAE70CBD01B581B044F2506101984843B9
:101B90000090002801D0401EFAE70CBD70B5E44D5E
:101BA00000206870044661210120FFF796FF322073
:101BB000FFF7E8FF641C022CF5D3012068707A203F
:101BC000287070BD70B5DA4D0020E87004466121C0
:101BD0000320FFF782FF3220FFF7D4FF641C022CA2
:101BE000F5D30120E8707A20A87070BD0121D1489A
:101BF00002F0DFB810B5401A029CE41A6043511A93
:101C000090FBF1F0184486E710B510EE100A04F0CE
:101C100003FD9FEDC91B53EC112B04F00BFC04F0EA
:101C20000EFD00EE100A76E710B510EE100A04F073
:101C3000F3FC9FEDC31B53EC112B04F0FBFB04F0F2
:101C4000FEFC00EE100A66E790FBF1F010B54000D4
:101C500004F0D1FC9FEDBC1B53EC112B04F0EAFB0C
:101C600004F0EDFC00EE100A55E710B5FFF7ECFFAD
:101C7000BDE81040C8E7904200DD1046884200DA17
:101C800008467047AA488030406BA949C861704730
:101C9000A7498031496BA64AD269891A00D54942C1
:101CA000814201DD01207047002070472DE9F04797
:101CB0000025A74E074601244FF400594FF48048F1
:101CC0004FF4805A00224146304601F0F1FB1020CB
:101CD000FFF74CFF274201D0012200E000224946D5
:101CE000304601F0E5FB01224146304601F0E0FBC1
:101CF0001020FFF73BFF5146304601F0C1FB00B119
:101D00002543600010F0FF04DCD12846BDE8F087D1
:101D100070B58F4E4FF4004500222946304601F041
:101D2000C7FB1020FFF722FF0120FFF7BFFF422073
:101D3000FFF7BCFFFF20FFF7B9FFFF20FFF7B6FF5B
:101D40007B4CF8342070FF20FFF7B0FF6070FF205D
:101D5000FFF7ACFFA070FF20FFF7A8FFE070FF20A7
:101D6000FFF7A4FF2071FF20FFF7A0FF6071294655
:101D70003046BDE87040012201F09ABB70B5744E48
:101D80004FF4004500222946304601F091FB102017
:101D9000FFF7ECFE0120FFF789FF4220FFF786FFE7
:101DA000044601222946304601F082FB1020FFF74D
:101DB000DDFE204670BD5E4A00211162C2795C4999
:101DC000F8310D2A09D0FF20087048708870C8705B
:101DD0000871487188710020704702780A70427853
:101DE0004A7082788A70C278CA7002790A71427920
:101DF0004A7180798871012070474D484C49F8300C
:101E00000278FF2A05D14278FF2A02D18278FF2A80
:101E100009D00A6A531C0B62C82A03DDFF21017036
:101E20004170817070470020086270474048F83068
:101E3000807970473E48F8300078400601D4012090
:101E40007047002070473A48F8300078800701D486
:101E5000012070470020704770B5354B01250026E2
:101E600093F85440BC33002803D004DDD8709E7032
:101E700005E0DC7003E0C0F10000D8709D7000291F
:101E800003D004DDD9719D7105E0DC7103E0C1F17F
:101E90000000D8719E71002A03D004DDDA729D72B1
:101EA00070BDDC7270BDC2F10000D8729E7270BD50
:101EB0001F49BC31C870C871C87270471C490120E5
:101EC000086570471A48BC30C178032907D2C17928
:101ED000032904D2C07A032801D2012070470020D0
:101EE00070471348C06FA0F5EA41303901D0012096
:101EF00070470020704751E60D48B0F90400404299
:101F000070470B48B5EEC00AD0ED0A0AF1EE10FAA0
:101F100002D230EE600A01E030EE200ABDEEC00AC7
:101F200010EE100A7047000000480040004C0040CE
:101F300014000020A0600240E5BF631ADCA54C40FD
:101F4000849E52A246DF913FEA2E4454FB21094071
:101F5000000C024010B5041E2DED048BF5489FEDDA
:101F6000F68B806E10D014DA04F045FB41EC190BAF
:101F7000204604F040FB53EC182B04F05BFA53ECC2
:101F8000182B04F051FA13E09FEDED0ABDEC048B21
:101F9000C1E504F030FB41EC190B204604F02BFBAB
:101FA00053EC182B04F046FA53EC182B04F09BF971
:101FB00053EC192B04F0B0FA04F041FB00EE100AC8
:101FC000E4E7B5EEC00AF1EE10FAABDAB1EE400A82
:101FD000A8E70028A6DA4042A4E7D64991ED120A04
:101FE000D1ED131AF1EE400A80EEA11A00EE900A2C
:101FF000F8EEE00A01EE200ABDEEC00A10EE100A6B
:1020000090E7F0EE401A9FEDCF0AF5EEC01AF1EE20
:1020100010FA01D2F1EE611AF5EEC00AF1EE10FAF3
:1020200001D2F1EE600AB5EEC01AF1EE10FA01D25B
:10203000B1EE411AF4EEC01AF1EE10FA01DDB0EE85
:10204000610AF4EEC00AF1EE10FA01DDB0EE600AAA
:10205000B4EEC01AF1EE10FA01DDB0EE410A61E70C
:10206000B448806E5EE7B348803040695AE770B587
:10207000B04D2DED048BB0EE408A05F18004E86F81
:10208000A0F5EA41303974D0A268E169D4ED030AC1
:10209000891A401A00EE100A95ED0D1A2069B8EE63
:1020A000C00A00EEC10AD5ED0C0AC0EE208A04F089
:1020B000B3FA95ED170A41EC190B20EE280A10EE41
:1020C000100A04F0A9FA41EC100B04F045FC51ECA5
:1020D000100B81F0004153EC192B04F0A5F904F02A
:1020E000AEFAA062206904F097FA95ED0E0AD5EDDC
:1020F000170A41EC190B38EE800A20EE200A10EE88
:10210000100A04F089FA41EC100B04F025FC53ECA2
:10211000192B51EC100B04F087F904F090FAE062EF
:1021200095ED0F0AD5ED170A38EE800A20EE200A49
:1021300010EE100A04F070FA41EC100B04F00CFCE5
:1021400051EC100B04F07BFA00EE100AB1EE400ADD
:1021500084ED0C0AB5EEC08AF1EE10FA38D0686E44
:1021600080B1012814D0022819D0032830D123E0EF
:10217000FFE79FED730A84ED0C0A84ED0B0A84EDF2
:102180000A0AE7E794ED0A0A30EE480A84ED0A0AE3
:1021900094ED0B0A30EE480A84ED0B0A05E094ED4D
:1021A0000A0A30EE480A84ED0A0A94ED0C0A30EE71
:1021B000480A84ED0C0A0BE094ED0A0A30EE480A56
:1021C00084ED0A0A94ED0B0A30EE480A84ED0B0AFE
:1021D000283494EC030AFFF714FFD5ED090AF8EE52
:1021E000E00A80EE801ABDEEC10A10EE100A2867E0
:1021F000A96E814200DDA86601202866BDEC048B33
:1022000070BD4C4900220028CA66486711D19FED75
:102210004C0A01F180008A6680ED040A47F23053CF
:10222000CB67036080ED030A4A66426042610A653B
:102230001DE777E63F483F49803090ED030AB5EE51
:10224000C00AF1EE10FA04D14A6E12B94268002AAF
:1022500009D000229FED3A0A80ED030A4A664260E7
:10226000C169816003E75DE63248C0ED120A80ED86
:10227000130A57E62F4A30B4D46F02F18003844228
:1022800009D1D46E8C4206D1D3ED040AF4EE400A93
:10229000F1EE10FA0FD0D166916E09B90521916661
:1022A000D969996083ED040AD0670020906793EDA7
:1022B000030A30BCDBE630BC70471E4B30B48033C1
:1022C0001C4A5C68844209D1D3ED030AF4EE400A4B
:1022D000F1EE10FA02D1546E8C42ECD0D56F47F279
:1022E0003054A54219D13225D56605259566A04200
:1022F00013DAB5EEC00A0124F1EE10FA5C6102DDDA
:10230000DC69844207DCB5EEC00AF1EE10FA04D2B3
:10231000DC69844201DAB1EE400A5860516683ED0F
:10232000030A0020906730BCA1E6C4E7014647F2EB
:102330003050C2E7140000209A9999999999B93FB1
:10234000000000006F12833A1FED030A92E710B5F8
:1023500001462DED028BB0EE418AF0EE608AFE4C14
:10236000D4ED000AF8EEE00AF4EE400AF1EE10FABD
:102370000DD1A4F18000C06E884208D1D4ED010ACD
:10238000F8EEE00AF4EE680AF1EE10FA49D0FDEE3C
:10239000C00AC4ED000AD4ED070AF8EEE00A30EEF8
:1023A000600ABDEEC00A10EE100A1FED1B0AFFF70F
:1023B00061FF94ED070AF8EEC00A78EEE00AFDEE40
:1023C000E00A10EE900A002800DA4042B8EEC00A97
:1023D000642819DDF4EEC08AF1EE10FA01DCB1EEEA
:1023E000488A18EE100A04F017F900BF04F027F924
:1023F000FDEEE80ABDEC028B00EE100ABDE81040CD
:10240000002110EE900A58E738EEC00A10EE100ACC
:1024100004F002F99FEDD11B53EC112B04F00AF8E4
:10242000E4E7BDEC028B0EE4CB4910B54869012806
:102430002ADDCA694868801AFFF7CBFD052809DA4A
:102440004869421C4A61B0F57A7F1DDDBDE8104045
:102450000020D6E6C04A0520803A4B69D066B3F525
:10246000FA7F906602DD40F2F51048614A68C8695B
:10247000904202DDBFEE000A01E0B7EE000A81EDF6
:10248000030ABDE81040F2E510BD70B5B24991ED08
:10249000040AB5EEC00AF1EE10FA73D1A1F1800280
:1024A000936E002B6ED0486847F23054A04269DA30
:1024B00091ED030AB5EEC00AF1EE10FA7DD0D56FAA
:1024C000A54260D1B5EEC00A1346F1EE10FA5B6C7E
:1024D00003DDCD69C41AAC4208DBB5EEC00AF1EEEB
:1024E00010FA17D2CC690344A34213DD4B69032BC6
:1024F00048DACB69C01AFFF76CFD0A2848680ADA87
:102500008861002090661FED720AD06681ED030A93
:102510000220486179E092ED1A0AD1ED030ACB69F5
:10252000B8EEC00A984260EE200A92ED110AB8EEA9
:10253000C01A80EE810A0FDDFFF743FD4868C969C4
:10254000401AFFF746FD00EE900AB8EEE01AD2ED11
:102550000B0A40EE010A0EE0FFF733FD4868C96937
:10256000401AFFF736FD00EE900AB8EEE01AD2ED01
:102570000B0A50EE410A92ED1A0AB8EEC01A80EE2C
:10258000810A42E046E0744AB5EEC00A803AD2EDD4
:10259000100AF1EE10FA18DD01EE100AF8EEC11A79
:1025A00001EE103AB8EEC11A41EE401AB8EEE01A48
:1025B00071EEC11A91ED071A00E029E0B8EEC11AD8
:1025C000F4EEC11AF1EE10FA1BD3B5EEC00AF1EE2B
:1025D00010FA1AD201EE100AF8EEE00AF8EEC11A6B
:1025E00001EE103AB8EEC11A41EE401A31EEA01ACF
:1025F000D1ED070AF8EEE00AB4EEE01AF1EE10FAB7
:1026000003DDC969401AFFF7A5FCBDE870402EE55F
:102610008868F6E770BD5048A0F180014269022A3F
:102620000CDA1FEDB90A002380ED040A80ED030ADD
:1026300047F230524B66CA67C0E900238B6F4648A9
:102640005B1C8B6780388A6D406D934202DB8A6722
:10265000096D01B12CE40020FCE73F4A803A936FFA
:102660005B1C9367834204DD906E084490660020F3
:10267000906757E470B5FFF73FFC374DE861FFF70F
:10268000D3FEA5F180044FF0FF31E26EA06E002A68
:102690000BDD90420ED006DA216F88420ADAFFF78E
:1026A0009CFC012104E0686A02E0002831DD606FD3
:1026B000FFF7D3FFD5E90701814203D0FFF7E5FE1D
:1026C000E8692862206E002826D094ED1A0AD5ED1C
:1026D0000C0AB8EEC00A20EE200AFFF712FC94EDB7
:1026E0001A0AD5ED0B0A0246B8EEC00A20EE200AFF
:1026F000FFF707FC94ED1A0AD5ED0A0A0146B8EE79
:10270000C00A20EE200AFFF7FCFBBDE87040FFF78F
:10271000A3BBBDE870407EE770BD2DE9F041DFF856
:102720004480404601F0E8FC0B4E803E716964270E
:1027300040EA014090FBF7F40025404601F0DCFC44
:10274000716940EA014090FBF7F0011B00D5494256
:10275000322900DA6D1C07E0940000207B14AE479C
:10276000E17A743F000C00400446022DE5DBBDE831
:10277000F0812DE9F041DFF8E483404601F0BCFC34
:10278000F74E31690A2740EA014090FBF7F4002533
:10279000404601F0B1FC316940EA014090FBF7F09E
:1027A000011B00D54942322901DA6D1CADB2044645
:1027B000022DEDD3DBE710B5EB48EC4CE949C0E95D
:1027C000001400214FF4E172C0E902120222322308
:1027D000C0E90423C0E90612C0E90814C0E90A21CF
:1027E000016334306FF009040460E14CC0E9014139
:1027F0004FF4D274C460C0E90423C0E906126FF438
:102800001773C0E90813C0E90A21016310BD401A1B
:1028100000D54042142801DA012020E400201EE403
:102820002DE9F047D04ECE4DBC35307DE8760027FF
:10283000AF76CB4C4FF48058DFF83893A76102E0B5
:10284000012003F0C0F94146484600F019FE002877
:10285000F6D1A069401CA0613228F4DB307CE87618
:10286000C54807606761052003F0ADF9307DE87663
:102870000120A876A76102E0012003F0A4F9FFF788
:102880004CFF71688842F7DCA069401CA0613228C7
:10289000F5DB307CE876BDE8F087B3490A6842434F
:1028A000C86892FBF0F0C4E410B5FFF736FFAE4BFA
:1028B00002461146586AFFF7AAFFA949BC3108B180
:1028C000187C07E0586A904201DD002000E00120FA
:1028D0008876187DC87610BD00B5FFF7DEFFA249E7
:1028E000486200BD9D490020243108609C49086170
:1028F0009FE49D4934310A684243C86892FBF0F076
:1029000097E410B5FFF735FF974B02463433114675
:10291000586AFFF77CFF9249BC3108B1187C07E088
:10292000586A904201DD002000E001208875187D82
:10293000C87510BD00B5FFF7DCFF8B493431486224
:1029400000BD2DE9F047884E854D3436BC35307DCD
:10295000E8754FF0000885F81680814C854F4FF4DC
:102960008069C4F8188002E0012003F02CF9494680
:10297000384600F085FD0028F6D1A069401CA06112
:102980003228F4DB307CE875FFF7ACFF307DE8756A
:102990000120A875C4F8188002E0012003F013F9A3
:1029A0008021384600F06CFD0028F6D1A069401C5B
:1029B000A0613228F4DB307CE8756CE76A4A343277
:1029C000C2E9090135E438B5674C0D463434616815
:1029D0000091D4E902122368FFF70CF9C4E9090554
:1029E00038BD614B383BDA880021D888821A00D57F
:1029F0005242322A01DA491C89B202460229F4D332
:102A0000002800DA404214E45748002168304FF4AF
:102A10008062C0E9001202226423C0E9022313028B
:102A20008161C0E90432C0E907320122C0E909210D
:102A300019E418E417E4401A00D54042142801DADA
:102A4000012010E400200EE400B5FFF7CAFF46495C
:102A5000683108614248BC30827C8A61C07C486130
:102A60008A68904201DD012000E00020486200BD3C
:102A70003D4B00B56833D3E90012D869FFF7FBF886
:102A8000D861D3E90212186AFFF7F5F81862D9691C
:102A90001869FFF7D0FF3249BC3108B1187A09E054
:102AA0001A69D869904201DD012000E00020887495
:102AB00093F82000C87400BDDBE5DAE52DE9F14F9D
:102AC00096B0002014908DF800008DF8280026485C
:102AD00016992A4A2A4E38382A4BDFF89880204C1B
:102AE00064254FF400494FF480474FF4806A4FF457
:102AF000805B112931D2DFE801F0092A6B6F73770F
:102B0000828EA4AFBBBFC3CBD0DCFD000221104638
:102B100000F0B6FC68B100224C464946304600F051
:102B2000C7FC2146304600F0B5FC0146002216A045
:102B3000BAE001224C464946304600F0B9FC214635
:102B4000304600F0A7FC0146002217A0ACE0044884
:102B500001228030C1691CA0A6E0A7E0000400406B
:102B600014000020A8E4FFFF8802002044FDFFFFBE
:102B700050FBFFFF00100240240C00400004024004
:102B80000008024000000140524F424F54203220C2
:102B900044414E4720434841592053414E2058411B
:102BA0004E483A2020200000524F424F54203220FD
:102BB00044414E4720434841592053414E20444F01
:102BC0003A20202000000000494D553A0000000046
:102BD00001890222FBA067E041890322FDA063E096
:102BE00081890422FEA05FE0184601F085FAA16801
:102BF000052240EA014090FBF5F1FDA054E04FF0C2
:102C0000804001F079FAE168062240EA014090FB39
:102C1000F5F1FAA048E0184601F06EFAA16840EA22
:102C2000014090FBF5F64FF0804001F065FAE16855
:102C3000072240EA014090FBF5F03118F3A0FDF7C0
:102C400083FDF54801F058FA6169082240EA014025
:102C500090FBF5F1F1A027E0F34801F04DFA21696E
:102C600040EA01400A2190FBF1F10922EFA01BE0AC
:102C7000C1880A22F0A017E081880B22F1A013E09E
:102C80008021404600F0FCFB01460C22F0A00BE046
:102C9000F2480D22016BF2A006E03946404600F0F2
:102CA000EFFB01460E22F2A0FDF74EFD17B0BDE886
:102CB000F08F0121404600F0E3FB0246EFA1684699
:102CC00003F01EFE69460AA803F0EEFA0221404610
:102CD00000F0D6FB0246E9A1684603F011FE694602
:102CE0000AA803F0E1FA3946404600F0C9FB024663
:102CF000E2A100E0B6E0684603F002FE69460AA8D9
:102D000003F0D2FA4946404600F0BAFB0246DBA186
:102D1000684603F0F5FD69460AA803F0C5FA0821E4
:102D2000404600F0ADFB0246D4A1684603F0E8FD42
:102D300069460AA803F0B8FA4FF48071404600F0E3
:102D40009FFB0246CDA1684603F0DAFD69460AA85A
:102D500003F0AAFA0421404600F092FB0246C7A104
:102D6000684603F0CDFD69460AA803F09DFA80216C
:102D7000404600F085FB0246C0A1684603F0C0FD56
:102D800069460AA803F090FA4021404600F078FB1B
:102D90000246BAA1684603F0B3FD69460AA803F0EB
:102DA00083FA5146404600F06BFB0246B3A16846E9
:102DB00003F0A6FD69460AA803F076FA5946404694
:102DC00000F05EFB0246ADA1684603F099FD69463E
:102DD0000AA803F069FA4FF400542146404600F077
:102DE0004FFB0246A5A1684603F08AFD69460AA882
:102DF00003F05AFA2021404600F042FB02469FA110
:102E0000684603F07DFD69460AA803F04DFA1021DB
:102E1000404600F035FB024698A1684603F070FD7D
:102E200069460AA803F040FA2146304600F028FB24
:102E3000024692A1684603F063FD69460AA803F0C2
:102E400033FA3946304600F01BFB02468BA1684638
:102E500003F056FD69460AA803F026FA10220AA9D3
:102E600087A043E1544651469046104600F012FBBD
:102E7000024682A1684603F043FD69460AA803F0B2
:102E800013FA8021304600F005FB02467BA168461C
:102E900003F036FD69460AA803F006FA4FF4007104
:102EA000304600F0F7FA024674A1684603F028FDA8
:102EB00069460AA803F0F8F9724E2146304600F040
:102EC000E9FA02466DA1684603F01AFD69460AA8B0
:102ED00003F0EAF94FF4006A5146404600F0DAFA8E
:102EE000024666A1684603F00BFD69460AA803F096
:102EF000DBF95D465946404600F0CCFA02465FA138
:102F0000684603F0FDFC69460AA803F0CDF94FF4CA
:102F10000051404600F0BEFA024658A1684603F050
:102F2000EFFC69460AA803F0BFF93946404600F0B5
:102F3000B1FA024651A1684603F0E2FC69460AA8CC
:102F400003F0B2F94946404600F0A4FA02464BA10C
:102F5000684603F0D5FC69460AA803F0A5F92146A6
:102F6000304600F097FA024644A1684603F0C8FCD8
:102F700069460AA803F098F93946304600F08AFA03
:102F800002463EA1684603F0BBFC69460AA803F06E
:102F90008BF95146304600F07DFA024637A168466B
:102FA00003F0AEFC69460AA803F07EF9364CB11571
:102FB000204600F06FFA024630A1684603F0A0FCFC
:102FC000694663E04C415A45522046524F4E543AAE
:102FD000000000004C415A4552204C4546543A00EE
:102FE0004C415A45522052494748543A000000008B
:102FF000454E205748204C4546543A00454E2057F0
:10300000482052494748543A00000000454E2033BA
:10301000205748533A000000000C0040454E204124
:10302000524D20583A00000000040040454E204117
:10303000524D20593A000000425420424153453A33
:1030400000000000425420475249505045523A0077
:10305000434254205920546F703A000088020020E7
:10306000434254205920426F74746F6D3A0000003F
:10307000434254205820496E3A0000002564000065
:10308000493A0000000C0240000002400AA803F088
:103090000BF95146204600F0FDF90246AFF224013B
:1030A000684603F02DFC69460AA803F0FDF829469E
:1030B000204600F0EFF90246AFF24001684603F007
:1030C0001FFC69460AA803F0EFF84021404600F0D3
:1030D000E1F90246AFF25C01684603F011FC694673
:1030E0000AA803F0E1F811220AA945A0FDF78BFB1D
:1030F000DCE511B44448816B009A914201DD002166
:1031000001E0816B491C8163806B18BCD6E410B56B
:10311000FDF7D9FCFDF70BFDFDF747FFFEF700F8C3
:10312000FEF76AF9FDF730FDFDF766FD4FF4E13477
:103130002046FEF712FA2046FEF793FA2046FEF7E5
:103140002DFB2046FEF7B0FBE000FEF732FCFEF759
:10315000E2F8BDE81040052002F035BD1020FFF771
:10316000C8FF0F2002F02FFDF8E700BFFFF79CFB20
:10317000FFF7C7FB052002F026FDF7E71FB5FFF7B5
:10318000C6FFFFF718FBFFF7DCFBFFF749FB00204A
:10319000009001900290034603904FF480721BA1AF
:1031A0001F4802F039FB1F4CC820FFF7C3FBC820A3
:1031B000FFF792FB052002F006FD2021204600F0DB
:1031C0005FF9F1E77FB500244FF480750094019416
:1031D000029423462A4614A11648039402F01CFBCD
:1031E00000940194029400232A4613A114480394E6
:1031F00002F012FB02F036FE04B0002070BD0000A9
:103200004F55543A00000000940000207461736B25
:10321000446965754B6869656E436F43617500006D
:103220006B310008001002407461736B4D61696E70
:10323000000000007D3100087461736B4C43440052
:103240005D3100082849084328490860704730B5B7
:103250000F22C47801780123FCB1244C246801F1C9
:10326000E02104F4E064C4F5E064C4F30724C4F18D
:103270000405E2404478AC408578154025432A0196
:1032800081F80024007800F01F018B404009800085
:1032900000F1E020C0F8003130BD01F01F00834094
:1032A0004809800000F1E020C0F8803130BD104AAC
:1032B000114001430D48001F016070470B4A121D69
:1032C0000029116801D0014300E08143116070477B
:1032D0004FF0E0210428086903D020F004000861C1
:1032E000704740F00400FAE70000FA050CED00E03A
:1032F00080FFFF1F7C4910B5884206D10121084696
:1033000000F058FA002101204FE07849884206D1A8
:103310000121022000F04EFA0021022045E074490C
:10332000884206D10121042000F044FA0021042043
:103330003BE07049884206D10121082000F03AFAAA
:103340000021082031E06C49884206D1012110207B
:1033500000F030FA0021102027E06849884206D1A9
:103360000121202000F026FA002120201DE06449E0
:10337000884206D10121402000F01CFA00214020A3
:1033800013E06049884206D10121802000F012FA42
:103390000021802009E05C4988420AD1841501217E
:1033A000204600F007FA00212046BDE8104000F05A
:1033B00001BA10BDF0B50023012403270D6804FAFB
:1033C00003F21540954242D1D0F800C05E0007FAE2
:1033D00006F52CEA050CC0F800C091F804C0D0F83E
:1033E00000E00CFA06FC4CEA0E0CC0F800C091F8A4
:1033F00004C0BCF1010F02D0BCF1020F1FD1D0F804
:1034000008C02CEA050CC0F808C091F805C0D0F837
:1034100008E00CFA06FC4CEA0E0CC0F808C0D0F824
:1034200004C02CEA020CC0F804C0426891F806C03F
:103430000CFA03FC1FFA8CFC42EA0C024260C268E0
:10344000AA43C260CA79C568B2402A43C2605B1C05
:10345000102BB3D3F0BD4FF6FF7101600021017155
:1034600041718171C171704708B541F48032009299
:10347000C261C1610099C161C169C069009008BDA4
:103480000246002012690A4200D0012070470069FC
:1034900080B270470246002052690A4200D00120E3
:1034A0007047406980B2704701837047418370471D
:1034B0000AB1018370474183704741617047426997
:1034C0004A40426170474B07DB0E9A40C90810B56D
:1034D00000EB8100016A0F249C40A1430162016A54
:1034E0001143016210BD00000000024000040240D0
:1034F00000080240000C024000100240001402408C
:1035000000180240001C024000200240EA48016806
:1035100041F001010160E84A0021083211600268AF
:10352000E64B1A400260031DE54A1A60026822F465
:1035300080220260E0480C3001607047DE490022C2
:10354000891C0A7008707047024600205109012941
:103550000CD002290CD0D8497431096802F01F023E
:10356000012393400B4200D001207047D249F4E779
:10357000D1497031F1E718B500204FF4A0640090F4
:103580003120FFF7E1FF0099491C0091A14201D0D1
:103590000028F5D03120FFF7D7FF002800D0012008
:1035A00018BDC5490A6822F0F80242EAC000086066
:1035B0007047C44908607047BF49002270310A70E3
:1035C0000A70012802D0042801D105200870704734
:1035D000BD490860704741EA82115A0810B5BB4BDB
:1035E000029C03EB02421143014341EA0460B249E9
:1035F000091D086010BDB34908667047800140EAA4
:103600000170AD49843108607047AE4988667047E3
:10361000AC49C8647047A84A08321368084323F0CD
:10362000EC63184310607047A34A083213680843DC
:1036300023F078431843106070479F4A083211689E
:1036400021F003010143116070479B480830006876
:1036500000F00C007047984A0832116821F0F00120
:10366000014311607047944A0832116821F4E05117
:10367000014311607047904908310A6822F46042A2
:1036800042EAC0000860704770B58B4A0832116882
:103690008F4C11F00C0104D06610042903D00829C6
:1036A00003D004601BE0066019E08349091D0B6824
:1036B000C3F380550B6803F03F0315B1B6FBF3F37A
:1036C00001E0B4FBF3F30C680968C4F388146343A6
:1036D000C1F30141491C4900B3FBF1F101601168DC
:1036E0000F2303EA11117B4B5C5C0168E1404160F0
:1036F0001468072505EA94241C5D21FA04F484600B
:10370000126805EA52329A5CD140C16070BDC0F3C4
:103710000121032908D1684A0832116821F4F813FD
:103720006D49014019431160634970310A68C0F363
:103730000B0002430A6070476349443908607047D0
:1037400061494039086070475E49C1F85C017047C3
:10375000594A30320029116801D0014300E0814309
:1037600011607047544A34320029116801D0014376
:1037700000E08143116070474F4A383200291168D8
:1037800001D0014300E08143116070474A4A403252
:103790000029116801D0014300E0814311607047A6
:1037A000454A44320029116801D0014300E08143B9
:1037B00011607047404A10320029116801D001435E
:1037C00000E08143116070473B4A143200291168C0
:1037D00001D0014300E0814311607047364A18323E
:1037E0000029116801D0014300E081431160704756
:1037F000314A20320029116801D0014300E08143A1
:10380000116070472C4A24320029116801D001430D
:1038100000E0814311607047274A50320029116847
:1038200001D0014300E0814311607047224A5432C5
:103830000029116801D0014300E081431160704705
:103840001D4A58320029116801D0014300E081432C
:1038500011607047184A60320029116801D0014395
:1038600000E0814311607047134A643200291168F7
:1038700001D0014300E08143116070470E4A0D32D0
:103880000029117801D0014300E081431170704795
:1038900009487430016841F0807101607047014649
:1038A000054A00200C3212680A4200D001207047FD
:1038B00001490E310870704700380240FFFFF6FEE4
:1038C0001030002400004742800E47420000FFFFF6
:1038D0000024F40020010020FFFCFF0F10B501219F
:1038E0000C022046FFF78EFF2046BDE81040002165
:1038F000FFF788BF30B54268C84B0C791A400B6897
:1039000042EA0422134343608268C54B4D791A4052
:10391000D1E9034323438C6844EA4504234313431A
:103920008360C26A097D22F47002491EC9B242EA6C
:103930000151C16230BD002101600171417181609E
:10394000C1600161012101757047B64B10B5D3F814
:103950000423B5490A40D0E900142143D0E90240CC
:10396000044321431143C3F8041310BD0021016037
:1039700041608160C16070470029816802D041F0D8
:10398000010101E021F00101816070474268A74B0D
:103990001A400A434260704741628262704742683F
:1039A00022F01F020A43426070479E490028D1F866
:1039B000040302D040F4000001E020F40000C1F84C
:1039C0000403704797490028D1F8040302D040F45B
:1039D000800001E020F48000C1F80403704770B556
:1039E000072409290AD9C568A1F10A0606EB46068B
:1039F000B440A543B3401D43C56007E0056901EB32
:103A00004106B440A543B3401D4305611F23072A67
:103A100009D2446B521E02EB820293409C439140B8
:103A20000C43446370BD0D2A09D2046BD21F02EB14
:103A3000820293409C4391400C43046370BDC46A6E
:103A40000D3A02EB820293409C4391400C43C462C6
:103A500070BD816841F0804181607047014600205F
:103A60008968490200D5012070470029816802D089
:103A700041F4806101E021F4806181607047002998
:103A8000816802D041F0020101E021F00201816071
:103A900070474268491E22F4604242EA4131416067
:103AA00070470029416802D041F4006101E021F42F
:103AB000006141607047C06C80B270475948D0F8CF
:103AC000080370470029816802D041F4807101E049
:103AD00021F48071816070470029816802D041F42F
:103AE000007101E021F40071816070474D490028A8
:103AF000D1F8040302D040F4005001E020F400505B
:103B0000C1F80403704770B5072409290AD9C568AC
:103B1000A1F10A0606EB4606B440A543B3401D4397
:103B2000C56007E0056901EB4106B440A543B34019
:103B30001D430561836BC3F30154121B921C02EBFE
:103B400082041F22A2409343A1400B43836370BDB4
:103B5000826B491E22F4401242EA01518163704790
:103B600008B508440090026008BD826822F4702203
:103B70000A4382607047826822F440120A438260DE
:103B80007047816841F480018160704701460020E0
:103B90008968490200D5012070470029416802D098
:103BA00041F4806101E021F48061416070470029A7
:103BB000416802D041F4805101E021F4805141601C
:103BC000704708B5084428300090006880B208BDEE
:103BD00001238B4041680AB1194300E099434160D9
:103BE00070470246002012680A4200D00120704748
:103BF000C9430160704730B50246002053680C0A83
:103C000001258D4011682B40214202D0002B00D0AD
:103C1000012030BD6FEA112101607047FFFEFFFCFB
:103C2000FDF7FFC000200140E030FCFFFFFD3FFF3B
:103C30002DE9F043016821F00101016000210160DC
:103C400041608160C160016121214161B849B84A88
:103C50003D251039904202D18D60BDE8F083B44A11
:103C60004FF474661832904201D18E60F5E7B04A85
:103C70004FF474173032904201D18F60EDE7AC4AB7
:103C80004FF0746C4832904202D1C1F808C0E4E7AA
:103C9000A74BA84A6033984201D1CA60DDE7A44C23
:103CA000A54B7834A04201D1CB60D6E7DFF8808203
:103CB000A24C08F19008404501D1CC60CDE7DFF877
:103CC00070824FF03D5908F1A808404502D1C1F873
:103CD0000C90C2E79A49DFF868820839404501D163
:103CE0000D60BAE7964D1835A84201D10E60B4E7D1
:103CF000934D3035A84201D10F60AEE7904D483565
:103D0000A84202D1C1F800C0A7E78D4D8C496035AB
:103D1000091FA84201D10A609FE7894A7832904280
:103D200001D10B6099E7864A9032904201D10C6034
:103D300093E7834AA83290428FD1C1F800908CE774
:103D400030B503687F4ACC6813400A682243D1E942
:103D500005452C432243CC6922430C6A22434C6A1A
:103D600022438C6A22434C6B22438C6B22431A43BE
:103D70000260426922F00703D1E90B2422431A436F
:103D800042610A6942604A6882608968C16030BDE8
:103D90000021016041608160C16001614161816118
:103DA000C161016241628162C162016341638163F9
:103DB00070470029016802D041F0010101E021F0C3
:103DC0000101016070470029016802D041F40041FF
:103DD00001E021F40041016070470029016802D030
:103DE00041F0200101E021F02001016070474160B5
:103DF0007047406880B27047002A026802D042F4DF
:103E0000002201E022F400220260016170470029D3
:103E1000016802D041F4802101E021F48021016099
:103E200070470AB101617047C160704701460020C8
:103E30000968090300D50120704701460020096880
:103E4000C90700D001207047406900F03800704772
:103E500002463B4B00209A4202D2354A103A01E01A
:103E6000374A103A8B0001D5526800E01268364B91
:103E70001A400A4200D001207047314A904202D2D3
:103E80002B48103801E02E4810382F4A8B0001EAE9
:103E9000020101D5C1607047816070470B0607D5EC
:103EA000436912B143F0800301E023F080034361D2
:103EB000802908D0002A026801F01E0101D00A43BF
:103EC00000E08A430260704730B51D4A00249042EA
:103ED00002D2174B103B01E0194B103B1B4A114219
:103EE00005D01E2202EAD12502682A4002E040697C
:103EF00000F08002880001D5586800E01868124B75
:103F00001840084201D002B10124204630BD0C4ABD
:103F1000904202D20648103801E0094810380A4A97
:103F20008B0001EA020101D5C160704781607047D2
:103F3000106002403D000020400F002000003D20A6
:103F4000106402403F801CF07D0F7D0F3C0F3C0F42
:103F5000FE4910B5884206D101210846FFF752FC00
:103F6000002101205BE0B0F1804F09D0F849884280
:103F70000DD101210220FFF73BFC0021022070E05F
:103F800001210846FFF734FC0021012069E0F149D6
:103F9000884206D101210420FFF72AFC00210420D9
:103FA0005FE0ED49884206D101210820FFF720FC9F
:103FB0000021082055E0E949884206D1012110205E
:103FC000FFF716FC002110204BE0E549884206D19E
:103FD00001212020FFF70CFC0021202041E0E149D5
:103FE000884206D101210220FFF70CFC00210220AB
:103FF00015E0DD49884202D101210C040AE0DB49C9
:10400000884202D101214C0404E0D94988420AD1F6
:1040100001218C042046FFF7F5FB00212046BDE876
:104020001040FFF7EFBBD349884206D10121402061
:10403000FFF7DEFB0021402013E0CF49884206D184
:1040400001218020FFF7D4FB0021802009E0CB492B
:1040500088420AD1841501212046FFF7C9FB0021BF
:104060002046BDE81040FFF7C3BB10BD30B5028845
:10407000B64BBC4C98420DD0A0420BD0B0F1804F53
:1040800008D0B34DA84205D0B24DA84202D0B24DDF
:10409000A84203D122F070054A882A43AF4DA842B6
:1040A00006D0AF4DA84203D022F440750A892A43B6
:1040B00002804A68C2620A880285984201D0A04202
:1040C00001D1897A01860121818230BD4FF0FF3113
:1040D000416000210180018141808172704701852A
:1040E00082827047028822F070020A430280704781
:1040F00041627047C1627047406A7047008D7047E7
:104100000029018802D041F0020101E021F0020102
:10411000018070470029018802D041F0040101E0CC
:1041200021F00401018070470029018802D041F08C
:10413000800101E021F0800101807047028822F0B7
:104140000802028002880A4302807047028822F433
:104150004072028002880A43028070470029018869
:1041600002D041F0010101E021F00101018070471E
:1041700030B5028C22F001020284028C8388048B09
:1041800022F0020224F073050C882C438D8915431C
:104190004A882A436D4DA84202D0724DA8420DD1E3
:1041A00022F00805CA8923F440732A4322F004054B
:1041B0008A882A430D8A1D434B8A2B4383800483BC
:1041C00089684163028430BD70B5028C22F0100210
:1041D0000284028C8488038B0D8823F4E6464FF614
:1041E000FF7303EA052535438E8922F0200203EA96
:1041F000061616434A8803EA02123243534EB0426F
:1042000002D0584EB04215D122F08006CA8924F45B
:10421000406403EA0212324322F040068A8803EA2D
:10422000021232430E8A03EA860626434C8A03EAC8
:10423000840434438480058389688163028470BD6B
:1042400070B5028C22F480720284028C8488838B85
:104250000D8823F073031D4322F400738E894FF6FB
:10426000FF7202EA06261E434B8802EA0323334309
:10427000364EB04202D03B4EB04215D123F4006618
:10428000CB8924F4405402EA0323334323F48066A9
:104290008B8802EA032333430E8A02EA061626437A
:1042A0004C8A02EA04143443848085838968C1639C
:1042B000038470BD70B5028C22F480520284048C99
:1042C0008288838B0D8823F4E6464FF6FF7303EA5A
:1042D0000525354324F400568C8903EA043434431D
:1042E0004E8803EA06362643184CA04202D01D4CE5
:1042F000A04205D122F480440A8A03EA82122243B2
:104300008280858389680164068470BD00210180F4
:104310004180818081608181C181018241827047B9
:1043200030B50124058C00F118038C40A5430584A9
:1043300031B308292CD0091FC1F34E00184401687D
:1043400048F6FF731940016001681AE0000001405F
:104350000004004000080040000C00400010004035
:1043600000140040000401400040014000440140AE
:104370000048014000180040001C004000200040A0
:1043800006E04FF6FF7303EA02221143016030BDDD
:1043900003EB510001684FF68F731940016001680B
:1043A000F3E74163704781637047C16370470164FD
:1043B0007047028B22F070020A4302837047028B1F
:1043C0004FF6FF7322F4E04203EA01211143018317
:1043D0007047828B22F070020A4382837047828B7F
:1043E0004FF6FF7322F4E04203EA01211143818377
:1043F0007047028B22F008020A4302837047028B47
:104400004FF6FF7322F4006203EA01211143018396
:104410007047828B22F008020A4382837047828BA6
:104420004FF6FF7322F4006203EA012111438183F6
:104430007047028B22F004020A4302837047028B0A
:104440004FF6FF7322F4806203EA012111430183D6
:104450007047828B22F004020A4382837047828B6A
:104460004FF6FF7322F4806203EA01211143818336
:104470007047028B22F080020A4302837047028B4E
:104480004FF6FF73C2F30E0203EA012111430183C9
:104490007047828B22F080020A4382837047828BAE
:1044A0004FF6FF73C2F30E0203EA01211143818329
:1044B0007047028C22F002020A4302847047028C89
:1044C00022F008020A4302847047028C4FF6FF7301
:1044D00022F0200203EA0111114301847047028C8B
:1044E0004FF6FF7322F0800203EA011111430184A9
:1044F0007047028C4FF6FF7322F4007203EA012129
:10450000114301847047028C4FF6FF7322F400625E
:1045100003EA0121114301847047028C4FF6FF73B7
:1045200022F4005203EA013111430184704710B5AF
:104530000123048C8B409C430484038C8A401343E6
:10454000038410BD10B50423048C8B409C43048469
:10455000038C8A401343038410BD828B22F4406293
:104560008283828B4FF6FF7303EA01210A43828321
:104570007047828B22F00C028283828B0A438283F3
:104580007047028B22F440620283028B4FF6FF7366
:1045900003EA01210A4302837047F0B5048C24F03A
:1045A00010040484078B068C4FF6FF7404EA01158F
:1045B00027F4734704EA0331394304EA02220A4329
:1045C00026F0A001294341F0100102830184F0BDCF
:1045D000028B22F00C020283028B0A430283704793
:1045E0002DE9F0410D460E884988AA882B8904469A
:1045F0000EB3042E26D0082E268C4FF6FF7028D03E
:1046000026F480562684A78B268C00EA022200EA34
:10461000013127F473473A4300EA0330104326F48C
:1046200020420A4342F48051A0832184E988204635
:10463000BDE8F04191E700F062F9E9882046BDE865
:10464000F041C5E7FFF7A9FFE9882046BDE8F04142
:1046500097E726F480762684A78B268C00EA012132
:1046600000EA0310104327F0F307384326F42062D2
:104670000A4342F48071A0832184E9882046BDE882
:10468000F04176E700210180418001228280C180D3
:10469000018170472DE9F0410C4600264988074604
:1046A000012501B90226A288012A00D1022520880D
:1046B00023890028384610D0FFF76FFFE18838467D
:1046C000FFF75FFF23892A463146384600F017F985
:1046D000E1883846BDE8F0417AE700F010F9E1885A
:1046E0003846FFF775FF23892A4631463846FFF7DB
:1046F00054FFE1883846BDE8F04142E7406B70471F
:10470000806B7047C06B7047006C704710B50A88AB
:104710004B88CC881A438B8823431A430B891A434E
:104720004B8989891A430A43A0F8442010BD00210F
:10473000018041808180C1800181418181817047F8
:10474000002930F8441F02D041F4004101E0C1F3D8
:104750000E01018070470029818802D041F00401D8
:1047600001E021F00401818070470029818802D096
:1047700041F0010101E021F0010181807047002A30
:10478000828901D00A4300E08A4382817047818296
:10479000704702460020128A0A4200D0012070476A
:1047A000C9430182704702460020138A92890B4256
:1047B00002EA010202D0002A00D001207047C9435A
:1047C000018270471143A0F848107047002A82897F
:1047D00001D00A4300E08A43828170470029818822
:1047E00002D041F0080101E021F00801818070470A
:1047F000018921F0070101817047028922F07002CE
:104800000A430281704700B50346FFF7F6FF188997
:1048100040F00700188100BD70B516460D466029AE
:1048200004464FF0010231460AD000F068F82946EC
:104830002046FFF7E2FF208940F00700208170BD8D
:10484000FFF7ABFEF3E730B504894FF6FF7505EAD5
:1048500003231343E4B20B432343038130BD10B55C
:104860000446FFF7F0FF208940F07700208110BD5B
:1048700010B50446FFF7E7FF208940F4804020810F
:1048800010BD828822F07002828082880A43828072
:104890007047028922F00702028102890A430281DD
:1048A0007047028922F08002028102890A43028154
:1048B000704770B50589048B068C25F007050D43FC
:1048C0004FF6FC410C4040F201110C434FF6FF71D2
:1048D00001EA031126F022061143314305810483C6
:1048E000018470BD0029818802D041F0800101E07F
:1048F00021F0800181807047A0F85010704770B59A
:10490000048C24F001040484058B048C4FF6FF769C
:1049100006EA0313134325F0F3052B4324F00A02A0
:104920000A4342F001010383018470BDC74910B5F9
:10493000884206D101211020FEF764FF00211020DB
:1049400028E0C349884202D101214C0410E0C1494A
:10495000884202D101218C040AE0BF49884202D179
:104960000121CC0404E0BD4988420AD101210C0593
:104970002046FEF73DFF2046BDE810400021FEF72F
:1049800037BFB749884209D101212020FEF73AFFFD
:1049900000212020BDE81040FEF734BF10BD7FB5D8
:1049A0000446008A0D4620F44051E88808432082DE
:1049B000A08941F20C618843A9882A8911436A8938
:1049C00002431143A181A08A20F44071A8890843C1
:1049D000A0826846FEF758FE9C48844202D0A04858
:1049E000844201D1039800E00298A189090400EBF8
:1049F000C00101EB0010296801D5490000E08900E1
:104A0000B0FBF1F26420B2FBF0F109010B096FF089
:104A100018056B4302EB8302A3891D044FF0320398
:104A200006D503EBC202B2FBF0F000F0070005E090
:104A300003EB0212B2FBF0F000F00F0008432081FC
:104A40007FBD4FF41651016000218180C18001813A
:104A50000C2242818181704710B5028A4C8822F471
:104A600070630A8822438C88C9880C4322431A4306
:104A7000028210BD0021018041808180C180704789
:104A80000029818902D041F4005101E021F4005154
:104A900081817047028B02F47F420283028B0A43BA
:104AA000028370470029818902D041F4004101E06E
:104AB000C1F30E01818170470029818A02D041F43F
:104AC000006101E021F4006181827047C1F30801B7
:104AD000818070478088C0F308007047028A22F006
:104AE0000F020282028A0A430282704700298189EA
:104AF00002D041F0020101E021F002018181704702
:104B0000828922F40062828182890A43828170470D
:104B1000028A22F020020282028A0A43028270473D
:104B20000029018A02D041F4804101E021F4804152
:104B300001827047818941F001018181704700291C
:104B4000818A02D041F0080101E021F00801818250
:104B50007047028BD2B20283028B42EA01210183A9
:104B600070470029818A02D041F0200101E021F044
:104B70002001818270470029818A02D041F0100112
:104B800001E021F0100181827047828A22F0040244
:104B90008282828A0A43828270470029818A02D0F7
:104BA00041F0020101E021F0020181827047002AF8
:104BB000828A01D00A4300E08A438282704710B59E
:104BC000C1F3421301F01F040121A140012B07D0C2
:104BD000022B07D01430002A026805D00A4304E0F3
:104BE0000C30F8E71030F6E78A43026010BD024649
:104BF000002012880A4200D001207047C94301807A
:104C0000704730B501F01F0201240025C1F34213A3
:104C100004FA02F2012B0FD0022B0FD0838A4FEA45
:104C200011210088134204FA01F400EA040001D0C3
:104C300000B10125284630BD8389F0E7038AEEE7FD
:104C40000A0A01219140C9430180704700100140C8
:104C50000044004000480040004C0040005000402C
:104C60000014014000F108014FF0FF32C0E90112C9
:104C7000C16001610021016070470021016170473E
:104C8000426853684B6043688B6053689960516019
:104C9000416008610168491C0160704710B50B68EC
:104CA0005A1C02D000F1080202E0026904E05268D6
:104CB000546824689C42FAD953684B6099608A60B2
:104CC000516008610168491C016010BDD0E9011202
:104CD0008A60D0E90112516001694A68824201D1BB
:104CE00082684A60002202610868401E0860086805
:104CF0007047000070B50D4604001FD000F0EBFCBB
:104D0000D4E90F21206802FB010363600023A36341
:104D1000521EA06002FB0100E060581E6064A064A7
:104D200004F110006DB1FFF79DFF04F12400FFF7BF
:104D300099FF00BF00F0D7FC012070BDFBF778FAA7
:104D4000FEE721690029F5D001F07BF90128F1D1B6
:104D500000F0BBFCEEE72DE9F04117460E460500DA
:104D600019D0502000F0DEFC040014D005FB06F042
:104D7000401C00F0D7FC206050B1C4E90F5601215F
:104D80002046FFF7B7FF84F84D702046BDE8F0815C
:104D9000204600F01CFDFBF74BFAFEE770B5044619
:104DA00000F099FC04F124050AE0606A58B1284635
:104DB00001F047F908B101F0BFF9A06C401EA064F2
:104DC000A06C0028F1DC4FF0FF36A66400F08BFCED
:104DD00000F081FC04F110050AE0206958B1284672
:104DE00001F02FF908B101F0A7F9606C401E606472
:104DF000606C0028F1DC6664BDE8704000F073BCB4
:104E000010B51346026C04468AB1CBB1E06801F0DC
:104E100027FAE168206C091AE1602268914202D207
:104E20006168081AE060A06B401CA06310BD206898
:104E30000028F8D1606801F0C7F900206060F2E74F
:104E4000A06801F00DFA216CA0680844A0606168B8
:104E50008842E8D32068A060E5E72DE9FF4182B0F1
:104E600098460F4604004FF0000502D000261FB1FF
:104E700007E0FBF7DDF9FEE7206C10B1FBF7D8F98E
:104E8000FEE700F028FCA16BE06B814213D24246A2
:104E900039462046FFF7B4FF606A38B104F12400B8
:104EA00001F0CFF8012801D100F00FFC00F01BFC4D
:104EB000012006B06AE7049808B11DB106E000F0D1
:104EC00012FC1DE0684601F0E9F8012500F00BFC3A
:104ED00000F046FE00F0FFFB606C401C00D16664F1
:104EE000A06C401C00D1A66400F0FDFB04A968463C
:104EF00001F0DFF830B12046FFF750FF00F0C2FDAF
:104F00000020D6E700F0E7FBA06BE16B884210D1F0
:104F100000F0E9FB04F11000049901F061F820466B
:104F2000FFF73CFF00F0AEFD0028AAD100F0CDFB5A
:104F3000A7E700F0D8FB2046FFF730FF00F0A2FD06
:104F40009FE770B50546502000F0ECFB04001DD033
:104F5000002161602160A160E160A1630120C4E9DA
:104F60000F01801E6064A06484F84D5004F11000AD
:104F7000FFF778FE04F12400FFF774FE00231A46C1
:104F800019462046FFF769FF204670BDFBF750F930
:104F9000FEE710B5040009D001F0DAF86168884234
:104FA0000FD1E068401EE06003D008E0FBF740F955
:104FB000FEE700231A4619462046FFF74EFF012060
:104FC00010BD002010BD30B403680D46002B0CD07E
:104FD000026CC1688C18C46041688C4200D3C36005
:104FE000C168284630BC01F03BB930BC70472DE9A0
:104FF000FF4383B01F46884604004FF0000506D0EB
:10500000002604F12409B8F1000F03D007E0FBF7F4
:105010000FF9FEE7206C10B1FBF70AF9FEE700F08C
:105020005AFBA06B30B341462046E568FFF7CBFF43
:1050300077B1E560606A28B1484601F002F808B12E
:1050400000F043FB00F04FFB012007B0BDE8F08308
:10505000A06B401EA063206810B901F079F8606071
:1050600020690028EED004F1100000F0EAFF0128CA
:10507000E6D0E7E7059808B11DB106E000F033FB84
:105080001DE0684601F00AF8012500F02CFB00F055
:1050900067FD00F020FB606C401C00D16664A06CD2
:1050A000401C00D1A66400F01EFB05A9684601F073
:1050B00000F830B12046FFF771FE00F0E3FC00205D
:1050C000C3E700F008FBA06B38B100F00CFB2046F2
:1050D000FFF764FE00F0D6FCA1E700F004FB2068B7
:1050E00030B900F0F8FA606801F040F800F0FBFA1F
:1050F0004846059900F074FF2046FFF74FFE00F088
:10510000C1FC00288BD100F0E0FA88E770B50D46AD
:10511000040009D001F01CF86168884207D1E068FA
:10512000401CE060012070BDFBF782F8FEE7002321
:105130002A4619462046FFF75AFF0128F3D1E168B5
:10514000491CE16070BD10B50C4602220021FFF73A
:1051500002FE08B1846310BDFBF76AF8FEE72DE993
:10516000F041984615460F46040001D01FB107E0F4
:10517000FBF75EF8FEE7206C10B1FBF759F8FEE78D
:10518000FBF756F80646A06BE16B88421AD24246FE
:1051900039462046FFF734FEA06C401C04D0A06CBA
:1051A000401CA06401240EE0606A0028FAD004F1DB
:1051B000240000F046FF0028F4D0002DF2D001209A
:1051C0002860EFE700243046FBF739F82046DDE59C
:1051D0002DE9F04115460F46040001D01FB107E04C
:1051E000FBF726F8FEE7206C10B1FBF721F8FEE78D
:1051F000FBF71EF80646A06BE0B139462046FFF7E4
:10520000E2FEA06B401EA063606C401C04D0606C8A
:10521000401C606401240EE020690028FAD004F1EB
:10522000100000F00EFF0028F4D0002DF2D0012075
:105230002860EFE700243046FBF701F82046A5E59B
:1052400010B5040006D000F046FAA46B00F04BFA4B
:10525000204610BDFAF7ECFFFEE710B508B1806BF1
:1052600010BDFAF7E5FFFEE710B504000BD0334898
:10527000002100BF00EBC1025368A34206D1002207
:1052800040F8312005E0FAF7D3FFFEE7491C082972
:10529000F0D3206800F09BFA2046BDE8104000F0F3
:1052A00096BA90F84C00704780F84C10704790F810
:1052B0004D00704710B518B1806B20B1002010BDB3
:1052C000FAF7B6FFFEE7012010BD10B528B1816BDB
:1052D000C06B814204D1012010BDFAF7A9FFFEE79F
:1052E000002010BD10B5154B002200BF53F832400E
:1052F0001CB1521C082AF9D310BD43F8321003EB3D
:10530000C201486010BD70B50D46044600F0E3F9D7
:10531000626C0020521C00D16064A16C491C00D159
:10532000A06400F0E0F9A06B20B9294604F1240044
:1053300000F073FE2046BDE870402FE51C030020FE
:1053400070B500244160BF4D0061914206D8D11A6A
:105350008269914206D2011DE86807E09A4203D2B1
:10536000994201D3012403E0011DA868FFF796FCD0
:10537000204670BDFEB5B34C1D460346276800208D
:10538000089E002F08D08DE80E0035B100232A4674
:1053900069463846FFF7E3FEFEBD00F0DCFE01285B
:1053A0004FF0000305D0002269462068FFF755FD45
:1053B000FEBD3246F8E770B5054600F080FDA14E0F
:1053C00004467068844203D200F078F8012000E0BF
:1053D000002028602046746070BD9A4CA068016867
:1053E00039B1C0680021006800F0E7F800F095F8D6
:1053F000F4E701210020F7E710B500F06CF9914CBB
:10540000206880B99048FFF72DFC8F481430FFF7D3
:1054100029FC8D48A0601430E06000220C210A2095
:10542000FFF799FC2060BDE8104000F05CB91FB5A3
:10543000FFF7E2FF8348006868B100200221CDE950
:105440000010029003460A02039080A1814800F0F8
:10545000E3F9002802D1FAF7EBFEFEE704B010BD35
:105460002DE9F0471E46DDF8209017460D008046D6
:1054700012D0282000F056F904000AD0FFF7BCFF34
:10548000C4F80080C4E90657C4E90869201DFFF785
:10549000F4FB2046BDE8F087FAF7CAFEFEE710B538
:1054A000044600F018F9606908B1012400E0002406
:1054B00000F019F9204610BD006A7047F8B5614D3B
:1054C00020E0C1680E68C068C468201DFFF7FEFBBD
:1054D000616A20468847E069012813D1A0693044F9
:1054E000B04206D924616060211DA868FFF7D6FB91
:1054F00008E0002003460146009032462046FFF7B0
:1055000039FF38B1A86801680029DAD1E968C5E92E
:105510000210F8BDFAF78CFEFEE770B588B002A85D
:10552000FFF749FF0546474E3DE0069C24B1606900
:1055300010B1201DFFF7CAFB049830B1012832D00A
:10554000022820D003282ED12AE00598A16903461D
:1055500001442A462046FFF7F3FE012823D1616A61
:1055600020468847E06901281DD100200090059859
:10557000A1690023421819462046FFF7FBFE90B9A7
:10558000FAF756FEFEE70598A06130B141192B46A7
:105590001A462046FFF7D4FE05E0FAF749FEFEE77B
:1055A000204600F014F900231A4604A93068FFF7DA
:1055B0001EFD0028B9D108B070BD2DE9FC410F4691
:1055C000054600F0CDFA01A8FFF7F5FE0446019864
:1055D00018B100F057FABDE8FC811A4E37BBA5425E
:1055E00024D800F04FFAB0682746C068C468201D70
:1055F000FFF76CFBE069012811D1A0692B46411926
:105600003A462046FFF79CFE012808D100200346B9
:10561000014600902A462046FFF7ACFE18B1616AA9
:1056200020468847D7E7FAF703FEFEE7291B3068D4
:10563000FFF769FE00F026FA0028CCD100F045F80B
:10564000C9E70000300100205C030020546D722087
:1056500053766300DB53000810B5031F4FF08074CE
:105660001C601B1F1960191F00230B6014390A608E
:10567000091FDA1E44380A6010BD264842F2107134
:105680000068B0FBF1F14FF0E020491E41610721B5
:1056900001617047204810B5016841F47C01016048
:1056A000016841F07C410160FFF7E7FF1B490020E2
:1056B0000860FAF78BFD1A48016841F0404101602B
:1056C000FAF77AFD002010BD704713494FF0805063
:1056D0001C390860704710B5FAF7AAFD0F48016839
:1056E000491C016010BD0D490868401E086001D1C9
:1056F000FAF7A5BD7047084910B51C394FF0805026
:105700000860FAF795FD00F06CF9BDE81040002044
:10571000FAF795BD0000002020ED00E040010020D8
:1057200034EF00E02DE9F0410446002500F018FABE
:10573000374A02F10801506801F1080360B93548A1
:10574000086000204FF420564860C3E90006314845
:10575000C0E900360120506042F2FF7094B310346B
:10576000660704D004F00706C6F108063444661E36
:10577000864227D226480968083001E008463146AB
:105780004E68A64202D20E68002EF7D1994219D077
:1057900005680B68036048681035001B20280DD988
:1057A0000B1958601A484C6008305E6800E02046CB
:1057B00004686768B742FAD31C60036048681168E0
:1057C000081A106000F05EF92846BDE8F08110B5B7
:1057D000002817D0A0F1100400F0C2F90C4861684D
:1057E000083000E01046026853688B42FAD322600A
:1057F000046007486168026811440160BDE8104018
:1058000000F040B910BD02480068704770470000C2
:1058100044010020880300202DE9FF5FDDE90E68C8
:10582000109F15468A465FEA000B04D0052E05D36B
:10583000FAF7FEFCFEE7FAF7FBFCFEE74C20FFF769
:1058400071FF04001CD0A80081469FB13846206338
:1058500098B1A522494600F015FD6FF00301206BB9
:1058600001EB8501084420F0070568070BD0FAF723
:10587000DFFCFEE7FFF756FFE9E72046FFF7A7FF4B
:105880004FF0FF347BE051460A2204F1340000F06F
:1058900017FD002084F83D00E662201DA664FFF796
:1058A000ECF904F11800FFF7E8F92461C6F10500EE
:1058B0006462A06159462846039AFFF7CDFE206036
:1058C000B8F1000F01D0C8F80040FFF704FFF94D10
:1058D000A868401CA8602868DFF8DC8310B1A869BC
:1058E00048B32DE02C60A868012829D15FF000079B
:1058F00007EB870108EB8100FFF7B4F97F1C052F48
:10590000F6D3ED486430FFF7ADF9EB487830FFF798
:10591000A9F9E9488C30FFF7A5F9E748A030FFF76F
:10592000A1F9E548B430FFF79DF9E34864306863B6
:105930001430A86304E02868C06AB04200D82C6024
:10594000E06A2969884200D92861E96A2164491C12
:10595000E9626969884200D9686100EB800108EB5F
:105960008100211DFFF78CF90124FFF7BCFEA86917
:1059700028B12868C06AB04201D2FFF7A6FE04B081
:105980002046BDE8F09F70B50646FFF7A4FEC94C5F
:105990002068864201D1002620E0FEB13546281D50
:1059A000FFF794F9A86A18B105F11800FFF78EF90E
:1059B000C148291DA030FFF763F96068401C606092
:1059C000E06A401CE062FFF78EFEA069002807D065
:1059D000002E05D1BDE87040FFF777BE2568DEE7F1
:1059E00070BD2DE9F041B34CE06920B1206A401C44
:1059F0002062BDE8F081E068401CE060E0684FF0A4
:105A0000FF36A0B9606B006810B1FAF711FCFEE731
:105A1000606BA16B6163A063A06A401CA062606BB5
:105A20000068A8B1606BC068C06840682063E06827
:105A3000216B8842DDD3A04F606B006850B1606B72
:105A4000C068C568E1686868814205D22063D0E714
:105A50002663ECE72663CCE7281DFFF737F9A86A31
:105A600018B105F11800FFF731F9E86A6169884259
:105A700000D9606100EB800007EB8000291DFFF773
:105A8000FFF8D9E72DE9F0478A4C0026E06938B1E4
:105A9000FFF721FEE069401EE061E06918B142E0D5
:105AA000FAF7C6FBFEE7A06898B3DFF80C82002780
:105AB00008F18C08DFF800921AE0C068C56805F1AB
:105AC0001800FFF703F9281DFFF700F9E86A61697C
:105AD000884200D9606100EB800109EB8100291D3B
