:020000040800F2
:1000000070300020B5030008D9030008DB030008A6
:10001000DD030008DF030008E10300080000000022
:100020000000000000000000000000009D0100082A
:10003000E303000800000000E1010008F356000897
:10004000CF030008CF030008CF030008CF03000848
:10005000CF030008CF030008CF030008CF03000838
:10006000CF030008B7050008CF0300089504000877
:1000700057040008E1040008CF0300080904000841
:10008000CF03000811040008CF030008CF030008C5
:10009000CF030008CF030008CF030008CF030008F8
:1000A000CF0300081105000831050008CF03000840
:1000B000330500085305000873050008CF03000846
:1000C000CF030008CF030008CF030008B3050008E2
:1000D000CF030008E9030008CF030008CF0300089E
:1000E000CF030008CF030008CF030008CF030008A8
:1000F000CF030008CF030008CF030008B7040008AF
:10010000CF030008CF03000893050008B5050008D9
:10011000CF030008CF030008EB040008FF04000829
:10012000CF030008CF03000833040008CF03000802
:10013000CF030008CF030008CF030008CF03000857
:10014000CF030008CF030008CF030008CF03000847
:100150004D040008CF030008CF030008CF030008B8
:10016000CF030008CF030008CF030008CF03000827
:10017000CF030008CF030008CF030008CF03000817
:10018000CF030008CF030008DFF80CD006F03CFBDB
:1001900000480047CB31000870300020234B19681D
:1001A0000868B0E8F04F80F309884FF0000080F352
:1001B000118870470000000003480068006880F361
:1001C000088862B600DF00BF08ED00E0DFF80C0031
:1001D000016841F470010160704700BF88ED00E0E4
:1001E000EFF30980114B1A681EF0100F08BF20EDC5
:1001F000108A20E9F04F106008B54FF0140080F32A
:10020000118805F04CFD4FF0000080F31188BDE827
:10021000084019680868B0E8F04F1EF0100F08BFDA
:10022000B0EC108A80F30988704700BF58010020A5
:10023000EFF311804FF0140181F31188704780F3C0
:10024000118870470CB500205149019000900A6850
:1002500042F480320A604FF4A0630A6802F400326C
:100260000092019A521C0192009A12B9019A9A4284
:10027000F3D10A68920334D50120009044484030FD
:10028000026842F0805202604248026842F48042B2
:1002900002603F48083002680260026842F400428F
:1002A0000260026842F4A0520260031F3A4A1A60D8
:1002B0000A6842F080720A600A689201FCD5374AE7
:1002C00040F205611160016821F0030101600168DD
:1002D00041F0020101600168C1F381010229FAD1F4
:1002E0000CBD00900CBD2A4810B5016841F0010119
:1002F0000160274A0021083211600268284B1A4029
:100300000260031D274A1A60026822F480220260FC
:100310001F480C300160FFF795FF23494FF0006044
:10032000086010BD70B51A4C083420681F4A10F0E0
:100330000C011F4804D05510042903D0082903D00C
:1003400002601BE0056019E01149091D0B68C3F349
:1003500080560B6803F03F0316B1B5FBF3F201E0E2
:10036000B2FBF3F20B680968C3F388135A43C1F375
:100370000141491C4900B2FBF1F1016021680C4ABE
:10038000C1F30311121D515C0268CA40026070BDC6
:10039000003802400070004008544007003C024012
:1003A000FFFFF6FE1030002408ED00E00024F4000A
:1003B000000000200648804706480047FEE7FEE7A9
:1003C000FEE7FEE7FEE7FEE7FEE7FEE7FEE7FEE705
:1003D000E7020008890100087047FEE7FEE7FEE734
:1003E000FEE770477047704710B5734C40F22551D7
:1003F000204604F004FC002805D02046BDE810404B
:10040000202104F0F9BB10BD6C496D4803F07DBD9F
:1004100070B56B4D6B4C30352146284603F052FDCC
:10042000002805D021462846BDE8704003F06DBD88
:1004300070BD10B56449654803F067FD64484178B4
:10044000007841EA00206349088010BD5F48624996
:10045000483003F05ABD70B5594D604C483D2146B7
:10046000284603F02FFD002813D02146284603F02C
:100470004CFD5B4801F09FFC00280AD1594C00213B
:10048000204604F0FBFA2046BDE87040012104F04C
:10049000F5BA70BD70B54A4D534C603D21462846B3
:1004A00003F010FD002805D021462846BDE8704025
:1004B00003F02BBD70BD70B5414C4C4D48342946FE
:1004C000204603F0FFFC002809D00021204603F05D
:1004D0006EFC29462046BDE8704003F016BD70BD95
:1004E00037483649303803F010BD10B50121404877
:1004F00004F063F93F480168491C016010BD10B564
:1005000001213D4804F059F92B497A20888010BD1B
:1005100010B53A4C0121204604F04FF92088C1065D
:100520003748016801D5491E00E0491C016010BD33
:10053000704710B501218C07204604F03EF9208851
:10054000C1063048016801D5491E00E0491C016020
:1005500010BD10B52C4C0121204604F02EF9208846
:10056000C1062A48016801D5491E00E0491C016006
:1005700010BD10B5264C0121204604F01EF920883C
:10058000C1062448016801D5491E00E0491C0160EC
:1005900010BD10B5204C0121204604F00EF9208832
:1005A000C1061E48016801D5491E00E0491C0160D2
:1005B00010BD704770477047001001402080002038
:1005C00070600240008020200080201040640240C3
:1005D0005C02002018000020008800200088001025
:1005E0007A0200200048004020800010008000288F
:1005F00000100040C4000020001400400000014032
:100600001C000020200000200004004024000020E6
:100610000008004018010020000C004028000020C5
:1006200070B50546002405F055FEFE4902E02A5D3E
:100630000A55641C8442FADBBDE870400121FA4887
:1006400003F0B5BB70B5F94D06460024315D0029B5
:100650000BD0284604F038FA8021284604F0C5FA69
:100660000028F9D0641CE4B2F0E770BD70B5EF4E1D
:1006700005460024002D0DD02946304604F024FA0A
:100680008021304604F0B1FA0028F9D0641CE4B2AD
:10069000032CEFD370BD73B50C460020FFF7E6FFC7
:1006A000E3A0FFF7CFFFDF482246E2A1823806F041
:1006B00025F9DC488238FFF7C5FFDFA0FFF7C2FF4E
:1006C000DFA0FFF7BFFFD748DAA18238009A06F013
:1006D00015F9D44E0024D54D823E2846315D04F0F4
:1006E000F3F94021284604F080FA0028F9D0641C70
:1006F000142CF2DBD2A0FFF7A5FFFF20FFF7B6FF17
:10070000FF20FFF7B3FFBDE87C40FF20AEE770B5E8
:1007100005460C46C6A0FFF795FFC2482246C5A174
:10072000823806F0EBF8BF488238FFF78BFFC5A090
:10073000FFF788FF2846FFF785FFC1A0FFF782FF7C
:10074000BDE87040FF2091E777B5BEA185B00646B1
:10075000D1E90001CDE90001B9A0002200680390B1
:10076000B3A0B04D0068283DA5F128030290AD4C20
:100770001146A3F13200A95499548154A154521C3A
:10078000D2B21E2AF7D30A210170FF24447084706C
:10079000C470A448A7A15038079A06F0AFF8A14941
:1007A00002A8503905F07EFD9E4802A9823805F066
:1007B00079FD9C486946823805F074FD99483146B8
:1007C000823805F06FFD97489AA15038069A06F0D6
:1007D00095F894495039A1F1320005F063FD914834
:1007E00003A9823805F05EFD8E492C706C702839A3
:1007F000AC70A1F15A0005F055FD8A488238FFF728
:100800000FFF08B070BD2DE9F74188468DA185B076
:100810000646D1E90001CDE9000189A00022006867
:10082000039083A07F4D0068283DA5F12801029028
:100830001446A1F13200AC548C548454521CD2B2F0
:100840000A2AF8D30A210170FF2747708770C77002
:10085000744878A15038079A06F050F8714902A8F8
:10086000503905F01FFD6F4802A9823805F01AFDC6
:100870006C486946823805F015FD6A483146823871
:1008800005F010FD67484146823805F00BFD6548CC
:1008900003A9823805F006FD2F706F706149AF70B3
:1008A000EC7028392C71A1F15A0005F0FBFC5D4871
:1008B0008238FFF7B5FE08B0BDE8F08170B50020C2
:1008C000FFF7D4FE5AA0FFF7BDFE56480D2259A1EE
:1008D000823806F013F853488238FFF7B3FE59A068
:1008E000FFF7B0FE594C2021204602F0C7FD02461A
:1008F0004C4850A1823806F001F84A488238FFF788
:10090000A1FE1021204602F0B9FD0246454849A14A
:10091000823805F0F3FF43488238FFF793FE4C4DD1
:100920008021284602F0AAFD02463E4841A18238B5
:1009300005F0E4FF3B488238FFF784FE402128465B
:1009400002F09CFD024637483AA1823805F0D6FFF6
:1009500034488238FFF776FE4FF40041204602F01B
:100960008DFD02462F4833A1823805F0C7FF2D4880
:100970008238FFF767FE4FF48041204602F07EFD8B
:10098000024628482BA1823805F0B8FF2548823856
:10099000FFF758FE4FF40051204602F06FFD02466B
:1009A000204824A1823805F0A9FF1E488238FFF7AD
:1009B00049FE4021274802F061FD024619481DA169
:1009C000823805F09BFF17488238FFF73BFE1CA0DA
:1009D000FFF738FEFF20FFF749FEFF20FFF746FE36
:1009E000BDE87040FF2041E6FEB51BA10646D1E9F7
:1009F0000001CDE900011AA000210A4D0068283D40
:100A0000A5F1280202900C46A2F132006C54545415
:100A10004454491CC9B23229F8D30A210170FF2776
:100A200047701FE01A020020B860024000500040EA
:100A300074000000256400002E7478743D000000EE
:100A4000220000002E7478743D220000000802404D
:100A500000000240001002402E76616C3D00000054
:100A60006A0000008770C7700022AFF23801FE48AC
:100A700005F044FFFC4902A805F014FCFA4802A95D
:100A8000323805F00FFCF8486946323805F00AFCA8
:100A90003246AFF26001F44805F030FFF249A1F1AF
:100AA000320005F0FFFB2F706F70EF49AF70EC70F4
:100AB00028312C71A1F15A0005F0F4FBEA483238D4
:100AC000FFF7AEFDFEBD2DE9FC4101211F2002F024
:100AD0003DFE01248DF8044000268DF806604FF697
:100AE000FF758DF80740032700958DF8057069465E
:100AF000DE4802F05DFC8DF804408DF806608DF84C
:100B0000074000958DF805706946D94802F050FC01
:100B10008DF804408DF806608DF8074000958DF83B
:100B200005706946D34802F043FCBDE8FC817CB502
:100B300001217E2002F00AFE0024C0208DF804402E
:100B4000012500908DF8075002268DF80560694652
:100B5000C94802F02DFC06208DF8044000908DF865
:100B600007508DF805606946C04802F021FC04205A
:100B70008DF8044000908DF807508DF805606946A7
:100B8000BB4802F015FC7CBD1FB54FF4E06002F0DD
:100B900057FB36208DF80C0000248DF80D408DF8A1
:100BA0000E4001208DF80F0003A802F04EFB01213A
:100BB000102002F0E9FD5320ADF80000ADF8084028
:100BC000ADF8024040F2E730AC4C01906946204657
:100BD00003F04AFA0121204603F0EFFD01221146FD
:100BE000204603F0CAFD0021204603F07FFA0121D0
:100BF000204603F0B1FA1FBD1FB54FF4E06002F0CC
:100C00001FFB37208DF80C0000248DF80D408DF867
:100C10000E4001208DF80F0003A802F016FB012101
:100C2000202002F0B1FD4FF4FA70ADF80000ADF8ED
:100C30000840ADF8024040F2E730914C019069461F
:100C4000204603F011FA0121204603F0B6FD0122EF
:100C50001146204603F091FD0021204603F046FA9C
:100C60000121204603F078FA1FBD70B58AB001213A
:100C7000022002F093FD01210C2002F067FD7C4E62
:100C800003220621304602F01CFC032207213046D5
:100C900002F017FC03220821304602F012FC032266
:100CA0000921304602F00DFC4FF4707005900220CF
:100CB0008DF8180003208DF8190000248DF81A40D3
:100CC00001258DF81B5005A9304602F071FBA420C8
:100CD000ADF81C0040F6B83008902802694EADF817
:100CE0002400ADF81E4007A9304603F0BDF960208E
:100CF000ADF80000ADF802500294ADF80C400121AF
:100D0000304603F029FA0021304603F0EFF9694636
:100D1000304603F02BFA6946304603F053FA694631
:100D2000304603F08BFA6946304603F0C1FA0121E0
:100D3000304603F003FD0AB070BD70B58AB00121E2
:100D4000082002F021FD0121084602F0FFFC4A4E76
:100D500002220021304602F0B4FB0222012130467B
:100D600002F0AFFB02221146304602F0AAFB02223B
:100D70000321304602F0A5FB0F20059002208DF8DC
:100D8000180003208DF8190000248DF81A40012561
:100D90008DF81B5005A9304602F00AFBBA20ADF8C9
:100DA0001C0042F21070384E0890ADF82440ADF8A7
:100DB0001E4007A9304603F057F96020ADF8000047
:100DC000ADF802500294ADF80C400121304603F01A
:100DD000C3F90021304603F089F96946304603F033
:100DE000C5F96946304603F0EDF96946304603F02F
:100DF00025FA6946304603F05BFA0121304603F0DC
:100E00009DFC98E770B58AB00121042002F0BCFC7B
:100E100001210D2002F09AFC164E02220C213046D0
:100E200002F04FFB02220D21304602F04AFB022263
:100E30000E21304602F045FB02220F21304602F01F
:100E400040FB4FF47040059002208DF818000320FD
:100E50008DF8190000248DF81A4001258DF81B50DB
:100E600005A9304612E00000CA010020000402403B
:100E700000080240000C0240000002400010004048
:100E80000014004000040140000C004002F090FA01
:100E9000A420ADF81C0040F6B83008902802ADF848
:100EA0002400ADF81E4007A9FE4E304603F0DCF8E2
:100EB0006020ADF80000ADF802500294ADF80C408F
:100EC0000121304603F048F90021304603F00EF9C5
:100ED0006946304603F04AF96946304603F072F934
:100EE0006946304603F0AAF96946304603F0E0F956
:100EF00021E770B5012188B0080402F04FFC012100
:100F0000084602F023FCE84E03221146304602F068
:100F1000D8FA03220221304602F0D3FA0C200090C6
:100F200002208DF8040003208DF8050000248DF8C0
:100F3000064001258DF807506946304602F038FA20
:100F40004FF6FF70D94EADF808400390ADF8104051
:100F5000ADF80A4002A9304603F086F80420ADF847
:100F60001400C820ADF81C00ADF81640ADF81850BC
:100F700005A9304603F032FBCD4C00231A4603216D
:100F8000204603F094FC0121204603F016FC0122C8
:100F90001146204603F0F1FB0121304603F0DCF856
:100FA0000021204603F0A2F82BE42DE9F0470121AF
:100FB0008AB0084602F0E8FB0121022002F0E4FBBF
:100FC0000121032002F0C2FBDFF8DC9201220F2195
:100FD000484602F076FADFF8DC820122032140461F
:100FE00002F06FFA02220421404602F06AFA02225D
:100FF0000521404602F065FA02268DF804600327B9
:1010000038208DF80570002400908DF806400125E9
:101010008DF807506946404602F0CAF98DF8046021
:10102000E8038DF8057000908DF806408DF80750A4
:101030006946484602F0BCF94FF6FF70ADF80C4027
:1010400004904FF08049ADF81440ADF80E4003A96C
:10105000484603F009F8DFF860A203A9504603F000
:1010600003F84FF004081420ADF81880ADF8200004
:10107000ADF81A60ADF81C5006A9484603F0AEFA68
:1010800006A9504603F0AAFA02231A46032148464D
:1010900003F00DFC02231A460321504603F007FC1F
:1010A0000121484603F089FB0121504603F085FBEE
:1010B00001221146484603F060FB012211465046CA
:1010C00003F05BFB0121484603F046F8012150463E
:1010D00003F042F80021484603F008F8002150468A
:1010E00003F004F8780202F0ABF81D208DF8080038
:1010F0008DF809708DF80A408DF80B5002A802F0A7
:10110000A4F81C208DF808008DF809808DF80A409D
:101110008DF80B5002A802F098F80AB0BDE8F087ED
:1011200070B501218AB0084602F038FB0121102079
:1011300002F00CFB4FF42060009002208DF80400B8
:1011400003208DF8050000245C4E8DF80640012533
:101150008DF807506946304602F02AF9012209212C
:10116000304602F0AEF901220B21304602F0A9F917
:101170004FF6FF704D4EADF808400390ADF81040AB
:10118000ADF80A4002A9304602F06EFF0420ADF827
:1011900014000A20ADF81C00ADF81640ADF8185048
:1011A00005A9304603F01AFA00231A4603213046F7
:1011B00003F07DFB0121304603F0FFFA01221146C6
:1011C000304603F0DAFA0121304603F0F6FA012244
:1011D0001146304603F0D1FA0121304602F0BCFF3F
:1011E0000021304602F082FF4FF4C06002F028F880
:1011F00019208DF820008DF821508DF822408DF8AF
:10120000235008A802F021F895E52DE9F0418AB0B5
:101210000121042002F0B8FA0121082002F096FA18
:101220004FF44050022600908DF8046003208DF8A2
:1012300005000024224F8DF8064001258DF8075047
:101240006946384602F0B4F84FF6FF70DFF8548074
:10125000ADF808400390ADF81040ADF80A4002A97F
:10126000404602F001FF02220C21384602F029F923
:1012700002220D21384602F024F90427C820ADF8D7
:101280001470ADF81C00ADF81660ADF8185005A943
:10129000404603F0A3F902231A460321404603F017
:1012A00006FB0FE000080040000002400000014083
:1012B00000400140000402400004004000100240D1
:1012C000000C02400121404603F077FA012211464A
:1012D000404603F052FA0121404602F03DFF42F23F
:1012E0001071404602F002FFFE480480A8F800504A
:1012F0004FF4C06001F0A4FF1E208DF820008DF88F
:1013000021708DF822408DF8235008A801F09DFF30
:101310000AB0BDE8F0812DE9F0418AB00121082032
:1013200002F032FA0121084602F010FA03200226E8
:101330008DF804608DF805000024EB4F00908DF8C7
:10134000064001258DF807506946384602F030F80E
:101350004FF6FF70DFF89483ADF808400390ADF8C6
:101360001040ADF80A4002A9404602F07DFE02227C
:101370000021384602F0A5F802220121384602F089
:10138000A0F80427C820ADF81470ADF81C00ADF823
:101390001660ADF8185005A9404603F01FF9022366
:1013A0001A460321404603F082FA0121404603F029
:1013B00004FA01221146404603F0DFF901214046BC
:1013C00002F0CAFE0021404602F090FEC7481430E9
:1013D0000480A8F800504FF4C06001F031FF3220C3
:1013E0008DF820008DF821708DF822408DF8235063
:1013F00008A801F02AFF8BE72DE9F0419CB00121FC
:10140000BB4802F0A3F901210D02284602F0C6F9FB
:10141000B8480024CDE90040B74802A94FF00808B9
:1014200081E81101A800CDE9054040000790800047
:10143000CDE908050AA90001012581E83100AF4E78
:101440000D94694630460E9402F078FC0121304636
:1014500002F0ADFC03273C268DF8587015968DF8E8
:101460005B4015A9A04801F0A3FF8DF858701596B0
:101470008DF85B4015A9A24801F09AFF3804CDE928
:101480001740B001CDE9194017A802F05CFA119499
:10149000129413942806974C0F908DF840504C3CB2
:1014A0008DF841508DF850800FA9204602F020FAA7
:1014B000042301220221204602F08FFA0423022293
:1014C0000321204602F089FA04230322194620460C
:1014D00002F083FA04231A460521204602F07DFA21
:1014E000042305220C21204602F077FA0423062269
:1014F0000D21204602F071FA042307220E21204616
:1015000002F06BFA042308220F21204602F065FA4C
:101510000121204602F0DEFA0121204602F0D0FA35
:101520000121204602F026FA204602F090FA1CB073
:10153000EFE608B54FF4E06001F082FE25208DF85B
:10154000000000208DF801008DF8020001208DF8C8
:101550000300684601F079FE08BD70B5054696B0F7
:101560000121102002F01AF90121084602F0EEF8DC
:101570000121880502F0EAF84FF4C06013900220C0
:101580008DF8500000248DF852408DF85340564E8F
:101590008DF8510013A9304601F00AFF07220921F6
:1015A000304601F08EFF07220A21304601F089FF04
:1015B0000F95ADF844400C20524DADF84040ADF8C9
:1015C0004600ADF84240ADF848400FA9284603F068
:1015D000E4F90121284603F051FA4FF4A06001F02C
:1015E0002FFE3A208DF854008DF855408DF8564066
:1015F00001208DF8570015A801F027FE3F4E303628
:10160000304602F013FB4FF0006000903A48694604
:101610001030CDE902040A200490281D0190001525
:10162000CDE905408010CDE9084040020A90042031
:101630000B9007940320CDE90C0430460E9402F081
:101640007DFB01224021284603F0AFFA0122102140
:10165000304602F021FC0121304602F0A8FB16B012
:1016600070BDF0B50646012197B0480502F06EF84E
:1016700001214D04284602F087F80121082002F0DC
:1016800065F86020139002208DF8500000248DF83A
:1016900052408DF853401C4F8DF8510013A9384625
:1016A00001F086FE07220521384601F00AFF0722D5
:1016B0000621384601F005FF0F96ADF844400C2096
:1016C000124EADF84040ADF84600ADF84240ADF8DE
:1016D00048400FA9304603F060F90121304603F07D
:1016E000CDF915E01408004000000240000C004055
:1016F000050040004C2001404C02002010640240D4
:101700000008024000100140000C0240004400406C
:101710004FF4A06001F094FD11208DF854008DF875
:1017200055408DF8564001208DF8570015A801F05E
:101730008CFDF94F384602F079FAA802009040205B
:101740000390F64802903C200490301D0190001553
:10175000CDE905408010CDE908400420CDE90A50CC
:1017600007940320CDE90C04694638460E9402F034
:10177000E5FA01228021304603F017FA0122802188
:10178000304603F012FA01221021384602F084FBA1
:101790000121384602F00BFB17B0F0BD70B50546CD
:1017A000012196B0880401F0EFFF0121082001F02B
:1017B000CDFF0121480501F0C9FF4FF4407013909F
:1017C00002208DF8500000248DF852408DF85340CF
:1017D000D34E8DF8510013A9304601F0E9FD0722E0
:1017E0000821304601F06DFE07220921304601F044
:1017F00068FE0F95CB4EADF84040ADF844400C2547
:10180000ADF84240ADF84840ADF846500FA930461B
:1018100003F0C3F80121304603F030F94FF4A06023
:1018200001F00EFD8DF854508DF855408DF856405E
:1018300001208DF8570015A801F007FDB64D783D41
:10184000284602F0F3F94FF000600090B648CDE969
:10185000020408200490301D01900015CDE90540D8
:101860008010CDE9084040020A9004200B900794B4
:101870000320CDE90C04694628460E9402F05EFA76
:1018800001224021304603F090F9012240213046E8
:1018900003F08BF901221021284602F0FDFA012104
:1018A000284602F084FADAE6F0B50646012197B040
:1018B000C80401F069FF0121084601F047FF01213A
:1018C000480501F043FF02208DF8500000248DF8F8
:1018D00052408DF85340954F03258DF851001395D4
:1018E00013A9384601F064FD08220021384601F0B2
:1018F000E8FD08220121384601F0E3FD0F96ADF81E
:1019000044400C208A4EADF84040ADF84600ADF89A
:101910004240ADF848400FA9304603F03EF801219F
:10192000304603F0ABF84FF4A06001F089FC0D20C5
:101930008DF854008DF855408DF8564001208DF8F3
:10194000570015A801F081FC734F603F384602F044
:101950006DF978050090744869460F38CDE90204A6
:1019600008200490301D01900015CDE9054080103D
:10197000CDE90840400207940A900420CDE90C54B8
:101980000B9038460E9402F0D9F9012240213046DE
:1019900003F00BF901224021304603F006F9012241
:1019A0001021384602F078FA0121384602F0FFF99A
:1019B000F2E62DE9F0418046012196B0480501F09C
:1019C000C5FE0121080501F0DFFE01210C2001F018
:1019D000BDFE02258DF8405000248DF84240504F46
:1019E00004268DF843400F968DF841500FA93846D4
:1019F00001F0DEFC8DF840508DF842408DF84340F8
:101A0000E8028DF841504B4D0F900FA9284601F088
:101A1000CFFC08220221384601F053FD08220C2198
:101A2000284601F04EFD4FF4A06001F009FC2F2084
:101A30008DF8540005208DF855008DF856000120D2
:101A40008DF8570015A801F000FCADF84C400C20B3
:101A5000394DADF84840ADF84E00CDF84480ADF8B2
:101A60004A40ADF8504011A9284602F096FF0121E6
:101A7000284603F003F8284F1837384602F0D6F806
:101A80007006009040200390274869466038029015
:101A900031200490281D01900015CDE905408010EB
:101AA000CDE908404002CDE90A0607940320CDE9BC
:101AB0000C0438460E9402F041F901228021284698
:101AC00003F073F801221021384602F0E5F90121F4
:101AD000384602F06CF916B01BE410B5012810D09E
:101AE00003282DD0042836D0052809D1124C2046D1
:101AF00002F0EAFF4021204603F077F80028F9D0F1
:101B000010BD0E4C204602F0DFFF4021204603F0BE
:101B10006CF80028F9D010BDA0600240CC00002075
:101B2000000C0240004800407A0200200000024001
:101B3000004C0040000802400050004000100140EE
:101B4000F94C204602F0C0FF4021204603F04DF83A
:101B50000028F9D0DFE7F54C204602F0B5FF402120
:101B6000204603F042F80028F9D0D4E701B581B04F
:101B7000019800EBC00040000090002801D0401EFA
:101B8000FAE70CBD01B581B044F2506101984843B9
:101B90000090002801D0401EFAE70CBD70B5E44D5E
:101BA00000206870044661210120FFF796FF322073
:101BB000FFF7E8FF641C022CF5D3012068707A203F
:101BC000287070BD70B5DA4D0020E87004466121C0
:101BD0000320FFF782FF3220FFF7D4FF641C022CA2
:101BE000F5D30120E8707A20A87070BD0121D1489A
:101BF00002F0DDB810B5401A029CE41A6043511A95
:101C000090FBF1F0184486E710B510EE100A04F0CE
:101C100001FD9FEDC91B53EC112B04F009FC04F0EE
:101C20000CFD00EE100A76E710B510EE100A04F075
:101C3000F1FC9FEDC31B53EC112B04F0F9FB04F0F6
:101C4000FCFC00EE100A66E790FBF1F010B54000D6
:101C500004F0CFFC9FEDBC1B53EC112B04F0E8FB10
:101C600004F0EBFC00EE100A55E710B5FFF7ECFFAF
:101C7000BDE81040C8E7904200DD1046884200DA17
:101C800008467047AA488030006BA94988617047B0
:101C9000A7498031096BA64A9269891A00D5494241
:101CA000814201DD01207047002070472DE9F04797
:101CB0000025A74E074601244FF400594FF48048F1
:101CC0004FF4805A00224146304601F0EFFB1020CD
:101CD000FFF74CFF274201D0012200E000224946D5
:101CE000304601F0E3FB01224146304601F0DEFBC5
:101CF0001020FFF73BFF5146304601F0BFFB00B11B
:101D00002543600010F0FF04DCD12846BDE8F087D1
:101D100070B58F4E4FF4004500222946304601F041
:101D2000C5FB1020FFF722FF0120FFF7BFFF422075
:101D3000FFF7BCFFFF20FFF7B9FFFF20FFF7B6FF5B
:101D40007B4CF4342070FF20FFF7B0FF6070FF2061
:101D5000FFF7ACFFA070FF20FFF7A8FFE070FF20A7
:101D6000FFF7A4FF2071FF20FFF7A0FF6071294655
:101D70003046BDE87040012201F098BB70B5744E4A
:101D80004FF4004500222946304601F08FFB102019
:101D9000FFF7ECFE0120FFF789FF4220FFF786FFE7
:101DA000044601222946304601F080FB1020FFF74F
:101DB000DDFE204670BD5E4A0021D161C2795C49DA
:101DC000F4310D2A09D0FF20087048708870C8705F
:101DD0000871487188710020704702780A70427853
:101DE0004A7082788A70C278CA7002790A71427920
:101DF0004A7180798871012070474D484C49F43010
:101E00000278FF2A05D14278FF2A02D18278FF2A80
:101E100009D0CA69531CCB61C82A03DDFF210170B8
:101E20004170817070470020C86170474048F430AD
:101E3000807970473E48F4300078400601D4012094
:101E40007047002070473A48F4300078800701D48A
:101E5000012070470020704770B5354B01250026E2
:101E600093F85040B833002803D004DDD8709E703A
:101E700005E0DC7003E0C0F10000D8709D7000291F
:101E800003D004DDD9719D7105E0DC7103E0C1F17F
:101E90000000D8719E71002A03D004DDDA729D72B1
:101EA00070BDDC7270BDC2F10000D8729E7270BD50
:101EB0001F49B831C870C871C87270471C490120E9
:101EC000C86470471A48B830C178032907D2C1796D
:101ED000032904D2C07A032801D2012070470020D0
:101EE00070471348806FA0F5EA41303901D00120D6
:101EF00070470020704751E60D48B0F90400404299
:101F000070470B48B5EEC00AD0ED090AF1EE10FAA1
:101F100002D230EE600A01E030EE200ABDEEC00AC7
:101F200010EE100A7047000000480040004C0040CE
:101F300014000020A0600240E5BF631ADCA54C40FD
:101F4000849E52A246DF913FEA2E4454FB21094071
:101F5000000C024010B5041E2DED048BF5489FEDDA
:101F6000F68B406E10D014DA04F043FB41EC190BF1
:101F7000204604F03EFB53EC182B04F059FA53ECC6
:101F8000182B04F04FFA13E09FEDED0ABDEC048B23
:101F9000C1E504F02EFB41EC190B204604F029FBAF
:101FA00053EC182B04F044FA53EC182B04F099F975
:101FB00053EC192B04F0AEFA04F03FFB00EE100ACC
:101FC000E4E7B5EEC00AF1EE10FAABDAB1EE400A82
:101FD000A8E70028A6DA4042A4E7D64991ED110A05
:101FE000D1ED121AF1EE400A80EEA11A00EE900A2D
:101FF000F8EEE00A01EE200ABDEEC00A10EE100A6B
:1020000090E7F0EE401A9FEDCF0AF5EEC01AF1EE20
:1020100010FA01D2F1EE611AF5EEC00AF1EE10FAF3
:1020200001D2F1EE600AB5EEC01AF1EE10FA01D25B
:10203000B1EE411AF4EEC01AF1EE10FA01DDB0EE85
:10204000610AF4EEC00AF1EE10FA01DDB0EE600AAA
:10205000B4EEC01AF1EE10FA01DDB0EE410A61E70C
:10206000B448406E5EE7B348803000695AE770B507
:10207000B04D2DED048BB0EE408A05F18004A86FC1
:10208000A0F5EA41303974D06268A169D4ED020A42
:10209000891A401A00EE100A95ED0C1AE068B8EEA5
:1020A000C00A00EEC10AD5ED0B0AC0EE208A04F08A
:1020B000B1FA95ED160A41EC190B20EE280A10EE44
:1020C000100A04F0A7FA41EC100B04F045FC51ECA7
:1020D000100B81F0004153EC192B04F0A3F904F02C
:1020E000ACFA6062E06804F095FA95ED0D0AD5ED62
:1020F000160A41EC190B38EE800A20EE200A10EE89
:10210000100A04F087FA41EC100B04F025FC53ECA4
:10211000192B51EC100B04F085F904F08EFAA06233
:1021200095ED0E0AD5ED160A38EE800A20EE200A4B
:1021300010EE100A04F06EFA41EC100B04F00CFCE7
:1021400051EC100B04F079FA00EE100AB1EE400ADF
:1021500084ED0B0AB5EEC08AF1EE10FA38D0286E85
:1021600080B1012814D0022819D0032830D123E0EF
:10217000FFE79FED730A84ED0B0A84ED0A0A84EDF4
:10218000090AE7E794ED090A30EE480A84ED090AE6
:1021900094ED0A0A30EE480A84ED0A0A05E094ED4F
:1021A000090A30EE480A84ED090A94ED0B0A30EE74
:1021B000480A84ED0B0A0BE094ED090A30EE480A58
:1021C00084ED090A94ED0A0A30EE480A84ED0A0A01
:1021D000243494EC030AFFF714FFD5ED080AF8EE57
:1021E000E00A80EE801ABDEEC10A10EE100AE86621
:1021F000696E814200DD68660120E865BDEC048BF4
:1022000070BD4C49002200288A66086711D19FEDF5
:102210004C0A01F180004A6680ED030A47F2305310
:102220008B67CB6780ED020A0A6602600261CA64AE
:102230001DE777E63F483F49803090ED020AB5EE52
:10224000C00AF1EE10FA04D10A6E12B90268002A2F
:1022500009D000229FED3A0A80ED020A0A66026068
:102260008169416003E75DE63248C0ED110A80ED07
:10227000120A57E62F4A30B4946F02F18003844269
:1022800009D1946E8C4206D1D3ED030AF4EE400AD4
:10229000F1EE10FA0FD09166516E09B90521516621
:1022A0009969596083ED030A90670020506793EDA8
:1022B000020A30BCDBE630BC70471E4B30B48033C2
:1022C0001C4A1C68844209D1D3ED020AF4EE400A8C
:1022D000F1EE10FA02D1146E8C42ECD0956F47F2F9
:1022E0003054A54219D13225956605255566A04280
:1022F00013DAB5EEC00A0124F1EE10FA1C6102DD1A
:102300009C69844207DCB5EEC00AF1EE10FA04D2F3
:102310009C69844201DAB1EE400A1860116683EDCF
:10232000020A0020506730BCA1E6C4E7014647F22C
:102330003050C2E7140000209A9999999999B93FB1
:10234000000000006F12833A1FED030A92E710B5F8
:1023500001462DED028BB0EE418AF0EE608AFE4818
:1023600000F18004D0ED1F0AF8EEE00AF4EE400A16
:10237000F1EE10FA0BD1826E8A4208D1D4ED000A38
:10238000F8EEE00AF4EE680AF1EE10FA49D0FDEE3C
:10239000C00AC0ED1F0AD4ED060AF8EEE00A30EEDE
:1023A000600ABDEEC00A10EE100A1FED1B0AFFF70F
:1023B00061FF94ED060AF8EEC00A78EEE00AFDEE41
:1023C000E00A10EE900A002800DA4042B8EEC00A97
:1023D000642819DDF4EEC08AF1EE10FA01DCB1EEEA
:1023E000488A18EE100A04F015F900BF04F025F928
:1023F000FDEEE80ABDEC028B00EE100ABDE81040CD
:10240000002110EE900A58E738EEC00A10EE100ACC
:1024100004F000F99FEDD11B53EC112B04F008F8E8
:10242000E4E7BDEC028B0EE4CB4910B580310869BE
:10243000012829DD8A690868801AFFF7CAFD052886
:1024400009DA0869421C0A61B0F57A7F1CDDBDE833
:1024500010400020D5E6C04A05200B699066B3F510
:10246000FA7F506602DD40F2F51008610A6888695B
:10247000904202DDBFEE000A01E0B7EE000A81EDF6
:10248000020ABDE81040F2E510BD70B5B2498031D6
:1024900091ED030AB5EEC00AF1EE10FA72D1AE4A20
:1024A000536E002B6ED0086847F23054A04269DAB0
:1024B00091ED020AB5EEC00AF1EE10FA7ED0956FEA
:1024C000A54260D1B5EEC00A1346F1EE10FA1B6CBE
:1024D00003DD8D69C41AAC4208DBB5EEC00AF1EE2B
:1024E00010FA17D28C690344A34213DD0B69032B46
:1024F00048DA8B69C01AFFF76CFD0A2808680ADA07
:102500004861002050661FED720A906681ED020A54
:102510000220086178E092ED190AD1ED020A8B6978
:10252000B8EEC00A984260EE200A92ED100AB8EEAA
:10253000C01A80EE810A0FDDFFF743FD0868896944
:10254000401AFFF746FD00EE900AB8EEE01AD2ED11
:102550000A0A40EE010A0EE0FFF733FD08688969B8
:10256000401AFFF736FD00EE900AB8EEE01AD2ED01
:102570000A0A50EE410A92ED190AB8EEC01A80EE2E
:10258000810A41E045E0744AB5EEC00AD2ED0F0A77
:10259000F1EE10FA18DD01EE100AF8EEC11A01EEA4
:1025A000103AB8EEC11A41EE401AB8EEE01A71EED8
:1025B000C11A91ED061AB8EEC11A00E027E0F4EE58
:1025C000C11AF1EE10FA1BD3B5EEC00AF1EE10FA03
:1025D0001AD201EE100AF8EEE00AF8EEC11A01EE86
:1025E000103AB8EEC11A41EE401A31EEA01AD1ED00
:1025F000060AF8EEE00AB4EEE01AF1EE10FA03DD96
:102600008969401AFFF7A6FCBDE870402FE54868CD
:10261000F6E770BD5048504980300269022A0CDA52
:102620001FEDB90A47F2305380ED030A80ED020A2C
:102630008B670022CB670A6602604B6F46485B1CC3
:102640004B674A6D006D934202DB4A67C96C01B16A
:102650002EE40020FCE7404A536F5B1C5367834223
:1026600004DD506E08445066002050675AE470B58F
:10267000FFF742FC384D8035A861FFF7D5FE364C98
:102680004FF0FF31A26E606E002A0BDD90420ED03B
:1026900006DAE16E88420ADAFFF79FFC012104E0C6
:1026A000286A02E0002831DD206FFFF7D4FFD5E96A
:1026B0000601814203D0FFF7E8FEA869E861E06DFA
:1026C000002826D094ED190AD5ED0B0AB8EEC00A01
:1026D00020EE200AFFF715FC94ED190AD5ED0A0A41
:1026E0000246B8EEC00A20EE200AFFF70AFC94ED7D
:1026F000190AD5ED090A0146B8EEC00A20EE200AF3
:10270000FFF7FFFBBDE87040FFF7A6BBBDE87040D8
:1027100080E770BD2DE9F041DFF84880404601F0C8
:10272000E9FC0D4E7169642740EA014090FBF7F423
:102730000025404601F0DEFC716940EA014090FB53
:10274000F7F0011B00D54942322900DA6D1C04461E
:10275000022DEEDBBDE8F081140000207B14AE47B3
:10276000E17A743F000C00402DE9F041F94F384602
:1027700001F0C0FCF84E3169002540EA01443846BA
:1027800001F0B8FC316940EA0140011B00D5494223
:10279000322901DA6D1CADB20446022DEFD3D9E720
:1027A000EF48EE494FF4FA72016000214160C0E940
:1027B00002120222C823C0E90423C0E90612E94B31
:1027C000C0E90813C0E90A210163343040F6B83388
:1027D000C0E900134FF4B973C0E902132823C0E91C
:1027E0000423C0E9061240F2DC53C0E90813C0E933
:1027F0000A21016304E4401A00D540421E2801DA90
:1028000001202CE400202AE410B5FFF783FFD4490F
:10281000D14CB8348861A07E0862E07EC8610A6944
:10282000904201DD012000E00020C862FFF79CFF1C
:10283000CB4934318861A07D0862E07DC8610A69B6
:10284000904201DD012000E00020C86210BD2DE9AA
:10285000F041C14D00249626B8354FF48057DFF87B
:10286000088304E0EE76AC76052003F0AAF9394639
:10287000404600F003FE0028F4D1BC480460B6488E
:1028800044610124BA4F04E0EE76AC76052003F0F3
:1028900098F9FFF73FFFB842F6DC0220E876B0482F
:1028A000046357E770B5AE4CD4E90012606AFFF7D5
:1028B000E2F96062D4E90412A06AFFF7DCF9A062D1
:1028C000616AA069FFF797FFA34DB83558B9A169B0
:1028D000606A88420DDD0020A8764FF48051A2483E
:1028E00000F0CCFD08B1207C01E094F82800E876E7
:1028F00070BD0120A876F8E7994AC2E9090198E479
:1029000038B5974C0D4661680091D4E902122368EE
:10291000FFF770F9C4E9090538BD2DE9F0418E4D86
:1029200001263227B835904C04E0EF75AE750520CE
:1029300003F047F98021204600F0A0FD0028F4D1E3
:10294000844800242430046083480461B8464FF46E
:10295000FA7705E085F81780AC75052003F031F9AA
:10296000FFF702FFB842F5DB0220E8757C483430FF
:102970000663EFE670B57A4C3434D4E90012606A2D
:10298000FFF779F96062D4E90412A06AFFF773F9DE
:10299000A062616AA069FFF72EFF6F4DB83580B95C
:1029A000A269616A7048914205DD0021A97501158F
:1029B00004E0E87570BD0121A975802100F05EFD7D
:1029C00008B1207CF5E794F82800F2E7644A343235
:1029D000C2E909012DE438B5614C0D463434616813
:1029E0000091D4E902122368FFF704F9C4E909054C
:1029F00038BDFFF7D5FEFFF790FF052003F0E1F8A3
:102A0000FBE7574B383BDA880021D888821A00D57B
:102A10005242322A01DA491C89B202460229F4D311
:102A2000002800DA404204E44D48002168304FF4A9
:102A30008062C0E9001202226423C0E9022313026B
:102A40008161C0E90432C0E907320122C0E90921ED
:102A500009E408E407E4401A00D54042142801DAEA
:102A6000012006E4002004E400B5FFF7CAFF3C495A
:102A7000683108613848B830827C8A61C07C48611E
:102A80008A68904201DD012000E00020486200BD1C
:102A9000334B00B56833D3E90012D869FFF7EBF880
:102AA000D861D3E90212186AFFF7E5F81862D9690C
:102AB0001869FFF7D0FF2849B83108B1187A09E042
:102AC0001A69D869904201DD012000E00020887475
:102AD00093F82000C87400BDC8E5C7E52DE9F14FA3
:102AE00096B0002014908DF800008DF828001C4846
:102AF0001699204A204E3838204BDFF86C80164C4F
:102B000064254FF400494FF480474FF4806A4FF436
:102B1000805B11297AD2DFE801F00951565A5E62D2
:102B20006D7A909BA4A8ACB4B9C5FC0002211046F4
:102B300000F0A4FC68B100224C464946304600F043
:102B4000B5FC2146304600F0A3FC014600220CA053
:102B5000A3E025E00004004014000020A8E4FFFFEB
:102B60008402002054F2FFFF00100240240C0040B9
:102B700030F8FFFF0004024000080240000001405E
:102B8000524F424F5420322044414E472043484147
:102B9000592053414E2058414E483A2020200000F1
:102BA00001224C464946304600F080FC2146304622
:102BB00000F06EFC01460022F4A06EE0FB4801220A
:102BC0008169FBA069E001890222FBA065E04189DF
:102BD0000322FDA061E081890422FEA05DE0184689
:102BE00001F088FAA168052240EA014090FBF5F166
:102BF000FCA052E04FF0804001F07CFAE168062230
:102C000040EA014090FBF5F1F9A046E047E01846A4
:102C100001F070FAA16840EA014090FBF5F64FF030
:102C2000804001F067FAE168072240EA014090FB2A
:102C3000F5F03118F2A0FDF787FDF44801F05AFADB
:102C40006169082240EA014090FBF5F1F0A024E020
:102C5000F24801F04FFA2169092240EA0141F0A04F
:102C60001BE0C1880A22F1A017E081880B22F2A0A4
:102C700013E08021404600F001FC01460C22F1A047
:102C80000BE0F3480D22016BF2A006E03946404606
:102C900000F0F4FB01460E22F2A0FDF755FD17B03F
:102CA000BDE8F08F0121404600F0E8FB0246F0A1AC
:102CB000684603F023FE69460AA803F0F3FA0221EE
:102CC000404600F0DBFB0246E9A1684603F016FE31
:102CD00069460AA803F0E6FA3946404600F0CEFB02
:102CE0000246E3A1684603F009FE69460AA803F01C
:102CF000D9FA4946404600F0C1FB0246DCA16846CD
:102D000003F0FCFD69460AA803F0CCFA082140460E
:102D100000E0A0E000F0B2FB0246D5A1684603F057
:102D2000EDFD69460AA803F0BDFA4FF480714046F4
:102D300000F0A4FB0246CEA1684603F0DFFD694621
:102D40000AA803F0AFFA0421404600F097FB0246C0
:102D5000C7A1684603F0D2FD69460AA803F0A2FAAB
:102D60008021404600F08AFB0246C1A1684603F07C
:102D7000C5FD69460AA803F095FA4021404600F0D7
:102D80007DFB0246BAA1684603F0B8FD69460AA871
:102D900003F088FA5146404600F070FB0246B4A1A9
:102DA000684603F0ABFD69460AA803F07BFA594672
:102DB000404600F063FB0246ADA1684603F09EFD6D
:102DC00069460AA803F06EFA4FF4005421464046C3
:102DD00000F054FB0246A6A1684603F08FFD694649
:102DE0000AA803F05FFA2021404600F047FB0246A4
:102DF0009FA1684603F082FD69460AA803F052FAD3
:102E00001021404600F03AFB024699A1684603F0C3
:102E100075FD69460AA803F045FA2146304600F0E0
:102E20002DFB024692A1684603F068FD69460AA898
:102E300003F038FA3946304600F020FB02468CA1F8
:102E4000684603F05BFD69460AA803F02BFA1022DE
:102E50000AA988A05AE1544651469046104600F00F
:102E600017FB024682A1684603F048FD69460AA89E
:102E700003F018FA8021304600F00AFB02467CA1DC
:102E8000684603F03BFD69460AA803F00BFA4FF4CD
:102E90000071304600F0FCFA024675A1684603F066
:102EA0002DFD69460AA803F0FDF9734E2146304610
:102EB00000F0EEFA02466EA1684603F01FFD694677
:102EC0000AA803F0EFF94FF4006A5146404600F0BB
:102ED000DFFA024666A1684603F010FD69460AA8BB
:102EE00003F0E0F95D465946404600F0D1FA02464B
:102EF0005FA1684603F002FD69460AA803F0D2F913
:102F00004FF40051404600F0C3FA024658A168460B
:102F100003F0F4FC69460AA803F0C4F939464046B8
:102F200000F0B6FA024652A1684603F0E7FC694693
:102F30000AA803F0B7F94946404600F0A9FA02464C
:102F40004BA1684603F0DAFC69460AA803F0AAF927
:102F50002146304600F09CFA024645A1684603F03F
:102F6000CDFC69460AA803F09DF93946304600F0C9
:102F70008FFA02463EA1684603F0C0FC69460AA8E3
:102F800003F090F95146304678E00000524F424F2E
:102F90005420322044414E47204348415920534158
:102FA0004E20444F3A2020200000000094000020D2
:102FB000494D553A000000004C415A4552204652B6
:102FC0004F4E543A000000004C415A4552204C45A7
:102FD00046543A004C415A45522052494748543AC7
:102FE00000000000454E205748204C4546543A000A
:102FF000454E2057482052494748543A00000000A7
:10300000454E2033205748533A000000000C004042
:10301000454E2041524D20583A0000000004004027
:10302000454E2041524D20593A0000004254204262
:103030004153453A00000000425420475249505045
:1030400045523A00434254205920546F703A0000D0
:1030500084020020434254205920426F74746F6DE3
:103060003A000000434254205820496E3A000000C4
:1030700025640000493A0000000C024000F008FA04
:103080000246AFF21401684603F038FC69460AA80C
:1030900003F008F95B4CB115204600F0F9F902463F
:1030A000AFF23401684603F029FC69460AA803F030
:1030B000F9F85146204600F0EBF90246AFF2500114
:1030C000684603F01BFC69460AA803F0EBF82946A2
:1030D000204600F0DDF90246AFF26C01684603F0CD
:1030E0000DFC69460AA803F0DDF84021404600F0D7
:1030F000CFF90246AFF28801684603F0FFFB69464C
:103100000AA803F0CFF811220AA93FA0FDF77BFB24
:10311000C5E511B43E48416B009A914201DD0021A2
:1031200001E0416B491C4163406B18BCD6E410B50B
:10313000FDF7C9FCFDF7FBFCFDF737FFFDF7F0FFDE
:10314000FEF75AF9FDF720FDFDF756FD4FF4E13487
:103150002046FEF702FA2046FEF783FA2046FEF7E5
:103160001DFB2046FEF7A0FBE000FEF722FCFEF769
:10317000D2F8BDE81040052002F023BD1020FFF773
:10318000C8FF0F2002F01DFDF8E71FB5FFF7CFFFC6
:103190000020009001900290034603904FF480724B
:1031A0001CA11E4802F036FB1D4C40F2DC550520E8
:1031B00002F007FD2021204600F060F90028F6D13A
:1031C00096212846FFF702FCF1E77FB500244FF473
:1031D000807500940194029423462A4611A1144854
:1031E000039402F017FB00940194029400232A46F2
:1031F00010A11248039402F00DFB02F031FE04B05E
:10320000002070BD000002404F55543A00000000FD
:10321000940000207461736B41726D00F329000803
:10322000001002407461736B4D61696E0000000014
:103230008B3100087461736B4C4344007D3100088E
:103240002849084328490860704730B50F22C478E0
:1032500001780123FCB1244C246801F1E02104F43D
:10326000E064C4F5E064C4F30724C4F10405E2405B
:103270004478AC408578154025432A0181F8002424
:10328000007800F01F018B404009800000F1E02031
:10329000C0F8003130BD01F01F00834048098000B4
:1032A00000F1E020C0F8803130BD104A11400143E8
:1032B0000D48001F016070470B4A121D002911685C
:1032C00001D0014300E08143116070474FF0E021DD
:1032D0000428086903D020F004000861704740F01A
:1032E0000400FAE70000FA050CED00E080FFFF1F84
:1032F0007C4910B5884206D10121084600F058FAF1
:10330000002101204FE07849884206D101210220A6
:1033100000F04EFA0021022045E07449884206D1AF
:103320000121042000F044FA002104203BE0704910
:10333000884206D10121082000F03AFA0021082035
:1033400031E06C49884206D10121102000F030FAAA
:103350000021102027E06849884206D10121202061
:1033600000F026FA002120201DE06449884206D1A1
:103370000121402000F01CFA0021402013E06049A8
:10338000884206D10121802000F012FA002180201D
:1033900009E05C4988420AD184150121204600F0E9
:1033A00007FA00212046BDE8104000F001BA10BD28
:1033B000F0B50023012403270D6804FA03F2154039
:1033C000954242D1D0F800C05E0007FA06F52CEA1B
:1033D000050CC0F800C091F804C0D0F800E00CFA69
:1033E00006FC4CEA0E0CC0F800C091F804C0BCF119
:1033F000010F02D0BCF1020F1FD1D0F808C02CEA97
:10340000050CC0F808C091F805C0D0F808E00CFA27
:1034100006FC4CEA0E0CC0F808C0D0F804C02CEA38
:10342000020CC0F804C0426891F806C00CFA03FC14
:103430001FFA8CFC42EA0C024260C268AA43C260D6
:10344000CA79C568B2402A43C2605B1C102BB3D353
:10345000F0BD4FF6FF710160002101714171817172
:10346000C171704708B541F480320092C261C161F8
:103470000099C161C169C069009008BD0246002081
:1034800012690A4200D001207047006980B270477B
:103490000246002052690A4200D00120704740696C
:1034A00080B2704701837047418370470AB101833E
:1034B0007047418370474161704742694A404261A9
:1034C00070474B07DB0E9A40C90810B500EB81002E
:1034D000016A0F249C40A1430162016A1143016209
:1034E00010BD00000000024000040240000802403D
:1034F000000C02400010024000140240001802407C
:10350000001C024000200240EA48016841F001012D
:103510000160E84A0021083211600268E64B1A4057
:103520000260031DE54A1A60026822F480220260EC
:10353000E0480C3001607047DE490022891C0A70A7
:103540000870704702460020510901290CD0022959
:103550000CD0D8497431096802F01F02012393404E
:103560000B4200D001207047D249F4E7D1497031B5
:10357000F1E718B500204FF4A06400903120FFF768
:10358000E1FF0099491C0091A14201D00028F5D02B
:103590003120FFF7D7FF002800D0012018BDC54912
:1035A0000A6822F0F80242EAC00008607047C44985
:1035B00008607047BF49002270310A700A70012804
:1035C00002D0042801D1052008707047BD49086069
:1035D000704741EA82115A0810B5BB4B029C03EBBD
:1035E00002421143014341EA0460B249091D0860E7
:1035F00010BDB34908667047800140EA0170AD49CB
:10360000843108607047AE4988667047AC49C86429
:103610007047A84A08321368084323F0EC63184344
:1036200010607047A34A08321368084323F07843B8
:103630001843106070479F4A0832116821F0030157
:103640000143116070479B480830006800F00C008F
:103650007047984A0832116821F0F0010143116067
:103660007047944A0832116821F4E0510143116017
:103670007047904908310A6822F4604242EAC0006B
:103680000860704770B58B4A083211688F4C11F092
:103690000C0104D06610042903D0082903D004606B
:1036A0001BE0066019E08349091D0B68C3F38055D0
:1036B0000B6803F03F0315B1B6FBF3F301E0B4FB75
:1036C000F3F30C680968C4F388146343C1F3014140
:1036D000491C4900B3FBF1F1016011680F2303EAB3
:1036E00011117B4B5C5C0168E14041601468072567
:1036F00005EA94241C5D21FA04F48460126805EA4A
:1037000052329A5CD140C16070BDC0F301210329DF
:1037100008D1684A0832116821F4F8136D49014054
:1037200019431160634970310A68C0F30B0002430A
:103730000A607047634944390860704761494039FD
:10374000086070475E49C1F85C017047594A3032E1
:103750000029116801D0014300E0814311607047E6
:10376000544A34320029116801D0014300E08143FA
:10377000116070474F4A38320029116801D0014367
:1037800000E08143116070474A4A403200291168C5
:1037900001D0014300E0814311607047454A443243
:1037A0000029116801D0014300E081431160704796
:1037B000404A10320029116801D0014300E08143E2
:1037C000116070473B4A14320029116801D001434F
:1037D00000E0814311607047364A183200291168B1
:1037E00001D0014300E0814311607047314A20322B
:1037F0000029116801D0014300E081431160704746
:103800002C4A24320029116801D0014300E0814391
:1038100011607047274A50320029116801D00143D6
:1038200000E0814311607047224A54320029116838
:1038300001D0014300E08143116070471D4A5832B6
:103840000029116801D0014300E0814311607047F5
:10385000184A60320029116801D0014300E0814319
:1038600011607047134A64320029116801D0014386
:1038700000E08143116070470E4A0D320029117833
:1038800001D0014300E08143117070470948743052
:10389000016841F08071016070470146054A0020CF
:1038A0000C3212680A4200D00120704701490E31E3
:1038B0000870704700380240FFFFF6FE1030002409
:1038C00000004742800E47420000FFFF0024F40042
:1038D0001C010020FFFCFF0F10B501210C02204647
:1038E000FFF78EFF2046BDE810400021FFF788BF9C
:1038F00030B54268C84B0C791A400B6842EA042282
:10390000134343608268C54B4D791A40D1E90343A4
:1039100023438C6844EA4504234313438360C26A0B
:10392000097D22F47002491EC9B242EA0151C16206
:1039300030BD00210160017141718160C160016190
:10394000012101757047B64B10B5D3F80423B54972
:103950000A40D0E900142143D0E902400443214346
:103960001143C3F8041310BD002101604160816060
:10397000C16070470029816802D041F0010101E077
:1039800021F00101816070474268A74B1A400A4349
:1039900042607047416282627047426822F01F02B3
:1039A0000A43426070479E490028D1F8040302D0C0
:1039B00040F4000001E020F40000C1F80403704767
:1039C00097490028D1F8040302D040F4800001E0B8
:1039D00020F48000C1F80403704770B5072409295A
:1039E0000AD9C568A1F10A0606EB4606B440A5430C
:1039F000B3401D43C56007E0056901EB4106B440D3
:103A0000A543B3401D4305611F23072A09D2446B18
:103A1000521E02EB820293409C4391400C4344634C
:103A200070BD0D2A09D2046BD21F02EB82029340B3
:103A30009C4391400C43046370BDC46A0D3A02EB91
:103A4000820293409C4391400C43C46270BD8168E4
:103A500041F0804181607047014600208968490239
:103A600000D5012070470029816802D041F48061AF
:103A700001E021F48061816070470029816802D0F3
:103A800041F0020101E021F00201816070474268CB
:103A9000491E22F4604242EA4131416070470029E8
:103AA000416802D041F4006101E021F4006141600D
:103AB0007047C06C80B270475948D0F8080370470F
:103AC0000029816802D041F4807101E021F4807105
:103AD000816070470029816802D041F4007101E0E3
:103AE00021F40071816070474D490028D1F804032A
:103AF00002D040F4005001E020F40050C1F804036B
:103B0000704770B5072409290AD9C568A1F10A06CA
:103B100006EB4606B440A543B3401D43C56007E02D
:103B2000056901EB4106B440A543B3401D4305615F
:103B3000836BC3F30154121B921C02EB82041F22FD
:103B4000A2409343A1400B43836370BD826B491E27
:103B500022F4401242EA01518163704708B50844DB
:103B60000090026008BD826822F470220A438260DD
:103B70007047826822F440120A438260704781686D
:103B800041F4800181607047014600208968490244
:103B900000D5012070470029416802D041F48061BE
:103BA00001E021F48061416070470029416802D042
:103BB00041F4805101E021F480514160704708B523
:103BC000084428300090006880B208BD01238B4073
:103BD00041680AB1194300E09943416070470246C9
:103BE000002012680A4200D001207047C9430160DA
:103BF000704730B50246002053680C0A01258D40FD
:103C000011682B40214202D0002B00D0012030BD92
:103C10006FEA112101607047FFFEFFFCFDF7FFC056
:103C200000200140E030FCFFFFFD3FFF2DE9F043A5
:103C3000016821F0010101600021016041608160A3
:103C4000C160016121214161B849B84A3D2510395F
:103C5000904202D18D60BDE8F083B44A4FF474669F
:103C60001832904201D18E60F5E7B04A4FF47417D4
:103C70003032904201D18F60EDE7AC4A4FF0746C66
:103C80004832904202D1C1F808C0E4E7A74BA84AE5
:103C90006033984201D1CA60DDE7A44CA54B78346B
:103CA000A04201D1CB60D6E7DFF88082A24C08F1B8
:103CB0009008404501D1CC60CDE7DFF870824FF02D
:103CC0003D5908F1A808404502D1C1F80C90C2E75F
:103CD0009A49DFF868820839404501D10D60BAE79A
:103CE000964D1835A84201D10E60B4E7934D30359A
:103CF000A84201D10F60AEE7904D4835A84202D1ED
:103D0000C1F800C0A7E78D4D8C496035091FA84256
:103D100001D10A609FE7894A7832904201D10B6055
:103D200099E7864A9032904201D10C6093E7834A2A
:103D3000A83290428FD1C1F800908CE730B503686B
:103D40007F4ACC6813400A682243D1E905452C43D9
:103D50002243CC6922430C6A22434C6A22438C6A78
:103D600022434C6B22438C6B22431A43026042690C
:103D700022F00703D1E90B2422431A4342610A6966
:103D800042604A6882608968C16030BD002101607C
:103D900041608160C160016141618161C161016215
:103DA00041628162C162016341638163704700299E
:103DB000016802D041F0010101E021F00101016040
:103DC00070470029016802D041F4004101E021F46C
:103DD0000041016070470029016802D041F02001D4
:103DE00001E021F0200101607047416070474068A8
:103DF00080B27047002A026802D042F4002201E03B
:103E000022F400220260016170470029016802D09B
:103E100041F4802101E021F48021016070470AB162
:103E200001617047C16070470146002009680903BD
:103E300000D501207047014600200968C90700D05D
:103E400001207047406900F03800704702463B4B44
:103E500000209A4202D2354A103A01E0374A103A1D
:103E60008B0001D5526800E01268364B1A400A42B6
:103E700000D001207047314A904202D22B481038BE
:103E800001E02E4810382F4A8B0001EA020101D5CB
:103E9000C1607047816070470B0607D5436912B156
:103EA00043F0800301E023F080034361802908D0C0
:103EB000002A026801F01E0101D00A4300E08A4393
:103EC0000260704730B51D4A0024904202D2174B61
:103ED000103B01E0194B103B1B4A114205D01E223A
:103EE00002EAD12502682A4002E0406900F080021F
:103EF000880001D5586800E01868124B1840084245
:103F000001D002B10124204630BD0C4A904202D2B9
:103F10000648103801E0094810380A4A8B0001EAC7
:103F2000020101D5C1607047816070471060024096
:103F30003D000020400F002000003D2010640240A2
:103F40003F801CF07D0F7D0F3C0F3C0FFE4910B5EC
:103F5000884206D101210846FFF752FC00210120CA
:103F60005BE0B0F1804F09D0F84988420DD10121C2
:103F70000220FFF73BFC0021022070E001210846EF
:103F8000FFF734FC0021012069E0F149884206D1A5
:103F900001210420FFF72AFC002104205FE0ED4905
:103FA000884206D101210820FFF720FC00210820CB
:103FB00055E0E949884206D101211020FFF716FC9F
:103FC000002110204BE0E549884206D10121202044
:103FD000FFF70CFC0021202041E0E149884206D196
:103FE00001210220FFF70CFC0021022015E0DD4931
:103FF000884202D101210C040AE0DB49884202D147
:1040000001214C0404E0D94988420AD101218C04E1
:104010002046FFF7F5FB00212046BDE81040FFF7E2
:10402000EFBBD349884206D101214020FFF7DEFBD8
:104030000021402013E0CF49884206D10121802091
:10404000FFF7D4FB0021802009E0CB4988420AD148
:10405000841501212046FFF7C9FB00212046BDE859
:104060001040FFF7C3BB10BD30B50288B64BBC4C47
:1040700098420DD0A0420BD0B0F1804F08D0B34D84
:10408000A84205D0B24DA84202D0B24DA84203D1F9
:1040900022F070054A882A43AF4DA84206D0AF4DA2
:1040A000A84203D022F440750A892A4302804A6854
:1040B000C2620A880285984201D0A04201D1897A61
:1040C00001860121818230BD4FF0FF314160002126
:1040D0000180018141808172704701858282704731
:1040E000028822F070020A430280704741627047E2
:1040F000C1627047406A7047008D7047002901888F
:1041000002D041F0020101E021F00201018070477C
:104110000029018802D041F0040101E021F00401EE
:10412000018070470029018802D041F0800101E040
:1041300021F0800101807047028822F0080202808D
:1041400002880A4302807047028822F4407202808B
:1041500002880A43028070470029018802D041F09A
:10416000010101E021F001010180704730B5028CAE
:1041700022F001020284028C8388048B22F0020266
:1041800024F073050C882C438D8915434A882A43F3
:104190006D4DA84202D0724DA8420DD122F0080503
:1041A000CA8923F440732A4322F004058A882A43EB
:1041B0000D8A1D434B8A2B438380048389684163A6
:1041C000028430BD70B5028C22F010020284028C91
:1041D0008488038B0D8823F4E6464FF6FF7303EAC9
:1041E000052535438E8922F0200203EA0616164380
:1041F0004A8803EA02123243534EB04202D0584E6C
:10420000B04215D122F08006CA8924F4406403EA42
:104210000212324322F040068A8803EA0212324335
:104220000E8A03EA860626434C8A03EA8404344352
:104230008480058389688163028470BD70B5028CB7
:1042400022F480720284028C8488838B0D8823F090
:1042500073031D4322F400738E894FF6FF7202EA46
:1042600006261E434B8802EA03233343364EB042F0
:1042700002D03B4EB04215D123F40066CB8924F422
:10428000405402EA0323334323F480668B8802EA16
:10429000032333430E8A02EA061626434C8A02EAB7
:1042A00004143443848085838968C163038470BDAA
:1042B00070B5028C22F480520284048C8288838B35
:1042C0000D8823F4E6464FF6FF7303EA05253543D0
:1042D00024F400568C8903EA043434434E8803EAFC
:1042E00006362643184CA04202D01D4CA04205D1F0
:1042F00022F480440A8A03EA821222438280858360
:1043000089680164068470BD00210180418081803C
:1043100081608181C18101824182704730B5012471
:10432000058C00F118038C40A543058431B308299E
:104330002CD0091FC1F34E001844016848F6FF73E2
:104340001940016001681AE00000014000040040CB
:1043500000080040000C0040001000400014004025
:104360000004014000400140004401400048014079
:1043700000180040001C00400020004006E04FF6FE
:10438000FF7303EA02221143016030BD03EB5100C9
:1043900001684FF68F73194001600168F3E74163CC
:1043A000704781637047C163704701647047028B37
:1043B00022F070020A4302837047028B4FF6FF73AC
:1043C00022F4E04203EA0121114301837047828B0A
:1043D00022F070020A4382837047828B4FF6FF738C
:1043E00022F4E04203EA0121114381837047028BEA
:1043F00022F008020A4302837047028B4FF6FF73D4
:1044000022F4006203EA0121114301837047828B89
:1044100022F008020A4382837047828B4FF6FF73B3
:1044200022F4006203EA0121114381837047028B69
:1044300022F004020A4302837047028B4FF6FF7397
:1044400022F4806203EA0121114301837047828BC9
:1044500022F004020A4382837047828B4FF6FF7377
:1044600022F4806203EA0121114381837047028BA9
:1044700022F080020A4302837047028B4FF6FF73DB
:10448000C2F30E0203EA0121114301837047828BBC
:1044900022F080020A4382837047828B4FF6FF73BB
:1044A000C2F30E0203EA0121114381837047028C9B
:1044B00022F002020A4302847047028C22F00802B2
:1044C0000A4302847047028C4FF6FF7322F02002E9
:1044D00003EA0111114301847047028C4FF6FF7308
:1044E00022F0800203EA0111114301847047028C1B
:1044F0004FF6FF7322F4007203EA01211143018495
:104500007047028C4FF6FF7322F4006203EA012128
:10451000114301847047028C4FF6FF7322F400525E
:1045200003EA013111430184704710B50123048C63
:104530008B409C430484038C8A401343038410BD46
:1045400010B50423048C8B409C430484038C8A4064
:104550001343038410BD828B22F440628283828BDA
:104560004FF6FF7303EA01210A4382837047828B6F
:1045700022F00C028283828B0A4382837047028B73
:1045800022F440620283028B4FF6FF7303EA01219B
:104590000A4302837047F0B5048C24F010040484AD
:1045A000078B068C4FF6FF7404EA011527F4734756
:1045B00004EA0331394304EA02220A4326F0A00147
:1045C000294341F0100102830184F0BD028B22F0E7
:1045D0000C020283028B0A43028370472DE9F041EB
:1045E0000D460E884988AA882B8904460EB3042EEE
:1045F00026D0082E268C4FF6FF7028D026F4805641
:104600002684A78B268C00EA022200EA013127F4D7
:1046100073473A4300EA0330104326F420420A432A
:1046200042F48051A0832184E9882046BDE8F0410E
:1046300091E700F062F9E9882046BDE8F041C5E75E
:10464000FFF7A9FFE9882046BDE8F04197E726F487
:1046500080762684A78B268C00EA012100EA0310CD
:10466000104327F0F307384326F420620A4342F44C
:104670008071A0832184E9882046BDE8F04176E777
:1046800000210180418001228280C1800181704728
:104690002DE9F0410C46002649880746012501B95D
:1046A0000226A288012A00D1022520882389002819
:1046B000384610D0FFF76FFFE1883846FFF75FFFFD
:1046C00023892A463146384600F017F9E1883846F2
:1046D000BDE8F0417AE700F010F9E1883846FFF7CD
:1046E00075FF23892A4631463846FFF754FFE18893
:1046F0003846BDE8F04142E7406B7047806B704739
:10470000C06B7047006C704710B50A884B88CC8826
:104710001A438B8823431A430B891A434B8989898F
:104720001A430A43A0F8442010BD002101804180B3
:104730008180C1800181418181817047002930F8E9
:10474000441F02D041F4004101E0C1F30E01018099
:1047500070470029818802D041F0040101E021F076
:104760000401818070470029818802D041F0010155
:1047700001E021F0010181807047002A828901D087
:104780000A4300E08A438281704781827047024673
:104790000020128A0A4200D001207047C9430182DA
:1047A000704702460020138A92890B4202EA0102F6
:1047B00002D0002A00D001207047C943018270470F
:1047C0001143A0F848107047002A828901D00A439B
:1047D00000E08A43828170470029818802D041F03D
:1047E000080101E021F0080181807047018921F072
:1047F000070101817047028922F070020A43028199
:10480000704700B50346FFF7F6FF188940F0070030
:10481000188100BD70B516460D46602904464FF05C
:10482000010231460AD000F068F829462046FFF719
:10483000E2FF208940F00700208170BDFFF7ABFE4A
:10484000F3E730B504894FF6FF7505EA03231343F8
:10485000E4B20B432343038130BD10B50446FFF798
:10486000F0FF208940F07700208110BD10B504468C
:10487000FFF7E7FF208940F48040208110BD828847
:1048800022F07002828082880A4382807047028907
:1048900022F00702028102890A43028170470289DD
:1048A00022F08002028102890A430281704770B5BA
:1048B0000589048B068C25F007050D434FF6FC4156
:1048C0000C4040F201110C434FF6FF7101EA031155
:1048D00026F022061143314305810483018470BD13
:1048E0000029818802D041F0800101E021F080019F
:1048F00081807047A0F85010704770B5048C24F088
:1049000001040484058B048C4FF6FF7606EA03133A
:10491000134325F0F3052B4324F00A020A4342F027
:1049200001010383018470BDC74910B5884206D1D7
:1049300001211020FEF764FF0021102028E0C34968
:10494000884202D101214C0410E0C149884202D1C1
:1049500001218C040AE0BF49884202D10121CC0424
:1049600004E0BD4988420AD101210C052046FEF72A
:104970003DFF2046BDE810400021FEF737BFB74994
:10498000884209D101212020FEF73AFF0021202092
:10499000BDE81040FEF734BF10BD7FB50446008A65
:1049A0000D4620F44051E88808432082A08941F256
:1049B0000C618843A9882A8911436A8902431143FB
:1049C000A181A08A20F44071A8890843A08268468A
:1049D000FEF758FE9C48844202D0A048844201D190
:1049E000039800E00298A189090400EBC00101EBE3
:1049F0000010296801D5490000E08900B0FBF1F200
:104A00006420B2FBF0F109010B096FF018056B434C
:104A100002EB8302A3891D044FF0320306D503EB9A
:104A2000C202B2FBF0F000F0070005E003EB021257
:104A3000B2FBF0F000F00F00084320817FBD4FF47F
:104A40001651016000218180C18001810C224281C8
:104A50008181704710B5028A4C8822F470630A88FD
:104A600022438C88C9880C4322431A43028210BD1A
:104A70000021018041808180C180704700298189A7
:104A800002D041F4005101E021F4005181817047CE
:104A9000028B02F47F420283028B0A430283704737
:104AA0000029818902D041F4004101E0C1F30E01E7
:104AB000818170470029818A02D041F4006101E0C0
:104AC00021F4006181827047C1F308018180704741
:104AD0008088C0F308007047028A22F00F02028229
:104AE000028A0A43028270470029818902D041F07C
:104AF000020101E021F0020181817047828922F4E4
:104B00000062828182890A4382817047028A22F090
:104B100020020282028A0A43028270470029018A27
:104B200002D041F4804101E021F4804101827047CC
:104B3000818941F00101818170470029818A02D079
:104B400041F0080101E021F0080181827047028BE9
:104B5000D2B20283028B42EA01210183704700290D
:104B6000818A02D041F0200101E021F02001818200
:104B700070470029818A02D041F0100101E021F044
:104B8000100181827047828A22F004028282828A26
:104B90000A43828270470029818A02D041F00201D3
:104BA00001E021F0020181827047002A828A01D04F
:104BB0000A4300E08A438282704710B5C1F3421372
:104BC00001F01F040121A140012B07D0022B07D0C7
:104BD0001430002A026805D00A4304E00C30F8E7DC
:104BE0001030F6E78A43026010BD024600201288AA
:104BF0000A4200D001207047C9430180704730B598
:104C000001F01F0201240025C1F3421304FA02F24D
:104C1000012B0FD0022B0FD0838A4FEA112100887D
:104C2000134204FA01F400EA040001D000B10125A6
:104C3000284630BD8389F0E7038AEEE70A0A01219E
:104C40009140C9430180704700100140004400407A
:104C500000480040004C004000500040001401405B
:104C600000F108014FF0FF32C0E90112C16001619B
:104C7000002101607047002101617047426853685C
:104C80004B6043688B605368996051604160086174
:104C90000168491C0160704710B50B685A1C02D0AE
:104CA00000F1080202E0026904E0526854682468D6
:104CB0009C42FAD953684B6099608A6051600861E0
:104CC0000168491C016010BDD0E901128A60D0E979
:104CD0000112516001694A68824201D182684A60CA
:104CE000002202610868401E0860086870470000E2
:104CF00070B50D4604001FD000F0EBFCD4E90F2185
:104D0000206802FB010363600023A363521EA060BE
:104D100002FB0100E060581E6064A06404F1100012
:104D20006DB1FFF79DFF04F12400FFF799FF00BF6D
:104D300000F0D7FC012070BDFBF77AFAFEE721698D
:104D40000029F5D001F07BF90128F1D100F0BBFC7E
:104D5000EEE72DE9F04117460E46050019D0502028
:104D600000F0DEFC040014D005FB06F0401C00F04F
:104D7000D7FC206050B1C4E90F5601212046FFF74F
:104D8000B7FF84F84D702046BDE8F081204600F062
:104D90001CFDFBF74DFAFEE770B5044600F099FCE8
:104DA00004F124050AE0606A58B1284601F047F989
:104DB00008B101F0BFF9A06C401EA064A06C0028EF
:104DC000F1DC4FF0FF36A66400F08BFC00F081FCB4
:104DD00004F110050AE0206958B1284601F02FF9C6
:104DE00008B101F0A7F9606C401E6064606C002897
:104DF000F1DC6664BDE8704000F073BC10B513468A
:104E0000026C04468AB1CBB1E06801F027FAE16890
:104E1000206C091AE1602268914202D26168081A86
:104E2000E060A06B401CA06310BD20680028F8D192
:104E3000606801F0C7F900206060F2E7A06801F047
:104E40000DFA216CA0680844A06061688842E8D32C
:104E50002068A060E5E72DE9FF4182B098460F4643
:104E600004004FF0000502D000261FB107E0FBF759
:104E7000DFF9FEE7206C10B1FBF7DAF9FEE700F08E
:104E800028FCA16BE06B814213D242463946204692
:104E9000FFF7B4FF606A38B104F1240001F0CFF8E5
:104EA000012801D100F00FFC00F01BFC012006B02E
:104EB0006AE7049808B11DB106E000F012FC1DE09D
:104EC000684601F0E9F8012500F00BFC00F046FE11
:104ED00000F0FFFB606C401C00D16664A06C401CBD
:104EE00000D1A66400F0FDFB04A9684601F0DFF8DC
:104EF00030B12046FFF750FF00F0C2FD0020D6E79A
:104F000000F0E7FBA06BE16B884210D100F0E9FBF9
:104F100004F11000049901F061F82046FFF73CFF0E
:104F200000F0AEFD0028AAD100F0CDFBA7E700F00D
:104F3000D8FB2046FFF730FF00F0A2FD9FE770B5D9
:104F40000546502000F0ECFB04001DD000216160FC
:104F50002160A160E160A1630120C4E90F01801E0E
:104F60006064A06484F84D5004F11000FFF778FEEF
:104F700004F12400FFF774FE00231A461946204668
:104F8000FFF769FF204670BDFBF752F9FEE710B549
:104F9000040009D001F0DAF8616888420FD1E068B6
:104FA000401EE06003D008E0FBF742F9FEE7002373
:104FB0001A4619462046FFF74EFF012010BD00207B
:104FC00010BD30B403680D46002B0CD0026CC168D4
:104FD0008C18C46041688C4200D3C360C168284605
:104FE00030BC01F03BB930BC70472DE9FF4383B0C2
:104FF0001F46884604004FF0000506D0002604F145
:105000002409B8F1000F03D007E0FBF711F9FEE720
:10501000206C10B1FBF70CF9FEE700F05AFBA06B17
:1050200030B341462046E568FFF7CBFF77B1E56036
:10503000606A28B1484601F002F808B100F043FB6D
:1050400000F04FFB012007B0BDE8F083A06B401ECD
:10505000A063206810B901F079F860602069002829
:10506000EED004F1100000F0EAFF0128E6D0E7E7F7
:10507000059808B11DB106E000F033FB1DE068465D
:1050800001F00AF8012500F02CFB00F067FD00F0AC
:1050900020FB606C401C00D16664A06C401C00D1F9
:1050A000A66400F01EFB05A9684601F000F830B1C7
:1050B0002046FFF771FE00F0E3FC0020C3E700F09C
:1050C00008FBA06B38B100F00CFB2046FFF764FE34
:1050D00000F0D6FCA1E700F004FB206830B900F036
:1050E000F8FA606801F040F800F0FBFA48460599CC
:1050F00000F074FF2046FFF74FFE00F0C1FC0028CF
:105100008BD100F0E0FA88E770B50D46040009D0B5
:1051100001F01CF86168884207D1E068401CE0603B
:10512000012070BDFBF784F8FEE700232A461946EC
:105130002046FFF75AFF0128F3D1E168491CE160DE
:1051400070BD10B50C4602220021FFF702FE08B127
:10515000846310BDFBF76CF8FEE72DE9F04198463B
:1051600015460F46040001D01FB107E0FBF760F8B9
:10517000FEE7206C10B1FBF75BF8FEE7FBF758F891
:105180000646A06BE16B88421AD242463946204659
:10519000FFF734FEA06C401C04D0A06C401CA0643F
:1051A00001240EE0606A0028FAD004F1240000F027
:1051B00046FF0028F4D0002DF2D001202860EFE750
:1051C00000243046FBF73BF82046DDE52DE9F041B1
:1051D00015460F46040001D01FB107E0FBF728F881
:1051E000FEE7206C10B1FBF723F8FEE7FBF720F891
:1051F0000646A06BE0B139462046FFF7E2FEA06B01
:10520000401EA063606C401C04D0606C401C606455
:1052100001240EE020690028FAD004F1100000F00B
:105220000EFF0028F4D0002DF2D001202860EFE717
:1052300000243046FBF703F82046A5E510B504002E
:1052400006D000F046FAA46B00F04BFA204610BDE1
:10525000FAF7EEFFFEE710B508B1806B10BDFAF764
:10526000E7FFFEE710B504000BD03348002100BF74
:1052700000EBC1025368A34206D1002240F831205E
:1052800005E0FAF7D5FFFEE7491C0829F0D32068AE
:1052900000F09BFA2046BDE8104000F096BA90F866
:1052A0004C00704780F84C10704790F84D007047E4
:1052B00010B518B1806B20B1002010BDFAF7B8FF0F
:1052C000FEE7012010BD10B528B1816BC06B814293
:1052D00004D1012010BDFAF7ABFFFEE7002010BD9E
:1052E00010B5154B002200BF53F832401CB1521CC0
:1052F000082AF9D310BD43F8321003EBC20148600D
:1053000010BD70B50D46044600F0E3F9626C002054
:10531000521C00D16064A16C491C00D1A06400F053
:10532000E0F9A06B20B9294604F1240000F073FED7
:105330002046BDE870402FE51803002070B500241A
:105340004160BF4D0061914206D8D11A82699142F5
:1053500006D2011DE86807E09A4203D2994201D3C0
:10536000012403E0011DA868FFF796FC204670BDEC
:10537000FEB5B34C1D46034627680020089E002F4B
:1053800008D08DE80E0035B100232A46694638461C
:10539000FFF7E3FEFEBD00F0DCFE01284FF0000346
:1053A00005D0002269462068FFF755FDFEBD324654
:1053B000F8E770B5054600F080FDA14E0446706820
:1053C000844203D200F078F8012000E00020286039
:1053D0002046746070BD9A4CA068016839B1C068FD
:1053E0000021006800F0E7F800F095F8F4E70121EB
:1053F0000020F7E710B500F06CF9914C206880B9F7
:105400009048FFF72DFC8F481430FFF729FC8D489A
:10541000A0601430E06000220C210A20FFF799FC04
:105420002060BDE8104000F05CB91FB5FFF7E2FF57
:105430008348006868B100200221CDE90010029085
:1054400003460A02039080A1814800F0E3F9002896
:1054500002D1FAF7EDFEFEE704B010BD2DE9F047EA
:105460001E46DDF8209017460D00804612D02820F9
:1054700000F056F904000AD0FFF7BCFFC4F8008022
:10548000C4E90657C4E90869201DFFF7F4FB20466C
:10549000BDE8F087FAF7CCFEFEE710B5044600F051
:1054A00018F9606908B1012400E0002400F019F93E
:1054B000204610BD006A7047F8B5614D20E0C16814
:1054C0000E68C068C468201DFFF7FEFB616A2046B5
:1054D0008847E069012813D1A0693044B04206D959
:1054E00024616060211DA868FFF7D6FB08E000205A
:1054F00003460146009032462046FFF739FF38B197
:10550000A86801680029DAD1E968C5E90210F8BD88
:10551000FAF78EFEFEE770B588B002A8FFF749FFE4
:105520000546474E3DE0069C24B1606910B1201D40
:10553000FFF7CAFB049830B1012832D0022820D0EE
:1055400003282ED12AE00598A169034601442A4682
:105550002046FFF7F3FE012823D1616A20468847E1
:10556000E06901281DD1002000900598A169002361
:10557000421819462046FFF7FBFE90B9FAF758FE8D
:10558000FEE70598A06130B141192B461A46204626
:10559000FFF7D4FE05E0FAF74BFEFEE7204600F0E9
:1055A00014F900231A4604A93068FFF71EFD0028ED
:1055B000B9D108B070BD2DE9FC410F46054600F099
:1055C000CDFA01A8FFF7F5FE0446019818B100F0E6
:1055D00057FABDE8FC811A4E37BBA54224D800F02B
:1055E0004FFAB0682746C068C468201DFFF76CFBFF
:1055F000E069012811D1A0692B4641193A4620469D
:10560000FFF79CFE012808D10020034601460090C8
:105610002A462046FFF7ACFE18B1616A204688474B
:10562000D7E7FAF705FEFEE7291B3068FFF769FEAA
:1056300000F026FA0028CCD100F045F8C9E70000B8
:105640002C01002058030020546D72205376630013
:10565000D753000810B5031F4FF080741C601B1F48
:105660001960191F00230B6014390A60091FDA1E24
:1056700044380A6010BD264842F210710068B0FB41
:10568000F1F14FF0E020491E4161072101617047AF
:10569000204810B5016841F47C010160016841F0C7
:1056A0007C410160FFF7E7FF1B4900200860FAF723
:1056B0008DFD1A48016841F040410160FAF77CFD18
:1056C000002010BD704713494FF080501C3908600E
:1056D000704710B5FAF7ACFD0F480168491C01602E
:1056E00010BD0D490868401E086001D1FAF7A7BD3A
:1056F0007047084910B51C394FF080500860FAF720
:1057000097FD00F06CF9BDE810400020FAF797BD56
:105710000000002020ED00E03C01002034EF00E01C
:105720002DE9F0410446002500F018FA374A02F14D
:105730000801506801F1080360B93548086000208D
:105740004FF420564860C3E900063148C0E90036EE
:105750000120506042F2FF7094B31034660704D009
:1057600004F00706C6F108063444661E864227D2B6
:1057700026480968083001E0084631464E68A642CE
:1057800002D20E68002EF7D1994219D005680B6835
:10579000036048681035001B20280DD90B1958608C
:1057A0001A484C6008305E6800E02046046867686C
:1057B000B742FAD31C60036048681168081A106089
:1057C00000F05EF92846BDE8F08110B5002817D03A
:1057D000A0F1100400F0C2F90C486168083000E044
:1057E0001046026853688B42FAD32260046007486F
:1057F0006168026811440160BDE8104000F040B9E2
:1058000010BD02480068704770470000400100204A
:10581000800300202DE9FF5FDDE90E68109F15462B
:105820008A465FEA000B04D0052E05D3FAF700FD87
:10583000FEE7FAF7FDFCFEE74C20FFF771FF0400DE
:105840001CD0A80081469FB13846206398B1A5229C
:10585000494600F015FD6FF00301206B01EB850157
:10586000084420F0070568070BD0FAF7E1FCFEE7D3
:10587000FFF756FFE9E72046FFF7A7FF4FF0FF3499
:105880007BE051460A2204F1340000F017FD0020AD
:1058900084F83D00E662201DA664FFF7ECF904F1F0
:1058A0001800FFF7E8F92461C6F105006462A06101
:1058B00059462846039AFFF7CDFE2060B8F1000F45
:1058C00001D0C8F80040FFF704FFF94DA868401C5C
:1058D000A8602868DFF8DC8310B1A86948B32DE020
:1058E0002C60A868012829D15FF0000707EB870129
:1058F00008EB8100FFF7B4F97F1C052FF6D3ED48C4
:105900006430FFF7ADF9EB487830FFF7A9F9E948C3
:105910008C30FFF7A5F9E748A030FFF7A1F9E5487B
:10592000B430FFF79DF9E348643068631430A8632E
:1059300004E02868C06AB04200D82C60E06A296997
:10594000884200D92861E96A2164491CE9626969D1
:10595000884200D9686100EB800108EB8100211DBD
:10596000FFF78CF90124FFF7BCFEA86928B128686D
:10597000C06AB04201D2FFF7A6FE04B02046BDE8DF
:10598000F09F70B50646FFF7A4FEC94C206886421A
:1059900001D1002620E0FEB13546281DFFF794F91D
:1059A000A86A18B105F11800FFF78EF9C148291D42
:1059B000A030FFF763F96068401C6060E06A401C3B
:1059C000E062FFF78EFEA069002807D0002E05D107
:1059D000BDE87040FFF777BE2568DEE770BD2DE9B2
:1059E000F041B34CE06920B1206A401C2062BDE860
:1059F000F081E068401CE060E0684FF0FF36A0B93D
:105A0000606B006810B1FAF713FCFEE7606BA16BE6
:105A10006163A063A06A401CA062606B0068A8B1CB
:105A2000606BC068C06840682063E068216B884292
:105A3000DDD3A04F606B006850B1606BC068C56873
:105A4000E1686868814205D22063D0E72663ECE70D
:105A50002663CCE7281DFFF737F9A86A18B105F1CE
:105A60001800FFF731F9E86A6169884200D960617E
:105A700000EB800007EB8000291DFFF7FFF8D9E756
:105A80002DE9F0478A4C0026E06938B1FFF721FE86
:105A9000E069401EE061E06918B142E0FAF7C8FB36
:105AA000FEE7A06898B3DFF80C82002708F18C08A5
:105AB000DFF800921AE0C068C56805F11800FFF72A
:105AC00003F9281DFFF700F9E86A6169884200D9E7
:105AD000606100EB800109EB8100291DFFF7CEF822
