:020000040800F2
:1000000018300020B5030008D9030008DB030008FE
:10001000DD030008DF030008E10300080000000022
:100020000000000000000000000000009D0100082A
:10003000E303000800000000E1010008BF610008C0
:10004000CF030008CF030008CF030008CF03000848
:10005000CF030008CF030008CF030008CF03000838
:10006000CF030008B7050008CF0300089504000877
:1000700057040008E1040008CF0300080904000841
:10008000CF03000811040008CF030008CF030008C5
:10009000CF030008CF030008CF030008CF030008F8
:1000A000CF0300081105000831050008CF03000840
:1000B000330500085305000873050008CF03000846
:1000C000CF030008CF030008CF030008B3050008E2
:1000D000CF030008E9030008CF030008CF0300089E
:1000E000CF030008CF030008CF030008CF030008A8
:1000F000CF030008CF030008CF030008B7040008AF
:10010000CF030008CF03000893050008B5050008D9
:10011000CF030008CF030008EB040008FF04000829
:10012000CF030008CF03000833040008CF03000802
:10013000CF030008CF030008CF030008CF03000857
:10014000CF030008CF030008CF030008CF03000847
:100150004D040008CF030008CF030008CF030008B8
:10016000CF030008CF030008CF030008CF03000827
:10017000CF030008CF030008CF030008CF03000817
:10018000CF030008CF030008DFF80CD007F022F9F6
:1001900000480047513C000818300020234B1968E4
:1001A0000868B0E8F04F80F309884FF0000080F352
:1001B000118870470000000003480068006880F361
:1001C000088862B600DF00BF08ED00E0DFF80C0031
:1001D000016841F470010160704700BF88ED00E0E4
:1001E000EFF30980114B1A681EF0100F08BF20EDC5
:1001F000108A20E9F04F106008B54FF0140080F32A
:10020000118806F0B2FA4FF0000080F31188BDE8C3
:10021000084019680868B0E8F04F1EF0100F08BFDA
:10022000B0EC108A80F30988704700BF900100206D
:10023000EFF311804FF0140181F31188704780F3C0
:10024000118870470CB500205149019000900A6850
:1002500042F480320A604FF4A0630A6802F400326C
:100260000092019A521C0192009A12B9019A9A4284
:10027000F3D10A68920334D50120009044484030FD
:10028000026842F0805202604248026842F48042B2
:1002900002603F48083002680260026842F400428F
:1002A0000260026842F4A0520260031F3A4A1A60D8
:1002B0000A6842F080720A600A689201FCD5374AE7
:1002C00040F205611160016821F0030101600168DD
:1002D00041F0020101600168C1F381010229FAD1F4
:1002E0000CBD00900CBD2A4810B5016841F0010119
:1002F0000160274A0021083211600268284B1A4029
:100300000260031D274A1A60026822F480220260FC
:100310001F480C300160FFF795FF23494FF0006044
:10032000086010BD70B51A4C083420681F4A10F0E0
:100330000C011F4804D05510042903D0082903D00C
:1003400002601BE0056019E01149091D0B68C3F349
:1003500080560B6803F03F0316B1B5FBF3F201E0E2
:10036000B2FBF3F20B680968C3F388135A43C1F375
:100370000141491C4900B2FBF1F1016021680C4ABE
:10038000C1F30311121D515C0268CA40026070BDC6
:10039000003802400070004008544007003C024012
:1003A000FFFFF6FE1030002408ED00E00024F4000A
:1003B000000000200648804706480047FEE7FEE7A9
:1003C000FEE7FEE7FEE7FEE7FEE7FEE7FEE7FEE705
:1003D000E7020008890100087047FEE7FEE7FEE734
:1003E000FEE770477047704710B5734C40F22551D7
:1003F000204605F06AF9002805D02046BDE81040E7
:10040000202105F05FB910BD6C496D4804F0E3BAD6
:1004100070B56B4D6B4C30352146284604F0B8FA68
:10042000002805D021462846BDE8704004F0D3BA24
:1004300070BD10B56449654804F0CDFA6448417850
:10044000007841EA00206349088010BD5F48624996
:10045000483004F0C0BA70B5594D604C483D214653
:10046000284604F095FA002813D02146284604F0C7
:10047000B2FA5B4801F089FC00280AD1594C0021EE
:10048000204605F061F82046BDE87040012105F0E6
:100490005BB870BD70B54A4D534C603D214628464F
:1004A00004F076FA002805D021462846BDE87040C1
:1004B00004F091BA70BD70B5414C4C4D483429469A
:1004C000204604F065FA002809D00021204604F0F7
:1004D000D4F929462046BDE8704004F07CBA70BDCE
:1004E00037483649303804F076BA10B50121404813
:1004F00004F0C9FE3F480168491C016010BD10B5F9
:1005000001213D4804F0BFFE2B497A20888010BDB0
:1005100010B53A4C0121204604F0B5FE2088C106F2
:100520003748016801D5491E00E0491C016010BD33
:10053000704710B501218C07204604F0A4FE2088E6
:10054000C1063048016801D5491E00E0491C016020
:1005500010BD10B52C4C0121204604F094FE2088DB
:10056000C1062A48016801D5491E00E0491C016006
:1005700010BD10B5264C0121204604F084FE2088D1
:10058000C1062448016801D5491E00E0491C0160EC
:1005900010BD10B5204C0121204604F074FE2088C7
:1005A000C1061E48016801D5491E00E0491C0160D2
:1005B00010BD704770477047001001402080002038
:1005C00070600240008020200080201040640240C3
:1005D00094020020180000200088002000880010ED
:1005E000B202002000480040208000100080002857
:1005F00000100040D0000020001400400000014026
:100600001C000020200000200004004024000020E6
:100610000008004028000020000C00402C000020B2
:1006200070B50546002406F0BBFBFE4902E02A5DDA
:100630000A55641C8442FADBBDE870400121FA4887
:1006400004F01BB970B5F94D06460024315D002950
:100650000BD0284604F09EFF8021284605F02BF899
:100660000028F9D0641CE4B2F0E770BD70B5EF4E1D
:1006700005460024002D0DD02946304604F08AFF9F
:100680008021304605F017F80028F9D0641CE4B248
:10069000032CEFD370BD73B50C460020FFF7E6FFC7
:1006A000E3A0FFF7CFFFDF482246E2A1823806F041
:1006B000DBFEDC488238FFF7C5FFDFA0FFF7C2FF93
:1006C000DFA0FFF7BFFFD748DAA18238009A06F013
:1006D000CBFED44E0024D54D823E2846315D04F039
:1006E00059FF4021284604F0E6FF0028F9D0641C99
:1006F000142CF2DBD2A0FFF7A5FFFF20FFF7B6FF17
:10070000FF20FFF7B3FFBDE87C40FF20AEE770B5E8
:1007100005460C46C6A0FFF795FFC2482246C5A174
:10072000823806F0A1FEBF488238FFF78BFFC5A0D4
:10073000FFF788FF2846FFF785FFC1A0FFF782FF7C
:10074000BDE87040FF2091E777B5BEA185B00646B1
:10075000D1E90001CDE90001B9A0002200680390B1
:10076000B3A0B04D0068283DA5F128030290AD4C20
:100770001146A3F13200A95499548154A154521C3A
:10078000D2B21E2AF7D30A210170FF24447084706C
:10079000C470A448A7A15038079A06F065FEA14985
:1007A00002A8503906F0E4FA9E4802A9823806F001
:1007B000DFFA9C486946823806F0DAFA99483146F1
:1007C000823806F0D5FA97489AA15038069A06F072
:1007D0004BFE94495039A1F1320006F0C9FA914814
:1007E00003A9823806F0C4FA8E492C706C7028393F
:1007F000AC70A1F15A0006F0BBFA8A488238FFF7C4
:100800000FFF08B070BD2DE9F74188468DA185B076
:100810000646D1E90001CDE9000189A00022006867
:10082000039083A07F4D0068283DA5F12801029028
:100830001446A1F13200AC548C548454521CD2B2F0
:100840000A2AF8D30A210170FF2747708770C77002
:10085000744878A15038079A06F006FE714902A83C
:10086000503906F085FA6F4802A9823806F080FAFE
:100870006C486946823806F07BFA6A48314682380D
:1008800006F076FA67484146823806F071FA654804
:1008900003A9823806F06CFA2F706F706149AF704F
:1008A000EC7028392C71A1F15A0006F061FA5D480C
:1008B0008238FFF7B5FE08B0BDE8F08170B50020C2
:1008C000FFF7D4FE5AA0FFF7BDFE56480D2259A1EE
:1008D000823806F0C9FD53488238FFF7B3FE59A0AD
:1008E000FFF7B0FE594C2021204603F02DFB0246B5
:1008F0004C4850A1823806F0B7FD4A488238FFF7CD
:10090000A1FE1021204603F01FFB0246454849A1E5
:10091000823806F0A9FD43488238FFF793FE4C4D1C
:100920008021284603F010FB02463E4841A1823850
:1009300006F09AFD3B488238FFF784FE40212846A6
:1009400003F002FB024637483AA1823806F08CFDDC
:1009500034488238FFF776FE4FF40041204603F01A
:10096000F3FA02462F4833A1823806F07DFD2D4868
:100970008238FFF767FE4FF48041204603F0E4FA27
:10098000024628482BA1823806F06EFD25488238A1
:10099000FFF758FE4FF40051204603F0D5FA024607
:1009A000204824A1823806F05FFD1E488238FFF7F8
:1009B00049FE4021274803F0C7FA024619481DA105
:1009C000823806F051FD17488238FFF73BFE1CA025
:1009D000FFF738FEFF20FFF749FEFF20FFF746FE36
:1009E000BDE87040FF2041E6FEB51BA10646D1E9F7
:1009F0000001CDE900011AA000210A4D0068283D40
:100A0000A5F1280202900C46A2F132006C54545415
:100A10004454491CC9B23229F8D30A210170FF2776
:100A200047701FE052020020B860024000500040B2
:100A300074000000256400002E7478743D000000EE
:100A4000220000002E7478743D220000000802404D
:100A500000000240001002402E76616C3D00000054
:100A60006A0000008770C7700022AFF23801FE48AC
:100A700006F0FAFCFC4902A806F07AF9FA4802A945
:100A8000323806F075F9F8486946323806F070F9E0
:100A90003246AFF26001F44806F0E6FCF249A1F1FB
:100AA000320006F065F92F706F70EF49AF70EC708F
:100AB00028312C71A1F15A0006F05AF9EA4832386F
:100AC000FFF7AEFDFEBD2DE9FC4101211F2003F023
:100AD000A3FB01248DF8044000268DF806604FF634
:100AE000FF758DF80740032700958DF8057069465E
:100AF000DE4803F0C3F98DF804408DF806608DF8E8
:100B0000074000958DF805706946D94803F0B6F99D
:100B10008DF804408DF806608DF8074000958DF83B
:100B200005706946D34803F0A9F9BDE8FC817CB59E
:100B300001217E2003F070FB0024C0208DF80440CA
:100B4000012500908DF8075002268DF80560694652
:100B5000C94803F093F906208DF8044000908DF801
:100B600007508DF805606946C04803F087F90420F6
:100B70008DF8044000908DF807508DF805606946A7
:100B8000BB4803F07BF97CBD1FB54FF4E06003F078
:100B9000BDF836208DF80C0000248DF80D408DF83E
:100BA0000E4001208DF80F0003A803F0B4F80121D6
:100BB000102003F04FFB5320ADF80000ADF80840C3
:100BC000ADF8024040F2E730AC4C01906946204657
:100BD00003F0B0FF0121204604F055FB012211462D
:100BE000204604F030FB0021204603F0E5FF012100
:100BF000204604F017F81FBD1FB54FF4E06003F066
:100C000085F837208DF80C0000248DF80D408DF804
:100C10000E4001208DF80F0003A803F07CF801219D
:100C2000202003F017FB4FF4FA70ADF80000ADF888
:100C30000840ADF8024040F2E730914C019069461F
:100C4000204603F077FF0121204604F01CFB01221F
:100C50001146204604F0F7FA0021204603F0ACFFCD
:100C60000121204603F0DEFF1FBD70B58AB00121CF
:100C7000022003F0F9FA01210C2003F0CDFA7C4E9A
:100C800003220621304603F082F903220721304671
:100C900003F07DF903220821304603F078F903229E
:100CA0000921304603F073F94FF47070059002206B
:100CB0008DF8180003208DF8190000248DF81A40D3
:100CC00001258DF81B5005A9304603F0D7F8A42064
:100CD000ADF81C0040F6B83008902802694EADF817
:100CE0002400ADF81E4007A9304603F023FF602022
:100CF000ADF80000ADF802500294ADF80C400121AF
:100D0000304603F08FFF0021304603F055FF69465F
:100D1000304603F091FF6946304603F0B9FF69465B
:100D2000304603F0F1FF6946304604F027F8012110
:100D3000304604F069FA0AB070BD70B58AB001217E
:100D4000082003F087FA0121084603F065FA4A4EAD
:100D500002220021304603F01AF902220121304616
:100D600003F015F902221146304603F010F9022271
:100D70000321304603F00BF90F20059002208DF877
:100D8000180003208DF8190000248DF81A40012561
:100D90008DF81B5005A9304603F070F8BA20ADF865
:100DA0001C0042F21070384E0890ADF82440ADF8A7
:100DB0001E4007A9304603F0BDFE6020ADF80000DC
:100DC000ADF802500294ADF80C400121304603F01A
:100DD00029FF0021304603F0EFFE6946304603F05C
:100DE0002BFF6946304603F053FF6946304603F057
:100DF0008BFF6946304603F0C1FF0121304604F005
:100E000003FA98E770B58AB00121042003F022FAB2
:100E100001210D2003F000FA164E02220C2130466B
:100E200003F0B5F802220D21304603F0B0F802229B
:100E30000E21304603F0ABF802220F21304603F0BA
:100E4000A6F84FF47040059002208DF8180003209A
:100E50008DF8190000248DF81A4001258DF81B50DB
:100E600005A9304612E00000020200200004024002
:100E700000080240000C0240000002400010004048
:100E80000014004000040140000C004002F0F6FF96
:100E9000A420ADF81C0040F6B83008902802ADF848
:100EA0002400ADF81E4007A9FE4E304603F042FE76
:100EB0006020ADF80000ADF802500294ADF80C408F
:100EC0000121304603F0AEFE0021304603F074FEEF
:100ED0006946304603F0B0FE6946304603F0D8FE5E
:100EE0006946304603F010FF6946304603F046FF7E
:100EF00021E770B5012188B0080403F0B5F901219C
:100F0000084603F089F9E84E03221146304603F003
:100F10003EF803220221304603F039F80C200090FD
:100F200002208DF8040003208DF8050000248DF8C0
:100F3000064001258DF807506946304602F09EFFB5
:100F4000BA20ADF8080042F21070D84E0390ADF808
:100F50001040ADF80A4002A9304603F0EBFD042032
:100F6000ADF81400C820ADF81C00ADF81640ADF87F
:100F7000185005A9304604F097F8CD4C00231A46C6
:100F80000321204604F0F9F90121204604F07BF901
:100F900001221146204604F056F90121304603F0A3
:100FA00041FE0021204603F007FE2AE42DE9F04728
:100FB00001218AB0084603F04DF90121022003F017
:100FC00049F90121032003F027F9DFF8DC9201221F
:100FD0000F21484602F0DBFFDFF8D882012203210F
:100FE000404602F0D4FF02220421404602F0CFFF27
:100FF00002220521404602F0CAFF02268DF8046055
:10100000032738208DF80570002400908DF80640E5
:1010100001258DF807506946404602F02FFF8DF8F4
:101020000460E8038DF8057000908DF806408DF897
:1010300007506946484602F021FF4FF6FF70ADF8B1
:101040000C4004904FF08049ADF81440ADF80E40CC
:1010500003A9484603F06EFDDFF85CA203A95046E1
:1010600003F068FD4FF004081420ADF81880ADF8C7
:101070002000ADF81A60ADF81C5006A9484604F0EF
:1010800013F806A9504604F00FF802231A4603216C
:10109000484604F072F902231A460321504604F030
:1010A0006CF90121484604F0EEF80121504604F0A5
:1010B000EAF801221146484604F0C5F8012211461B
:1010C000504604F0C0F80121484603F0ABFD012171
:1010D000504603F0A7FD0021484603F06DFD0021B6
:1010E000504603F069FD780202F010FE1D208DF8D5
:1010F00008008DF809708DF80A408DF80B5002A891
:1011000002F009FE1C208DF808008DF809808DF88A
:101110000A408DF80B5002A802F0FDFD0AB0BDE8B0
:10112000F08770B501218AB0084603F09DF80121CF
:10113000102003F071F84FF42060009002208DF829
:10114000040003208DF8050000245C4E8DF8064055
:1011500001258DF807506946304602F08FFE0122C6
:101160000921304602F013FF01220B21304602F024
:101170000EFF4FF6FF704D4EADF808400390ADF8EE
:101180001040ADF80A4002A9304603F0D3FC042019
:10119000ADF814000A20ADF81C00ADF81640ADF80B
:1011A000185005A9304603F07FFF00231A4603219B
:1011B000304604F0E2F80121304604F064F80122E0
:1011C0001146304604F03FF80121304604F05BF848
:1011D00001221146304604F036F80121304603F072
:1011E00021FD0021304603F0E7FC4FF4C06002F01F
:1011F0008DFD19208DF820008DF821508DF82240AA
:101200008DF8235008A802F086FD94E52DE9F04101
:101210008AB00121042003F01DF80121082002F00A
:10122000FBFF4FF44050022600908DF8046003202D
:101230008DF805000024224F8DF8064001258DF819
:1012400007506946384602F019FE4FF6FF70DFF886
:101250005480ADF808400390ADF81040ADF80A4056
:1012600002A9404603F066FC02220C21384602F037
:101270008EFE02220D21384602F089FE0427C82086
:10128000ADF81470ADF81C00ADF81660ADF818504C
:1012900005A9404603F008FF02231A4603214046F1
:1012A00010E0000000080040000002400000014083
:1012B00000400140000402400004004000100240D1
:1012C000000C024004F059F80121404603F0DBFF16
:1012D00001221146404603F0B6FF0121404603F0CB
:1012E000A1FC42F21071404603F066FCFE48048007
:1012F000A8F800504FF4C06002F008FD1E208DF8E1
:1013000020008DF821708DF822408DF8235008A818
:1013100002F001FD0AB0BDE8F0812DE9F0418AB08C
:101320000121082002F096FF0121084602F074FF17
:10133000032002268DF804608DF805000024EB4F91
:1013400000908DF8064001258DF807506946384613
:1013500002F094FD4FF6FF70DFF89483ADF808407B
:101360000390ADF81040ADF80A4002A9404603F0E2
:10137000E1FB02220021384602F009FE022201218F
:10138000384602F004FE0427C820ADF81470ADF80A
:101390001C00ADF81660ADF8185005A9404603F0E2
:1013A00083FE02231A460321404603F0E6FF012193
:1013B000404603F068FF01221146404603F043FF18
:1013C0000121404603F02EFC0021404603F0F4FBCF
:1013D000C74814300480A8F800504FF4C06002F0F1
:1013E00095FC32208DF820008DF821708DF8224078
:1013F0008DF8235008A802F08EFC8BE72DE9F04110
:101400009CB00121BB4802F007FF01210D022846D4
:1014100002F02AFFB8480024CDE90040B74802A9ED
:101420004FF0080881E81101A800CDE9054040000F
:1014300007908000CDE908050AA90001012581E88F
:101440003100AF4E0D94694630460E9403F0DCF93E
:101450000121304603F011FA03273C268DF858701D
:1014600015968DF85B4015A9A04802F007FD8DF890
:10147000587015968DF85B4015A9A24802F0FEFC45
:101480003804CDE91740B001CDE9194017A802F0A2
:10149000C0FF1194129413942806974C0F908DF866
:1014A00040504C3C8DF841508DF850800FA920469B
:1014B00002F084FF042301220221204602F0F3FF00
:1014C000042302220321204602F0EDFF042303221D
:1014D0001946204602F0E7FF04231A46052120465C
:1014E00002F0E1FF042305220C21204602F0DBFF7D
:1014F000042306220D21204602F0D5FF04230722F3
:101500000E21204602F0CFFF042308220F2120469F
:1015100002F0C9FF0121204603F042F801212046D4
:1015200003F034F80121204602F08AFF204602F041
:10153000F4FF1CB0EFE608B54FF4E06002F0E6FB04
:1015400025208DF8000000208DF801008DF80200A4
:1015500001208DF80300684602F0DDFB08BD70B580
:10156000054696B00121102002F07EFE01210846BA
:1015700002F052FE0121880502F04EFE4FF4C060D9
:10158000139002208DF8500000248DF852408DF801
:101590005340564E8DF8510013A9304602F06EFCB0
:1015A00007220921304602F0F2FC07220A213046C8
:1015B00002F0EDFC0F95ADF844400C20524DADF813
:1015C0004040ADF84600ADF84240ADF848400FA9A4
:1015D000284603F048FF0121284603F0B5FF4FF4E9
:1015E000A06002F093FB3A208DF854008DF855402E
:1015F0008DF8564001208DF8570015A802F08BFB9E
:101600003F4E3036304603F077F84FF000600090E0
:101610003A4869461030CDE902040A200490281D9A
:1016200001900015CDE905408010CDE90840400249
:101630000A9004200B9007940320CDE90C04304657
:101640000E9403F0E1F801224021284604F013F83B
:1016500001221021304603F085F90121304603F0C4
:101660000CF916B070BDF0B50646012197B04805DB
:1016700002F0D2FD01214D04284602F0EBFD0121CC
:10168000082002F0C9FD6020139002208DF8500060
:1016900000248DF852408DF853401C4F8DF85100B6
:1016A00013A9384602F0EAFB07220521384602F06A
:1016B0006EFC07220621384602F069FC0F96ADF851
:1016C00044400C20124EADF84040ADF84600ADF855
:1016D0004240ADF848400FA9304603F0C4FE012156
:1016E000304603F031FF15E01408004000000240CE
:1016F000000C0040050040004C2001408402002006
:10170000106402400008024000100140000C02403A
:10171000004400404FF4A06002F0F8FA11208DF868
:1017200054008DF855408DF8564001208DF8570033
:1017300015A802F0F0FAF94F384602F0DDFFA802D2
:10174000009040200390F64802903C200490301D09
:1017500001900015CDE905408010CDE90840042036
:10176000CDE90A5007940320CDE90C0469463846B8
:101770000E9403F049F801228021304603F07BFFEC
:1017800001228021304603F076FF012210213846E5
:1017900003F0E8F80121384603F06FF817B0F0BD08
:1017A00070B50546012196B0880402F053FD012171
:1017B000082002F031FD0121480502F02DFD4FF413
:1017C0004070139002208DF8500000248DF8524094
:1017D0008DF85340D34E8DF8510013A9304602F0D6
:1017E0004DFB07220821304602F0D1FB07220921D8
:1017F000304602F0CCFB0F95CB4EADF84040ADF833
:1018000044400C25ADF84240ADF84840ADF8465094
:101810000FA9304603F027FE0121304603F094FE65
:101820004FF4A06002F072FA8DF854508DF85540D4
:101830008DF8564001208DF8570015A802F06BFA7C
:10184000B64D783D284602F057FF4FF000600090FB
:10185000B648CDE9020408200490301D019000151F
:10186000CDE905408010CDE9084040020A900420EF
:101870000B9007940320CDE90C04694628460E948A
:1018800002F0C2FF01224021304603F0F4FE0122A3
:101890004021304603F0EFFE01221021284603F0DC
:1018A00061F80121284602F0E8FFDAE6F0B50646C5
:1018B000012197B0C80402F0CDFC0121084602F0D6
:1018C000ABFC0121480502F0A7FC02208DF8500076
:1018D00000248DF852408DF85340954F03258DF824
:1018E0005100139513A9384602F0C8FA08220021C6
:1018F000384602F04CFB08220121384602F047FB33
:101900000F96ADF844400C208A4EADF84040ADF83B
:101910004600ADF84240ADF848400FA9304603F00C
:10192000A2FD0121304603F00FFE4FF4A06002F04B
:10193000EDF90D208DF854008DF855408DF8564086
:1019400001208DF8570015A802F0E5F9734F603FAC
:10195000384602F0D1FE78050090744869460F3889
:10196000CDE9020408200490301D01900015CDE956
:1019700005408010CDE90840400207940A900420F9
:10198000CDE90C540B9038460E9402F03DFF012235
:101990004021304603F06FFE01224021304603F023
:1019A0006AFE01221021384602F0DCFF0121384690
:1019B00002F063FFF2E62DE9F0418046012196B086
:1019C000480502F029FC0121080502F043FC012131
:1019D0000C2002F021FC02258DF8405000248DF8E7
:1019E0004240504F04268DF843400F968DF84150E9
:1019F0000FA9384602F042FA8DF840508DF8424067
:101A00008DF84340E8028DF841504B4D0F900FA9DF
:101A1000284602F033FA08220221384602F0B7FACB
:101A200008220C21284602F0B2FA4FF4A06002F01E
:101A30006DF92F208DF8540005208DF855008DF894
:101A4000560001208DF8570015A802F064F9ADF892
:101A50004C400C20394DADF84840ADF84E00CDF863
:101A60004480ADF84A40ADF8504011A9284603F033
:101A7000FAFC0121284603F067FD284F1837384645
:101A800002F03AFE70060090402003902748694615
:101A90006038029031200490281D01900015CDE996
:101AA00005408010CDE908404002CDE90A060794C0
:101AB0000320CDE90C0438460E9402F0A5FE012265
:101AC0008021284603F0D7FD01221021384602F07C
:101AD00049FF0121384602F0D0FE16B01BE410B5D4
:101AE000012810D003282DD0042836D0052809D18C
:101AF000124C204603F04EFD4021204603F0DBFD52
:101B00000028F9D010BD0E4C204603F043FD4021C3
:101B1000204603F0D0FD0028F9D010BDA06002409F
:101B2000F4000020000C024000480040B2020020F7
:101B300000000240004C00400008024000500040FD
:101B400000100140F84C204603F024FD40212046BF
:101B500003F0B1FD0028F9D0DFE7F44C204603F094
:101B600019FD4021204603F0A6FD0028F9D0D4E756
:101B700001B581B0019800EBC00040000090002842
:101B800001D0401EFAE70CBD01B581B044F25061AE
:101B9000019848430090002801D0401EFAE70CBD90
:101BA00070B5E34D00206870044661210120FFF705
:101BB00096FF3220FFF7E8FF641C022CF5D30120CA
:101BC00068707A20287070BD70B5D94D0020E8701B
:101BD000044661210320FFF782FF3220FFF7D4FF84
:101BE000641C022CF5D30120E8707A20A87070BD27
:101BF0000121D04802F041BE10B5401A029CE41AFF
:101C00006043511A90FBF1F0184486E710B510EECE
:101C1000100A05F084FA9FEDC81B53EC112B05F058
:101C20006DF905F08FFA00EE100A76E710B510EEA8
:101C3000100A05F074FA9FEDC21B53EC112B05F04E
:101C40005DF905F07FFA00EE100A66E7904200DDCC
:101C50001046884200DA08467047B5488030C06BAD
:101C6000B34908627047B2498031C96BB04A126A01
:101C7000891A00D54942814201DD012070470020C8
:101C800070472DE9F0470025AF4E074601244FF479
:101C900000594FF480484FF4805A002241463046A4
:101CA00002F06AF91020FFF763FF274201D00122FA
:101CB00000E000224946304602F05EF9012241462A
:101CC000304602F059F91020FFF752FF51463046D6
:101CD00002F03AF900B12543600010F0FF04DCD1B6
:101CE0002846BDE8F08770B5974E4FF400450022B6
:101CF0002946304602F040F91020FFF739FF012055
:101D0000FFF7BFFF4220FFF7BCFFFF20FFF7B9FF3F
:101D1000FF20FFF7B6FF8D4C2070FF20FFF7B1FFCB
:101D20006070FF20FFF7ADFFA070FF20FFF7A9FF55
:101D3000E070FF20FFF7A5FF2071FF20FFF7A1FF54
:101D4000607129463046BDE87040012202F014B9A6
:101D500070B57D4E4FF4004500222946304602F012
:101D60000BF91020FFF704FF0120FFF78AFF422044
:101D7000FFF787FF044601222946304602F0FCF8AF
:101D80001020FFF7F5FE204670BD694A0021516220
:101D9000C2796E490D2A09D0FF20087048708870FA
:101DA000C8700871487188710020704702780A7005
:101DB00042784A7082788A70C278CA7002790A7151
:101DC00042794A7180798871012070475F4858498B
:101DD0000278FF2A05D14278FF2A02D18278FF2AB1
:101DE00009D04A6A531C4B62C82A03DDFF210170E7
:101DF0004170817070470020486270475348807975
:101E0000704752480078400601D4012070470020F6
:101E100070474E480078800701D4012070470020A9
:101E2000704770B5424B0125002693F85840E033C7
:101E3000002803D004DDD8709E7005E0DC7003E05C
:101E4000C0F10000D8709D70002903D004DDD97165
:101E50009D7105E0DC7103E0C1F10000D8719E7155
:101E6000002A03D004DDDA729D7270BDDC7270BD91
:101E7000C2F10000D8729E7270BD34493C39C870FE
:101E8000C871C87270472A490120486570472F48B9
:101E90003C38C178032907D2C179032904D2C07A1A
:101EA000032801D20120704700207047204880306D
:101EB0000068A0F5EA41303901D0012070470020C8
:101EC00070476DE61A48B0F9040040427047184860
:101ED000B5EEC00AD0ED0B0AF1EE10FA02D230EEE8
:101EE000600A01E030EE200ABDEEC00A10EE100AD2
:101EF000704710B5041E2DED048B0D489FED148B1B
:101F0000C06E29D02DDA05F0DAF841EC190B204625
:101F100005F0D5F853EC182B04F0F0FF53EC182B18
:101F200004F0E6FF2CE0000000480040004C0040B8
:101F300014000020A0600240E5BF631ADCA54C40FD
:101F4000849E52A246DF913F000C024030010020E7
:101F50009A9999999999B93F9FEDFE0ABDEC048B26
:101F6000DBE505F0ACF841EC190B204605F0A7F8CD
:101F700053EC182B04F0C2FF53EC182B04F017FF9E
:101F800053EC192B05F02CF805F0DCF800EE100AE4
:101F9000E4E7B5EEC00AF1EE10FA01DAB1EE400A5C
:101FA0007047002800DA40427047EB4991ED130A70
:101FB000D1ED141AF1EE400A80EEA11A00EE900A5B
:101FC000F8EEE00A01EE200ABDEEC00A10EE100A9B
:101FD0007047F0EE401A9FEDE10AF5EEC01AF1EEFF
:101FE00010FA01D2F1EE611AF5EEC00AF1EE10FA24
:101FF00001D2F1EE600AB5EEC01AF1EE10FA01D28C
:10200000B1EE411AF4EEC01AF1EE10FA01DDB0EEB5
:10201000610AF4EEC00AF1EE10FA01DDB0EE600ADA
:10202000B4EEC01AF1EE10FA01DDB0EE410A7047CD
:10203000C948C06E7047C84880308069704770B525
:10204000C54CC54D80342DED048BB0EE408A206820
:10205000A0F5EA41303974D0E268216AD4ED040A6F
:10206000891A401A00EE100A95ED0E1A6069B8EE52
:10207000C00A00EEC10AD5ED0D0AC0EE208A05F0B7
:102080004EF895ED180A41EC190B20EE280A10EED7
:10209000100A05F044F841EC100B05F0D9FC51ECA6
:1020A000100B81F0004153EC192B04F021FF05F0D7
:1020B00049F8E062606905F032F895ED0F0AD5ED58
:1020C000180A41EC190B38EE800A20EE200A10EEB7
:1020D000100A05F024F841EC100B05F0B9FC53ECA4
:1020E000192B51EC100B04F003FF05F02BF82063C3
:1020F00095ED100AD5ED180A38EE800A20EE200A78
:1021000010EE100A05F00BF841EC100B05F0A0FCE6
:1021100051EC100B05F016F800EE100AB1EE400A73
:1021200084ED0D0AB5EEC08AF1EE10FA38D0A86E33
:1021300080B1012814D0022819D0032830D123E01F
:10214000FFE79FED840A84ED0D0A84ED0C0A84ED0F
:102150000B0AE7E794ED0B0A30EE480A84ED0B0A10
:1021600094ED0C0A30EE480A84ED0C0A05E094ED7B
:102170000B0A30EE480A84ED0B0A94ED0D0A30EE9E
:10218000480A84ED0D0A0BE094ED0B0A30EE480A84
:1021900084ED0B0A94ED0C0A30EE480A84ED0C0A2B
:1021A0002C3494EC030AFFF714FFD5ED0A0AF8EE7D
:1021B000E00A80EE801ABDEEC10A10EE100A6867D0
:1021C000E96E814200DDE86601206866BDEC048BA3
:1021D00070BD614A002100281167906711D19FED01
:1021E0005D0A02F18000D16680ED050A47F23053A6
:1021F0000360436080ED040A9166816081615165EE
:102200001DE7704754485449803090ED040AB5EEFC
:10221000C00AF1EE10FA04D18A6E12B98268002A5F
:1022200009D09FED4C0A002280ED040A8A66826084
:10223000016AC16003E770474748C0ED130A80EDAB
:10224000140A7047444A30B48032434B14688442C5
:1022500009D11C6F8C4206D1D2ED050AF4EE400A7A
:10226000F1EE10FA0FD01967D96E09B90521D966B8
:10227000116AD16082ED050A10600020D86792EDE6
:10228000040A30BCDBE630BC7047334A30B48032DD
:10229000314B9468844209D1D2ED040AF4EE400A2D
:1022A000F1EE10FA02D19C6E8C42ECD0156847F228
:1022B0003054A54219D132251D670525DD66A0429F
:1022C00013DAB5EEC00A0124F1EE10FA946102DDD2
:1022D000146A844207DCB5EEC00AF1EE10FA04D2AB
:1022E000146A844201DAB1EE400A9060996682ED88
:1022F000040A0020D86730BCA1E6C4E7014647F2D3
:102300003050C2E79FED130A9CE710B5124C01460E
:102310002DED028B8034F0EE608AD4ED010AB0EE30
:10232000418AF8EEE00AF4EE400AF1EE10FA0CD120
:102330000948006F884208D1D4ED020AF8EEE00A9D
:10234000F4EE680AF1EE10FA4FD0FDEEC00AC4EDCB
:10235000010A05E000000000140000206F12833A1B
:10236000D4ED080AF8EEE00A30EE600ABDEEC00ACD
:1023700010EE100A1FED090AFFF764FF94ED080A3A
:10238000F8EEC00A78EEE00AFDEEE00A10EE900AE0
:10239000002800DA4042B8EEC00A642818DDF4EEE6
:1023A000C08AF1EE10FA01DCB1EE488A18EE100A8C
:1023B00004F0B5FE04F0C6FEFDEEE80ABDEC028BAB
:1023C00000EE100ABDE81040002110EE900A5CE714
:1023D00038EEC00A10EE100A04F0A1FE9FEDFA1BC1
:1023E00053EC112B04F08AFDE4E7BDEC028B0CE406
:1023F000F74910B5886901282ADD0A6A8868801AB9
:10240000FFF7CFFD052809DA8869421C8A61B0F51B
:102410007A7F1DDDBDE810400020DAE6EC4A052099
:10242000803A8B691067B3F5FA7FD06602DD40F21F
:10243000F51088618A68086A904202DDBFEE000AE2
:1024400001E0B7EE000A81ED040ABDE81040F6E5B0
:1024500010BD70B5DE4991ED050AB5EEC00AF1EE8A
:1024600010FA73D1A1F18002D36E002B6ED0886870
:1024700047F23054A04269DA91ED040AB5EEC00A81
:10248000F1EE10FA7DD00D68A54260D1B5EEC00A1C
:102490001346F1EE10FA9B6C03DD0D6AC41AAC42D0
:1024A00008DBB5EEC00AF1EE10FA17D20C6A03444D
:1024B000A34213DD8B69032B48DA0B6AC01AFFF7BE
:1024C00070FD0A2888680ADAC8610020D0661FED0E
:1024D0005F0A106781ED040A0220886179E092EDBD
:1024E0001B0AD1ED040A0B6AB8EEC00A984260EEEE
:1024F000200A92ED120AB8EEC01A80EE810A0FDDB2
:10250000FFF747FD8868096A401AFFF74AFD00EEA9
:10251000900AB8EEE01AD2ED0C0A40EE010A0EE085
:10252000FFF737FD8868096A401AFFF73AFD00EEA9
:10253000900AB8EEE01AD2ED0C0A50EE410A92ED84
:102540001B0AB8EEC01A80EE810A42E046E0A04ABB
:10255000B5EEC00A803AD2ED110AF1EE10FA18DD9C
:1025600001EE100AF8EEC11A01EE103AB8EEC11AE7
:1025700041EE401AB8EEE01A71EEC11A91ED081A58
:1025800000E029E0B8EEC11AF4EEC11AF1EE10FA3B
:102590001BD3B5EEC00AF1EE10FA1AD201EE100A02
:1025A000F8EEE00AF8EEC11A01EE103AB8EEC11AE0
:1025B00041EE401A31EEA01AD1ED080AF8EEE00A19
:1025C000B4EEE01AF1EE10FA03DD096A401AFFF7E3
:1025D00090FCBDE8704032E5C868F6E770BD7C4805
:1025E000A0F180018269022A0CDA1FEDA60A0023FD
:1025F00080ED050A80ED040A47F230528B660260D6
:10260000C0E90123CB6F72485B1CCB678038CA6D71
:10261000806D934202DBCA67496D01B12DE4002051
:10262000FCE76B4A803AD36F5B1CD367834204DDBF
:10263000D06E0844D0660020D067704770B5FFF7B1
:1026400041FC634D2862FFF7D3FEA5F180044FF0F3
:10265000FF31226FE06E002A0BDD90420ED006DAC9
:10266000616F88420ADAFFF7A0FC012104E0A86A42
:1026700002E0002831DDA06FFFF7D3FFD5E90801A4
:10268000814203D0FFF7E5FE286A6862606E002889
:1026900026D094ED1B0AD5ED0D0AB8EEC00A20EE47
:1026A000200AFFF714FC94ED1B0AD5ED0C0A024634
:1026B000B8EEC00A20EE200AFFF709FC94ED1B0AD1
:1026C000D5ED0B0A0146B8EEC00A20EE200AFFF74E
:1026D000FEFBBDE87040FFF7A4BBBDE870407EE79D
:1026E00070BD70B53B4C0221204601F02DFC3A4DE7
:1026F00018B90021284602F04DFF0221204601F0C2
:1027000023FC012803D10121284602F043FFBDE844
:102710007040642003F0BBBFF8B52D4E05469C36D3
:102720000C4630784FF0FF37411EFE2909D240F2A7
:102730003F1101230091FE221946FFF75DFA286040
:1027400000E02F607078411EFE2908D2EF2101239E
:102750000091FE221946FFF74FFA2060F8BD27606E
:10276000F8BD1E490020086019498039886170470A
:102770001B490020086016498039086170472DE91F
:10278000F041DFF85880A8F12408404602F018FA1A
:102790000F4E803EB169642740EA014090FBF7F498
:1027A0000025404602F00CFAB16940EA014090FB76
:1027B000F7F0011B00D54942322900DA6D1C0446AE
:1027C000022DEEDBBDE8F0817B14AE47E17A743F69
:1027D000940000200004024000480040240C004007
:1027E000240400402DE9F041DFF8FC83404602F06C
:1027F000E7F9FE4E3169642740EA014090FBF7F4A7
:102800000025404602F0DCF9316940EA014090FBC6
:10281000F7F0011B00D54942322900DA6D1C04464D
:10282000022DEEDBCEE7F24BD9880022D888411A80
:1028300000D54942322900DA521C0146022AF5DB52
:10284000002800DA40427047E94B998800229888B6
:10285000411A00D54942322900DA521C0146022AA7
:10286000F5DB002800DA4042704770B50D4604469B
:10287000FFF785FF03466FF00902DE492046FFF7A8
:10288000E5F90446FA2202212846FFF7DFF901465E
:10289000181B00D540420A2801DA002070BDD34839
:1028A000E030A34201DD012200E000228276C17601
:1028B000012070BD38B50C46CE4900916FF0090378
:1028C0004FF4BE720021FFF797F92146BDE838406A
:1028D000CBE7C6490220E031C876704770B50B4699
:1028E0004FF4E1620A21FFF7B1F9054632220221D5
:1028F0001846FFF7ABF90446FFF774FF401B00D5FD
:102900004042142801DA002070BDFFF76BFFB74981
:10291000E031A84201DD012000E000208875CC757F
:10292000012070BD38B50C464FF4E16100910A23D7
:102930004FF4B4720021FFF75FF92146BDE838403B
:10294000CCE72DE9F041A94D2820E035E8750120BC
:10295000A875A64C0026A84FE66102E0052003F00A
:1029600096FE8021384601F0EFFA0028F6D1E069A2
:10297000401CE0613228F4DBE66102E0052003F050
:1029800086FEFFF72FFF1428F8DBE069401CE061AA
:102990003228F6DB0220E87514E72DE9F041934D6B
:1029A0002820E035E8750026AE75904C4FF480671E
:1029B000DFF84482E66102E0052003F068FE394654
:1029C000404601F0C1FA0028F6D1E069401CE06100
:1029D0003228F4DBE66102E0052003F058FEFFF741
:1029E00001FF1428F8DBE069401CE0613228F6DBC7
:1029F0000220E875E6E67D490220E031C87570479F
:102A000030B50D460446FFF70EFF034640F27A321A
:102A100046212046FFF71AF90446322202212846B1
:102A2000FFF714F90146181B01D4024600E04242A8
:102A3000022A01DA002030BD6C4DE035A34201DDF1
:102A4000002200E00122AA74002800DA4042484334
:102A50004FF47A7190FBF1F032221421FFF7F6F86F
:102A6000E874012030BD18B50C4640F27A3100916F
:102A700046234FF487720021FFF7BEF82146BDE8D8
:102A80001840BDE759490220E031C874704730B59D
:102A90000D460446FFF7D8FE03464FF448724FF444
:102AA00096712046FFF7D2F804463C2202212846C0
:102AB000FFF7CCF80146181B00D540420A2801DA7E
:102AC000002030BD4948E030A34201DD002200E093
:102AD00001228273C173012030BD18B50C464FF43A
:102AE000487100914FF4967378220021FFF784F823
:102AF0002146BDE81840CAE73C490220E031C873CE
:102B000070473E4910B54FF4487008600122D10368
:102B10003B4801F031FA02E0052003F0B8FD322114
:102B20000020FFF7DAFF0028F6D130490220E0311B
:102B3000C87310BD2DE9F05FDFF8B080FA2508F109
:102B4000E008322788F817704FF0010B88F816B0AC
:102B50000024294E02E0052003F099FD8021304633
:102B600001F0F2F90028F6D1641C322CF6DB4FF0AC
:102B70000209444688F817906420FFF705F8FFF72C
:102B8000F7FDE7754FF0000A84F816A057464FF49A
:102B9000FA7802E0052003F07AFDFFF723FE4045B6
:102BA000F8DB7F1C322FF8DBC84684F81790FFF75C
:102BB000A8FFE57684F81AA000274FF4805902E0B8
:102BC000052003F064FD4946304601F0BDF90028B8
:102BD000F6D17F1C322FF6DB464684F81B8064203A
:102BE000FEF7D2FF0EE000000004004014000020B9
:102BF0008402002090E8FFFF0010024038040140EA
:102C000000040240FFF7ADFDE57684F81AB0002518
:102C1000FE4F02E0052003F03AFDFFF7B0FDB84299
:102C2000F8DC6D1C322DF8DBE676BDE8F09F10B5C0
:102C300002E0052003F02BFD2821B420FFF713FF4D
:102C40000028F6D1F2490220C87410BD08B5FFF77C
:102C500096FD4FF4BE7100910023EE4A6FF009011A
:102C6000FEF7CAFF08BD08B5FFF7BCFD4FF4B4710D
:102C7000009100234FF4E1620A21FEF7BDFF08BD79
:102C800008B5FFF7D0FD4FF487710091002340F2A3
:102C90007A324621FEF7B0FF08BD08B5FFF7D4FD34
:102CA0007821009100234FF448724FF49671FEF79B
:102CB000A3FF08BD2DE9F04105460C46684301FB22
:102CC00004002DED028B1E46174604F0F8F941EC86
:102CD000100B04F021FF51EC100B04F033FA3860B4
:102CE000284604F0ECF941EC180B204604F0E7F913
:102CF00041EC100BB0EE481AF0EE681A04F04CFDEF
:102D00009FEDC51B51EC100B53EC112B04F0F6F8A2
:102D100004F018FA3060BDEC028B53E570B506463E
:102D20002DED048B0D46B0EE408A10EE900A04F0B3
:102D3000F6F99FEDBB1B53EC112B04F0DFF804F008
:102D400001FA044604F0EBF941EC100B04F01CFE10
:102D5000B0EE409AF0EE609A18EE100A04F0DFF937
:102D600053EC192B04F0CAF804F0BAF9306020468D
:102D700004F0D5F941EC100B04F06AFEB0EE409A75
:102D8000F0EE609A18EE100A04F0C9F953EC192B12
:102D900004F0B4F804F0A4F92860BDEC048B70BD15
:102DA000FEB5002401AB02AAFFF784FF5A20009071
:102DB0009DED010A4FF48773B422BDEEC00A0021D5
:102DC00010EE100AFEF718FF00EE100A3221B8EEDE
:102DD000C00A8DED010ABDEEC00A10EE100AFFF721
:102DE00042FE8B4E022508B90124F5749DED020ABE
:102DF000FA21BDEEC00A10EE100AFFF75BFD08B91C
:102E0000F576641C012C01DD0020FEBD0120FEBD15
:102E100038B50C460546FFF719FF00EE100AB8EE6C
:102E2000C00AFFF72DFFB421009100235A224FF46E
:102E30008771FEF7E1FE00EE900A21462846BDE8C4
:102E40003840F8EEE00A69E788B00020049003906B
:102E500002E0052003F01BFC28210A20FFF762FD99
:102E60000028F6D16A4D0224EC7502E0052003F03B
:102E70000EFC64210020FFF793FF0028F6D1EC74CC
:102E8000EC7602E0052003F002FC32210020FFF77F
:102E900024FE0028F6D1A846EC7300224FF400412E
:102EA000614801F069F84FF40057604E02E00520D8
:102EB00003F0EDFB3D463946304601F045F8002869
:102EC000F5D102E0052003F0E2FB64210020FFF7CA
:102ED00067FF0028F6D188F8134088F81B402F467A
:102EE000052003F0D4FB3946304601F02DF80028C8
:102EF000E0D003A904A8FFF70FFC0498411C2BD0D5
:102F00000399491C28D04FF0A00C6FF09F094B4645
:102F100062461946A038CDF800C0FEF76DFE0546A2
:102F200003987822CDF800C0C0F178004B4651429A
:102F3000FEF762FE8146280000D568420F2810DAAD
:102F40005FEA090001D5C9F100000F2809DA88F805
:102F50001B4088F81340C3E788F8134088F81B40EB
:102F6000BEE702A901A8FFF753FF0A2195FBF1F084
:102F700099FBF1F1019A1044029A019011440291D7
:102F8000FFF70EFFACE72DE9F041DFF8A4804046E3
:102F900001F016FE1E4EE03EB168642740EA014093
:102FA00090FBF7F40025404601F00AFEB16840EAC4
:102FB000014090FBF7F0011B00D54942322900DAAD
:102FC0006D1C0446022DEEDB002800DA604229E485
:102FD0002DE9F041DFF85C80404601F0F1FD0C4E38
:102FE000E03E7169642740EA014090FBF7F4002558
:102FF000404601F0E5FD716940EA014090FBF7F0C1
:10300000011B00D54942322917DA15E018FCFFFFF1
:10301000F400002090E8FFFFE5BF631ADCA54C40F8
:10302000849E52A246DF913F0004024000100240FD
:1030300000000140000800406D1C0446022DD7DB53
:10304000002800DA6042A7E42DE9F0414FF0804803
:10305000404601F0B5FDF64EF168642740EA0140B4
:1030600090FBF7F40025404601F0AAFDF16840EA24
:10307000014090FBF7F0011B00D54942322900DAEC
:103080006D1C0446022DEEDB002800DA604283E46A
:1030900010B5FFF778FF0446FFF7D6FF204410BDB8
:1030A000E44900204862E24988604FF08042506263
:1030B000C860E14A10604861704730B4DC4C80342D
:1030C000A46CA41A01D4224600E06242C2EB0212B0
:1030D0004FF41675AA4200DD2A469FEDD81A9C428D
:1030E00006DD00EE101AF8EEC00A00EE102A08E025
:1030F00000EE101AF8EEC00A06DAC2F1000100EE86
:10310000101AB8EEC00A01E09FEDCD0A30BCFFF7FF
:10311000FCB82DE9F041C64C054680340EE000298C
:103120004FF0000102DDBEEE000A01E0B6EE000A3B
:103130000020FFF7AAF8012003F0A9FA216A00296C
:10314000084600DA40420A28E9DCB94E002006F5BC
:103150009677F0610AE000BF57F82520032300218D
:103160002820FFF7AAFF012003F091FA206C142811
:10317000F2DCF069401CF0613228F7DBBDE8F04179
:103180000020FFF726B82DE9F0412DED068BFFF763
:1031900087FFB6EE001A9FEDAA8A4620F0EE480A95
:1031A000DFEDA88AB0EE680AFFF7AFF8A04C002563
:1031B00040F6D866E56102E0012003F068FAFFF707
:1031C00067FFB042F8DBE069401CE0613228F6DBC3
:1031D000B6EE001AF0EE480A3220B0EE680AFFF7A9
:1031E00094F841F26806E56102E0012003F04FFA2D
:1031F000FFF74EFFB042F8DBE069401CE061322887
:10320000F6DB9FED919AF0EE480A2820B0EE491ABD
:10321000B0EE680AFFF779F8854EE561803602E086
:10322000012003F034FAB06C3228F9DCE069401C6C
:10323000E0613228F7DBFFF733FFB0EE480AB0EE6B
:10324000491AF0EE400A4620FFF75FF840F62827BB
:10325000E56102E0012003F01AFAFFF719FFB84216
:10326000F8DBE069401CE0613228F6DBB0EE480A8A
:10327000B0EE491AF0EE400A2820FFF746F8E56163
:1032800002E0012003F003FAB06C2D28F9DBE069BD
:10329000401CE0613228F7DBFFF702FF4FF4AF7705
:1032A000E56102E0012003F0F2F9FFF7F1FEB84218
:1032B000F8DBE069401CE0613228F6DBB0EE491A29
:1032C000B0EE689AF0EE480A3220B0EE490AFFF7F5
:1032D0001CF840F69807E56102E0012003F0D7F9F9
:1032E000FFF7D6FEB842F8DBE069401CE061322807
:1032F000F6DBDFED569ADFED568A9FED56AAE561C3
:1033000019E0712807DDB0EE691AF0EE480A1420C2
:10331000B0EE680A0DE0B06BB0EE691A7128F0EEFD
:10332000480A4FF0140002DAB0EE4A0A01E0B0EEAB
:10333000490AFEF7EAFFB06CB428E2DCE069401C01
:10334000E0613228F7DBBDEC068B0020BDE8F041E0
:10335000FEF73FBF2DE9F041DFF8D880404601F08D
:103360002FFC334EB168642740EA014090FBF7F42C
:103370000025404601F024FCB16840EA014090FB82
:10338000F7F0011B00D54942322900DA6D1C0446D2
:10339000022DEEDB002800DA604218E62DE9F0414C
:1033A000DFF89480A8F12408404601F009FC204E83
:1033B0007169642740EA014090FBF7F4002540461C
:1033C00001F0FEFB716940EA014090FBF7F0011B40
:1033D00000D54942322900DA6D1C0446022DEEDB8D
:1033E000002800DA6042F2E52DE9F0414FF0804814
:1033F000404601F0E5FB0E4EF168642740EA0140CB
:1034000090FBF7F40025404601F0DAFBF16840EA52
:10341000014090FBF7F0011B00D54942322900DA48
:103420006D1C0446022DEEDB002800DA6042CEE57A
:10343000140000200000014024080040CDCCCC3D09
:103440000000000000006144CDCC4C3E9A99993EAA
:103450000080544400806D4410B5FFF77BFF0446A4
:10346000FFF7C2FF204410BDFE4900200860FE495E
:1034700048617047FD4900204862FB4988607047F9
:103480004FF0804100204862F749C860704700B59E
:10349000FFF7EAFFFFF7EEFF5DF804EBF0E72DE939
:1034A000F14F96B000208DF80400EF4C00908DF89D
:1034B0002C004FF400461699ED48EE4D8034DFF8AD
:1034C000A88377104FF064094FF0A00C4FF4806A86
:1034D0004FF4805B112979D2DFE801F009272B2F07
:1034E00033373D43495561667989929AFE0002213E
:1034F00000F02AFD60B100223146284600F03CFD74
:103500003146284600F02AFD01460022DAA07AE082
:1035100001223146284600F02FFD3146284600F0B2
:103520001DFD01460022DCA06DE00122E2A0216A1F
:1035300069E00222E2A0216C65E00322E4A0616C54
:1035400061E00422E5A0A16C5DE0FFF71CFD0146EF
:103550000522E6A057E0FFF777FD01460622E6A028
:1035600051E0FFF735FD01460722E7A04BE0E948AF
:1035700001F026FBD8F81810082240EA014191FB1F
:10358000F9F1E5A03FE0E74801F01AFBD8F8101088
:10359000092240EA014191FBF9F1E3A033E0E5485B
:1035A000C1880A22E4A02EE0AF49D431081FFFF7FA
:1035B000B3F8CDF800C0206D6FF09F010B46A0223C
:1035C000A038FEF719FB0B2220650DE01DE0CDF8B9
:1035D00000C0606D7822C0F178006FF09F03514207
:1035E000FEF70AFB0C2260650146D6A00BE09E495F
:1035F000DC31081FFFF70CFC0D22D4A0A16D02E006
:103600000E22D5A0E16DFDF79FF817B0BDE8F08F51
:10361000D44C0121204600F097FC0246D2A101A81B
:1036200003F022FF01A90BA803F0A2FB0221204610
:1036300000F08AFC0246CCA101A803F015FF01A905
:103640000BA803F095FB3946204600F07DFC0246AE
:10365000C5A101A803F008FF01A90BA803F088FB8E
:103660003146204600F070FC0246BFA101A803F0DD
:10367000FBFE01A90BA803F07BFB0821204600F00C
:1036800063FC0246B8A101A803F0EEFE01A90BA855
:1036900003F06EFBA115204600F056FC0246B2A1D5
:1036A00001A803F0E1FE01A90BA803F061FB0421CE
:1036B000204600F049FC0246ABA101A803F0D4FE6D
:1036C00001A90BA803F054FB8021204600F03CFC2C
:1036D0000246A5A101A800E073E003F0C5FE01A920
:1036E0000BA803F045FB4021204600F02DFC0246CC
:1036F0009DA101A803F0B8FE01A90BA803F038FBB7
:103700005146204600F020FC024697A101A803F094
:10371000ABFE01A90BA803F02BFB5946204600F095
:1037200013FC024690A101A803F09EFE01A90BA87C
:1037300003F01EFB4FF400563146204600F004FC17
:10374000024689A101A803F08FFE01A90BA803F08E
:103750000FFB2021204600F0F7FB024682A101A8C2
:1037600003F082FE01A90BA803F002FB1021204602
:1037700000F0EAFB02467CA101A803F075FE01A956
:103780000BA803F0F5FA3146284600F0DDFB0246AF
:1037900075A101A803F068FE01A90BA803F0E8FADF
:1037A0003946284600F0D0FB02466FA101A803F07D
:1037B0005BFE01A90BA803F0DBFA10220BA96BA09A
:1037C00070E154465146804600F0C8FB024666A1AF
:1037D00001A803F049FE01A90BA803F0C9FA802152
:1037E000284600F0BBFB02465FA101A803F03CFEA7
:1037F00001A90BA803F0BCFA4FF40071284600F0B1
:10380000ADFB024658A101A803F02EFE01A90BA8AA
:1038100003F0AEFADFF858912146484600F09EFBCF
:10382000024651A101A803F01FFE01A90BA803F055
:103830009FFA4FF4006A5146404600F08FFB024663
:1038400049A101A803F010FE01A90BA803F090FA0A
:103850005D465946404600F081FB024642A101A860
:1038600088E000002408004014000020000001400F
:103870000004024000080240524F424F54203220C0
:1038800044414E4720434841592053414E2058411E
:103890004E483A2020200000524F424F5420322000
:1038A00044414E4720434841592053414E20444F04
:1038B0003A20202000000000494D553A0000000049
:1038C0004C415A45522046524F4E543A0000000097
:1038D0004C415A4552204C4546543A004C415A45B9
:1038E000522052494748543A00000000454E2057A4
:1038F00048204C4546543A00454E205748205249EE
:103900004748543A00000000454E2046726F6E74DE
:103910003A000000000C0040454E2041524D205816
:103920003A00000000040040454E2041524D20590D
:103930003A00000084020020425420424153453A9C
:1039400000000000582042414C4C3A0041524D20AA
:10395000504F5320583A000041524D20504F5320B1
:10396000593A00000010024025640000493A000066
:10397000000C024003F078FD01A90BA803F0F8F950
:103980004FF40051404600F0E9FA0246AFF2280138
:1039900001A803F069FD01A90BA803F0E9F9394674
:1039A000404600F0DBFA0246AFF2440101A803F002
:1039B0005BFD01A90BA803F0DBF93146404600F09E
:1039C000CDFA0246AFF2600101A803F04DFD01A956
:1039D0000BA803F0CDF92146484600F0BFFA024695
:1039E000AFF27C0101A803F03FFD01A90BA803F091
:1039F000BFF93946484600F0B1FA0246AFF29801E5
:103A000001A803F031FD01A90BA803F0B1F951465B
:103A1000484600F0A3FA0246AFF2B40101A803F051
:103A200023FD01A90BA803F0A3F9984C4FF4807172
:103A3000204600F093FA0246AFF2D40101A803F049
:103A400013FD01A90BA803F093F95146204600F09D
:103A500085FA0246AFF2F00101A803F005FD01A9C5
:103A60000BA803F085F92946204600F077FA0246B4
:103A7000AFF20C1101A803F0F7FC01A90BA803F0A9
:103A800077F94021404600F069FA0246AFF228116A
:103A900001A803F0E9FC01A90BA803F069F91122C0
:103AA0000BA97BA0FCF7AFFEAFE511B47A48C16C5F
:103AB000009A914201DD002101E0C16C491CC16402
:103AC000C06C18BCEBE410B5FCF7FDFFFDF72FF858
:103AD000FDF7CBF8FDF76AFAFDF723FBFDF78EFC47
:103AE000FDF752F8FDF788F84FF4E1342046FDF772
:103AF00036FD2046FDF7B7FD2046FDF751FE204676
:103B0000FDF7D4FEE000FDF756FFFDF706FCFDF7DC
:103B10007DFBBDE81040052002F0B9BD1020FFF785
:103B2000C4FF0F2002F0B3FDF8E700BFFEF7D9FD98
:103B3000052002F0ACFDF9E70027DFF860B1BA46D6
:103B40003E46B9463D46B8466424052002F09FFD36
:103B500028466D1CA04204DABBF8081001EB0800EF
:103B600005E098FBF4F14C480025016428468046A6
:103B70003046761CA04204DABBF80C1001EB0900B9
:103B800005E099FBF4F14448002681643046814603
:103B900038467F1CA04204DABBF80A1001EB0A0089
:103BA00005E09AFBF4F13C48002741643846824620
:103BB000CBE700BFFEF742FD052002F068FDF9E704
:103BC0001FB5FFF780FF00244FF480750094019427
:103BD000029423462A4632A13848039402F080FB1F
:103BE00000940194029400232A4635A13948039495
:103BF00002F076FB00940194029400232A4636A139
:103C00003A48039402F06CFBFDF7CAFFFFF748FA4D
:103C1000FEF790FFFFF70BF802E0052002F037FDFA
:103C200032210A20FEF77EFE0028F6D11A4D02242A
:103C30006035EC7502E0052002F029FD64210020CA
:103C4000FFF7AEF80028F6D1EC76EC74FFF7FCF83D
:103C50007FB500244FF480750094019402942346AC
:103C60002A4623A12548039402F03AFB00940194CC
:103C7000029400232A4622A12348039402F030FB39
:103C800002F054FE04B0002070BD000000000240AD
:103C90004F55543A00000000940000208402002098
:103CA0007461736B55617274436F6D6D756E69638A
:103CB0006174655769746852617300002B3B00089A
:103CC0007461736B43686F6E674E686965754C61AC
:103CD0007A657200393B00087461736B526F626FD2
:103CE00074416E616C79746963730000B33B0008C2
:103CF0007461736B4D61696E00000000C13B000888
:103D00007461736B4C4344001D3B00082849084311
:103D100028490860704730B50F22C4780178012324
:103D2000FCB1244C246801F1E02104F4E064C4F502
:103D3000E064C4F30724C4F10405E2404478AC40D5
:103D40008578154025432A0181F80024007800F089
:103D50001F018B404009800000F1E020C0F80031D5
:103D600030BD01F01F0083404809800000F1E020D1
:103D7000C0F8803130BD104A114001430D48001F8A
:103D8000016070470B4A121D0029116801D00143E0
:103D900000E08143116070474FF0E021042808697A
:103DA00003D020F004000861704740F00400FAE7F7
:103DB0000000FA050CED00E080FFFF1F7C4910B504
:103DC000884206D10121084600F058FA002101205E
:103DD0004FE07849884206D10121022000F04EFAD6
:103DE0000021022045E07449884206D101210420C7
:103DF00000F044FA002104203BE07049884206D1DB
:103E00000121082000F03AFA0021082031E06C4935
:103E1000884206D10121102000F030FA0021102044
:103E200027E06849884206D10121202000F026FAC7
:103E3000002120201DE06449884206D10121402054
:103E400000F01CFA0021402013E06049884206D1AE
:103E50000121802000F012FA0021802009E05C4955
:103E600088420AD184150121204600F007FA00217A
:103E70002046BDE8104000F001BA10BDF0B50023A7
:103E8000012403270D6804FA03F21540954242D13C
:103E9000D0F800C05E0007FA06F52CEA050CC0F861
:103EA00000C091F804C0D0F800E00CFA06FC4CEA1F
:103EB0000E0CC0F800C091F804C0BCF1010F02D094
:103EC000BCF1020F1FD1D0F808C02CEA050CC0F8D5
:103ED00008C091F805C0D0F808E00CFA06FC4CEADE
:103EE0000E0CC0F808C0D0F804C02CEA020CC0F8D0
:103EF00004C0426891F806C00CFA03FC1FFA8CFC5F
:103F000042EA0C024260C268AA43C260CA79C5682C
:103F1000B2402A43C2605B1C102BB3D3F0BD4FF6F6
:103F2000FF7101600021017141718171C1717047A0
:103F300008B541F480320092C261C1610099C1614B
:103F4000C169C069009008BD0246002012690A429A
:103F500000D001207047006980B2704702460020FF
:103F600052690A4200D001207047406980B2704710
:103F700001837047418370470AB1018370474183D1
:103F800070474161704742694A40426170474B0740
:103F9000DB0E9A40C90810B500EB8100016A0F24BE
:103FA0009C40A1430162016A1143016210BD0000FF
:103FB000000002400004024000080240000C0240E1
:103FC000001002400014024000180240001C024091
:103FD00000200240EA48016841F001010160E84A1E
:103FE0000021083211600268E64B1A400260031D8E
:103FF000E54A1A60026822F480220260E0480C3030
:1040000001607047DE490022891C0A700870704701
:1040100002460020510901290CD002290CD0D849B0
:104020007431096802F01F02012393400B4200D053
:1040300001207047D249F4E7D1497031F1E718B552
:1040400000204FF4A06400903120FFF7E1FF0099B9
:10405000491C0091A14201D00028F5D03120FFF782
:10406000D7FF002800D0012018BDC5490A6822F0FA
:10407000F80242EAC00008607047C449086070470F
:10408000BF49002270310A700A70012802D004284A
:1040900001D1052008707047BD490860704741EAAA
:1040A00082115A0810B5BB4B029C03EB024211432C
:1040B000014341EA0460B249091D086010BDB349DB
:1040C00008667047800140EA0170AD49843108609C
:1040D0007047AE4988667047AC49C8647047A84AC3
:1040E00008321368084323F0EC63184310607047EC
:1040F000A34A08321368084323F07843184310603A
:1041000070479F4A0832116821F003010143116092
:1041100070479B480830006800F00C007047984AD0
:104120000832116821F0F001014311607047944A90
:104130000832116821F4E051014311607047904941
:1041400008310A6822F4604242EAC0000860704701
:1041500070B58B4A083211688F4C11F00C0104D0F5
:104160006610042903D0082903D004601BE0066010
:1041700019E08349091D0B68C3F380550B6803F0F0
:104180003F0315B1B6FBF3F301E0B4FBF3F30C68A6
:104190000968C4F388146343C1F30141491C490011
:1041A000B3FBF1F1016011680F2303EA11117B4B9E
:1041B0005C5C0168E14041601468072505EA9424CD
:1041C0001C5D21FA04F48460126805EA52329A5C9C
:1041D000D140C16070BDC0F30121032908D1684AF4
:1041E0000832116821F4F8136D4901401943116038
:1041F000634970310A68C0F30B0002430A607047DC
:104200006349443908607047614940390860704724
:104210005E49C1F85C017047594A30320029116883
:1042200001D0014300E0814311607047544A3432A9
:104230000029116801D0014300E0814311607047FB
:104240004F4A38320029116801D0014300E0814310
:10425000116070474A4A40320029116801D0014379
:1042600000E0814311607047454A443200291168DB
:1042700001D0014300E0814311607047404A103291
:104280000029116801D0014300E0814311607047AB
:104290003B4A14320029116801D0014300E08143F8
:1042A00011607047364A18320029116801D0014365
:1042B00000E0814311607047314A203200291168C3
:1042C00001D0014300E08143116070472C4A243241
:1042D0000029116801D0014300E08143116070475B
:1042E000274A50320029116801D0014300E0814380
:1042F00011607047224A54320029116801D00143ED
:1043000000E08143116070471D4A5832002911684E
:1043100001D0014300E0814311607047184A6032C8
:104320000029116801D0014300E08143116070470A
:10433000134A64320029116801D0014300E081432F
:10434000116070470E4A0D320029117801D00143E7
:1043500000E081431170704709487430016841F0F2
:104360008071016070470146054A00200C321268D6
:104370000A4200D00120704701490E310870704791
:1043800000380240FFFFF6FE1030002400004742D4
:10439000800E47420000FFFF0024F400540100207B
:1043A000FFFCFF0F10B501210C022046FFF78EFF26
:1043B0002046BDE810400021FFF788BF30B54268B5
:1043C000C84B0C791A400B6842EA0422134343603D
:1043D0008268C54B4D791A40D1E9034323438C6869
:1043E00044EA4504234313438360C26A097D22F4EF
:1043F0007002491EC9B242EA0151C16230BD0021BA
:104400000160017141718160C1600161012101752B
:104410007047B64B10B5D3F80423B5490A40D0E92C
:1044200000142143D0E90240044321431143C3F85F
:10443000041310BD0021016041608160C1607047BC
:104440000029816802D041F0010101E021F0010161
:10445000816070474268A74B1A400A434260704728
:10446000416282627047426822F01F020A43426042
:1044700070479E490028D1F8040302D040F40000A0
:1044800001E020F40000C1F80403704797490028B8
:10449000D1F8040302D040F4800001E020F4800051
:1044A000C1F80403704770B5072409290AD9C56803
:1044B000A1F10A0606EB4606B440A543B3401D43EE
:1044C000C56007E0056901EB4106B440A543B34070
:1044D0001D4305611F23072A09D2446B521E02EBBC
:1044E000820293409C4391400C43446370BD0D2A6B
:1044F00009D2046BD21F02EB820293409C4391408D
:104500000C43046370BDC46A0D3A02EB820293400F
:104510009C4391400C43C46270BD816841F080416E
:1045200081607047014600208968490200D501205A
:1045300070470029816802D041F4806101E021F4D4
:104540008061816070470029816802D041F00201DA
:1045500001E021F00201816070474268491E22F4A7
:10456000604242EA4131416070470029416802D00F
:1045700041F4006101E021F4006141607047C06CCA
:1045800080B270475948D0F8080370470029816805
:1045900002D041F4807101E021F4807181607047A4
:1045A0000029816802D041F4007101E021F400711A
:1045B000816070474D490028D1F8040302D040F4CF
:1045C000005001E020F40050C1F80403704770B5BA
:1045D000072409290AD9C568A1F10A0606EB46068F
:1045E000B440A543B3401D43C56007E0056901EB36
:1045F0004106B440A543B3401D430561836BC3F33B
:104600000154121B921C02EB82041F22A24093430E
:10461000A1400B43836370BD826B491E22F440129C
:1046200042EA01518163704708B508440090026076
:1046300008BD826822F470220A4382607047826853
:1046400022F440120A4382607047816841F480017D
:1046500081607047014600208968490200D5012029
:1046600070470029416802D041F4806101E021F4E3
:104670008061416070470029416802D041F4805157
:1046800001E021F480514160704708B508442830AA
:104690000090006880B208BD01238B4041680AB1D8
:1046A000194300E0994341607047024600201268B8
:1046B0000A4200D001207047C9430160704730B5FD
:1046C0000246002053680C0A01258D4011682B40DA
:1046D000214202D0002B00D0012030BD6FEA112111
:1046E00001607047FFFEFFFCFDF7FFC000200140A6
:1046F000E030FCFFFFFD3FFF2DE9F043016821F0B2
:10470000010101600021016041608160C1600161BF
:1047100021214161B849B84A3D251039904202D162
:104720008D60BDE8F083B44A4FF47466183290424D
:1047300001D18E60F5E7B04A4FF4741730329042E1
:1047400001D18F60EDE7AC4A4FF0746C4832904273
:1047500002D1C1F808C0E4E7A74BA84A60339842E9
:1047600001D1CA60DDE7A44CA54B7834A04201D149
:10477000CB60D6E7DFF88082A24C08F19008404574
:1047800001D1CC60CDE7DFF870824FF03D5908F1E0
:10479000A808404502D1C1F80C90C2E79A49DFF859
:1047A00068820839404501D10D60BAE7964D183549
:1047B000A84201D10E60B4E7934D3035A84201D133
:1047C0000F60AEE7904D4835A84202D1C1F800C055
:1047D000A7E78D4D8C496035091FA84201D10A60B9
:1047E0009FE7894A7832904201D10B6099E7864A67
:1047F0009032904201D10C6093E7834AA8329042F4
:104800008FD1C1F800908CE730B503687F4ACC683F
:1048100013400A682243D1E905452C432243CC6961
:1048200022430C6A22434C6A22438C6A22434C6B1B
:1048300022438C6B22431A430260426922F0070331
:10484000D1E90B2422431A4342610A6942604A6853
:1048500082608968C16030BD002101604160816073
:10486000C160016141618161C16101624162816236
:10487000C16201634163816370470029016802D00E
:1048800041F0010101E021F00101016070470029C0
:10489000016802D041F4004101E021F400410160CF
:1048A00070470029016802D041F0200101E021F0A9
:1048B00020010160704741607047406880B27047D6
:1048C000002A026802D042F4002201E022F4002211
:1048D0000260016170470029016802D041F4802123
:1048E00001E021F48021016070470AB10161704745
:1048F000C1607047014600200968090300D5012006
:104900007047014600200968C90700D001207047A0
:10491000406900F03800704702463B4B00209A4245
:1049200002D2354A103A01E0374A103A8B0001D5DD
:10493000526800E01268364B1A400A4200D001204B
:104940007047314A904202D22B48103801E02E487D
:1049500010382F4A8B0001EA020101D5C16070476F
:10496000816070470B0607D5436912B143F080039D
:1049700001E023F080034361802908D0002A026807
:1049800001F01E0101D00A4300E08A430260704733
:1049900030B51D4A0024904202D2174B103B01E073
:1049A000194B103B1B4A114205D01E2202EAD125A9
:1049B00002682A4002E0406900F08002880001D5C8
:1049C000586800E01868124B1840084201D002B144
:1049D0000124204630BD0C4A904202D206481038CD
:1049E00001E0094810380A4A8B0001EA020101D5AA
:1049F000C160704781607047106002403D00002038
:104A0000400F002000003D20106402403F801CF059
:104A10007D0F7D0F3C0F3C0FFE4910B5884206D13B
:104A200001210846FFF752FC002101205BE0B0F1B4
:104A3000804F09D0F84988420DD101210220FFF7AB
:104A40003BFC0021022070E001210846FFF734FC06
:104A50000021012069E0F149884206D101210420AA
:104A6000FFF72AFC002104205FE0ED49884206D1CF
:104A700001210820FFF720FC0021082055E0E9492A
:104A8000884206D101211020FFF716FC00211020DA
:104A90004BE0E549884206D101212020FFF70CFCBC
:104AA0000021202041E0E149884206D10121022075
:104AB000FFF70CFC0021022015E0DD49884202D1FD
:104AC00001210C040AE0DB49884202D101214C0497
:104AD00004E0D94988420AD101218C042046FFF71D
:104AE000F5FB00212046BDE81040FFF7EFBBD3499E
:104AF000884206D101214020FFF7DEFB0021402043
:104B000013E0CF49884206D101218020FFF7D4FB72
:104B10000021802009E0CB4988420AD18415012177
:104B20002046FFF7C9FB00212046BDE81040FFF7F3
:104B3000C3BB10BD30B50288B64BBC4C98420DD0FB
:104B4000A0420BD0B0F1804F08D0B34DA84205D0A1
:104B5000B24DA84202D0B24DA84203D122F0700556
:104B60004A882A43AF4DA84206D0AF4DA84203D091
:104B700022F440750A892A4302804A68C2620A8880
:104B80000285984201D0A04201D1897A0186012193
:104B9000818230BD4FF0FF314160002101800181F1
:104BA000418081727047018582827047028822F0BD
:104BB00070020A430280704741627047C1627047C9
:104BC000406A7047008D70470029018802D041F08B
:104BD000020101E021F002010180704700290188F3
:104BE00002D041F0040101E021F00401018070478E
:104BF0000029018802D041F0800101E021F080010C
:104C000001807047028822F00802028002880A436D
:104C100002807047028822F44072028002880A43B0
:104C2000028070470029018802D041F0010101E0B3
:104C300021F001010180704730B5028C22F00102A1
:104C40000284028C8388048B22F0020224F0730514
:104C50000C882C438D8915434A882A436D4DA84200
:104C600002D0724DA8420DD122F00805CA8923F462
:104C700040732A4322F004058A882A430D8A1D4383
:104C80004B8A2B438380048389684163028430BD4F
:104C900070B5028C22F010020284028C8488038B8F
:104CA0000D8823F4E6464FF6FF7303EA05253543E6
:104CB0008E8922F0200203EA061616434A8803EA88
:104CC00002123243534EB04202D0584EB04215D178
:104CD00022F08006CA8924F4406403EA02123243B7
:104CE00022F040068A8803EA021232430E8A03EA5F
:104CF000860626434C8A03EA840434438480058371
:104D000089688163028470BD70B5028C22F4807260
:104D10000284028C8488838B0D8823F073031D43E7
:104D200022F400738E894FF6FF7202EA06261E43B4
:104D30004B8802EA03233343364EB04202D03B4E47
:104D4000B04215D123F40066CB8924F4405402EA22
:104D50000323334323F480668B8802EA032333431F
:104D60000E8A02EA061626434C8A02EA04143443E9
:104D7000848085838968C163038470BD70B5028CAB
:104D800022F480520284048C8288838B0D8823F461
:104D9000E6464FF6FF7303EA0525354324F4005633
:104DA0008C8903EA043434434E8803EA06362643EA
:104DB000184CA04202D01D4CA04205D122F48044E0
:104DC0000A8A03EA82122243828085838968016409
:104DD000068470BD002101804180818081608181D5
:104DE000C18101824182704730B50124058C00F1F8
:104DF00018038C40A543058431B308292CD0091F22
:104E0000C1F34E001844016848F6FF731940016071
:104E100001681AE000000140000400400008004062
:104E2000000C00400010004000140040000401404D
:104E3000004001400044014000480140001800408B
:104E4000001C00400020004006E04FF6FF7303EA1C
:104E500002221143016030BD03EB510001684FF69F
:104E60008F73194001600168F3E741637047816304
:104E70007047C163704701647047028B22F0700273
:104E80000A4302837047028B4FF6FF7322F4E0421D
:104E900003EA0121114301837047828B22F07002E3
:104EA0000A4382837047828B4FF6FF7322F4E042FD
:104EB00003EA0121114381837047028B22F008022B
:104EC0000A4302837047028B4FF6FF7322F400629D
:104ED00003EA0121114301837047828B22F008020B
:104EE0000A4382837047828B4FF6FF7322F400627D
:104EF00003EA0121114381837047028B22F00402EF
:104F00000A4302837047028B4FF6FF7322F48062DC
:104F100003EA0121114301837047828B22F00402CE
:104F20000A4382837047828B4FF6FF7322F48062BC
:104F300003EA0121114381837047028B22F0800232
:104F40000A4302837047028B4FF6FF73C2F30E02CF
:104F500003EA0121114301837047828B22F0800212
:104F60000A4382837047828B4FF6FF73C2F30E02AF
:104F700003EA0121114381837047028C22F002026F
:104F80000A4302847047028C22F008020A4302841A
:104F90007047028C4FF6FF7322F0200203EA0111E2
:104FA000114301847047028C4FF6FF7322F0800298
:104FB00003EA0111114301847047028C4FF6FF731D
:104FC00022F4007203EA0121114301847047028C2C
:104FD0004FF6FF7322F4006203EA012111430184BA
:104FE0007047028C4FF6FF7322F4005203EA01313E
:104FF00011430184704710B50123048C8B409C43FE
:105000000484038C8A401343038410BD10B5042329
:10501000048C8B409C430484038C8A401343038498
:1050200010BD828B22F440628283828B4FF6FF7325
:1050300003EA01210A4382837047828B22F00C022B
:105040008283828B0A4382837047028B22F4406200
:105050000283028B4FF6FF7303EA01210A430283A6
:105060007047F0B5048C24F010040484078B068C80
:105070004FF6FF7404EA011527F4734704EA03317D
:10508000394304EA02220A4326F0A001294341F0F1
:10509000100102830184F0BD028B22F00C02028316
:1050A000028B0A43028370472DE9F0410D460E88BA
:1050B0004988AA882B8904460EB3042E26D0082ED0
:1050C000268C4FF6FF7028D026F480562684A78BB6
:1050D000268C00EA022200EA013127F473473A43A2
:1050E00000EA0330104326F420420A4342F4805180
:1050F000A0832184E9882046BDE8F04191E700F0D3
:1051000062F9E9882046BDE8F041C5E7FFF7A9FF4D
:10511000E9882046BDE8F04197E726F480762684AA
:10512000A78B268C00EA012100EA0310104327F028
:10513000F307384326F420620A4342F48071A083C7
:105140002184E9882046BDE8F04176E7002101800E
:10515000418001228280C180018170472DE9F041A8
:105160000C46002649880746012501B90226A28877
:10517000012A00D10225208823890028384610D032
:10518000FFF76FFFE1883846FFF75FFF23892A4664
:105190003146384600F017F9E1883846BDE8F0415D
:1051A0007AE700F010F9E1883846FFF775FF2389A8
:1051B0002A4631463846FFF754FFE1883846BDE8B5
:1051C000F04142E7406B7047806B7047C06B70479F
:1051D000006C704710B50A884B88CC881A438B88BE
:1051E00023431A430B891A434B8989891A430A437B
:1051F000A0F8442010BD0021018041808180C18041
:105200000181418181817047002930F8441F02D01B
:1052100041F4004101E0C1F30E0101807047002913
:10522000818802D041F0040101E021F00401818075
:1052300070470029818802D041F0010101E021F08E
:10524000010181807047002A828901D00A4300E071
:105250008A43828170478182704702460020128A09
:105260000A4200D001207047C943018270470246BC
:105270000020138A92890B4202EA010202D0002A1E
:1052800000D001207047C943018270471143A0F844
:1052900048107047002A828901D00A4300E08A43FF
:1052A000828170470029818802D041F0080101E025
:1052B00021F0080181807047018921F007010181F7
:1052C0007047028922F070020A430281704700B5DC
:1052D0000346FFF7F6FF188940F00700188100BD6C
:1052E00070B516460D46602904464FF0010231465E
:1052F0000AD000F068F829462046FFF7E2FF20892F
:1053000040F00700208170BDFFF7ABFEF3E730B53A
:1053100004894FF6FF7505EA03231343E4B20B43F8
:105320002343038130BD10B50446FFF7F0FF208909
:1053300040F07700208110BD10B50446FFF7E7FF6D
:10534000208940F48040208110BD828822F07002C4
:10535000828082880A4382807047028922F0070295
:10536000028102890A4302817047028922F0800289
:10537000028102890A430281704770B50589048B56
:10538000068C25F007050D434FF6FC410C4040F21A
:1053900001110C434FF6FF7101EA031126F02206BA
:1053A0001143314305810483018470BD0029818844
:1053B00002D041F0800101E021F08001818070473E
:1053C000A0F85010704770B5048C24F001040484D8
:1053D000058B048C4FF6FF7606EA0313134325F082
:1053E000F3052B4324F00A020A4342F00101038330
:1053F000018470BDC74910B5884206D10121102033
:10540000FEF764FF0021102028E0C349884202D142
:1054100001214C0410E0C149884202D101218C04D1
:105420000AE0BF49884202D10121CC0404E0BD4911
:1054300088420AD101210C052046FEF73DFF204697
:10544000BDE810400021FEF737BFB749884209D1B7
:1054500001212020FEF73AFF00212020BDE8104066
:10546000FEF734BF10BD7FB50446008A0D4620F418
:105470004051E88808432082A08941F20C618843AA
:10548000A9882A8911436A8902431143A181A08A0C
:1054900020F44071A8890843A0826846FEF758FEB0
:1054A0009C48844202D0A048844201D1039800E085
:1054B0000298A189090400EBC00101EB00102968E2
:1054C00001D5490000E08900B0FBF1F26420B2FB95
:1054D000F0F109010B096FF018056B4302EB830231
:1054E000A3891D044FF0320306D503EBC202B2FBC1
:1054F000F0F000F0070005E003EB0212B2FBF0F061
:1055000000F00F00084320817FBD4FF41651016069
:1055100000218180C18001810C22428181817047FC
:1055200010B5028A4C8822F470630A8822438C8862
:10553000C9880C4322431A43028210BD0021018016
:1055400041808180C18070470029818902D041F467
:10555000005101E021F4005181817047028B02F477
:105560007F420283028B0A430283704700298189AC
:1055700002D041F4004101E0C1F30E018181704786
:105580000029818A02D041F4006101E021F4006128
:1055900081827047C1F30801818070478088C0F321
:1055A00008007047028A22F00F020282028A0A4330
:1055B000028270470029818902D041F0020101E096
:1055C00021F0020181817047828922F40062828188
:1055D00082890A4382817047028A22F02002028275
:1055E000028A0A43028270470029018A02D041F4EC
:1055F000804101E021F4804101827047818941F0BE
:105600000101818170470029818A02D041F008019F
:1056100001E021F0080181827047028BD2B202833F
:10562000028B42EA0121018370470029818A02D05E
:1056300041F0200101E021F0200181827047002922
:10564000818A02D041F0100101E021F01001818235
:105650007047828A22F004028282828A0A4382820E
:1056600070470029818A02D041F0020101E021F057
:10567000020181827047002A828A01D00A4300E039
:105680008A438282704710B5C1F3421301F01F04B0
:105690000121A140012B07D0022B07D01430002A92
:1056A000026805D00A4304E00C30F8E71030F6E752
:1056B0008A43026010BD0246002012880A4200D0D0
:1056C00001207047C9430180704730B501F01F02C7
:1056D00001240025C1F3421304FA02F2012B0FD07A
:1056E000022B0FD0838A4FEA11210088134204FA5B
:1056F00001F400EA040001D000B10125284630BDC4
:105700008389F0E7038AEEE70A0A01219140C94341
:1057100001807047001001400044004000480040F4
:10572000004C0040005000400014014000F108010E
:105730004FF0FF32C0E90112C16001610021016038
:105740007047002101617047426853684B604368AD
:105750008B60536899605160416008610168491C21
:105760000160704710B50B685A1C02D000F10802A6
:1057700002E0026904E05268546824689C42FAD945
:1057800053684B6099608A60516008610168491CE8
:10579000016010BDD0E901128A60D0E901125160A8
:1057A00001694A68824201D182684A60002202612E
:1057B0000868401E086008687047000070B50D4614
:1057C00004001FD000F0EBFCD4E90F21206802FB9D
:1057D000010363600023A363521EA06002FB01006B
:1057E000E060581E6064A06404F110006DB1FFF722
:1057F0009DFF04F12400FFF799FF00BF00F0D7FCE4
:10580000012070BDFAF714FDFEE721690029F5D0EB
:1058100001F07BF90128F1D100F0BBFCEEE72DE9A6
:10582000F04117460E46050019D0502000F0DEFC6E
:10583000040014D005FB06F0401C00F0D7FC2060EB
:1058400050B1C4E90F5601212046FFF7B7FF84F895
:105850004D702046BDE8F081204600F01CFDFAF7AF
:10586000E7FCFEE770B5044600F099FC04F124055E
:105870000AE0606A58B1284601F047F908B101F022
:10588000BFF9A06C401EA064A06C0028F1DC4FF0B2
:10589000FF36A66400F08BFC00F081FC04F11005DB
:1058A0000AE0206958B1284601F02FF908B101F04B
:1058B000A7F9606C401E6064606C0028F1DC6664CF
:1058C000BDE8704000F073BC10B51346026C04468E
:1058D0008AB1CBB1E06801F027FAE168206C091ABF
:1058E000E1602268914202D26168081AE060A06B10
:1058F000401CA06310BD20680028F8D1606801F04A
:10590000C7F900206060F2E7A06801F00DFA216C91
:10591000A0680844A06061688842E8D32068A0605D
:10592000E5E72DE9FF4182B098460F4604004FF0AD
:10593000000502D000261FB107E0FAF779FCFEE768
:10594000206C10B1FAF774FCFEE700F028FCA16BA4
:10595000E06B814213D2424639462046FFF7B4FF3E
:10596000606A38B104F1240001F0CFF8012801D1B8
:1059700000F00FFC00F01BFC012006B06AE7049861
:1059800008B11DB106E000F012FC1DE0684601F010
:10599000E9F8012500F00BFC00F046FE00F0FFFBEB
:1059A000606C401C00D16664A06C401C00D1A664F1
:1059B00000F0FDFB04A9684601F0DFF830B1204695
:1059C000FFF750FF00F0C2FD0020D6E700F0E7FB34
:1059D000A06BE16B884210D100F0E9FB04F11000EC
:1059E000049901F061F82046FFF73CFF00F0AEFD9E
:1059F0000028AAD100F0CDFBA7E700F0D8FB204695
:105A0000FFF730FF00F0A2FD9FE770B5054650207C
:105A100000F0ECFB04001DD0002161602160A1605A
:105A2000E160A1630120C4E90F01801E6064A064ED
:105A300084F84D5004F11000FFF778FE04F12400C3
:105A4000FFF774FE00231A4619462046FFF769FF48
:105A5000204670BDFAF7ECFBFEE710B5040009D054
:105A600001F0DAF8616888420FD1E068401EE0601A
:105A700003D008E0FAF7DCFBFEE700231A461946DC
:105A80002046FFF74EFF012010BD002010BD30B4AE
:105A900003680D46002B0CD0026CC1688C18C460E2
:105AA00041688C4200D3C360C168284630BC01F015
:105AB0003BB930BC70472DE9FF4383B01F46884691
:105AC00004004FF0000506D0002604F12409B8F1C7
:105AD000000F03D007E0FAF7ABFBFEE7206C10B134
