:020000040800F2
:1000000010300020B5030008D9030008DB03000806
:10001000DD030008DF030008E10300080000000022
:100020000000000000000000000000009D0100082A
:10003000E303000800000000E10100084B70000825
:10004000CF030008CF030008CF030008CF03000848
:10005000CF030008CF030008CF030008CF03000838
:10006000CF030008B7050008CF0300089504000877
:1000700057040008E1040008CF0300080904000841
:10008000CF03000811040008CF030008CF030008C5
:10009000CF030008CF030008CF030008CF030008F8
:1000A000CF0300081105000831050008CF03000840
:1000B000330500085305000873050008CF03000846
:1000C000CF030008CF030008CF030008B3050008E2
:1000D000CF030008E9030008CF030008CF0300089E
:1000E000CF030008CF030008CF030008CF030008A8
:1000F000CF030008CF030008CF030008B7040008AF
:10010000CF030008CF03000893050008B5050008D9
:10011000CF030008CF030008EB040008FF04000829
:10012000CF030008CF03000833040008CF03000802
:10013000CF030008CF030008CF030008CF03000857
:10014000CF030008CF030008CF030008CF03000847
:100150004D040008CF030008CF030008CF030008B8
:10016000CF030008CF030008CF030008CF03000827
:10017000CF030008CF030008CF030008CF03000817
:10018000CF030008CF030008DFF80CD008F068F8B0
:1001900000480047CF4A000810300020234B196860
:1001A0000868B0E8F04F80F309884FF0000080F352
:1001B000118870470000000003480068006880F361
:1001C000088862B600DF00BF08ED00E0DFF80C0031
:1001D000016841F470010160704700BF88ED00E0E4
:1001E000EFF30980114B1A681EF0100F08BF20EDC5
:1001F000108A20E9F04F106008B54FF0140080F32A
:10020000118807F0F8F94FF0000080F31188BDE87D
:10021000084019680868B0E8F04F1EF0100F08BFDA
:10022000B0EC108A80F30988704700BF8801002075
:10023000EFF311804FF0140181F31188704780F3C0
:10024000118870470CB500205149019000900A6850
:1002500042F480320A604FF4A0630A6802F400326C
:100260000092019A521C0192009A12B9019A9A4284
:10027000F3D10A68920334D50120009044484030FD
:10028000026842F0805202604248026842F48042B2
:1002900002603F48083002680260026842F400428F
:1002A0000260026842F4A0520260031F3A4A1A60D8
:1002B0000A6842F080720A600A689201FCD5374AE7
:1002C00040F205611160016821F0030101600168DD
:1002D00041F0020101600168C1F381010229FAD1F4
:1002E0000CBD00900CBD2A4810B5016841F0010119
:1002F0000160274A0021083211600268284B1A4029
:100300000260031D274A1A60026822F480220260FC
:100310001F480C300160FFF795FF23494FF0006044
:10032000086010BD70B51A4C083420681F4A10F0E0
:100330000C011F4804D05510042903D0082903D00C
:1003400002601BE0056019E01149091D0B68C3F349
:1003500080560B6803F03F0316B1B5FBF3F201E0E2
:10036000B2FBF3F20B680968C3F388135A43C1F375
:100370000141491C4900B2FBF1F1016021680C4ABE
:10038000C1F30311121D515C0268CA40026070BDC6
:10039000003802400070004008544007003C024012
:1003A000FFFFF6FE1030002408ED00E00024F4000A
:1003B000000000200648804706480047FEE7FEE7A9
:1003C000FEE7FEE7FEE7FEE7FEE7FEE7FEE7FEE705
:1003D000E7020008890100087047FEE7FEE7FEE734
:1003E000FEE770477047704710B5734C40F22551D7
:1003F000204606F0B0F8002805D02046BDE81040A1
:10040000202106F0A5B810BD6C496D4805F029BA49
:1004100070B56B4D6B4C30352146284605F0FEF922
:10042000002805D021462846BDE8704005F019BADD
:1004300070BD10B56449654805F013FA6448417809
:10044000007841EA00206349088010BD5F48624996
:10045000483005F006BA70B5594D604C483D21460C
:10046000284605F0DBF9002813D02146284605F080
:10047000F8F95B4801F089FC00280AD1594C0021A9
:10048000204605F0A7FF2046BDE87040012105F099
:10049000A1BF70BD70B54A4D534C603D2146284602
:1004A00005F0BCF9002805D021462846BDE870407B
:1004B00005F0D7B970BD70B5414C4C4D4834294654
:1004C000204605F0ABF9002809D00021204605F0B0
:1004D0001AF929462046BDE8704005F0C2B970BD42
:1004E00037483649303805F0BCB910B501214048CD
:1004F00005F00FFE3F480168491C016010BD10B5B2
:1005000001213D4805F005FE2B497A20888010BD69
:1005100010B53A4C0121204605F0FBFD2088C106AC
:100520003748016801D5491E00E0491C016010BD33
:10053000704710B501218C07204605F0EAFD2088A0
:10054000C1063048016801D5491E00E0491C016020
:1005500010BD10B52C4C0121204605F0DAFD208895
:10056000C1062A48016801D5491E00E0491C016006
:1005700010BD10B5264C0121204605F0CAFD20888B
:10058000C1062448016801D5491E00E0491C0160EC
:1005900010BD10B5204C0121204605F0BAFD208881
:1005A000C1061E48016801D5491E00E0491C0160D2
:1005B00010BD704770477047001001402080002038
:1005C00070600240008020200080201040640240C3
:1005D0008C020020180000200088002000880010F5
:1005E000AA0200200048004020800010008000285F
:1005F00000100040DC00002000140040000001401A
:100600001C000020200000200004004024000020E6
:100610000008004028000020000C00402C000020B2
:1006200070B50546002407F001FBFE4902E02A5D93
:100630000A55641C8442FADBBDE870400121FA4887
:1006400005F061B870B5F94D06460024315D00290A
:100650000BD0284605F0E4FE8021284605F071FF06
:100660000028F9D0641CE4B2F0E770BD70B5EF4E1D
:1006700005460024002D0DD02946304605F0D0FE59
:100680008021304605F05DFF0028F9D0641CE4B2FB
:10069000032CEFD370BD73B50C460020FFF7E6FFC7
:1006A000E3A0FFF7CFFFDF482246E2A1823807F040
:1006B00021FEDC488238FFF7C5FFDFA0FFF7C2FF4D
:1006C000DFA0FFF7BFFFD748DAA18238009A07F012
:1006D00011FED44E0024D54D823E2846315D05F0F2
:1006E0009FFE4021284605F02CFF0028F9D0641C0D
:1006F000142CF2DBD2A0FFF7A5FFFF20FFF7B6FF17
:10070000FF20FFF7B3FFBDE87C40FF20AEE770B5E8
:1007100005460C46C6A0FFF795FFC2482246C5A174
:10072000823807F0E7FDBF488238FFF78BFFC5A08E
:10073000FFF788FF2846FFF785FFC1A0FFF782FF7C
:10074000BDE87040FF2091E777B5BEA185B00646B1
:10075000D1E90001CDE90001B9A0002200680390B1
:10076000B3A0B04D0068283DA5F128030290AD4C20
:100770001146A3F13200A95499548154A154521C3A
:10078000D2B21E2AF7D30A210170FF24447084706C
:10079000C470A448A7A15038079A07F0ABFDA1493F
:1007A00002A8503907F02AFA9E4802A9823807F0B9
:1007B00025FA9C486946823807F020FA9948314664
:1007C000823807F01BFA97489AA15038069A07F02A
:1007D00091FD94495039A1F1320007F00FFA914888
:1007E00003A9823807F00AFA8E492C706C702839F8
:1007F000AC70A1F15A0007F001FA8A488238FFF77D
:100800000FFF08B070BD2DE9F74188468DA185B076
:100810000646D1E90001CDE9000189A00022006867
:10082000039083A07F4D0068283DA5F12801029028
:100830001446A1F13200AC548C548454521CD2B2F0
:100840000A2AF8D30A210170FF2747708770C77002
:10085000744878A15038079A07F04CFD714902A8F6
:10086000503907F0CBF96F4802A9823807F0C6F972
:100870006C486946823807F0C1F96A4831468238C7
:1008800007F0BCF967484146823807F0B7F9654878
:1008900003A9823807F0B2F92F706F706149AF7009
:1008A000EC7028392C71A1F15A0007F0A7F95D48C6
:1008B0008238FFF7B5FE08B0BDE8F08170B50020C2
:1008C000FFF7D4FE5AA0FFF7BDFE56480D2259A1EE
:1008D000823807F00FFD53488238FFF7B3FE59A066
:1008E000FFF7B0FE594C2021204604F073FA02466F
:1008F0004C4850A1823807F0FDFC4A488238FFF787
:10090000A1FE1021204604F065FA0246454849A19F
:10091000823807F0EFFC43488238FFF793FE4C4DD6
:100920008021284604F056FA02463E4841A182380A
:1009300007F0E0FC3B488238FFF784FE4021284660
:1009400004F048FA024637483AA1823807F0D2FC50
:1009500034488238FFF776FE4FF40041204604F019
:1009600039FA02462F4833A1823807F0C3FC2D48DC
:100970008238FFF767FE4FF48041204604F02AFAE0
:10098000024628482BA1823807F0B4FC254882385B
:10099000FFF758FE4FF40051204604F01BFA0246C0
:1009A000204824A1823807F0A5FC1E488238FFF7B2
:1009B00049FE4021274804F00DFA024619481DA1BE
:1009C000823807F097FC17488238FFF73BFE1CA0DF
:1009D000FFF738FEFF20FFF749FEFF20FFF746FE36
:1009E000BDE87040FF2041E6FEB51BA10646D1E9F7
:1009F0000001CDE900011AA000210A4D0068283D40
:100A0000A5F1280202900C46A2F132006C54545415
:100A10004454491CC9B23229F8D30A210170FF2776
:100A200047701FE04A020020B860024000500040BA
:100A300074000000256400002E7478743D000000EE
:100A4000220000002E7478743D220000000802404D
:100A500000000240001002402E76616C3D00000054
:100A60006A0000008770C7700022AFF23801FE48AC
:100A700007F040FCFC4902A807F0C0F8FA4802A9B8
:100A8000323807F0BBF8F8486946323807F0B6F854
:100A90003246AFF26001F44807F02CFCF249A1F1B4
:100AA000320007F0ABF82F706F70EF49AF70EC7049
:100AB00028312C71A1F15A0007F0A0F8EA48323829
:100AC000FFF7AEFDFEBD2DE9FC4101211F2004F022
:100AD000E9FA01248DF8044000268DF806604FF6EF
:100AE000FF758DF80740032700958DF8057069465E
:100AF000DE4804F009F98DF804408DF806608DF8A1
:100B0000074000958DF805706946D94804F0FCF857
:100B10008DF804408DF806608DF8074000958DF83B
:100B200005706946D34804F0EFF8BDE8FC817CB558
:100B300001217E2004F0B6FA0024C0208DF8044084
:100B4000012500908DF8075002268DF80560694652
:100B5000C94804F0D9F806208DF8044000908DF8BB
:100B600007508DF805606946C04804F0CDF80420B0
:100B70008DF8044000908DF807508DF805606946A7
:100B8000BB4804F0C1F87CBD1FB54FF4E06004F031
:100B900003F836208DF80C0000248DF80D408DF8F8
:100BA0000E4001208DF80F0003A803F0FAFF012189
:100BB000102004F095FA5320ADF80000ADF808407D
:100BC000ADF8024040F2E730AC4C01906946204657
:100BD00004F0F6FE0121204605F09BFA01221146A1
:100BE000204605F076FA0021204604F02BFF012173
:100BF000204604F05DFF1FBD1FB54FF4E06003F019
:100C0000CBFF37208DF80C0000248DF80D408DF8B7
:100C10000E4001208DF80F0003A803F0C2FF012150
:100C2000202004F05DFA4FF4FA70ADF80000ADF842
:100C30000840ADF8024040F2E730914C019069461F
:100C4000204604F0BDFE0121204605F062FA012293
:100C50001146204605F03DFA0021204604F0F2FE40
:100C60000121204604F024FF1FBD70B58AB0012188
:100C7000022004F03FFA01210C2004F013FA7C4E0C
:100C800003220621304604F0C8F80322072130462B
:100C900004F0C3F803220821304604F0BEF8032212
:100CA0000921304604F0B9F84FF470700590022025
:100CB0008DF8180003208DF8190000248DF81A40D3
:100CC00001258DF81B5005A9304604F01DF8A4201D
:100CD000ADF81C0040F6B83008902802694EADF817
:100CE0002400ADF81E4007A9304604F069FE6020DC
:100CF000ADF80000ADF802500294ADF80C400121AF
:100D0000304604F0D5FE0021304604F09BFE6946D3
:100D1000304604F0D7FE6946304604F0FFFE6946CF
:100D2000304604F037FF6946304604F06DFF01217C
:100D3000304605F0AFF90AB070BD70B58AB0012138
:100D4000082004F0CDF90121084604F0ABF94A4E21
:100D500002220021304604F060F8022201213046D0
:100D600004F05BF802221146304604F056F80222E5
:100D70000321304604F051F80F20059002208DF831
:100D8000180003208DF8190000248DF81A40012561
:100D90008DF81B5005A9304603F0B6FFBA20ADF818
:100DA0001C0042F21070384E0890ADF82440ADF8A7
:100DB0001E4007A9304604F003FE6020ADF8000095
:100DC000ADF802500294ADF80C400121304604F019
:100DD0006FFE0021304604F035FE6946304604F0CF
:100DE00071FE6946304604F099FE6946304604F0CB
:100DF000D1FE6946304604F007FF0121304605F078
:100E000049F998E770B58AB00121042004F068F927
:100E100001210D2004F046F9164E02220C21304625
:100E200003F0FBFF02220D21304603F0F6FF022201
:100E30000E21304603F0F1FF02220F21304603F06D
:100E4000ECFF4FF47040059002208DF8180003204D
:100E50008DF8190000248DF81A4001258DF81B50DB
:100E600005A9304612E00000FA010020000402400B
:100E700000080240000C0240000002400010004048
:100E80000014004000040140000C004003F03CFF4F
:100E9000A420ADF81C0040F6B83008902802ADF848
:100EA0002400ADF81E4007A9FE4E304604F088FD30
:100EB0006020ADF80000ADF802500294ADF80C408F
:100EC0000121304604F0F4FD0021304604F0BAFD63
:100ED0006946304604F0F6FD6946304604F01EFED1
:100EE0006946304604F056FE6946304604F08CFEF2
:100EF00021E770B5012188B0080404F0FBF8012156
:100F0000084604F0CFF8E84E03221146304603F0BD
:100F100084FF03220221304603F07FFF0C20009063
:100F200002208DF8040003208DF8050000248DF8C0
:100F3000064001258DF807506946304603F0E4FE6F
:100F4000BA20ADF8080042F21070D84E0390ADF808
:100F50001040ADF80A4002A9304604F031FD0420EB
:100F6000ADF81400C820ADF81C00ADF81640ADF87F
:100F7000185005A9304604F0DDFFCD4C00231A4679
:100F80000321204605F03FF90121204605F0C1F874
:100F900001221146204605F09CF80121304604F05C
:100FA00087FD0021204604F04DFD2AE42DE9F0479D
:100FB00001218AB0084604F093F80121022004F0D0
:100FC0008FF80121032004F06DF8DFF8DC92012294
:100FD0000F21484603F021FFDFF8D88201220321C8
:100FE000404603F01AFF02220421404603F015FF99
:100FF00002220521404603F010FF02268DF804600E
:10100000032738208DF80570002400908DF80640E5
:1010100001258DF807506946404603F075FE8DF8AE
:101020000460E8038DF8057000908DF806408DF897
:1010300007506946484603F067FE4FF6FF70ADF86B
:101040000C4004904FF08049ADF81440ADF80E40CC
:1010500003A9484604F0B4FCDFF85CA203A950469B
:1010600004F0AEFC4FF004081420ADF81880ADF881
:101070002000ADF81A60ADF81C5006A9484604F0EF
:1010800059FF06A9504604F055FF02231A460321D2
:10109000484605F0B8F802231A460321504605F0E9
:1010A000B2F80121484605F034F80121504605F018
:1010B00030F801221146484605F00BF8012211468E
:1010C000504605F006F80121484604F0F1FC0121E4
:1010D000504604F0EDFC0021484604F0B3FC00212A
:1010E000504604F0AFFC780203F056FD1D208DF849
:1010F00008008DF809708DF80A408DF80B5002A891
:1011000003F04FFD1C208DF808008DF809808DF844
:101110000A408DF80B5002A803F043FD0AB0BDE869
:10112000F08770B501218AB0084603F0E3FF012182
:10113000102003F0B7FF4FF42060009002208DF8DC
:10114000040003208DF8050000245C4E8DF8064055
:1011500001258DF807506946304603F0D5FD012280
:101160000921304603F059FE01220B21304603F0DD
:1011700054FE4FF6FF704D4EADF808400390ADF8A9
:101180001040ADF80A4002A9304604F019FC0420D2
:10119000ADF814000A20ADF81C00ADF81640ADF80B
:1011A000185005A9304604F0C5FE00231A46032155
:1011B000304605F028F80121304604F0AAFF01224C
:1011C0001146304604F085FF0121304604F0A1FFAE
:1011D00001221146304604F07CFF0121304604F024
:1011E00067FC0021304604F02DFC4FF4C06003F092
:1011F000D3FC19208DF820008DF821508DF8224065
:101200008DF8235008A803F0CCFC94E52DE9F041BB
:101210008AB00121042003F063FF0121082003F0BC
:1012200041FF4FF44050022600908DF804600320E7
:101230008DF805000024224F8DF8064001258DF819
:1012400007506946384603F05FFD4FF6FF70DFF840
:101250005480ADF808400390ADF81040ADF80A4056
:1012600002A9404604F0ACFB02220C21384603F0F0
:10127000D4FD02220D21384603F0CFFD0427C820FB
:10128000ADF81470ADF81C00ADF81660ADF818504C
:1012900005A9404604F04EFE02231A4603214046AB
:1012A00010E0000000080040000002400000014083
:1012B00000400140000402400004004000100240D1
:1012C000000C024004F09FFF0121404604F021FF82
:1012D00001221146404604F0FCFE0121404604F084
:1012E000E7FB42F21071404604F0ACFBFE4804807C
:1012F000A8F800504FF4C06003F04EFC1E208DF89B
:1013000020008DF821708DF822408DF8235008A818
:1013100003F047FC0AB0BDE8F0812DE9F0418AB046
:101320000121082003F0DCFE0121084603F0BAFE8B
:10133000032002268DF804608DF805000024EB4F91
:1013400000908DF8064001258DF807506946384613
:1013500003F0DAFC4FF6FF70DFF89483ADF8084035
:101360000390ADF81040ADF80A4002A9404604F0E1
:1013700027FB02220021384603F04FFD0222012103
:10138000384603F04AFD0427C820ADF81470ADF8C4
:101390001C00ADF81660ADF8185005A9404604F0E1
:1013A000C9FD02231A460321404604F02CFF012107
:1013B000404604F0AEFE01221146404604F089FE8C
:1013C0000121404604F074FB0021404604F03AFB42
:1013D000C74814300480A8F800504FF4C06003F0F0
:1013E000DBFB32208DF820008DF821708DF8224033
:1013F0008DF8235008A803F0D4FB8BE72DE9F041CA
:101400009CB00121BB4803F04DFE01210D0228468E
:1014100003F070FEB8480024CDE90040B74802A9A7
:101420004FF0080881E81101A800CDE9054040000F
:1014300007908000CDE908050AA90001012581E88F
:101440003100AF4E0D94694630460E9404F022F9F7
:101450000121304604F057F903273C268DF85870D7
:1014600015968DF85B4015A9A04803F04DFC8DF84A
:10147000587015968DF85B4015A9A24803F044FCFE
:101480003804CDE91740B001CDE9194017A803F0A1
:1014900006FF1194129413942806974C0F908DF820
:1014A00040504C3C8DF841508DF850800FA920469B
:1014B00003F0CAFE042301220221204603F039FF73
:1014C000042302220321204603F033FF04230322D6
:1014D0001946204603F02DFF04231A460521204615
:1014E00003F027FF042305220C21204603F021FFEF
:1014F000042306220D21204603F01BFF04230722AC
:101500000E21204603F015FF042308220F21204658
:1015100003F00FFF0121204603F088FF0121204640
:1015200003F07AFF0121204603F0D0FE204603F0AD
:101530003AFF1CB0EFE608B54FF4E06003F02CFB77
:1015400025208DF8000000208DF801008DF80200A4
:1015500001208DF80300684603F023FB08BD70B539
:10156000054696B00121102003F0C4FD0121084674
:1015700003F098FD0121880503F094FD4FF4C0604D
:10158000139002208DF8500000248DF852408DF801
:101590005340564E8DF8510013A9304603F0B4FB6A
:1015A00007220921304603F038FC07220A21304681
:1015B00003F033FC0F95ADF844400C20524DADF8CC
:1015C0004040ADF84600ADF84240ADF848400FA9A4
:1015D000284604F08EFE0121284604F0FBFE4FF45D
:1015E000A06003F0D9FA3A208DF854008DF85540E8
:1015F0008DF8564001208DF8570015A803F0D1FA58
:101600003F4E3036304603F0BDFF4FF00060009093
:101610003A4869461030CDE902040A200490281D9A
:1016200001900015CDE905408010CDE90840400249
:101630000A9004200B9007940320CDE90C04304657
:101640000E9404F027F801224021284604F059FFA7
:1016500001221021304604F0CBF80121304604F07D
:1016600052F816B070BDF0B50646012197B0480596
:1016700003F018FD01214D04284603F031FD01213E
:10168000082003F00FFD6020139002208DF8500019
:1016900000248DF852408DF853401C4F8DF85100B6
:1016A00013A9384603F030FB07220521384603F022
:1016B000B4FB07220621384603F0AFFB0F96ADF8C6
:1016C00044400C20124EADF84040ADF84600ADF855
:1016D0004240ADF848400FA9304604F00AFE01210F
:1016E000304604F077FE15E0140800400000024088
:1016F000000C0040050040004C2001407C0200200E
:10170000106402400008024000100140000C02403A
:10171000004400404FF4A06003F03EFA11208DF821
:1017200054008DF855408DF8564001208DF8570033
:1017300015A803F036FAF94F384603F023FFA80244
:10174000009040200390F64802903C200490301D09
:1017500001900015CDE905408010CDE90840042036
:10176000CDE90A5007940320CDE90C0469463846B8
:101770000E9403F08FFF01228021304604F0C1FE59
:1017800001228021304604F0BCFE0122102138469F
:1017900004F02EF80121384603F0B5FF17B0F0BD74
:1017A00070B50546012196B0880403F099FC01212B
:1017B000082003F077FC0121480503F073FC4FF487
:1017C0004070139002208DF8500000248DF8524094
:1017D0008DF85340D34E8DF8510013A9304603F0D5
:1017E00093FA07220821304603F017FB072209214C
:1017F000304603F012FB0F95CB4EADF84040ADF8EC
:1018000044400C25ADF84240ADF84840ADF8465094
:101810000FA9304604F06DFD0121304604F0DAFDD9
:101820004FF4A06003F0B8F98DF854508DF855408E
:101830008DF8564001208DF8570015A803F0B1F936
:10184000B64D783D284603F09DFE4FF000600090B5
:10185000B648CDE9020408200490301D019000151F
:10186000CDE905408010CDE9084040020A900420EF
:101870000B9007940320CDE90C04694628460E948A
:1018800003F008FF01224021304604F03AFE012215
:101890004021304604F035FE01221021284603F095
:1018A000A7FF0121284603F02EFFDAE6F0B5064631
:1018B000012197B0C80403F013FC0121084603F08E
:1018C000F1FB0121480503F0EDFB02208DF85000EB
:1018D00000248DF852408DF85340954F03258DF824
:1018E0005100139513A9384603F00EFA082200217F
:1018F000384603F092FA08220121384603F08DFAA7
:101900000F96ADF844400C208A4EADF84040ADF83B
:101910004600ADF84240ADF848400FA9304604F00B
:10192000E8FC0121304604F055FD4FF4A06003F0BF
:1019300033F90D208DF854008DF855408DF8564040
:1019400001208DF8570015A803F02BF9734F603F65
:10195000384603F017FE78050090744869460F3842
:10196000CDE9020408200490301D01900015CDE956
:1019700005408010CDE90840400207940A900420F9
:10198000CDE90C540B9038460E9403F083FE0122EF
:101990004021304604F0B5FD01224021304604F0DC
:1019A000B0FD01221021384603F022FF0121384604
:1019B00003F0A9FEF2E62DE9F0418046012196B040
:1019C000480503F06FFB0121080503F089FB0121A5
:1019D0000C2003F067FB02258DF8405000248DF8A1
:1019E0004240504F04268DF843400F968DF84150E9
:1019F0000FA9384603F088F98DF840508DF8424021
:101A00008DF84340E8028DF841504B4D0F900FA9DF
:101A1000284603F079F908220221384603F0FDF93F
:101A200008220C21284603F0F8F94FF4A06003F0D7
:101A3000B3F82F208DF8540005208DF855008DF84F
:101A4000560001208DF8570015A803F0AAF8ADF84C
:101A50004C400C20394DADF84840ADF84E00CDF863
:101A60004480ADF84A40ADF8504011A9284604F032
:101A700040FC0121284604F0ADFC284F18373846B9
:101A800003F080FD700600904020039027486946CF
:101A90006038029031200490281D01900015CDE996
:101AA00005408010CDE908404002CDE90A060794C0
:101AB0000320CDE90C0438460E9403F0EBFD01221F
:101AC0008021284604F01DFD01221021384603F034
:101AD0008FFE0121384603F016FE16B01BE410B548
:101AE000012810D003282DD0042836D0052809D18C
:101AF000124C204604F094FC4021204604F021FDC5
:101B00000028F9D010BD0E4C204604F089FC40217D
:101B1000204604F016FD0028F9D010BDA060024058
:101B200000010020000C024000480040AA020020F2
:101B300000000240004C00400008024000500040FD
:101B400000100140F84C204604F06AFC4021204679
:101B500004F0F7FC0028F9D0DFE7F44C204604F04D
:101B60005FFC4021204604F0ECFC0028F9D0D4E7CB
:101B700001B581B0019800EBC00040000090002842
:101B800001D0401EFAE70CBD01B581B044F25061AE
:101B9000019848430090002801D0401EFAE70CBD90
:101BA00070B5E34D00206870044661210120FFF705
:101BB00096FF3220FFF7E8FF641C022CF5D30120CA
:101BC00068707A20287070BD70B5D94D0020E8701B
:101BD000044661210320FFF782FF3220FFF7D4FF84
:101BE000641C022CF5D30120E8707A20A87070BD27
:101BF0000121D04803F087BD10B5401A029CE41AB9
:101C00006043511A90FBF1F0184486E710B510EECE
:101C1000100A06F0CAF99FEDC81B53EC112B06F011
:101C2000B3F806F0D5F900EE100A76E710B510EE1D
:101C3000100A06F0BAF99FEDC21B53EC112B06F007
:101C4000A3F806F0C5F900EE100A66E7904200DD41
:101C50001046884200DA08467047B5488030806CEC
:101C6000B34908627047B2498031896CB04A126A40
:101C7000891A00D54942814201DD012070470020C8
:101C800070472DE9F0470025AF4E074601244FF479
:101C900000594FF480484FF4805A002241463046A4
:101CA00003F0B0F81020FFF763FF274201D00122B4
:101CB00000E000224946304603F0A4F801224146E4
:101CC000304603F09FF81020FFF752FF5146304690
:101CD00003F080F800B12543600010F0FF04DCD170
:101CE0002846BDE8F08770B5974E4FF400450022B6
:101CF0002946304603F086F81020FFF739FF01200F
:101D0000FFF7BFFF4220FFF7BCFFFF20FFF7B9FF3F
:101D1000FF20FFF7B6FF8D4C2070FF20FFF7B1FFCB
:101D20006070FF20FFF7ADFFA070FF20FFF7A9FF55
:101D3000E070FF20FFF7A5FF2071FF20FFF7A1FF54
:101D4000607129463046BDE87040012203F05AB860
:101D500070B57D4E4FF4004500222946304603F011
:101D600051F81020FFF704FF0120FFF78AFF4220FF
:101D7000FFF787FF044601222946304603F042F868
:101D80001020FFF7F5FE204670BD694A0021516220
:101D9000C2796E490D2A09D0FF20087048708870FA
:101DA000C8700871487188710020704702780A7005
:101DB00042784A7082788A70C278CA7002790A7151
:101DC00042794A7180798871012070475F4858498B
:101DD0000278FF2A05D14278FF2A02D18278FF2AB1
:101DE00009D04A6A531C4B62C82A03DDFF210170E7
:101DF0004170817070470020486270475348807975
:101E0000704752480078400601D4012070470020F6
:101E100070474E480078800701D4012070470020A9
:101E2000704770B5424B0125002693F85840EC33BB
:101E3000002803D004DDD8709E7005E0DC7003E05C
:101E4000C0F10000D8709D70002903D004DDD97165
:101E50009D7105E0DC7103E0C1F10000D8719E7155
:101E6000002A03D004DDDA729D7270BDDC7270BD91
:101E7000C2F10000D8729E7270BD34493C39C870FE
:101E8000C871C87270472A490120486570472F48B9
:101E90003C38C178032907D2C179032904D2C07A1A
:101EA000032801D20120704700207047204880306D
:101EB0000068A0F5EA41303901D0012070470020C8
:101EC00070476DE61A48B0F9040040427047184860
:101ED000B5EEC00AD0ED0B0AF1EE10FA02D230EEE8
:101EE000600A01E030EE200ABDEEC00A10EE100AD2
:101EF000704710B5041E2DED048B0D489FED148B1B
:101F0000C06E29D02DDA06F020F841EC190B2046DE
:101F100006F01BF853EC182B05F036FF53EC182B8A
:101F200005F02CFF2CE0000000480040004C004071
:101F300014000020A0600240E5BF631ADCA54C40FD
:101F4000849E52A246DF913F000C02403C010020DB
:101F50009A9999999999B93F9FEDFE0ABDEC048B26
:101F6000DBE505F0F2FF41EC190B204605F0EDFF33
:101F700053EC182B05F008FF53EC182B05F05DFE11
:101F800053EC192B05F072FF06F022F800EE100A50
:101F9000E4E7B5EEC00AF1EE10FA01DAB1EE400A5C
:101FA0007047002800DA40427047EB4991ED130A70
:101FB000D1ED141AF1EE400A80EEA11A00EE900A5B
:101FC000F8EEE00A01EE200ABDEEC00A10EE100A9B
:101FD0007047F0EE401A9FEDE10AF5EEC01AF1EEFF
:101FE00010FA01D2F1EE611AF5EEC00AF1EE10FA24
:101FF00001D2F1EE600AB5EEC01AF1EE10FA01D28C
:10200000B1EE411AF4EEC01AF1EE10FA01DDB0EEB5
:10201000610AF4EEC00AF1EE10FA01DDB0EE600ADA
:10202000B4EEC01AF1EE10FA01DDB0EE410A7047CD
:10203000C948C06E7047C84880308069704770B525
:10204000C54CC54D80342DED048BB0EE408A206820
:10205000A0F5EA41303974D0E268216AD4ED040A6F
:10206000891A401A00EE100A95ED0E1A6069B8EE52
:10207000C00A00EEC10AD5ED0D0AC0EE208A05F0B7
:1020800094FF95ED180A41EC190B20EE280A10EE8A
:10209000100A05F08AFF41EC100B06F021FC51EC10
:1020A000100B81F0004153EC192B05F067FE05F091
:1020B0008FFFE062606905F078FF95ED0F0AD5EDBE
:1020C000180A41EC190B38EE800A20EE200A10EEB7
:1020D000100A05F06AFF41EC100B06F001FC53EC0E
:1020E000192B51EC100B05F049FE05F071FF206330
:1020F00095ED100AD5ED180A38EE800A20EE200A78
:1021000010EE100A05F051FF41EC100B06F0E8FB51
:1021100051EC100B05F05CFF00EE100AB1EE400A26
:1021200084ED0D0AB5EEC08AF1EE10FA38D0A86E33
:1021300080B1012814D0022819D0032830D123E01F
:10214000FFE79FED840A84ED0D0A84ED0C0A84ED0F
:102150000B0AE7E794ED0B0A30EE480A84ED0B0A10
:1021600094ED0C0A30EE480A84ED0C0A05E094ED7B
:102170000B0A30EE480A84ED0B0A94ED0D0A30EE9E
:10218000480A84ED0D0A0BE094ED0B0A30EE480A84
:1021900084ED0B0A94ED0C0A30EE480A84ED0C0A2B
:1021A0002C3494EC030AFFF714FFD5ED0A0AF8EE7D
:1021B000E00A80EE801ABDEEC10A10EE100A6867D0
:1021C000E96E814200DDE86601206866BDEC048BA3
:1021D00070BD614A002100281167906711D19FED01
:1021E0005D0A02F18000D16680ED050A47F23053A6
:1021F0000360436080ED040A9166816081615165EE
:102200001DE7704754485449803090ED040AB5EEFC
:10221000C00AF1EE10FA04D18A6E12B98268002A5F
:1022200009D09FED4C0A002280ED040A8A66826084
:10223000016AC16003E770474748C0ED130A80EDAB
:10224000140A7047444A30B48032434B14688442C5
:1022500009D11C6F8C4206D1D2ED050AF4EE400A7A
:10226000F1EE10FA0FD01967D96E09B90521D966B8
:10227000116AD16082ED050A10600020D86792EDE6
:10228000040A30BCDBE630BC7047334A30B48032DD
:10229000314B9468844209D1D2ED040AF4EE400A2D
:1022A000F1EE10FA02D19C6E8C42ECD0156847F228
:1022B0003054A54219D132251D670525DD66A0429F
:1022C00013DAB5EEC00A0124F1EE10FA946102DDD2
:1022D000146A844207DCB5EEC00AF1EE10FA04D2AB
:1022E000146A844201DAB1EE400A9060996682ED88
:1022F000040A0020D86730BCA1E6C4E7014647F2D3
:102300003050C2E79FED130A9CE710B5124C01460E
:102310002DED028B8034F0EE608AD4ED010AB0EE30
:10232000418AF8EEE00AF4EE400AF1EE10FA0CD120
:102330000948006F884208D1D4ED020AF8EEE00A9D
:10234000F4EE680AF1EE10FA4FD0FDEEC00AC4EDCB
:10235000010A05E000000000140000206F12833A1B
:10236000D4ED080AF8EEE00A30EE600ABDEEC00ACD
:1023700010EE100A1FED090AFFF764FF94ED080A3A
:10238000F8EEC00A78EEE00AFDEEE00A10EE900AE0
:10239000002800DA4042B8EEC00A642818DDF4EEE6
:1023A000C08AF1EE10FA01DCB1EE488A18EE100A8C
:1023B00005F0FBFD05F00CFEFDEEE80ABDEC028B1E
:1023C00000EE100ABDE81040002110EE900A5CE714
:1023D00038EEC00A10EE100A05F0E7FD9FEDF91B7C
:1023E00053EC112B05F0D0FCE4E7BDEC028B0CE4C0
:1023F000F64910B5886901282ADD0A6A8868801ABA
:10240000FFF7CFFD052809DA8869421C8A61B0F51B
:102410007A7F1DDDBDE810400020DAE6EB4A05209A
:10242000803A8B691067B3F5FA7FD06602DD40F21F
:10243000F51088618A68086A904202DDBFEE000AE2
:1024400001E0B7EE000A81ED040ABDE81040F6E5B0
:1024500010BD70B5DD4991ED050AB5EEC00AF1EE8B
:1024600010FA73D1A1F18002D36E002B6ED0886870
:1024700047F23054A04269DA91ED040AB5EEC00A81
:10248000F1EE10FA7DD00D68A54260D1B5EEC00A1C
:102490001346F1EE10FA9B6C03DD0D6AC41AAC42D0
:1024A00008DBB5EEC00AF1EE10FA17D20C6A03444D
:1024B000A34213DD8B69032B48DA0B6AC01AFFF7BE
:1024C00070FD0A2888680ADAC8610020D0661FED0E
:1024D0005F0A106781ED040A0220886179E092EDBD
:1024E0001B0AD1ED040A0B6AB8EEC00A984260EEEE
:1024F000200A92ED120AB8EEC01A80EE810A0FDDB2
:10250000FFF747FD8868096A401AFFF74AFD00EEA9
:10251000900AB8EEE01AD2ED0C0A40EE010A0EE085
:10252000FFF737FD8868096A401AFFF73AFD00EEA9
:10253000900AB8EEE01AD2ED0C0A50EE410A92ED84
:102540001B0AB8EEC01A80EE810A42E046E09F4ABC
:10255000B5EEC00A803AD2ED110AF1EE10FA18DD9C
:1025600001EE100AF8EEC11A01EE103AB8EEC11AE7
:1025700041EE401AB8EEE01A71EEC11A91ED081A58
:1025800000E029E0B8EEC11AF4EEC11AF1EE10FA3B
:102590001BD3B5EEC00AF1EE10FA1AD201EE100A02
:1025A000F8EEE00AF8EEC11A01EE103AB8EEC11AE0
:1025B00041EE401A31EEA01AD1ED080AF8EEE00A19
:1025C000B4EEE01AF1EE10FA03DD096A401AFFF7E3
:1025D00090FCBDE8704032E5C868F6E770BD7B4806
:1025E000A0F180018269022A0CDA1FEDA60A0023FD
:1025F00080ED050A80ED040A47F230528B660260D6
:10260000C0E90123CB6F71485B1CCB678038CA6D72
:10261000806D934202DBCA67496D01B12DE4002051
:10262000FCE76A4A803AD36F5B1CD367834204DDC0
:10263000D06E0844D0660020D067704770B5FFF7B1
:1026400041FC624D2862FFF7D3FEA5F180044FF0F4
:10265000FF31226FE06E002A0BDD90420ED006DAC9
:10266000616F88420ADAFFF7A0FC012104E0A86A42
:1026700002E0002831DDA06FFFF7D3FFD5E90801A4
:10268000814203D0FFF7E5FE286A6862606E002889
:1026900026D094ED1B0AD5ED0D0AB8EEC00A20EE47
:1026A000200AFFF714FC94ED1B0AD5ED0C0A024634
:1026B000B8EEC00A20EE200AFFF709FC94ED1B0AD1
:1026C000D5ED0B0A0146B8EEC00A20EE200AFFF74E
:1026D000FEFBBDE87040FFF7A4BBBDE870407EE79D
:1026E00070BD2DE9F041DFF8E880404603F0AEF917
:1026F000364E803EB168642740EA014090FBF7F413
:102700000025404603F0A2F9B16840EA014090FB81
:10271000F7F0011B00D54942322900DA6D1C04464E
:10272000022DEEDB002800DA6042BDE8F0812DE9E1
:10273000F041DFF8A080404603F088F9234E803E48
:102740007169642740EA014090FBF7F40025404698
:1027500003F07CF9716940EA014090FBF7F0011B3E
:1027600000D54942322900DA6D1C0446022DEEDB09
:102770000028DADA6042D8E72DE9F0414FF08048CE
:10278000404603F063F9114E803EF168642740EA49
:10279000014090FBF7F40025404603F057F9F1683B
:1027A00040EA014090FBF7F0011B00D54942322975
:1027B00000DA6D1C0446022DEEDB0028B5DA60421B
:1027C000B3E700007B14AE47E17A743F9400002029
:1027D000000001400008004010B5FFF782FF0446EA
:1027E000FFF7CAFF204410BDF94900204862F949AB
:1027F00088604FF080425062C860F74A10604861BC
:10280000704730B4F34C8034646DA41A01D422466E
:1028100000E06242C2EB02124FF41675AA4200DDDC
:102820002A469FEDEE1A9C4206DD00EE101AF8EEE5
:10283000C00A00EE102A08E000EE101AF8EEC00AF6
:1028400006DAC2F1000100EE101AB8EEC00A01E08B
:102850009FEDE30A30BC58E530B4DE4C8034646D43
:10286000A41A01D4224600E06242C2EB02124FF4E5
:102870001675AA4200DD2A469FEDD81A9C420ADD51
:10288000C2F5E16200EE102A00EE901AB8EEC00A1E
:10289000F8EEE00A0DE000EE101AF8EEC00A06DAD3
:1028A00002F5E16200EE102AB8EEC00A01E09FEDE9
:1028B000CD0A30BC29E530B4C64C8034246DA41A4E
:1028C00001D4224600E06242C2EB02124FF41675B8
:1028D000AA4200DD2A469FEDC11A9C4208DD00EEA7
:1028E000101AC2F10001F8EEC00A00EE101A06E05C
:1028F00000EE101AF8EEC00A04DA00EE102AB8EE64
:10290000C00A01E09FEDB60A30BCFEE430B4B14C21
:102910008034246DA41A01D4224600E06242C2EB46
:1029200002124FF41675AA4200DD2A469FEDAB1A3B
:102930009C4208DD00EE101AA2F5E162F8EEC00A32
:1029400000EE102A0AE000EE101AF8EEC00A08DACB
:1029500002F5E162C2F1000100EE101AB8EEC00A01
:1029600001E09FEDA00A30BCCFE42DE9F041DFF893
:102970006082404603F06AF8964EB168642740EAE8
:10298000014090FBF7F40025404603F05FF8B16882
:1029900040EA014090FBF7F0011B00D54942322983
:1029A00000DA6D1C0446022DEEDB002800DA6042DE
:1029B000BBE62DE9F041DFF82082A8F1240840466B
:1029C00003F044F8834E7169642740EA014090FBAC
:1029D000F7F40025404603F039F8716940EA0140F8
:1029E00090FBF7F0011B00D54942322900DA6D1C3B
:1029F0000446022DEEDB002800DA604295E62DE960
:102A0000F0414FF08048404603F020F8714EF168E5
:102A1000642740EA014090FBF7F40025404603F0AC
:102A200015F8F16840EA014090FBF7F0011B00D572
:102A30004942322900DA6D1C0446022DEEDB0028E3
:102A400000DA604271E610B5FFF78FFF0446FFF72A
:102A5000D6FF204410BD6049002008605D494861F0
:102A600070475B49002048625A49886070474FF0C0
:102A70008041002048625749C860704700B5FFF7A1
:102A8000EAFFFFF7EEFF5DF804EBF0E770B5564C98
:102A90000221204602F09EF9544D18B90021284623
:102AA00003F0BEFC0221204602F094F9012803D174
:102AB0000121284603F0B4FCBDE87040642004F016
:102AC0002CBDF8B54A4E05460C4630784FF0FF371E
:102AD000411EFE2909D240F23F1101230091FE223E
:102AE0001946FFF789F8286000E02F607078411ED2
:102AF000FE2908D2EF2101230091FE221946FFF79B
:102B00007BF82060F8BD2760F8BD3A4900200860D6
:102B10003049886170473849002008602D490861B4
:102B200070472DE9F041DFF8CC80A8F12408404639
:102B300002F08CFF274EB169642740EA014090FB08
:102B4000F7F40025404602F081FFB16940EA0140F8
:102B500090FBF7F0011B00D54942322900DA6D1CC9
:102B60000446022DEEDBE0E52DE9F041DFF8888038
:102B7000A8F12408404602F069FF164E3169642727
:102B800040EA014090FBF7F40025404602F05EFF6A
:102B9000316940EA014090FBF7F0011B00D5494242
:102BA000322900DA6D1C0446022DEEDBBDE5134B25
:102BB000D9880022D888411A00D54942322900DA42
:102BC000521C0146022AF5DB002800DA4042704719
:102BD000000001401400002024080040CDCCCC3D72
:102BE000000000000000E1440004024000480040F2
:102BF0003C010020240C0040240400407C02002002
:102C0000FB4B998800229888411A00D54942322905
:102C100000DA521C0146022AF5DB0028D7DA4042CE
:102C2000D5E770B50D460446FFF77BFF03466FF00E
:102C30000902F0492046FFF709F80446FA2202216A
:102C40002846FFF703F80146181B00D540420A2822
:102C500001DA002070BDE848A34201DD012200E056
:102C600000228276C176012070BD38B50C46E1495C
:102C700000916FF009034FF4BE720021FEF7BCFF14
:102C80002146BDE83840CCE7DB490220C8769EE704
:102C900070B50B464FF4E1620A21FEF7D7FF0546F7
:102CA000322202211846FEF7D1FF0446FFF75CFFEF
:102CB000401B00D54042142801DA002070BDFFF708
:102CC00053FFCD49A84201DD012000E000208875B6
:102CD000CC75012070BD38B50C464FF4E161009110
:102CE0000A234FF4B4720021FEF786FF2146BDE8A7
:102CF0003840CDE72DE9F041BF4D2820E87501208F
:102D0000A875A5F1EC040026BC4FE66102E00520A1
:102D100004F003FC8021384602F05CF80028F6D16C
:102D2000E069401CE0613228F4DBE66102E0052046
:102D300004F0F3FBFFF718FF1428F8DBE069401CF0
:102D4000E0613228F6DB0220E875EEE42DE9F0417F
:102D5000A94D2820E8750026AE75A5F1EC044FF4C6
:102D60008067DFF89882E66102E0052004F0D5FB79
:102D70003946404602F02EF80028F6D1E069401CA2
:102D8000E0613228F4DBE66102E0052004F0C5FBD7
:102D9000FFF7EAFE1428F8DBE069401CE061322806
:102DA000F6DB0220E875C0E493490220C8750EE7FF
:102DB00030B50D460446FFF7FAFE034640F27A327C
:102DC00046212046FEF742FF0446B422022128464F
:102DD000FEF73CFF0146181B01D4024600E04242C8
:102DE000022A01DA002030BD834DA34201DD00221A
:102DF00000E00122AA74002800DA404248434FF460
:102E00007A7190FBF1F0B4221421FEF71FFFE874F1
:102E1000012030BD18B50C4640F27A3100914623AE
:102E20004FF487720021FEF7E7FE2146BDE8184007
:102E3000BEE771490220C874C9E630B50D460446A4
:102E4000FFF7DEFE03464FF448724FF496712046BA
:102E5000FEF7FCFE04465A2202212846FEF7F6FE43
:102E60000146181B00D540420A2801DA002030BD77
:102E70006148A34201DD002200E001228273C17398
:102E8000012030BD18B50C464FF4487100914FF445
:102E9000967378220021FEF7AFFE2146BDE8184068
:102EA000CBE755490220C87391E6554910B54FF458
:102EB000487008600122D103524801F0A3FF02E0EC
:102EC000052004F02AFB32210020FFF7DBFF002859
:102ED000F6D149490220C87310BD2DE9F05F484979
:102EE000FA25322738010860DFF80C8188F817705E
:102EF0004FF0010B88F816B00024404E02E0052088
:102F000004F00BFB8021304601F064FF0028F6D16D
:102F1000641C322CF6DB4FF00209444688F8179007
:102F20006420FEF731FEFFF7F6FDE7754FF0000A6B
:102F300084F816A057464FF4FA7802E0052004F012
:102F4000ECFAFFF711FE4045F8DB7F1C322FF8DB6F
:102F5000C84684F81790FFF7A8FFE57684F81AA012
:102F600000274FF4805902E0052004F0D6FA4946C4
:102F7000304601F02FFF0028F6D17F1C322FF6DB00
:102F8000464684F81B806420FEF7FEFDFFF7BDFD7A
:102F9000E57684F81AB000251B4F02E0052004F006
:102FA000BCFAFFF7BEFDB842F8DC6D1C322DF8DB31
:102FB000E676BDE8F09F10B502E0052004F0ADFA1A
:102FC0002821B420FFF726FF0028F6D10A49022065
:102FD000C87410BD08B5FFF7A4FD4FF4BE71009191
:102FE0000023044A6FF00901FEF706FE08BD000049
:102FF0007C02002090E8FFFF00010020001002404A
:10300000380401400004024018FCFFFF08B5FFF738
:10301000ABFD4FF4B471009100234FF4E1620A213B
:10302000FEF7EAFDE2E708B5FFF7C1FD4FF487714F
:103030000091002340F27A324621FEF7DDFDD5E70C
:1030400008B5FFF7DDFD7821009100234FF44872A9
:103050004FF49671FEF7D0FDC8E72DE9F041054623
:103060000C46684301FB04002DED028B1E461746FB
:1030700004F06BFF41EC100B05F096FC51EC100BCB
:1030800004F0A6FF3860284604F05FFF41EC180BFF
:10309000204604F05AFF41EC100BB0EE481AF0EE57
:1030A000681A05F0C1FA9FEDFA1B51EC100B53ECB6
:1030B000112B04F069FE04F08BFF3060BDEC028B35
:1030C00076E470B506462DED048B0D46B0EE408AD1
:1030D00010EE900A04F069FF9FEDEF1B53EC112BEB
:1030E00004F052FE04F074FF044604F05EFF41EC6D
:1030F000100B05F091FBB0EE409AF0EE609A18EEDE
:10310000100A04F052FF53EC192B04F03DFE04F0BA
:103110002DFF3060204604F048FF41EC100B05F015
:10312000DFFBB0EE409AF0EE609A18EE100A04F061
:103130003CFF53EC192B04F027FE04F017FF286026
:10314000BDEC048B70BDFEB5002401AB02AAFFF7F5
:1031500084FF5A2000909DED010A4FF48773B4223A
:10316000BDEEC00A002110EE100AFEF745FD00EE8C
:10317000100AFA21B8EEC00A8DED010ABDEEC00AB0
:1031800010EE100AFFF746FEC54E022508B90124CD
:10319000F5749DED020AFA21BDEEC00A10EE100A88
:1031A000FFF763FD08B9F576641C012C01DD0020F2
:1031B000FEBD0120FEBD38B50C460546FFF70AFFEF
:1031C00000EE100AB8EEC00AFFF72DFFB4210091FF
:1031D00000235A224FF48771FEF70EFD00EE900A8D
:1031E00021462846BDE83840F8EEE00A69E788B095
:1031F00000200490039002E0052004F08EF92821BD
:103200000A20FFF768FD0028F6D1A54D0224EC75D1
:1032100002E0052004F081F964210020FFF793FF0C
:103220000028F6D1EC74EC7602E0052004F075F984
:1032300032210020FFF726FE0028F6D1A846EC73C5
:1032400000224FF40041974801F0DCFD4FF4005795
:10325000954E02E0052004F060F93D4639463046BF
:1032600001F0B8FD0028F5D102E0052004F055F981
:1032700064210020FFF767FF0028F6D188F813408B
:1032800088F81B402F46052004F047F939463046A0
:1032900001F0A0FD0028E0D003A904A8FFF711FC6D
:1032A0000498411C2BD00399491C28D04FF0A00C46
:1032B0006FF09F094B4662461946A038CDF800C012
:1032C000FEF79AFC054603987822CDF800C0C0F1BD
:1032D00078004B465142FEF78FFC8146280000D50E
:1032E00068420F2810DA5FEA090001D5C9F1000031
:1032F0000F2809DA88F81B4088F81340C3E788F8DC
:10330000134088F81B40BEE702A901A8FFF753FF4E
:103310000A2195FBF1F099FBF1F1019A1044029A10
:10332000019011440291FFF70EFFACE72DE9FE4337
:103330005B4E02256C3E356402E0052004F0EDF89A
:1033400028210A20FFF7C7FC0028F6D1544CE57568
:1033500002E0052004F0E1F864210020FFF7F3FE0D
:103360000028F6D1E574E57602E0052004F0D5F8F2
:1033700032210020FFF786FD0028F6D1E5730022F8
:103380004FF40041474801F03DFD4FF4FA6000E082
:10339000052004F0C2F864210020FFF7D4FE0028C5
:1033A000F6D1E574E57640F6B83004F0B6F80520BD
:1033B00004F0B3F83A493039081FFFF782FBB06BCD
:1033C000411C2BD0F16B491C28D04FF0A00C6FF0A2
:1033D0009F08434662461946A038CDF800C0FEF764
:1033E0000BFC0746CDF800C0F06B7822C0F17800E6
:1033F00043465142FEF700FC8046380000D5784233
:103400000F280FDA5FEA080001D5C8F100000F2885
:1034100008DAE576E5740020BDE8FE83E574E5761C
:103420000120F9E702A901A8FFF7C5FE0A2197FBD1
:10343000F1F098FBF1F1019A1044029A01901144C5
:103440000291FFF780FEB2E710B511F15C0F01DACF
:10345000002010BD4FF461714843A02190FBF1F1B1
:103460004FF4166001F5E161814202DC40108142B7
:1034700000DA014600EE101AB6EE001ADFED0B0A74
:103480001046B8EEC00AFEF740FF012010BD000054
:10349000E5BF631ADCA54C40849E52A246DF913FF3
:1034A0000001002000040240001002400000000063
:1034B0002DE9F843A025FA4C6E426FF07708C8203A
:1034C000FEF762FBF6493C31081FFFF7FAFA009558
:1034D000A06B3346A0221946A038FEF78DFB0746A5
:1034E0000095E06B3346C0F1780078224146FEF744
:1034F00083FB0146A06B401C0FD0E06B401C0CD03E
:1035000014223846FFF7A0FF0028D8D1FEF761FE4D
:10351000BDE8F8430020FEF75CBE4FF47A7003F07C
:10352000FCFFCCE72DE9F04F07462DED048B85B06D
:103530001422DC49684604F03DFBFFF7B9FFFFF7B2
:1035400053F90020FEF745FED54DDFF85CB3D74EAA
:103550006C3540F698094FF4806A4FF00008A5F1E9
:10356000EC0400BFFFF7E2FEC6F8009085F8168075
:103570002821E975C4F81C8002E0012003F0CDFF8A
:103580005146584601F026FC0028F6D1E069401C5F
:10359000E0613228F4DB0220E8754FF47A7003F022
:1035A000BCFF0122D103C24801F02CFC40F6B83028
:1035B00000E0052003F0B1FF3221FA20FFF78BFB7A
:1035C0000028F6D10220E87509E0F0216E20FFF70F
:1035D00059FC08B90220E873052003F09EFF322150
:1035E0005A20FFF778FB0028EFD10220E87502E0AF
:1035F000052003F092FFC8216E20FFF743FC00284E
:10360000F6D10220E8734103584601F0E3FB00289D
:103610004FF4487001D03060A4E7B246306040F209
:10362000DC50FEF7B1FA02E0012003F076FFFA2148
:103630008720FFF71AFB0028F6D10226AB46EE766C
:103640004846D146CAF8000040F2DC50FEF79CFA2A
:1036500002E0012003F061FF78210020FFF7DAFB90
:103660000028F6D13546B2465E468BF813504FF42B
:10367000FA61C9F800108BF81B50FEF7AAFDF5752A
:10368000FFF7B2F8DFED8B8AB0EE681A1FED798A8A
:103690002820B0EE480AF0EE400AFEF736FE464615
:1036A000C4F81C807E4D4FF4C87802E0012003F07E
:1036B00034FF286D4045F9DBE069401CE0613228A9
:1036C000F7DB0020FEF785FD4FF47A70FEF75CFA19
:1036D000B046E6616E4606E056F827200223002138
:1036E0001420FFF78EF8E86C1428F5DCE069401C24
:1036F000E0613228F7DB0020FEF76BFD9FED6E9A4C
:10370000DFED6E9AC4F81C800EE09142B0EE681AAC
:10371000F0EE480A4FF0080002DAB0EE490A01E084
:10372000B0EE690AFEF7F1FD56F827106A6D501ADF
:1037300000D540420228E8DCE069401CE061322804
:10374000F2DB54465E468BF813A00020FEF741FDE5
:10375000F476F4754FF47A742046FEF715FA4FF4B8
:103760004870C9F8000000224FF40041504801F0B1
:1037700049FB204603F0D1FE0320286405B0BDECD0
:10378000048BBDE8F08F2DE9F05F4FF4004B2DED79
:10379000028BBE26AA2700225946454801F032FB7B
:1037A000DFF8FC804FF0000AA8F18008DFF8F09005
:1037B000022508F1EC04C8F81CA023E0B2424FF047
:1037C00002033A464FF000014FF00F0002DDFFF711
:1037D00018F801E0FFF740F832210A20FFF77BFAE2
:1037E00000B9E57564210020FFF7ADFC08B9E57666
:1037F000E57450212820FFF745FB00B9E57301204F
:1038000003F08BFED9F84C20901B00D540420228D3
:10381000D4DCD8F81C20521CC8F81C20322AF1DB5A
:1038200046469FED248A5FEDDF8AC8F81CA0C84693
:1038300024E0B942B0EE481AF0EE680A4FF01400E6
:1038400002DD9FED1D0A01E09FED1C0AFEF75DFD04
:1038500032210A20FFF73FFA00B9E5756421002004
:10386000FFF771FC08B9E576E57432210846FFF7E9
:1038700009FB00B9E573012003F04FFED8F854109E
:10388000C81B00D540420228D3DCF069401CF0611F
:103890003228F3DBE575E574E576E57313E00000A7
:1038A0009400002078940008001002403804014081
:1038B00000040240CDCC4C3E00006144000061C4D5
:1038C000052003F02AFE32210A20FFF704FA00281F
:1038D000F6D1E57502E0052003F01FFE642100200B
:1038E000FFF731FC0028F6D1E576E57402E005200B
:1038F00003F013FE32210846FFF7C4FA0028F6D180
:10390000E573FEF766FCBDEC028B5946BDE8F05F3F
:103910000022F94801F076BA2DED028B5FED1B8A8B
:10392000B0EE681A9FEDF58A2820F0EE480A9FED68
:10393000F40AFEF7EAFCF34C002504F18007E56188
:1039400002E0012003F0E9FD786D1E28F9DCE06952
:10395000401CE0613228F7DBFEF746FFB0EE480A74
:10396000B0EE681AF0EE400A5020FEF7CEFC40F6AA
:103970009806E56102E0012003F0CFFDFEF72CFF81
:10398000B042F8DBE069401CE0613228F6DBB0EEC3
:10399000480AB0EE681AF0EE400A2820FEF7B5FC9F
:1039A000E56102E0012003F0B8FD786D2828F9DB1D
:1039B000E069401CE0613228F7DBFEF715FF4FF4A9
:1039C000C877E56102E0012003F0A7FDFEF704FFE0
:1039D000B842F8DBE069401CE0613228F6DBB0EE6B
:1039E000681AF0EE480A32201FED4D0AFEF78DFCF2
:1039F000E56102E0012003F090FDFEF7EDFEB0422C
:103A0000F8DBE069401CE0613228F6DB4FF47A75A0
:103A10005FF00504FFF7B7FE0020FEF7DAFB28464B
:103A2000FEF7B2F8FEF7D8FE90FBF4F104FB1100AC
:103A3000FFF778FD0020FEF7CCFB284603F06DFD74
:103A4000E8E72DED068BFEF7CFFEB6EE001A9FEDF0
:103A5000AB8A4620F0EE480A5FED698AB0EE680A4C
:103A6000FEF753FCA74C002540F6D866E56102E05E
:103A7000012003F052FDFEF7AFFEB042F8DBE06933
:103A8000401CE0613228F6DBB6EE001AF0EE480A80
:103A90003220B0EE680AFEF738FC41F26806E561B4
:103AA00002E0012003F039FDFEF796FEB042F8DB9C
:103AB000E069401CE0613228F6DB1FED829AF0EEEF
:103AC000480A2820B0EE491AB0EE680AFEF71DFC3D
:103AD0008C4EE561803602E0012003F01EFD706D22
:103AE0003228F9DCE069401CE0613228F7DBFEF7A0
:103AF0007BFEB0EE480AB0EE491AF0EE400A4620CE
:103B0000FEF703FC40F62827E56102E0012003F000
:103B100004FDFEF761FEB842F8DBE069401CE0619D
:103B20003228F6DBB0EE480AB0EE491AF0EE400A51
:103B30002820FEF7EAFBE56102E0012003F0EDFC3E
:103B4000706D2D28F9DBE069401CE0613228F7DB5D
:103B5000FEF74AFE4FF4AF77E56102E0012003F083
:103B6000DCFCFEF739FEB842F8DBE069401CE0619E
:103B70003228F6DBB0EE491AF0EE480A3220B0EEF9
:103B8000680AFEF7C2FB40F69807E56102E00120F3
:103B900003F0C3FCFEF720FEB842F8DBE069401CEE
:103BA000E0613228F6DB9FED589ADFED589A9FEDE1
:103BB00058AAE56119E0712807DDB0EE491AF0EE68
:103BC000480A1420B0EE690A0DE0706CB0EE491A94
:103BD0007128F0EE480A4FF0140002DAB0EE4A0AFB
:103BE00001E0B0EE680AFEF790FB706DB428E2DCED
:103BF000E069401CE0613228F7DB4FF47A75052458
:103C0000FFF7C1FD0020FEF7E4FA2846FDF7BCFFF0
:103C1000FEF7E2FD90FBF4F104FB1100FFF782FCDC
:103C20000020FEF7D6FA284603F077FCE8E72DE9F6
:103C3000F04F07462DED048B85B0142235496846B8
:103C400003F0B8FFFFF734FCFEF7CEFD0020FEF7CF
:103C5000C0FA2C4DDFF8C0B0304E2A4C40F698091F
:103C60004FF4806AEC354FF0000800BFFFF75EFBB1
:103C7000C6F8009085F816802821E975C4F81C80E4
:103C800002E0012003F049FC5146584601F0A2F839
:103C90000028F6D1E069401CE0613228F4DB022004
:103CA000E8754FF47A7003F038FC0122D103124812
:103CB00001F0A8F840F6B83000E0052003F02DFC34
:103CC0003221FA20FFF707F80028F6D10220E87524
:103CD00009E0F0216E20FFF7D5F808B90220E8735B
:103CE000052003F01AFC32215A20FEF7F4FF0028C9
:103CF000EFD10220E87516E0000402400000000049
:103D00000000E143140000209A99993E0080544439
:103D100000806D448C94000800100240380401407B
:103D2000052003F0FAFBC8216E20FFF7ABF800284E
:103D3000F6D10220E8734103584601F04BF8002801
:103D40004FF4487001D0306090E7B246306040F2E6
:103D5000DC50FDF719FF02E0012003F0DEFBFA2141
:103D60009120FEF782FF0028F6D10226AB46EE76C0
:103D70004846D146CAF8000040F2DC50FDF704FF87
:103D800002E0012003F0C9FB78210020FFF742F890
:103D90000028F6D13546B2465E468BF813504FF4F4
:103DA000FA61C9F800108BF81B50FEF712FAF5758E
:103DB000FEF71AFDDFEDFC8A1FED308A2820B0EEF9
:103DC000681AB0EE480AF0EE400AFEF79EFA464640
:103DD000C4F81C80F54D4FF4C87802E0012003F0D0
:103DE0009CFB686D4045F9DBE069401CE0613228CE
:103DF000F7DB0020FEF7EDF94FF47A70FDF7C4FE13
:103E0000B046E6616E4606E056F827200223002100
:103E10001420FEF750FDE86C1428F5DCE069401C26
:103E2000E0613228F7DB0020FEF7D3F99FEDE09A3E
:103E3000DFEDE09AC4F81C800EE09142B0EE681A03
:103E4000F0EE480A4FF0080002DAB0EE490A01E04D
:103E5000B0EE690AFEF759FA56F827102A6D501A83
:103E600000D540420228E8DCE069401CE0613228CD
:103E7000F2DB54465E468BF813A00020FEF7A9F94A
:103E8000F476F4754FF47A742046FDF77DFE4FF416
:103E90004870C9F8000000224FF40041C64800F005
:103EA000B1FF204603F039FB0320286466E42DE9C6
:103EB000F05F4FF4004B2DED028BBE26AA270022A7
:103EC0005946BD4800F09EFFDFF8E0824FF0000A3F
:103ED000A8F18008DFF8D492022508F1EC04C8F8B4
:103EE0001CA023E0B2424FF002033A464FF000011B
:103EF0004FF00F0002DDFEF7DEFC01E0FEF706FDED
:103F000032210A20FEF7E7FE00B9E57564210020A2
:103F1000FFF719F908B9E576E57450212820FEF776
:103F2000B1FF00B9E573012003F0F7FAD9F84C208E
:103F3000901B00D540420228D4DCD8F81C20521C2B
:103F4000C8F81C20322AF1DB46469FED978A5FEDC8
:103F5000958AC8F81CA0C84624E0B942B0EE481AB9
:103F6000F0EE680A4FF0140002DD9FED910A01E0C7
:103F70009FED900AFEF7C9F932210A20FEF7ABFE49
:103F800000B9E57564210020FFF7DDF808B9E57692
:103F9000E57432210846FEF775FF00B9E57301208C
:103FA00003F0BBFAD8F85010C81B00D540420228D5
:103FB000D3DCF069401CF0613228F3DBE575E57471
:103FC000E576E57302E0052003F0A7FA32210A2026
:103FD000FEF781FE0028F6D1E57502E0052003F02A
:103FE0009CFA64210020FFF7AEF80028F6D1E576B0
:103FF000E57402E0052003F090FA32210846FEF74E
:1040000041FF0028F6D1E573FEF7E3F8BDEC028B23
:104010005946BDE8F05F0022674800F0F3BE2DED81
:10402000028BDFED618AB0EE681A1FEDCC8A282082
:10403000F0EE480A9FED610AFEF767F95B4C002538
:10404000803C5A4FE56102E0012003F066FA386DCA
:104050001E28F9DCE069401CE0613228F7DBFEF73E
:10406000C3FBB0EE480AB0EE681AF0EE400A5020EA
:10407000FEF74BF940F69806E56102E0012003F0F7
:104080004CFAFEF7A9FBB042F8DBE069401CE061A6
:104090003228F6DBB0EE480AB0EE681AF0EE400ABD
:1040A0002820FEF732F9E56102E0012003F035FA3D
:1040B000386D2828F9DBE069401CE0613228F7DB25
:1040C000FEF792FB4FF4C877E56102E0012003F0B0
:1040D00024FAFEF781FBB842F8DBE069401CE0619E
:1040E0003228F6DBB0EE681AF0EE480A32209FED77
:1040F000300AFEF70AF9E56102E0012003F00DFA4B
:10410000FEF76AFBB042F8DBE069401CE061322850
:10411000F6DB4FF47A750524FFF7C9FE0020FEF7A1
:1041200058F82846FDF730FDFEF756FB90FBF4F1FA
:1041300004FB1100FFF77BFD0020FEF74AF828463C
:1041400003F0EBF9E8E72DED048BFEF74DFBDFED17
:104150001C8A9FED178AB6EE001AF0EE680A462018
:10416000B0EE480AFEF7D1F8104C0025803C40F62E
:10417000D866E56102E0012003F0CFF9FEF72CFBE1
:10418000B042F8DBE069401CE0613228F6DBB6EEB5
:10419000001AF0EE680A3220B0EE480AFEF7B5F8D1
:1041A00041F26806E56110E0CDCC4C3E9400002061
:1041B000000061C400006144000402400000E1C34B
:1041C00000000000012003F0A8F9FEF705FBB04253
:1041D000F8DBE069401CE0613228F6DBF0EE489A3B
:1041E0001FED0F9AF0EE680A2820B0EE491AB0EEE3
:1041F000690AFEF78AF8FE4EE56102E0012003F04D
:104200008CF9306D3228F9DCE069401CE06132281D
:10421000F7DBFEF7E9FAB0EE688AB0EE491AB0EEC5
:10422000480A4620F0EE400AFEF76FF840F62827CD
:10423000E56102E0012003F070F9FEF7CDFAB84223
:10424000F8DBE069401CE0613228F6DBB0EE480A9A
:10425000B0EE491AF0EE400A2820FEF756F8E56164
:1042600002E0012003F059F9306D2D28F9DBE069F7
:10427000401CE0613228F7DBFEF7B6FA4FF4C8764F
:10428000E56102E0012003F048F9FEF7A5FAB0422B
:10429000F8DBE069401CE0613228F6DBB0EE491A39
:1042A000F0EE480A3220B0EE690AFEF72EF8E5611A
:1042B00040F6980502E0012003F02FF9FEF78CFA92
:1042C000A842F8DBE069401CE0613228F6DB002000
:1042D000FDF77FFF4FF47A755FF00504FFF7E7FD08
:1042E0000020FDF776FF2846FDF74EFCFEF774FA36
:1042F00090FBF4F104FB1100FFF799FC0020FDF79F
:1043000068FF284603F009F9E8E72DE9F14F96B078
:1043100000208DF8040000908DF82C004FF400462A
:10432000B34C1699B348B44D7710A4F180084FF000
:1043300064094FF0A00C4FF4806A4FF4805B1129A0
:104340007BD2DFE801F009272B2F33373D43495556
:1043500061667B8B949CFD00022100F03BFD60B107
:1043600000223146284600F04DFD3146284600F037
:104370003BFD01460022A1A07CE0012231462846F7
:1043800000F040FD3146284600F02EFD0146002297
:10439000A2A06FE00122A9A0216A6BE00222A9A0DD
:1043A000E16C67E00322ABA0216D63E00422ACA0C6
:1043B000616D5FE0FEF795F901460522ACA059E07A
:1043C000FEF7DAF901460622ACA053E0FEF7AFF99A
:1043D00001460722ADA04DE0AF4801F037FBD8F809
:1043E0001810082240EA014191FBF9F1ABA041E02D
:1043F000AD4801F02BFBD8F81010092240EA01412A
:1044000091FBF9F1A9A035E0AB48C1880A22ABA025
:1044100030E077496031081FFEF753FBCDF800C04C
:10442000E06D6FF09F010B46A022A038FDF7E4FB82
:104430000146E0650B22A4A01CE01DE0CDF800C001
:10444000206E7822C0F178006FF09F035142FDF793
:10445000D3FB014620660C229DA00BE06449683125
:10446000081FFEF7A8FE0D229BA0616E02E00E223F
:104470009CA0A16EFCF768F917B0BDE8F08F9C4CCA
:104480000121204600F0A6FC02469AA101A803F0F3
:1044900031FF01A90BA803F0B1FB0221204600F077
:1044A00099FC024693A101A803F024FF01A90BA8DF
:1044B00003F0A4FB3946204600F08CFC02468DA197
:1044C00001A803F017FF01A90BA803F097FB3146E1
:1044D000204600F07FFC024686A101A803F00AFFF7
:1044E00001A90BA803F08AFB0821204600F072FC0A
:1044F000024680A101A803F0FDFE01A90BA803F06C
:104500007DFBA115204600F065FC024679A101A8BB
:1045100003F0F0FE01A90BA803F070FB0421204674
:1045200000F058FC024673A101A803F0E3FE01A9C4
:104530000BA803F063FB8021204600F04BFC00E059
:10454000FDE002466BA101A803F0D4FE01A90BA86F
:1045500003F054FB4021204600F03CFC024665A1DC
:1045600001A803F0C7FE01A90BA803F047FB5146C1
:10457000204600F02FFC02465EA101A803F0BAFE1F
:1045800001A90BA803F03AFB5946204600F022FC93
:10459000024658A101A803F0ADFE01A90BA803F043
:1045A0002DFB4FF400563146204600F013FC024626
:1045B00050A101A803F09EFE01A90BA803F01EFB69
:1045C0002021204600F006FC02464AA101A803F083
:1045D00091FE01A90BA803F011FB1021204600F069
:1045E000F9FB024643A101A803F084FE01A983E080
:1045F000940000200004024000080240524F424F45
:104600005420322044414E472043484159205341D1
:104610004E2058414E483A2020200000524F424F31
:104620005420322044414E472043484159205341B1
:104630004E20444F3A20202000000000494D553ABA
:10464000000000004C415A45522046524F4E543A09
:10465000000000004C415A4552204C4546543A0057
:104660004C415A45522052494748543A00000000F4
:10467000454E205748204C4546543A00454E205759
:10468000482052494748543A00000000454E204611
:10469000726F6E743A000000000C0040454E2041DD
:1046A000524D20583A00000000040040454E204181
:1046B000524D20593A0000007C0200204254204212
:1046C0004153453A00000000582042414C4C3A000A
:1046D000592042414C4C3A0041524D20504F5320FA
:1046E000583A000041524D20504F5320593A000093
:1046F00000100240256400000BA803F07FFA314649
:10470000284600F067FB0246AFF2180101A803F04B
:10471000F1FD01A90BA803F071FA3946284600F013
:1047200059FB0246AFF2340101A803F0E3FD01A9F1
:104730000BA803F063FA10220BA9F3A0ECE0544697
:104740005146804600F050FB0246AFF2580101A8E6
:1047500003F0D0FD01A90BA803F050FA80212846F0
:1047600000F042FB0246AFF2740101A803F0C2FD63
:1047700001A90BA803F042FA4FF40071284600F09B
:1047800033FB0246AFF2940101A803F0B3FD01A987
:104790000BA803F033FADFF874932146484600F083
:1047A00023FB0246AFF2B40101A803F0A3FD01A967
:1047B0000BA803F023FA4FF4006A5146404600F07C
:1047C00013FB0246AFF2D40101A803F093FD01A947
:1047D0000BA803F013FA5D465946404600F004FB6F
:1047E0000246AFF2F00101A803F084FD01A90BA875
:1047F00003F004FA4FF40051404600F0F5FA024687
:10480000AFF2101101A803F075FD01A90BA803F088
:10481000F5F93946404600F0E7FA0246AFF22C11AE
:1048200001A803F067FD01A90BA803F0E7F93146E1
:10483000404600F0D9FA0246AFF2481101A803F051
:1048400059FD01A90BA803F0D9F92146484600F00B
:10485000CBFA0246AFF2641101A803F04BFD01A9A7
:104860000BA803F0CBF93946484600F0BDFA0246E2
:10487000AFF2801101A803F03DFD01A90BA803F0E0
:10488000BDF95146484600F0AFFA0246AFF29C111E
:1048900001A803F02FFD01A90BA803F0AFF99C4C70
:1048A0004FF48071204600F09FFA0246AFF2BC112F
:1048B00001A803F01FFD01A90BA803F09FF95146C1
:1048C000204600F091FA0246AFF2D81101A803F099
:1048D00011FD01A90BA803F091F92946204600F02B
:1048E00083FA0246AFF2F41101A803F003FD01A917
:1048F0000BA803F083F94021404600F075FA024608
:10490000AFF2102101A803F0F5FC01A90BA803F0F8
:1049100075F911220BA97FA0FBF775FFACE511B467
:104920007E48816D009A914201DD002101E0816D98
:10493000491C8165806D18BCE7E410B5FCF7C3F82D
:10494000FCF7F5F8FCF791F9FCF730FBFCF7E9FB15
:10495000FCF754FDFCF718F9FCF74EF94FF4E1347D
:104960002046FCF7FCFD2046FCF77DFE2046FCF7C8
:1049700017FF2046FCF79AFFE000FDF71CF8FCF754
:10498000CCFCFCF743FCBDE81040052002F0C5BD9F
:104990001020FFF7C4FF0F2002F0BFFDF8E700BFB3
:1049A000FEF774F8052002F0B8FDF9E70027DFF8FC
:1049B00070B1BA463E46B9463D46B8466424052025
:1049C00002F0ABFD28466D1CA04204DABBF80810CB
:1049D00001EB080005E098FBF4F150480025C164A4
:1049E000284680463046761CA04204DABBF80C10FC
:1049F00001EB090005E099FBF4F148480026416508
:104A00003046814638467F1CA04204DABBF80A10C3
:104A100001EB0A0005E09AFBF4F14048002701652C
:104A200038468246CBE700BFFDF708FE052002F0BE
:104A300074FDF9E71FB5FFF780FF00244FF4807580
:104A400000940194029423462A4636A13C480394DC
:104A500002F08CFB00940194029400232A4639A1B1
:104A60003D48039402F082FB0094019402940023D9
:104A70002A463AA13E48039402F078FBFDF790F8ED
:104A8000FDF7B2FEFEF729FAFEF795FA394D3A4CDA
:104A90004FF400563146204600F09CF960B14021A9
:104AA000204600F097F90028F4D10221284600F0B2
:104AB00091F950B1FEF730FF0221284600F08AF943
:104AC00008B1FEF7BEFFFFF73EFBFFF7A8FA7FB580
:104AD00000244FF4807500940194029423462A46E2
:104AE00026A12948039402F041FB0094019402940A
:104AF00000232A4625A12748039402F037FB02F041
:104B00005BFE04B0002070BD493A0000000C02407A
:104B1000000002404F55543A00000000940000206D
:104B20007C0200207461736B55617274436F6D6D0C
:104B3000756E6963617465576974685261730000CA
:104B40009F4900087461736B43686F6E674E6869B4
:104B500065754C617A657200AD4900087461736BCC
:104B6000526F626F74416E616C7974696373000097
:104B7000274A000800040240001002407461736B71
:104B80004D61696E00000000354A00087461736B66
:104B90004C434400914900082849084328490860CB
:104BA000704730B50F22C47801780123FCB1244C42
:104BB000246801F1E02104F4E064C4F5E064C4F386
:104BC0000724C4F10405E2404478AC4085781540E0
:104BD00025432A0181F80024007800F01F018B4052
:104BE0004009800000F1E020C0F8003130BD01F044
:104BF0001F0083404809800000F1E020C0F88031A8
:104C000030BD104A114001430D48001F016070473C
:104C10000B4A121D0029116801D0014300E08143B5
:104C2000116070474FF0E0210428086903D020F09C
:104C300004000861704740F00400FAE70000FA053C
:104C40000CED00E080FFFF1F7C4910B5884206D1C3
:104C50000121084600F058FA002101204FE0784970
:104C6000884206D10121022000F04EFA00210220E4
:104C700045E07449884206D10121042000F044FA3D
:104C8000002104203BE07049884206D10121082020
:104C900000F03AFA0021082031E06C49884206D140
:104CA0000121102000F030FA0021102027E068498F
:104CB000884206D10121202000F026FA0021202080
:104CC0001DE06449884206D10121402000F01CFA11
:104CD0000021402013E06049884206D10121802054
:104CE00000F012FA0021802009E05C4988420AD1D4
:104CF00084150121204600F007FA00212046BDE876
:104D0000104000F001BA10BDF0B5002301240327C4
:104D10000D6804FA03F21540954242D1D0F800C064
:104D20005E0007FA06F52CEA050CC0F800C091F801
:104D300004C0D0F800E00CFA06FC4CEA0E0CC0F8F7
:104D400000C091F804C0BCF1010F02D0BCF1020F09
:104D50001FD1D0F808C02CEA050CC0F808C091F8A3
:104D600005C0D0F808E00CFA06FC4CEA0E0CC0F8BE
:104D700008C0D0F804C02CEA020CC0F804C0426895
:104D800091F806C00CFA03FC1FFA8CFC42EA0C02F4
:104D90004260C268AA43C260CA79C568B2402A4369
:104DA000C2605B1C102BB3D3F0BD4FF6FF710160E6
:104DB0000021017141718171C171704708B541F4E1
:104DC00080320092C261C1610099C161C169C0694C
:104DD000009008BD0246002012690A4200D001205E
:104DE0007047006980B270470246002052690A424B
:104DF00000D001207047406980B27047018370473E
:104E0000418370470AB10183704741837047416114
:104E1000704742694A40426170474B07DB0E9A4037
:104E2000C90810B500EB8100016A0F249C40A14322
:104E30000162016A1143016210BD000000000240DE
:104E40000004024000080240000C02400010024032
:104E50000014024000180240001C024000200240E2
:104E6000EA48016841F001010160E84A0021083286
:104E700011600268E64B1A400260031DE54A1A60A1
:104E8000026822F480220260E0480C300160704722
:104E9000DE490022891C0A70087070470246002013
:104EA000510901290CD002290CD0D8497431096864
:104EB00002F01F02012393400B4200D001207047F3
:104EC000D249F4E7D1497031F1E718B500204FF429
:104ED000A06400903120FFF7E1FF0099491C009188
:104EE000A14201D00028F5D03120FFF7D7FF0028DC
:104EF00000D0012018BDC5490A6822F0F80242EA34
:104F0000C00008607047C44908607047BF4900226C
:104F100070310A700A70012802D0042801D10520DE
:104F200008707047BD490860704741EA82115A080D
:104F300010B5BB4B029C03EB02421143014341EA13
:104F40000460B249091D086010BDB3490866704786
:104F5000800140EA0170AD49843108607047AE4974
:104F600088667047AC49C8647047A84A083213681D
:104F7000084323F0EC63184310607047A34A0832DB
:104F80001368084323F078431843106070479F4A22
:104F90000832116821F003010143116070479B48FA
:104FA0000830006800F00C007047984A0832116819
:104FB00021F0F001014311607047944A08321168F2
:104FC00021F4E051014311607047904908310A68AB
:104FD00022F4604242EAC0000860704770B58B4A14
:104FE000083211688F4C11F00C0104D066100429AE
:104FF00003D0082903D004601BE0066019E0834950
:10500000091D0B68C3F380550B6803F03F0315B10E
:10501000B6FBF3F301E0B4FBF3F30C680968C4F3E7
:1050200088146343C1F30141491C4900B3FBF1F10A
:10503000016011680F2303EA11117B4B5C5C01686E
:10504000E14041601468072505EA94241C5D21FABB
:1050500004F48460126805EA52329A5CD140C1605F
:1050600070BDC0F30121032908D1684A08321168D4
:1050700021F4F8136D4901401943116063497031FF
:105080000A68C0F30B0002430A6070476349443961
:105090000860704761494039086070475E49C1F84F
:1050A0005C017047594A30320029116801D0014330
:1050B00000E0814311607047544A3432002911687E
:1050C00001D0014300E08143116070474F4A3832FC
:1050D0000029116801D0014300E08143116070474D
:1050E0004A4A40320029116801D0014300E081435F
:1050F00011607047454A44320029116801D00143CC
:1051000000E0814311607047404A10320029116865
:1051100001D0014300E08143116070473B4A1432E3
:105120000029116801D0014300E0814311607047FC
:10513000364A18320029116801D0014300E081434A
:1051400011607047314A20320029116801D00143B3
:1051500000E08143116070472C4A24320029116815
:1051600001D0014300E0814311607047274A50326B
:105170000029116801D0014300E0814311607047AC
:10518000224A54320029116801D0014300E08143D2
:10519000116070471D4A58320029116801D001433F
:1051A00000E0814311607047184A6032002911689D
:1051B00001D0014300E0814311607047134A64321B
:1051C0000029116801D0014300E08143116070475C
:1051D0000E4A0D320029117801D0014300E08143CD
:1051E0001170704709487430016841F080710160A6
:1051F00070470146054A00200C3212680A4200D06E
:105200000120704701490E31087070470038024094
:10521000FFFFF6FE1030002400004742800E474298
:105220000000FFFF0024F4004B010020FFFCFF0FF3
:1052300010B501210C022046FFF78EFF2046BDE885
:1052400010400021FFF788BF30B54268C84B0C7989
:105250001A400B6842EA0422134343608268C54B3C
:105260004D791A40D1E9034323438C6844EA45044D
:10527000234313438360C26A097D22F47002491EEE
:10528000C9B242EA0151C16230BD00210160017121
:1052900041718160C1600161012101757047B64BA8
:1052A00010B5D3F80423B5490A40D0E900142143CE
:1052B000D0E90240044321431143C3F8041310BD55
:1052C0000021016041608160C160704700298168F0
:1052D00002D041F0010101E021F00101816070473D
:1052E0004268A74B1A400A4342607047416282629B
:1052F0007047426822F01F020A43426070479E498D
:105300000028D1F8040302D040F4000001E020F4AA
:105310000000C1F80403704797490028D1F804033E
:1053200002D040F4800001E020F48000C1F80403C2
:10533000704770B5072409290AD9C568A1F10A0682
:1053400006EB4606B440A543B3401D43C56007E0E5
:10535000056901EB4106B440A543B3401D43056117
:105360001F23072A09D2446B521E02EB820293408C
:105370009C4391400C43446370BD0D2A09D2046BD9
:10538000D21F02EB820293409C4391400C43046382
:1053900070BDC46A0D3A02EB820293409C43914077
:1053A0000C43C46270BD816841F0804181607047E8
:1053B000014600208968490200D501207047002974
:1053C000816802D041F4806101E021F48061816054
:1053D00070470029816802D041F0020101E021F00C
:1053E0000201816070474268491E22F4604242EA2D
:1053F0004131416070470029416802D041F40061A9
:1054000001E021F4006141607047C06C80B27047D8
:105410005948D0F8080370470029816802D041F448
:10542000807101E021F480718160704700298168FA
:1054300002D041F4007101E021F4007181607047F5
:105440004D490028D1F8040302D040F4005001E097
:1054500020F40050C1F80403704770B507240929EF
:105460000AD9C568A1F10A0606EB4606B440A54371
:10547000B3401D43C56007E0056901EB4106B44038
:10548000A543B3401D430561836BC3F30154121B55
:10549000921C02EB82041F22A2409343A1400B43C3
:1054A000836370BD826B491E22F4401242EA0151AF
:1054B0008163704708B508440090026008BD8268A7
:1054C00022F470220A4382607047826822F44012FC
:1054D0000A4382607047816841F4800181607047AF
:1054E000014600208968490200D501207047002943
:1054F000416802D041F4806101E021F480614160A3
:1055000070470029416802D041F4805101E021F444
:1055100080514160704708B5084428300090006809
:1055200080B208BD01238B4041680AB1194300E0F5
:105530009943416070470246002012680A4200D039
:1055400001207047C9430160704730B50246002012
:1055500053680C0A01258D4011682B40214202D06E
:10556000002B00D0012030BD6FEA1121016070478F
:10557000FFFEFFFCFDF7FFC000200140E030FCFF14
:10558000FFFD3FFF2DE9F043016821F001010160BB
:105590000021016041608160C160016121214161A0
:1055A000B849B84A3D251039904202D18D60BDE816
:1055B000F083B44A4FF474661832904201D18E6081
:1055C000F5E7B04A4FF474173032904201D18F6042
:1055D000EDE7AC4A4FF0746C4832904202D1C1F80A
:1055E00008C0E4E7A74BA84A6033984201D1CA60DB
:1055F000DDE7A44CA54B7834A04201D1CB60D6E7BF
:10560000DFF88082A24C08F19008404501D1CC60BF
:10561000CDE7DFF870824FF03D5908F1A80840450A
:1056200002D1C1F80C90C2E79A49DFF868820839C4
:10563000404501D10D60BAE7964D1835A84201D119
:105640000E60B4E7934D3035A84201D10F60AEE74C
:10565000904D4835A84202D1C1F800C0A7E78D4D52
:105660008C496035091FA84201D10A609FE7894A29
:105670007832904201D10B6099E7864A903290428D
:1056800001D10C6093E7834AA83290428FD1C1F8D0
:1056900000908CE730B503687F4ACC6813400A68F5
:1056A0002243D1E905452C432243CC6922430C6AAD
:1056B00022434C6A22438C6A22434C6B22438C6BFC
:1056C00022431A430260426922F00703D1E90B2406
:1056D00022431A4342610A6942604A6882608968CB
:1056E000C16030BD0021016041608160C160016125
:1056F00041618161C161016241628162C162016394
:105700004163816370470029016802D041F00101C3
:1057100001E021F00101016070470029016802D019
:1057200041F4004101E021F400410160704700298B
:10573000016802D041F0200101E021F02001016068
:10574000704741607047406880B27047002A026825
:1057500002D042F4002201E022F400220260016142
:1057600070470029016802D041F4802101E021F452
:105770008021016070470AB101617047C1607047C4
:10578000014600200968090300D501207047014641
:1057900000200968C90700D001207047406900F067
:1057A0003800704702463B4B00209A4202D2354AED
:1057B000103A01E0374A103A8B0001D5526800E0F8
:1057C0001268364B1A400A4200D001207047314A15
:1057D000904202D22B48103801E02E4810382F4A50
:1057E0008B0001EA020101D5C160704781607047FA
:1057F0000B0607D5436912B143F0800301E023F0A3
:1058000080034361802908D0002A026801F01E014C
:1058100001D00A4300E08A430260704730B51D4A58
:105820000024904202D2174B103B01E0194B103B71
:105830001B4A114205D01E2202EAD12502682A40E5
:1058400002E0406900F08002880001D5586800E05D
:105850001868124B1840084201D002B101242046BA
:1058600030BD0C4A904202D20648103801E0094887
:1058700010380A4A8B0001EA020101D5C160704765
:1058800081607047106002403D000020400F002002
:1058900000003D20106402403F801CF07D0F7D0F12
:1058A0003C0F3C0FFE4910B5884206D10121084645
:1058B000FFF752FC002101205BE0B0F1804F09D0DE
:1058C000F84988420DD101210220FFF73BFC00215D
:1058D000022070E001210846FFF734FC002101207E
:1058E00069E0F149884206D101210420FFF72AFC32
:1058F000002104205FE0ED49884206D10121082003
:10590000FFF720FC0021082055E0E949884206D134
:1059100001211020FFF716FC002110204BE0E54983
:10592000884206D101212020FFF70CFC0021202015
:1059300041E0E149884206D101210220FFF70CFC39
:105940000021022015E0DD49884202D101210C042A
:105950000AE0DB49884202D101214C0404E0D94924
:1059600088420AD101218C042046FFF7F5FB002173
:105970002046BDE81040FFF7EFBBD349884206D16F
:1059800001214020FFF7DEFB0021402013E0CF493A
:10599000884206D101218020FFF7D4FB002180201E
:1059A00009E0CB4988420AD1841501212046FFF73E
:1059B000C9FB00212046BDE81040FFF7C3BB10BD66
:1059C00030B50288B64BBC4C98420DD0A0420BD0EB
:1059D000B0F1804F08D0B34DA84205D0B24DA842D7
:1059E00002D0B24DA84203D122F070054A882A4362
:1059F000AF4DA84206D0AF4DA84203D022F4407567
:105A00000A892A4302804A68C2620A88028598424B
:105A100001D0A04201D1897A01860121818230BD65
:105A20004FF0FF314160002101800181418081728E
:105A30007047018582827047028822F070020A4313
:105A40000280704741627047C1627047406A704788
:105A5000008D70470029018802D041F0020101E069
:105A600021F00201018070470029018802D041F035
:105A7000040101E021F00401018070470029018840
:105A800002D041F0800101E021F0800101807047E7
:105A9000028822F00802028002880A4302807047CE
:105AA000028822F44072028002880A430280704712
:105AB0000029018802D041F0010101E021F001013B
:105AC0000180704730B5028C22F001020284028C02
:105AD0008388048B22F0020224F073050C882C4387
