:020000040800F2
:10000000E0300020B5030008D9030008DB03000836
:10001000DD030008DF030008E10300080000000022
:100020000000000000000000000000009D0100082A
:10003000E303000800000000E1010008C75F0008BA
:10004000CF030008CF030008CF030008CF03000848
:10005000CF030008CF030008CF030008CF03000838
:10006000CF030008B7050008CF0300089504000877
:1000700057040008E1040008CF0300080904000841
:10008000CF03000811040008CF030008CF030008C5
:10009000CF030008CF030008CF030008CF030008F8
:1000A000CF0300081105000831050008CF03000840
:1000B000330500085305000873050008CF03000846
:1000C000CF030008CF030008CF030008B3050008E2
:1000D000CF030008E9030008CF030008CF0300089E
:1000E000CF030008CF030008CF030008CF030008A8
:1000F000CF030008CF030008CF030008B7040008AF
:10010000CF030008CF03000893050008B5050008D9
:10011000CF030008CF030008EB040008FF04000829
:10012000CF030008CF03000833040008CF03000802
:10013000CF030008CF030008CF030008CF03000857
:10014000CF030008CF030008CF030008CF03000847
:100150004D040008CF030008CF030008CF030008B8
:10016000CF030008CF030008CF030008CF03000827
:10017000CF030008CF030008CF030008CF03000817
:10018000CF030008CF030008DFF80CD006F0F8FF1B
:10019000004800475D3A0008E0300020234B196812
:1001A0000868B0E8F04F80F309884FF0000080F352
:1001B000118870470000000003480068006880F361
:1001C000088862B600DF00BF08ED00E0DFF80C0031
:1001D000016841F470010160704700BF88ED00E0E4
:1001E000EFF30980114B1A681EF0100F08BF20EDC5
:1001F000108A20E9F04F106008B54FF0140080F32A
:10020000118806F0B6F94FF0000080F31188BDE8C0
:10021000084019680868B0E8F04F1EF0100F08BFDA
:10022000B0EC108A80F30988704700BF9801002065
:10023000EFF311804FF0140181F31188704780F3C0
:10024000118870470CB500205149019000900A6850
:1002500042F480320A604FF4A0630A6802F400326C
:100260000092019A521C0192009A12B9019A9A4284
:10027000F3D10A68920334D50120009044484030FD
:10028000026842F0805202604248026842F48042B2
:1002900002603F48083002680260026842F400428F
:1002A0000260026842F4A0520260031F3A4A1A60D8
:1002B0000A6842F080720A600A689201FCD5374AE7
:1002C00040F205611160016821F0030101600168DD
:1002D00041F0020101600168C1F381010229FAD1F4
:1002E0000CBD00900CBD2A4810B5016841F0010119
:1002F0000160274A0021083211600268284B1A4029
:100300000260031D274A1A60026822F480220260FC
:100310001F480C300160FFF795FF23494FF0006044
:10032000086010BD70B51A4C083420681F4A10F0E0
:100330000C011F4804D05510042903D0082903D00C
:1003400002601BE0056019E01149091D0B68C3F349
:1003500080560B6803F03F0316B1B5FBF3F201E0E2
:10036000B2FBF3F20B680968C3F388135A43C1F375
:100370000141491C4900B2FBF1F1016021680C4ABE
:10038000C1F30311121D515C0268CA40026070BDC6
:10039000003802400070004008544007003C024012
:1003A000FFFFF6FE1030002408ED00E00024F4000A
:1003B000000000200648804706480047FEE7FEE7A9
:1003C000FEE7FEE7FEE7FEE7FEE7FEE7FEE7FEE705
:1003D000E7020008890100087047FEE7FEE7FEE734
:1003E000FEE770477047704710B5734C40F22551D7
:1003F000204605F06EF8002805D02046BDE81040E4
:10040000202105F063B810BD6C496D4804F0E7B9D0
:1004100070B56B4D6B4C30352146284604F0BCF965
:10042000002805D021462846BDE8704004F0D7B921
:1004300070BD10B56449654804F0D1F9644841784D
:10044000007841EA00206349088010BD5F48624996
:10045000483004F0C4B970B5594D604C483D214650
:10046000284604F099F9002813D02146284604F0C4
:10047000B6F95B4801F09EFC00280AD1594C0021D6
:10048000204604F065FF2046BDE87040012104F0DD
:100490005FBF70BD70B54A4D534C603D2146284644
:1004A00004F07AF9002805D021462846BDE87040BE
:1004B00004F095B970BD70B5414C4C4D4834294697
:1004C000204604F069F9002809D00021204604F0F4
:1004D000D8F829462046BDE8704004F080B970BDC8
:1004E00037483649303804F07AB910B50121404810
:1004F00004F0CDFD3F480168491C016010BD10B5F6
:1005000001213D4804F0C3FD2B497A20888010BDAD
:1005100010B53A4C0121204604F0B9FD2088C106EF
:100520003748016801D5491E00E0491C016010BD33
:10053000704710B501218C07204604F0A8FD2088E3
:10054000C1063048016801D5491E00E0491C016020
:1005500010BD10B52C4C0121204604F098FD2088D8
:10056000C1062A48016801D5491E00E0491C016006
:1005700010BD10B5264C0121204604F088FD2088CE
:10058000C1062448016801D5491E00E0491C0160EC
:1005900010BD10B5204C0121204604F078FD2088C4
:1005A000C1061E48016801D5491E00E0491C0160D2
:1005B00010BD704770477047001001402080002038
:1005C00070600240008020200080201040640240C3
:1005D0009C020020180000200088002000880010E5
:1005E000BA0200200048004020800010008000284F
:1005F00000100040FC0000200014004000000140FA
:100600001C000020200000200004004024000020E6
:100610000008004058010020000C00402800002085
:1006200070B50546002406F0BFFAFE4902E02A5DD7
:100630000A55641C8442FADBBDE870400121FA4887
:1006400004F01FB870B5F94D06460024315D00294D
:100650000BD0284604F0A2FE8021284604F02FFF8C
:100660000028F9D0641CE4B2F0E770BD70B5EF4E1D
:1006700005460024002D0DD02946304604F08EFE9C
:100680008021304604F01BFF0028F9D0641CE4B23E
:10069000032CEFD370BD73B50C460020FFF7E6FFC7
:1006A000E3A0FFF7CFFFDF482246E2A1823806F041
:1006B000E1FDDC488238FFF7C5FFDFA0FFF7C2FF8E
:1006C000DFA0FFF7BFFFD748DAA18238009A06F013
:1006D000D1FDD44E0024D54D823E2846315D04F034
:1006E0005DFE4021284604F0EAFE0028F9D0641C93
:1006F000142CF2DBD2A0FFF7A5FFFF20FFF7B6FF17
:10070000FF20FFF7B3FFBDE87C40FF20AEE770B5E8
:1007100005460C46C6A0FFF795FFC2482246C5A174
:10072000823806F0A7FDBF488238FFF78BFFC5A0CF
:10073000FFF788FF2846FFF785FFC1A0FFF782FF7C
:10074000BDE87040FF2091E777B5BEA185B00646B1
:10075000D1E90001CDE90001B9A0002200680390B1
:10076000B3A0B04D0068283DA5F128030290AD4C20
:100770001146A3F13200A95499548154A154521C3A
:10078000D2B21E2AF7D30A210170FF24447084706C
:10079000C470A448A7A15038079A06F06BFDA14980
:1007A00002A8503906F0E8F99E4802A9823806F0FE
:1007B000E3F99C486946823806F0DEF999483146EB
:1007C000823806F0D9F997489AA15038069A06F06F
:1007D00051FD94495039A1F1320006F0CDF991480C
:1007E00003A9823806F0C8F98E492C706C7028393C
:1007F000AC70A1F15A0006F0BFF98A488238FFF7C1
:100800000FFF08B070BD2DE9F74188468DA185B076
:100810000646D1E90001CDE9000189A00022006867
:10082000039083A07F4D0068283DA5F12801029028
:100830001446A1F13200AC548C548454521CD2B2F0
:100840000A2AF8D30A210170FF2747708770C77002
:10085000744878A15038079A06F00CFD714902A837
:10086000503906F089F96F4802A9823806F084F9F8
:100870006C486946823806F07FF96A48314682380A
:1008800006F07AF967484146823806F075F96548FE
:1008900003A9823806F070F92F706F706149AF704C
:1008A000EC7028392C71A1F15A0006F065F95D4809
:1008B0008238FFF7B5FE08B0BDE8F08170B50020C2
:1008C000FFF7D4FE5AA0FFF7BDFE56480D2259A1EE
:1008D000823806F0CFFC53488238FFF7B3FE59A0A8
:1008E000FFF7B0FE594C2021204603F031FA0246B2
:1008F0004C4850A1823806F0BDFC4A488238FFF7C8
:10090000A1FE1021204603F023FA0246454849A1E2
:10091000823806F0AFFC43488238FFF793FE4C4D17
:100920008021284603F014FA02463E4841A182384D
:1009300006F0A0FC3B488238FFF784FE40212846A1
:1009400003F006FA024637483AA1823806F092FCD4
:1009500034488238FFF776FE4FF40041204603F01A
:10096000F7F902462F4833A1823806F083FC2D4860
:100970008238FFF767FE4FF48041204603F0E8F924
:10098000024628482BA1823806F074FC254882389C
:10099000FFF758FE4FF40051204603F0D9F9024604
:1009A000204824A1823806F065FC1E488238FFF7F3
:1009B00049FE4021274803F0CBF9024619481DA102
:1009C000823806F057FC17488238FFF73BFE1CA020
:1009D000FFF738FEFF20FFF749FEFF20FFF746FE36
:1009E000BDE87040FF2041E6FEB51BA10646D1E9F7
:1009F0000001CDE900011AA000210A4D0068283D40
:100A0000A5F1280202900C46A2F132006C54545415
:100A10004454491CC9B23229F8D30A210170FF2776
:100A200047701FE05A020020B860024000500040AA
:100A300074000000256400002E7478743D000000EE
:100A4000220000002E7478743D220000000802404D
:100A500000000240001002402E76616C3D00000054
:100A60006A0000008770C7700022AFF23801FE48AC
:100A700006F000FCFC4902A806F07EF8FA4802A93C
:100A8000323806F079F8F8486946323806F074F8DA
:100A90003246AFF26001F44806F0ECFBF249A1F1F6
:100AA000320006F069F82F706F70EF49AF70EC708C
:100AB00028312C71A1F15A0006F05EF8EA4832386C
:100AC000FFF7AEFDFEBD2DE9FC4101211F2003F023
:100AD000A7FA01248DF8044000268DF806604FF631
:100AE000FF758DF80740032700958DF8057069465E
:100AF000DE4803F0C7F88DF804408DF806608DF8E5
:100B0000074000958DF805706946D94803F0BAF89A
:100B10008DF804408DF806608DF8074000958DF83B
:100B200005706946D34803F0ADF8BDE8FC817CB59B
:100B300001217E2003F074FA0024C0208DF80440C7
:100B4000012500908DF8075002268DF80560694652
:100B5000C94803F097F806208DF8044000908DF8FE
:100B600007508DF805606946C04803F08BF80420F3
:100B70008DF8044000908DF807508DF805606946A7
:100B8000BB4803F07FF87CBD1FB54FF4E06002F076
:100B9000C1FF36208DF80C0000248DF80D408DF833
:100BA0000E4001208DF80F0003A802F0B8FF0121CC
:100BB000102003F053FA5320ADF80000ADF80840C0
:100BC000ADF8024040F2E730AC4C01906946204657
:100BD00003F0B4FE0121204604F059FA0122114627
:100BE000204604F034FA0021204603F0E9FE0121FA
:100BF000204603F01BFF1FBD1FB54FF4E06002F05D
:100C000089FF37208DF80C0000248DF80D408DF8F9
:100C10000E4001208DF80F0003A802F080FF012193
:100C2000202003F01BFA4FF4FA70ADF80000ADF885
:100C30000840ADF8024040F2E730914C019069461F
:100C4000204603F07BFE0121204604F020FA012219
:100C50001146204604F0FBF90021204603F0B0FEC7
:100C60000121204603F0E2FE1FBD70B58AB00121CC
:100C7000022003F0FDF901210C2003F0D1F97C4E94
:100C800003220621304603F086F80322072130466E
:100C900003F081F803220821304603F07CF8032298
:100CA0000921304603F077F84FF470700590022068
:100CB0008DF8180003208DF8190000248DF81A40D3
:100CC00001258DF81B5005A9304602F0DBFFA4205A
:100CD000ADF81C0040F6B83008902802694EADF817
:100CE0002400ADF81E4007A9304603F027FE60201F
:100CF000ADF80000ADF802500294ADF80C400121AF
:100D0000304603F093FE0021304603F059FE694659
:100D1000304603F095FE6946304603F0BDFE694655
:100D2000304603F0F5FE6946304603F02BFF012103
:100D3000304604F06DF90AB070BD70B58AB001217B
:100D4000082003F08BF90121084603F069F94A4EA7
:100D500002220021304603F01EF802220121304613
:100D600003F019F802221146304603F014F802226B
:100D70000321304603F00FF80F20059002208DF874
:100D8000180003208DF8190000248DF81A40012561
:100D90008DF81B5005A9304602F074FFBA20ADF85B
:100DA0001C0042F21070384E0890ADF82440ADF8A7
:100DB0001E4007A9304603F0C1FD6020ADF80000D9
:100DC000ADF802500294ADF80C400121304603F01A
:100DD0002DFE0021304603F0F3FD6946304603F056
:100DE0002FFE6946304603F057FE6946304603F051
:100DF0008FFE6946304603F0C5FE0121304604F0FF
:100E000007F998E770B58AB00121042003F026F9AC
:100E100001210D2003F004F9164E02220C21304668
:100E200002F0B9FF02220D21304602F0B4FF022287
:100E30000E21304602F0AFFF02220F21304602F0B1
:100E4000AAFF4FF47040059002208DF8180003208F
:100E50008DF8190000248DF81A4001258DF81B50DB
:100E600005A9304612E000000A02002000040240FA
:100E700000080240000C0240000002400010004048
:100E80000014004000040140000C004002F0FAFE93
:100E9000A420ADF81C0040F6B83008902802ADF848
:100EA0002400ADF81E4007A9FE4E304603F046FD73
:100EB0006020ADF80000ADF802500294ADF80C408F
:100EC0000121304603F0B2FD0021304603F078FDE9
:100ED0006946304603F0B4FD6946304603F0DCFD58
:100EE0006946304603F014FE6946304603F04AFE78
:100EF00021E770B5012188B0080403F0B9F8012199
:100F0000084603F08DF8E84E03221146304602F001
:100F100042FF03220221304602F03DFF0C200090E8
:100F200002208DF8040003208DF8050000248DF8C0
:100F3000064001258DF807506946304602F0A2FEB2
:100F40004FF6FF70D94EADF808400390ADF8104051
:100F5000ADF80A4002A9304603F0F0FC0420ADF8D9
:100F60001400C820ADF81C00ADF81640ADF81850BC
:100F700005A9304603F09CFFCD4C00231A460321FF
:100F8000204604F0FEF80121204604F080F80122FA
:100F90001146204604F05BF80121304603F046FD7F
:100FA0000021204603F00CFD2BE42DE9F047012140
:100FB0008AB0084603F052F80121022003F04EF8EF
:100FC0000121032003F02CF8DFF8DC9201220F212D
:100FD000484602F0E0FEDFF8DC82012203214046B1
:100FE00002F0D9FE02220421404602F0D4FE022281
:100FF0000521404602F0CFFE02268DF8046003274B
:1010000038208DF80570002400908DF806400125E9
:101010008DF807506946404602F034FE8DF80460B2
:10102000E8038DF8057000908DF806408DF80750A4
:101030006946484602F026FE4FF6FF70ADF80C40B8
:1010400004904FF08049ADF81440ADF80E4003A96C
:10105000484603F073FCDFF860A203A9504603F092
:101060006DFC4FF004081420ADF81880ADF8200096
:10107000ADF81A60ADF81C5006A9484603F018FFF9
:1010800006A9504603F014FF02231A4603214846DE
:1010900004F077F802231A460321504604F071F851
:1010A0000121484603F0F3FF0121504603F0EFFF12
:1010B00001221146484603F0CAFF0122114650465C
:1010C00003F0C5FF0121484603F0B0FC0121504662
:1010D00003F0ACFC0021484603F072FC00215046AE
:1010E00003F06EFC780202F015FD1D208DF808005B
:1010F0008DF809708DF80A408DF80B5002A802F0A7
:101100000EFD1C208DF808008DF809808DF80A402E
:101110008DF80B5002A802F002FD0AB0BDE8F0877E
:1011200070B501218AB0084602F0A2FF012110200B
:1011300002F076FF4FF42060009002208DF804004A
:1011400003208DF8050000245C4E8DF80640012533
:101150008DF807506946304602F094FD01220921BE
:10116000304602F018FE01220B21304602F013FE39
:101170004FF6FF704D4EADF808400390ADF81040AB
:10118000ADF80A4002A9304603F0D8FB0420ADF8C0
:1011900014000A20ADF81C00ADF81640ADF8185048
:1011A00005A9304603F084FE00231A460321304689
:1011B00003F0E7FF0121304603F069FF01221146E9
:1011C000304603F044FF0121304603F060FF012266
:1011D0001146304603F03BFF0121304603F026FC68
:1011E0000021304603F0ECFB4FF4C06002F092FCAB
:1011F00019208DF820008DF821508DF822408DF8AF
:10120000235008A802F08BFC95E52DE9F0418AB047
:101210000121042002F022FF0121082002F000FF3A
:101220004FF44050022600908DF8046003208DF8A2
:1012300005000024224F8DF8064001258DF8075047
:101240006946384602F01EFD4FF6FF70DFF8548005
:10125000ADF808400390ADF81040ADF80A4002A97F
:10126000404603F06BFB02220C21384602F093FD4E
:1012700002220D21384602F08EFD0427C820ADF869
:101280001470ADF81C00ADF81660ADF8185005A943
:10129000404603F00DFE02231A460321404603F0A8
:1012A00070FF0FE000080040000002400000014015
:1012B00000400140000402400004004000100240D1
:1012C000000C02400121404603F0E1FE01221146DC
:1012D000404603F0BCFE0121404603F0A7FB42F26A
:1012E0001071404603F06CFBFE480480A8F80050E3
:1012F0004FF4C06002F00EFC1E208DF820008DF827
:1013000021708DF822408DF8235008A802F007FCC8
:101310000AB0BDE8F0812DE9F0418AB00121082032
:1013200002F09CFE0121084602F07AFE032002260C
:101330008DF804608DF805000024EB4F00908DF8C7
:10134000064001258DF807506946384602F09AFCA0
:101350004FF6FF70DFF89483ADF808400390ADF8C6
:101360001040ADF80A4002A9404603F0E7FA022215
:101370000021384602F00FFD02220121384602F01A
:101380000AFD0427C820ADF81470ADF81C00ADF8B4
:101390001660ADF8185005A9404603F089FD0223F8
:1013A0001A460321404603F0ECFE0121404603F0BB
:1013B0006EFE01221146404603F049FE01214046DF
:1013C00003F034FB0021404603F0FAFAC74814301A
:1013D0000480A8F800504FF4C06002F09BFB32205C
:1013E0008DF820008DF821708DF822408DF8235063
:1013F00008A802F094FB8BE72DE9F0419CB0012195
:10140000BB4802F00DFE01210D02284602F030FE1D
:10141000B8480024CDE90040B74802A94FF00808B9
:1014200081E81101A800CDE9054040000790800047
:10143000CDE908050AA90001012581E83100AF4E78
:101440000D94694630460E9403F0E2F801213046CF
:1014500003F017F903273C268DF8587015968DF880
:101460005B4015A9A04802F00DFC8DF85870159648
:101470008DF85B4015A9A24802F004FC3804CDE9C0
:101480001740B001CDE9194017A802F0C6FE11942B
:10149000129413942806974C0F908DF840504C3CB2
:1014A0008DF841508DF850800FA9204602F08AFE39
:1014B000042301220221204602F0F9FE0423022225
:1014C0000321204602F0F3FE04230322194620469E
:1014D00002F0EDFE04231A460521204602F0E7FE45
:1014E000042305220C21204602F0E1FE04230622FB
:1014F0000D21204602F0DBFE042307220E212046A8
:1015000002F0D5FE042308220F21204602F0CFFE70
:101510000121204602F048FF0121204602F03AFF57
:101520000121204602F090FE204602F0FAFE1CB097
:10153000EFE608B54FF4E06002F0ECFA25208DF8F4
:10154000000000208DF801008DF8020001208DF8C8
:101550000300684602F0E3FA08BD70B5054696B090
:101560000121102002F084FD0121084602F058FDFF
:101570000121880502F054FD4FF4C0601390022051
:101580008DF8500000248DF852408DF85340564E8F
:101590008DF8510013A9304602F074FB072209218F
:1015A000304602F0F8FB07220A21304602F0F3FB36
:1015B0000F95ADF844400C20524DADF84040ADF8C9
:1015C0004600ADF84240ADF848400FA9284603F068
:1015D0004EFE0121284603F0BBFE4FF4A06002F04E
:1015E00099FA3A208DF854008DF855408DF8564000
:1015F00001208DF8570015A802F091FA3F4E3036C1
:10160000304602F07DFF4FF0006000903A48694696
:101610001030CDE902040A200490281D0190001525
:10162000CDE905408010CDE9084040020A90042031
:101630000B9007940320CDE90C0430460E9402F081
:10164000E7FF01224021284603F019FF0122102163
:10165000304603F08BF80121304603F012F816B043
:1016600070BDF0B50646012197B0480502F0D8FCE0
:1016700001214D04284602F0F1FC0121082002F06E
:10168000CFFC6020139002208DF8500000248DF8CC
:1016900052408DF853401C4F8DF8510013A9384625
:1016A00002F0F0FA07220521384602F074FB072207
:1016B0000621384602F06FFB0F96ADF844400C202F
:1016C000124EADF84040ADF84600ADF84240ADF8DE
:1016D00048400FA9304603F0CAFD0121304603F00F
:1016E00037FE15E01408004000000240000C0040E6
:1016F000050040004C2001408C0200201064024094
:101700000008024000100140000C0240004400406C
:101710004FF4A06002F0FEF911208DF854008DF80E
:1017200055408DF8564001208DF8570015A802F05D
:10173000F6F9F94F384602F0E3FEA8020090402087
:101740000390F64802903C200490301D0190001553
:10175000CDE905408010CDE908400420CDE90A50CC
:1017600007940320CDE90C04694638460E9402F034
:101770004FFF01228021304603F081FE01228021AB
:10178000304603F07CFE01221021384602F0EEFFC5
:101790000121384602F075FF17B0F0BD70B505465F
:1017A000012196B0880402F059FC0121082002F0C2
:1017B00037FC0121480502F033FC4FF440701390D0
:1017C00002208DF8500000248DF852408DF85340CF
:1017D000D34E8DF8510013A9304602F053FA072278
:1017E0000821304602F0D7FA07220921304602F0DC
:1017F000D2FA0F95CB4EADF84040ADF844400C25E1
:10180000ADF84240ADF84840ADF846500FA930461B
:1018100003F02DFD0121304603F09AFD4FF4A06046
:1018200002F078F98DF854508DF855408DF85640F7
:1018300001208DF8570015A802F071F9B64D783DDA
:10184000284602F05DFE4FF000600090B648CDE9FA
:10185000020408200490301D01900015CDE90540D8
:101860008010CDE9084040020A9004200B900794B4
:101870000320CDE90C04694628460E9402F0C8FE08
:1018800001224021304603F0FAFD0122402130467A
:1018900003F0F5FD01221021284602F067FF012127
:1018A000284602F0EEFEDAE6F0B50646012197B0D2
:1018B000C80402F0D3FB0121084602F0B1FB01216C
:1018C000480502F0ADFB02208DF8500000248DF891
:1018D00052408DF85340954F03258DF851001395D4
:1018E00013A9384602F0CEF908220021384602F04A
:1018F00052FA08220121384602F04DFA0F96ADF84F
:1019000044400C208A4EADF84040ADF84600ADF89A
:101910004240ADF848400FA9304603F0A8FC012131
:10192000304603F015FD4FF4A06002F0F3F80D20EF
:101930008DF854008DF855408DF8564001208DF8F3
:10194000570015A802F0EBF8734F603F384602F0DD
:10195000D7FD78050090744869460F38CDE9020438
:1019600008200490301D01900015CDE9054080103D
:10197000CDE90840400207940A900420CDE90C54B8
:101980000B9038460E9402F043FE0122402130466F
:1019900003F075FD01224021304603F070FD012265
:1019A0001021384602F0E2FE0121384602F069FEBD
:1019B000F2E62DE9F0418046012196B0480502F09B
:1019C0002FFB0121080502F049FB01210C2002F048
:1019D00027FB02258DF8405000248DF84240504FDF
:1019E00004268DF843400F968DF841500FA93846D4
:1019F00002F048F98DF840508DF842408DF8434090
:101A0000E8028DF841504B4D0F900FA9284602F087
:101A100039F908220221384602F0BDF908220C21CA
:101A2000284602F0B8F94FF4A06002F073F82F20B6
:101A30008DF8540005208DF855008DF856000120D2
:101A40008DF8570015A802F06AF8ADF84C400C204C
:101A5000394DADF84840ADF84E00CDF84480ADF8B2
:101A60004A40ADF8504011A9284603F000FC01217E
:101A7000284603F06DFC284F1837384602F040FD29
:101A80007006009040200390274869466038029015
:101A900031200490281D01900015CDE905408010EB
:101AA000CDE908404002CDE90A0607940320CDE9BC
:101AB0000C0438460E9402F0ABFD0122802128462A
:101AC00003F0DDFC01221021384602F04FFE012117
:101AD000384602F0D6FD16B01BE410B5012810D030
:101AE00003282DD0042836D0052809D1124C2046D1
:101AF00003F054FC4021204603F0E1FC0028F9D01B
:101B000010BD0E4C204603F049FC4021204603F056
:101B1000D6FC0028F9D010BDA06002400C010020C6
:101B2000000C024000480040BA02002000000240C1
:101B3000004C0040000802400050004000100140EE
:101B4000FE4C204603F02AFC4021204603F0B7FC5F
:101B50000028F9D0DFE7FA4C204603F01FFC4021B3
:101B6000204603F0ACFC0028F9D0D4E701B581B0E1
:101B7000019800EBC00040000090002801D0401EFA
:101B8000FAE70CBD01B581B044F2506101984843B9
:101B90000090002801D0401EFAE70CBD70B5E94D59
:101BA00000206870044661210120FFF796FF322073
:101BB000FFF7E8FF641C022CF5D3012068707A203F
:101BC000287070BD70B5DF4D0020E87004466121BB
:101BD0000320FFF782FF3220FFF7D4FF641C022CA2
:101BE000F5D30120E8707A20A87070BD0121D64895
:101BF00002F047BD10B5401A029CE41A6043511A26
:101C000090FBF1F0184486E710B510EE100A05F0CD
:101C10006BF99FEDCE1B53EC112B05F073F805F01B
:101C200076F900EE100A76E710B510EE100A05F00E
:101C30005BF99FEDC81B53EC112B05F063F805F021
:101C400066F900EE100A66E790FBF1F010B540006F
:101C500005F039F99FEDC11B53EC112B05F052F83B
:101C600005F055F900EE100A55E710B5FFF7ECFF47
:101C7000BDE81040C8E7904200DD1046884200DA17
:101C800008467047AF488030806EAE49C8617047E3
:101C9000AC498031896EAB4AD269891A00D5494274
:101CA000814201DD01207047002070472DE9F04797
:101CB0000025AC4E074601244FF400594FF48048EC
:101CC0004FF4805A00224146304602F059F8102065
:101CD000FFF74CFF274201D0012200E000224946D5
:101CE000304602F04DF801224146304602F048F8F5
:101CF0001020FFF73BFF5146304602F029F800B1B3
:101D00002543600010F0FF04DCD12846BDE8F087D1
:101D100070B5944E4FF4004500222946304602F03B
:101D20002FF81020FFF722FF0120FFF7BFFF42200E
:101D3000FFF7BCFFFF20FFF7B9FFFF20FFF7B6FF5B
:101D4000894C2070FF20FFF7B1FF6070FF20FFF784
:101D5000ADFFA070FF20FFF7A9FFE070FF20FFF7A5
:101D6000A5FF2071FF20FFF7A1FF607129463046D3
:101D7000BDE87040012202F003B870B5794E4FF40F
:101D8000004500222946304601F0FAFF1020FFF7F7
:101D9000EDFE0120FFF78AFF4220FFF787FF044690
:101DA00001222946304601F0EBFF1020FFF7DEFE4E
:101DB000204670BD634A00211162C2796A490D2A2A
:101DC00009D0FF20087048708870C8700871487189
:101DD00088710020704702780A7042784A708278D1
:101DE0008A70C278CA7002790A7142794A71807920
:101DF0008871012070475C4852490278FF2A05D15A
:101E00004278FF2A02D18278FF2A09D00A6A531C3D
:101E10000B62C82A03DDFF21017041708170704799
:101E20000020086270475048807970474E4800781B
:101E3000400601D401207047002070474A480078CE
:101E4000800701D4012070470020704770B53D4BDA
:101E50000125002693F85440F833002803D004DD10
:101E6000D8709E7005E0DC7003E0C0F10000D8700F
:101E70009D70002903D004DDD9719D7105E0DC71EE
:101E800003E0C1F10000D8719E71002A03D004DD87
:101E9000DA729D7270BDDC7270BDC2F10000D87242
:101EA0009E7270BD30493C39C870C871C8727047A5
:101EB00024490120086570472B483C38C178032924
:101EC00007D2C179032904D2C07A032801D20120A4
:101ED0007047002070471B48C06FA0F5EA413039B9
:101EE00001D0012070470020704757E61548B0F92F
:101EF0000400404270471348B5EEC00AD0ED0A0A0C
:101F0000F1EE10FA02D230EE600A01E030EE200A63
:101F1000BDEEC00A10EE100A704710B5041E2DED7C
:101F2000048B08489FED118B806E2ED032DA04F0BE
:101F3000CAFF41EC190B20461CE00000004800409D
:101F4000004C004014000020A0600240E5BF631A6E
:101F5000DCA54C40849E52A246DF913FEA2E4454B9
:101F6000FB210940000C0240480100209A999999F0
:101F70009999B93F04F0A7FF53EC182B04F0C2FE67
:101F800053EC182B04F0B8FE13E09FEDFE0ABDECF5
:101F9000048BC0E504F097FF41EC190B204604F0D8
:101FA00092FF53EC182B04F0ADFE53EC182B04F009
:101FB00002FE53EC192B04F017FF04F0A8FF00EE0B
:101FC000100AE4E7B5EEC00AF1EE10FA01DAB1EE5C
:101FD000400A7047002800DA40427047EA4991ED14
:101FE000120AD1ED131AF1EE400A80EEA11A00EEAA
:101FF000900AF8EEE00A01EE200ABDEEC00A10EEEB
:10200000100A7047F0EE401A9FEDE00AF5EEC01A94
:10201000F1EE10FA01D2F1EE611AF5EEC00AF1EE1E
:1020200010FA01D2F1EE600AB5EEC01AF1EE10FA24
:1020300001D2B1EE411AF4EEC01AF1EE10FA01DD50
:10204000B0EE610AF4EEC00AF1EE10FA01DDB0EE76
:10205000600AB4EEC01AF1EE10FA01DDB0EE410AEA
:102060007047C948806E7047C748803040697047E4
:1020700070B5C54D2DED048BB0EE408A05F180049E
:10208000E86FA0F5EA41303975D0A268E169D4ED76
:10209000030A891A401A00EE100A95ED0D1A2069FC
:1020A000B8EEC00A00EEC10AD5ED0C0AC0EE208AD7
:1020B00004F01AFF95ED170A41EC190B20EE280ADF
:1020C00010EE100A04F010FF41EC100B05F064FB59
:1020D00051EC100B81F0004153EC192B04F00CFE75
:1020E00004F015FFA062206904F0FEFE95ED0E0AD3
:1020F000D5ED170A41EC190B38EE800A20EE200AC4
:1021000010EE100A04F0F0FE41EC100B05F044FB59
:1021100053EC192B51EC100B04F0EEFD04F0F7FE1C
:10212000E06295ED0F0AD5ED170A38EE800A20EE31
:10213000200A10EE100A04F0D7FE41EC100B05F057
:102140002BFB51EC100B04F0E2FE00EE100AB1EE96
:10215000400A84ED0C0A00BFB5EEC08AF1EE10FA19
:1021600038D0686E80B1012814D0022819D0032815
:1021700030D123E0FFE79FED830A84ED0C0A84ED64
:102180000B0A84ED0A0AE7E794ED0A0A30EE480AE2
:1021900084ED0A0A94ED0B0A30EE480A84ED0B0A2E
:1021A00005E094ED0A0A30EE480A84ED0A0A94ED3F
:1021B0000C0A30EE480A84ED0C0A0BE094ED0A0A92
:1021C00030EE480A84ED0A0A94ED0B0A30EE480A14
:1021D00084ED0B0A283494EC030AFFF713FFD5EDC6
:1021E000090AF8EEE00A80EE801ABDEEC10A10EE90
:1021F000100A2867A96E814200DDA86601202866C2
:10220000BDEC048B70BD604900220028CA66486797
:1022100011D19FED5C0A01F180008A6680ED040A0D
:1022200047F23053CB67036080ED030A4A66426091
:1022300042610A651CE7704753485349803090ED6E
:10224000030AB5EEC00AF1EE10FA04D14A6E12B9D3
:102250004268002A09D09FED4B0A002280ED030A54
:102260004A664260C169816002E770474648C0ED36
:10227000120A80ED130A7047434A30B4D46F02F15A
:102280008003844209D1D46E8C4206D1D3ED040A76
:10229000F4EE400AF1EE10FA0FD0D166916E09B952
:1022A00005219166D969996083ED040AD067002001
:1022B000906793ED030A30BCDAE630BC7047324BCE
:1022C00030B48033304A5C68844209D1D3ED030ACC
:1022D000F4EE400AF1EE10FA02D1546E8C42ECD0CA
:1022E000D56F47F23054A54219D13225D566052560
:1022F0009566A04213DAB5EEC00A0124F1EE10FA99
:102300005C6102DDDC69844207DCB5EEC00AF1EEF7
:1023100010FA04D2DC69844201DAB1EE400A586056
:10232000516683ED030A0020906730BCA0E6C4E745
:10233000014647F23050C2E79FED120A9CE710B504
:10234000114C01462DED028B8034F0EE608AD4ED05
:10235000000AB0EE418AF8EEE00AF4EE400AF1EE2F
:1023600010FA0CD10848C06E884208D1D4ED010A99
:10237000F8EEE00AF4EE680AF1EE10FA4FD0FDEE46
:10238000C00A05E000000000140000206F12833A2C
:10239000C4ED000AD4ED070AF8EEE00A30EE600A58
:1023A000BDEEC00A10EE100A1FED0A0AFFF764FF27
:1023B00094ED070AF8EEC00A78EEE00AFDEEE00AB6
:1023C00010EE900A002800DA4042B8EEC00A6428F5
:1023D00018DDF4EEC08AF1EE10FA01DCB1EE488AA5
:1023E00018EE100A04F080FD04F091FDFDEEE80AFD
:1023F000BDEC028B00EE100ABDE81040002110EE8B
:10240000900A5CE738EEC00A10EE100A04F06CFD8A
:102410009FEDFE1B53EC112B04F074FCE4E7BDECC4
:10242000028B10E4FB4910B5486901282ADDCA690E
:102430004868801AFFF7CEFD052809DA4869421C72
:102440004A61B0F57A7F1DDDBDE810400020DAE674
:10245000F04A0520803A4B69D066B3F5FA7F906662
:1024600002DD40F2F51048614A68C869904202DD19
:10247000BFEE000A01E0B7EE000A81ED030ABDE8F5
:102480001040F5E510BD70B5E24991ED040AB5EED6
:10249000C00AF1EE10FA73D1A1F18002936E002B05
:1024A0006ED0486847F23054A04269DA91ED030AD1
:1024B000B5EEC00AF1EE10FA7DD0D56FA54260D11D
:1024C000B5EEC00A1346F1EE10FA5B6C03DDCD6980
:1024D000C41AAC4208DBB5EEC00AF1EE10FA17D20E
:1024E000CC690344A34213DD4B69032B48DACB6963
:1024F000C01AFFF76FFD0A2848680ADA88610020D1
:1025000090661FED600AD06681ED030A02204861E3
:1025100079E092ED1A0AD1ED030ACB69B8EEC00A50
:10252000984260EE200A92ED110AB8EEC01A80EED1
:10253000810A0FDDFFF746FD4868C969401AFFF7B9
:1025400049FD00EE900AB8EEE01AD2ED0B0A40EE1B
:10255000010A0EE0FFF736FD4868C969401AFFF727
:1025600039FD00EE900AB8EEE01AD2ED0B0A50EEFB
:10257000410A92ED1A0AB8EEC01A80EE810A42E0D2
:1025800046E0A44AB5EEC00A803AD2ED100AF1EE58
:1025900010FA18DD01EE100AF8EEC11A01EE103A39
:1025A000B8EEC11A41EE401AB8EEE01A71EEC11A47
:1025B00091ED071A00E029E0B8EEC11AF4EEC11A55
:1025C000F1EE10FA1BD3B5EEC00AF1EE10FA1AD2F2
:1025D00001EE100AF8EEE00AF8EEC11A01EE103A28
:1025E000B8EEC11A41EE401A31EEA01AD1ED070A39
:1025F000F8EEE00AB4EEE01AF1EE10FA03DDC96974
:10260000401AFFF78AFCBDE8704031E58868F6E7BC
:1026100070BD8048A0F180014269022A0CDA1FEDEA
:10262000A70A002380ED040A80ED030A47F2305226
:102630004B66CA67C0E900238B6F76485B1C8B67CB
:1026400080388A6D406D934202DB8A67096D01B163
:1026500028E40020FCE76F4A803A936F5B1C936785
:10266000834204DD906E08449066002090677047B6
:1026700070B5FFF73BFC674DE861FFF7D3FEA5F1AE
:1026800080044FF0FF31E26EA06E002A0BDD904215
:102690000ED006DA216F88420ADAFFF79FFC01218B
:1026A00004E0686A02E0002831DD606FFFF7D3FFC5
:1026B000D5E90701814203D0FFF7E5FEE86928620A
:1026C000206E002826D094ED1A0AD5ED0C0AB8EE3B
:1026D000C00A20EE200AFFF70EFC94ED1A0AD5ED91
:1026E0000B0A0246B8EEC00A20EE200AFFF703FCF0
:1026F00094ED1A0AD5ED0A0A0146B8EEC00A20EE9A
:10270000200AFFF7F8FBBDE87040FFF79FBBBDE86C
:1027100070407EE770BD30B53E483F4A446C611C56
:10272000416401468B6C0021322C03D2148923446E
:10273000836405E03224B3FBF4F34164C365816430
:10274000446D9625631C4365324B962C9B6D03D2DA
:1027500094892344836504E0B3FBF5F34165436644
:102760008165C46C631CC3642A4B962C1B6D02D21A
:102770005189194403E0B3FBF5F20266C1640165B7
:1027800030BD2DE9F041DFF89480404602F01CF99D
:10279000204E803EB168642740EA014090FBF7F488
:1027A0000025404602F010F9B16840EA014090FB74
:1027B000F7F0011B00D54942322900DA6D1C0446AE
:1027C000022DEEDB002800DA6042BDE8F0812DE941
:1027D000F0414FF08048404602F0F6F80D4E803E42
:1027E000F168642740EA014090FBF7F40025404679
:1027F00002F0EAF8F16840EA014090FBF7F0011BB3
:1028000000D54942322900DA6D1C09E07B14AE473D
:10281000E17A743F940000208C0200200000014007
:102820000446022DE3DB0028CFDA6042CDE710B585
:10283000FFF7A7FF0446FFF7CAFF204410BDFA497F
:1028400000204862F94988604FF080425062C860B9
:10285000704710B54FF40041F54801F083FA014686
:10286000F44802F09BFDBDE810404FF4FA7003F00D
:1028700012BEF8B5F04D0026A5F1B4046878FF2823
:102880000ED2A26B514202EBD272521001EBD17107
:102890004B100092FE220021FFF7ACF9206700E008
:1028A00026672878FF280ED2626B514202EBD27263
:1028B000521001EBD1714B100092FE220021FFF764
:1028C00099F9E06600E0E666BDE8F840052003F00F
:1028D000E2BDDA4BDA880021D888821A00D552424C
:1028E000322A01DA491C89B202460229F4D30028AF
:1028F00000DA40427047D14803213830B0EE080A70
:10290000016040F27531416080ED040A02221E210F
:10291000C0E902214FF4DE71C0E9051200214FF435
:10292000FA73C0E90713C0E90921C1620163704766
:10293000401A00D540420A2801DA012070470020E1
:10294000704730B5BD4C3834206B00280DD1FFF7EF
:10295000C0FF02461146206AFFF7EAFFB64900238E
:102960003C3918B1207AC874A36230BD256A0120B1
:10297000954201DD887400E08B74227BCA74A062EA
:1029800030BDAE483830D0ED010A90ED041AF8EEB3
:10299000E00A40EE410ABDEEE00A10EE100A704770
:1029A000B5EEC00A00B5F1EE10FAA54902D29FEDCE
:1029B000A50A05E010EE100A884201DD9FEDA20A8B
:1029C000FFF7DFFF9D493831086200BD704770474F
:1029D00070472DE9F041DFF87482404601F0F4FFC2
:1029E000924E7169642740EA014090FBF7F400259C
:1029F000404601F0E9FF716940EA014090FBF7F0C1
:102A0000011B00D54942322900DA6D1C0446022D13
:102A1000EEDBDAE62DE9F041DFF83482404601F0E2
:102A2000D3FF824E3169642740EA014090FBF7F4FE
:102A30000025404601F0C8FF316940EA014090FBA3
:102A4000F7F0011B00D54942322901DA6D1CADB205
:102A50000446022DEDD3B8E670B578487E4C903030
:102A60007C49C0E9001400214FF4E173C0E902136E
:102A70000222FA25C0E90425C0E90612C0E90814BB
:102A8000C0E90A21016334300A244FF491650460DF
:102A9000C0E901514FF4D275C56003252826C0E96D
:102AA0000456C0E90615C0E90814C0E90A2101630B
:102AB00058384FF4C8714FF49664C0E9001440F2DE
:102AC000B634C0E90242642202614FF4A5724C00A0
:102AD000C0E90524C0E907326048016070BD401AB2
:102AE00000D54042142801DA0120704700207047C9
:102AF0002DE9F047514E504D90363C3D307DE87603
:102B00000027AF76494C4FF48058DFF85491A76105
:102B100002E0012003F0BFFC4146484601F018F9ED
:102B20000028F6D1A069401CA0613228F4DB307C7B
:102B3000E8764648243007606761052003F0ABFC67
:102B4000307DE8760120A876A76102E0012003F03D
:102B5000A2FCFFF73EFF71688842F7DCA069401CC9
:102B6000A0613228F5DB307CE876BDE8F087334998
:102B700090310A684243C86892FBF0F0704770B524
:102B8000FFF727FF2D4A034690321946506AFFF798
:102B9000A6FF294900243C3918B1107CC876D462BC
:102BA00070BD556A01209D4201DD8C7600E088767B
:102BB000137DCB76D06270BD00B5FFF7D8FF1F4AFA
:102BC00090321168814200DD08465168814200DA86
:102BD0000846506200BD1E49002024310860134998
:102BE000086170471549C4314A684243C86892FB7E
:102BF000F0F0704710B5FFF70DFF104B0246C433DD
:102C00001146586AFFF76BFF0B493C3908B1187C35
:102C100007E0586A904201DD002000E0012088753D
:102C2000187DC87510BD0000000001401400002090
:102C30000008024000480040480100208C020020AB
:102C4000000087430000000000008743000C0040A4
:102C500000040040A8E4FFFF44FDFFFF38080040E7
:102C60000010024000B5FFF7BDFFFE49486200BDFD
:102C70002DE9F041FB4EFC4D307DE8750120A87533
:102C8000A5F1F8040027DFF8E483A76102E0012042
:102C900003F001FC8021404601F05AF80028F6D1EB
:102CA000A069401CA0613228F4DBFFF794FF307C60
:102CB000E875052003F0EFFB307DE875AF75A7617F
:102CC0004FF47A7702E0012003F0E5FBFFF7A2FE64
:102CD000B842F8DBA069401CA0613228F6DB307CEA
:102CE000E87572E52DE9F04105460C46684301FBA5
:102CF00004002DED028B1E46174604F0E4F841EC6B
:102D0000100B04F0ADFD51EC100B04F000F938602D
:102D1000284604F0D8F841EC180B204604F0D3F80C
:102D200041EC100BB0EE481AF0EE681A04F03CFCCF
:102D30009FEDCF1B51EC100B53EC112B03F0E2FF76
:102D400004F0E5F83060BDEC028B3EE51CB514469E
:102D50006B4601AAFFF7C6FF9DED000A00EE904A00
:102D600010EE100AC449F8EEE00A884202DD30EEA7
:102D7000600A01E030EE200A8DED000A9DED010AA7
:102D8000BDEEC00A10EE100AFFF716FF9DED000A17
:102D9000FFF706FE1CBD1CB501AB6A46FFF7A2FF9C
:102DA0009DED000ABDEEC00A10EE100AFFF704FF09
:102DB0009DED010AFFF7F4FD1CBD401A00D540420D
:102DC000192801DA0120704700207047A54BC43B49
:102DD0009A8800219888821A00D55242322A01DA54
:102DE000491C89B202460229F4D3002800DA404285
:102DF0007047F0B5FFF7EAFF9B4E0027F83E994C6D
:102E00000246994D583C4FF0010CB7610BE0206A27
:102E1000904202DD85F80EC000E0AF73207CE873BD
:102E2000FFF7D4FF02461146206AFFF7C6FF0028CD
:102E3000EDD0B069401CB0613228F4DB207BE87330
:102E4000F0BD00B5FFF7C2FF864B0246583B114666
:102E5000186AFFF7B2FF844908B1187B07E0186AC7
:102E6000904201DD012000E000208873187CC873C7
:102E700000BD2DE9F05F7B48804958384068086004
:102E8000052003F008FB784D0027AF75DFF8D481EB
:102E900098F81400E875A5F1F804744E4FF48069B1
:102EA000A76102E0012003F0F6FA4946304600F03F
:102EB0004FFF0028F6D1A069401CA0613228F4DB46
:102EC00098F81000E875DFF8B8A14FF40049002227
:102ED0004946504600F054FF4FF47A6B584603F0D1
:102EE000DAFA01224946504600F04AFF584603F0FC
:102EF000D2FA98F81400E8750120A875A76102E0DD
:102F0000012003F0C8FA8021304600F021FF00289C
:102F1000F6D1A069401CA0613228F4DB98F81000BB
:102F2000E875BDE8F09F2DE9F041FFF74FFF4D4CEC
:102F3000524E583C074660683060E06920620520C8
:102F400003F0A9FA484D0020F83DA86106E000BF53
:102F5000FFF73CFF0746012003F09DFA3946206A3F
:102F6000FFF72BFF0028F3D0A869401CA861322886
:102F7000F4DB206830600122D103414800F000FFFB
:102F8000BDE8F0414FF4FA7003F085BA2DE9FE4F29
:102F900002AB01AAFFF7A6FE324D4FF0010A343D05
:102FA000A5F15807C5F82CA0C7F828A09DED010A87
:102FB000BDEEC00A10EE100AFFF7FEFD9DED020AFD
:102FC000FFF7EEFC284C0026F83CA66102E0012049
:102FD00003F061FAE86A0128F9D0B86A0128F6D04E
:102FE000A069401CA0613228F4DBFFF7EFFE1D4D05
:102FF0000746583D214869680160686928620520D4
:1030000003F049FAA66105E0FFF7E0FE074601205C
:1030100003F041FA3946286AFFF7CFFE0028F3D0C3
:10302000A069401CA0613228F4DBDFF838800E4F25
:1030300098F81400F875B146BE75A6610B4E4FF4B2
:10304000806B02E0012003F026FA5946304600F07A
:103050007FFE0028F6D1A069401CA0613228F4DB75
:1030600010E00000500300200C010020001002407E
:10307000F8C1631ADCA54C400000C8423808004083
:103080000004024098F81000BB46F8750122D103F5
:10309000FD4800F075FE4FF47A6003F0FCF9FFF78D
:1030A00095FE0090A8692862052003F0F4F94F46C8
:1030B000C4F8189006E000BFFFF788FE00900120DA
:1030C00003F0E9F9286A0099FFF777FE0028F3D0AA
:1030D000A069401CA0613228F4DB0122D103EA4838
:1030E00000F04EFE4FF47A6003F0D5F9E748A96886
:1030F000016098F814005D468BF817008BF816A055
:10310000A76102E0012003F0C6F98021304600F0FB
:103110001FFE0028F6D1A069401CA0613228F4DB14
:1031200098F81000E875BDE8FE8F70B5D949D84809
:103130002DED068B4862FFF782FBDFEDD78AB0EEFC
:10314000681A9FEDD68A3220B0EE480AF0EE400AA7
:10315000FFF7F5F8D24C002604F180059FEDD19AD7
:10316000DFEDD19AA66120E0286EAA2808DDB0EE36
:10317000681AF0EE480A4FF03200B0EE490A0FE04C
:10318000B0EE681A06DAF0EE480A4FF03200B0EE00
:10319000690A05E0B0EE480A4FF03200F0EE400A4E
:1031A000FFF7CDF8012003F076F9E86D1E28DBDC8F
:1031B000A069401CA0613228F7DBB0EE480AB0EEEF
:1031C000681AF0EE400A0A20FFF7B9F8A66102E09B
:1031D000012003F060F9E86D0528F9DCA069401CC6
:1031E000A0613228F7DB9FEDB19ADFEDB19A9FED38
:1031F000B1AAA66112E0AA2907DDB0EE491AF0EEE5
:10320000480A0A20B0EE690A06E0B0EE681AF0EE4D
:10321000480A0A20B0EE4A0AFFF791F8286E0146E4
:10322000AA3800D540420128E5DCA069401CA06115
:103230003228F3DBBDEC068B0020BDE87040FEF7C2
:10324000E2BF2DE9F047964D4FF00009803564212B
:10325000DFF84082C5E90F9108F1340805F17807DD
:1032600098F81410F9750126BE758D4CDFF848A248
:10327000C4F8189002E0012003F00DF980215046B7
:1032800000F066FD0028F6D1A069401CA06132283C
:10329000F4DB98F81000F875D5E90F01FFF77BFD16
:1032A000B04630467B4EA6F15807F062B862C4F8CB
:1032B0001890012003F0EFF8F26AB96A012AF8D0F9
:1032C0000129F6D0A069401CA0613228F6DB44F643
:1032D000206003F0E0F8FFF7CCFAE96EE86B0844F1
:1032E000E8632A6F296C11442964C6F82C800A22ED
:1032F000C7F82880FFF72AFDC4F8189002E00120E3
:1033000003F0C9F8F06A0128F9D0B86A0128F6D0AC
:10331000A069401CA0613228F4DBBDE8F047002022
:10332000FEF771BF2DE9F14F96B0002014908DF893
:1033300000008DF828005A4856494FF40045169B66
:10334000514A5E4C8030564F90396E104FF06408F1
:103350004FF480694FF4805A4FF4005B112B79D2FF
:10336000DFE803F009282C3034383E444A556064C5
:10337000686F737B91000221104600F0E9FC60B198
:1033800000222946204600F0FBFC2946204600F09A
:10339000E9FC014600224AA05AE0012229462046C3
:1033A00000F0EEFC2946204600F0DCFC014600223D
:1033B0004BA04DE0C169012251A049E0C16D02223C
:1033C00051A045E0016E032253A041E0416E04226A
:1033D00054A03DE0FFF7D5F90146052255A037E09E
:1033E000FFF7F5F90146062255A031E0FFF71FFA75
:1033F0000146072256A02BE0584801F0E5FA79690A
:10340000082240EA014191FBF8F155A020E057481D
:1034100001F0DAFA3969092240EA014191FBF8F139
:1034200053A015E0C9880A2254A011E089880B2214
:1034300055A00DE01A48F830C17D0C2255A007E0D8
:1034400008E0016F0D2256A002E0C16E0E2255A0C9
:10345000FDF77AF917B0BDE8F08F174F0121384614
:1034600000F076FC024650A1684603F003FF69466F
:103470000AA803F081FB0221384600F069FC0246ED
:1034800049A1684692E060E100040240380800402B
:1034900048F4FFFF1C0300209A99993E00000000A9
:1034A00014000020000048C2000048429A9999BECA
:1034B00000806DC400806D4400100240000802408E
:1034C000524F424F5420322044414E4720434841FE
:1034D000592053414E2058414E483A2020200000A8
:1034E000524F424F5420322044414E4720434841DE
:1034F000592053414E20444F3A2020200000000024
:10350000494D553A000000004C415A455220465260
:103510004F4E543A000000004C415A4552204C4551
:1035200046543A004C415A45522052494748543A71
:1035300000000000454E205748204C4546543A00B4
:10354000454E2057482052494748543A0000000051
:10355000454E2033205748533A000000000C0040ED
:10356000454E2041524D20583A00000000040040D2
:10357000454E2041524D20593A000000425420420D
:103580004153453A000000004254204752495050F0
:1035900045523A004D6F746F7220793A2000000056
:1035A000593A0000583A00002564000003F062FE1A
:1035B00069460AA803F0E0FA3146384600F0C8FB35
:1035C0000246AFF21C01684603F054FE69460AA8A1
:1035D00003F0D2FA2946384600F0BAFB0246AFF2B1
:1035E0003801684603F046FE69460AA803F0C4FAAB
:1035F0000821384600F0ACFB0246AFF254016846A1
:1036000003F038FE69460AA803F0B6FAB915384641
:1036100000F09EFB0246AFF27001684603F02AFEFE
:1036200069460AA803F0A8FA0421384600F090FB86
:103630000246AFF28C01684603F01CFE69460AA8F8
:1036400003F09AFA8021384600F082FB0246AFF27E
:10365000A801684603F00EFE69460AA803F08CFA3A
:103660004021384600F074FB0246AFF2C4016846C0
:1036700003F000FE69460AA803F07EFA4946384680
:1036800000F066FB0246AFF2E001684603F0F2FD8F
:1036900069460AA803F070FA5146384600F058FB14
:1036A0000246AFF2FC01684603F0E4FD69460AA851
:1036B00003F062FA5D465946384600F049FB02467F
:1036C000AFF21C11684603F0D5FD69460AA803F065
:1036D00053FA2021384600F03BFB0246AFF2381186
:1036E000684603F0C7FD69460AA803F045FA1021B1
:1036F000384600F02DFB0246AFF25411684603F045
:10370000B9FD69460AA803F037FA2946204600F0B9
:103710001FFB0246AFF27011684603F0ABFD69462D
:103720000AA803F029FA3146204600F011FB0246B0
:10373000AFF28C11684603F09DFD69460AA803F0BC
:103740001BFA10220AA9D4A0ECE04F464946904645
:10375000104600F007FB0246AFF2B411684603F0D2
:1037600089FD69460AA803F007FA8021204600F087
:10377000F9FA0246AFF2D011684603F07BFD6946C4
:103780000AA803F0F9F94FF40071204600F0EAFAB4
:103790000246AFF2EC11684603F06CFD69460AA8D8
:1037A00003F0EAF9DFF8F4923946484600F0DAFA15
:1037B0000246AFF20C21684603F05CFD69460AA898
:1037C00003F0DAF94FF40061404600F0CBFA02460C
:1037D000AFF22C21684603F04DFD69460AA803F0BC
:1037E000CBF954465146404600F0BCFA0246AFF2CF
:1037F0004821684603F03EFD69460AA803F0BCF97B
:103800005946404600F0AEFA0246AFF264216846DF
:1038100003F030FD69460AA803F0AEF93146404690
:1038200000F0A0FA0246AFF28021684603F022FDC4
:1038300069460AA803F0A0F92946404600F092FA2A
:103840000246AFF29C21684603F014FD69460AA8BF
:1038500003F092F93946484600F084FA0246AFF286
:10386000B821684603F006FD69460AA803F084F90A
:103870003146484600F076FA0246AFF2D421684657
:1038800003F0F8FC69460AA803F076F94FF40061EA
:10389000484600F067FA0246AFF2F421684603F0AA
:1038A000E9FC69460AA803F067F97D4D4FF4807181
:1038B000284600F057FA0246AFF21431684603F08A
:1038C000D9FC69460AA803F057F9E914284600F024
:1038D00049FA0246AFF23031684603F0CBFC694644
:1038E0000AA803F049F92146284600F03BFA0246AF
:1038F000AFF24C31684603F0BDFC69460AA803F0FC
:103900003BF94021404600F02DFA0246AFF2683103
:10391000684603F0AFFC69460AA803F02DF91122AE
:103920000AA960A0FCF76FFF94E511B45F48416FEE
:10393000009A914201DD002101E0416F491C41677D
:10394000406F18BCEEE410B5FDF7BDF8FDF7EFF8D9
:10395000FDF72BFBFDF7E4FBFDF754FAFDF74CFDFB
:10396000FDF712F9FDF748F94FF4E1342046FDF771
:10397000F4FD2046FDF775FE2046FDF70FFF2046BB
:10398000FDF792FFE000FEF714F8FDF7C4FCBDE878
:103990001040052002F07FBD1020FFF7C6FF0F206A
:1039A00002F079FDF8E700BFFFF7E9F8FEF7C9FF7D
:1039B000FFF747FA0A2002F06EFDF5E7FEF7ABFECF
:1039C000FEF757FF052002F066FDF7E7FEF750FE11
:1039D000052002F060FDF9E71FB5FFF7B4FFFFF720
:1039E0003BF8FEF788FF00244FF4807500940194A3
:1039F000029423462A462EA13148039402F074FB18
:103A000000940194029400232A462EA13248039484
:103A100002F06AFBFEF71DFFFEF7C0F8FFF728F97A
:103A2000FFF7E7F9FFF764F8FEF709FF0094019448
:103A3000029400232A4629A12D48039402F054FB46
:103A40006C012C4D2146284600F082F90028F9D15E
:103A5000FFF7F7FB052002F01EFDF3E77FB500241A
:103A60004FF4807500940194029423462A4622A1C3
:103A70002448039402F038FB00940194029400233C
:103A80002A4621A12248039402F02EFB02F052FEA6
:103A900004B0002070BD0000493A0000000C024054
:103AA000000002404F55543A0000000094000020EE
:103AB0007461736B43686F6E674E6869657500006B
:103AC000BD3900087461736B526F626F74416E612F
:103AD0006C79746963730000CD3900087461736B8D
:103AE000446965754B6869656E436F436175000095
:103AF000A7390008001002407461736B4D61696E54
:103B000000000000D93900087461736B4C43440015
:103B1000993900082849084328490860704730B59A
:103B20000F22C47801780123FCB1244C246801F1F0
:103B3000E02104F4E064C4F5E064C4F30724C4F1B4
:103B40000405E2404478AC408578154025432A01BD
:103B500081F80024007800F01F018B4040098000AC
:103B600000F1E020C0F8003130BD01F01F008340BB
:103B70004809800000F1E020C0F8803130BD104AD3
:103B8000114001430D48001F016070470B4A121D90
:103B90000029116801D0014300E0814311607047A2
:103BA0004FF0E0210428086903D020F004000861E8
:103BB000704740F00400FAE70000FA050CED00E061
:103BC00080FFFF1F7C4910B5884206D101210846BD
:103BD00000F058FA002101204FE07849884206D1D0
:103BE0000121022000F04EFA0021022045E0744934
:103BF000884206D10121042000F044FA002104206B
:103C00003BE07049884206D10121082000F03AFAD1
:103C10000021082031E06C49884206D101211020A2
:103C200000F030FA0021102027E06849884206D1D0
:103C30000121202000F026FA002120201DE0644907
:103C4000884206D10121402000F01CFA00214020CA
:103C500013E06049884206D10121802000F012FA69
:103C60000021802009E05C4988420AD184150121A5
:103C7000204600F007FA00212046BDE8104000F081
:103C800001BA10BDF0B50023012403270D6804FA22
:103C900003F21540954242D1D0F800C05E0007FA09
:103CA00006F52CEA050CC0F800C091F804C0D0F865
:103CB00000E00CFA06FC4CEA0E0CC0F800C091F8CB
:103CC00004C0BCF1010F02D0BCF1020F1FD1D0F82B
:103CD00008C02CEA050CC0F808C091F805C0D0F85F
:103CE00008E00CFA06FC4CEA0E0CC0F808C0D0F84C
:103CF00004C02CEA020CC0F804C0426891F806C067
:103D00000CFA03FC1FFA8CFC42EA0C024260C26807
:103D1000AA43C260CA79C568B2402A43C2605B1C2C
:103D2000102BB3D3F0BD4FF6FF710160002101717C
:103D300041718171C171704708B541F480320092C0
:103D4000C261C1610099C161C169C069009008BDCB
:103D50000246002012690A4200D001207047006923
:103D600080B270470246002052690A4200D001200A
:103D70007047406980B27047018370474183704744
:103D80000AB10183704741837047416170474269BE
:103D90004A40426170474B07DB0E9A40C90810B594
:103DA00000EB8100016A0F249C40A1430162016A7B
:103DB0001143016210BD00000000024000040240F7
:103DC00000080240000C02400010024000140240B3
:103DD00000180240001C024000200240EA4801682E
:103DE00041F001010160E84A0021083211600268D7
:103DF000E64B1A400260031DE54A1A60026822F48D
:103E000080220260E0480C3001607047DE490022E9
:103E1000891C0A7008707047024600205109012968
:103E20000CD002290CD0D8497431096802F01F0265
:103E3000012393400B4200D001207047D249F4E7A0
:103E4000D1497031F1E718B500204FF4A06400901B
:103E50003120FFF7E1FF0099491C0091A14201D0F8
:103E60000028F5D03120FFF7D7FF002800D001202F
:103E700018BDC5490A6822F0F80242EAC00008608D
:103E80007047C44908607047BF49002270310A700A
:103E90000A70012802D0042801D10520087070475B
:103EA000BD490860704741EA82115A0810B5BB4B02
:103EB000029C03EB02421143014341EA0460B24910
:103EC000091D086010BDB34908667047800140EACB
:103ED0000170AD49843108607047AE49886670470B
:103EE000AC49C8647047A84A08321368084323F0F5
:103EF000EC63184310607047A34A08321368084304
:103F000023F078431843106070479F4A08321168C5
:103F100021F003010143116070479B48083000689D
:103F200000F00C007047984A0832116821F0F00147
:103F3000014311607047944A0832116821F4E0513E
:103F4000014311607047904908310A6822F46042C9
:103F500042EAC0000860704770B58B4A08321168A9
:103F60008F4C11F00C0104D06610042903D00829ED
:103F700003D004601BE0066019E08349091D0B684B
:103F8000C3F380550B6803F03F0315B1B6FBF3F3A1
:103F900001E0B4FBF3F30C680968C4F388146343CD
:103FA000C1F30141491C4900B3FBF1F10160116803
:103FB0000F2303EA11117B4B5C5C0168E140416017
:103FC0001468072505EA94241C5D21FA04F4846032
:103FD000126805EA52329A5CD140C16070BDC0F3EC
:103FE0000121032908D1684A0832116821F4F81325
:103FF0006D49014019431160634970310A68C0F38B
:104000000B0002430A6070476349443908607047F7
:1040100061494039086070475E49C1F85C017047EA
:10402000594A30320029116801D0014300E0814330
:1040300011607047544A34320029116801D001439D
:1040400000E08143116070474F4A383200291168FF
:1040500001D0014300E08143116070474A4A403279
:104060000029116801D0014300E0814311607047CD
:10407000454A44320029116801D0014300E08143E0
:1040800011607047404A10320029116801D0014385
:1040900000E08143116070473B4A143200291168E7
:1040A00001D0014300E0814311607047364A183265
:1040B0000029116801D0014300E08143116070477D
:1040C000314A20320029116801D0014300E08143C8
:1040D000116070472C4A24320029116801D0014335
:1040E00000E0814311607047274A5032002911686F
:1040F00001D0014300E0814311607047224A5432ED
:104100000029116801D0014300E08143116070472C
:104110001D4A58320029116801D0014300E0814353
:1041200011607047184A60320029116801D00143BC
:1041300000E0814311607047134A6432002911681E
:1041400001D0014300E08143116070470E4A0D32F7
:104150000029117801D0014300E0814311707047BC
:1041600009487430016841F0807101607047014670
:10417000054A00200C3212680A4200D00120704724
:1041800001490E310870704700380240FFFFF6FE0B
:104190001030002400004742800E47420000FFFF1D
:1041A0000024F4005C010020FFFCFF0F10B501218A
:1041B0000C022046FFF78EFF2046BDE8104000218C
:1041C000FFF788BF30B54268C84B0C791A400B68BE
:1041D00042EA0422134343608268C54B4D791A407A
:1041E000D1E9034323438C6844EA45042343134342
:1041F0008360C26A097D22F47002491EC9B242EA94
:104200000151C16230BD00210160017141718160C5
:10421000C1600161012101757047B64B10B5D3F83B
:104220000423B5490A40D0E900142143D0E90240F3
:10423000044321431143C3F8041310BD002101605E
:1042400041608160C16070470029816802D041F0FF
:10425000010101E021F00101816070474268A74B34
:104260001A400A4342607047416282627047426866
:1042700022F01F020A43426070479E490028D1F88D
:10428000040302D040F4000001E020F40000C1F873
:104290000403704797490028D1F8040302D040F482
:1042A000800001E020F48000C1F80403704770B57D
:1042B000072409290AD9C568A1F10A0606EB4606B2
:1042C000B440A543B3401D43C56007E0056901EB59
:1042D0004106B440A543B3401D4305611F23072A8F
:1042E00009D2446B521E02EB820293409C439140E0
:1042F0000C43446370BD0D2A09D2046BD21F02EB3C
:10430000820293409C4391400C43046370BDC46A95
:104310000D3A02EB820293409C4391400C43C462ED
:1043200070BD816841F08041816070470146002086
:104330008968490200D5012070470029816802D0B0
:1043400041F4806101E021F48061816070470029BF
:10435000816802D041F0020101E021F00201816098
:1043600070474268491E22F4604242EA413141608E
:1043700070470029416802D041F4006101E021F456
:10438000006141607047C06C80B270475948D0F8F6
:10439000080370470029816802D041F4807101E070
:1043A00021F48071816070470029816802D041F456
:1043B000007101E021F40071816070474D490028CF
:1043C000D1F8040302D040F4005001E020F4005082
:1043D000C1F80403704770B5072409290AD9C568D4
:1043E000A1F10A0606EB4606B440A543B3401D43BF
:1043F000C56007E0056901EB4106B440A543B34041
:104400001D430561836BC3F30154121B921C02EB25
:1044100082041F22A2409343A1400B43836370BDDB
:10442000826B491E22F4401242EA015181637047B7
:1044300008B508440090026008BD826822F470222A
:104440000A4382607047826822F440120A43826005
:104450007047816841F48001816070470146002007
:104460008968490200D5012070470029416802D0BF
:1044700041F4806101E021F48061416070470029CE
:10448000416802D041F4805101E021F48051416043
:10449000704708B5084428300090006880B208BD15
:1044A00001238B4041680AB1194300E09943416000
:1044B00070470246002012680A4200D0012070476F
:1044C000C9430160704730B50246002053680C0AAA
:1044D00001258D4011682B40214202D0002B00D0D5
:1044E000012030BD6FEA112101607047FFFEFFFC23
:1044F000FDF7FFC000200140E030FCFFFFFD3FFF63
:104500002DE9F043016821F0010101600021016003
:1045100041608160C160016121214161B849B84AAF
:104520003D251039904202D18D60BDE8F083B44A38
:104530004FF474661832904201D18E60F5E7B04AAC
:104540004FF474173032904201D18F60EDE7AC4ADE
:104550004FF0746C4832904202D1C1F808C0E4E7D1
:10456000A74BA84A6033984201D1CA60DDE7A44C4A
:10457000A54B7834A04201D1CB60D6E7DFF880822A
:10458000A24C08F19008404501D1CC60CDE7DFF89E
:1045900070824FF03D5908F1A808404502D1C1F89A
:1045A0000C90C2E79A49DFF868820839404501D18A
:1045B0000D60BAE7964D1835A84201D10E60B4E7F8
:1045C000934D3035A84201D10F60AEE7904D48358C
:1045D000A84202D1C1F800C0A7E78D4D8C496035D3
:1045E000091FA84201D10A609FE7894A78329042A8
:1045F00001D10B6099E7864A9032904201D10C605C
:1046000093E7834AA83290428FD1C1F800908CE79B
:1046100030B503687F4ACC6813400A682243D1E969
:1046200005452C432243CC6922430C6A22434C6A41
:1046300022438C6A22434C6B22438C6B22431A43E5
:104640000260426922F00703D1E90B2422431A4396
:1046500042610A6942604A6882608968C16030BD0F
:104660000021016041608160C1600161416181613F
:10467000C161016241628162C16201634163816320
:1046800070470029016802D041F0010101E021F0EA
:104690000101016070470029016802D041F4004126
:1046A00001E021F40041016070470029016802D057
:1046B00041F0200101E021F02001016070474160DC
:1046C0007047406880B27047002A026802D042F406
:1046D000002201E022F400220260016170470029FB
:1046E000016802D041F4802101E021F480210160C1
:1046F00070470AB101617047C160704701460020F0
:104700000968090300D501207047014600200968A7
:10471000C90700D001207047406900F03800704799
:1047200002463B4B00209A4202D2354A103A01E041
:10473000374A103A8B0001D5526800E01268364BB8
:104740001A400A4200D001207047314A904202D2FA
:104750002B48103801E02E4810382F4A8B0001EA10
:10476000020101D5C1607047816070470B0607D513
:10477000436912B143F0800301E023F080034361F9
:10478000802908D0002A026801F01E0101D00A43E6
:1047900000E08A430260704730B51D4A0024904211
:1047A00002D2174B103B01E0194B103B1B4A114240
:1047B00005D01E2202EAD12502682A4002E04069A3
:1047C00000F08002880001D5586800E01868124B9C
:1047D0001840084201D002B10124204630BD0C4AE5
:1047E000904202D20648103801E0094810380A4ABF
:1047F0008B0001EA020101D5C160704781607047FA
:10480000106002403D000020400F002000003D20CD
:10481000106402403F801CF07D0F7D0F3C0F3C0F69
:10482000FE4910B5884206D101210846FFF752FC27
:10483000002101205BE0B0F1804F09D0F8498842A7
:104840000DD101210220FFF73BFC0021022070E086
:1048500001210846FFF734FC0021012069E0F149FD
:10486000884206D101210420FFF72AFC0021042000
:104870005FE0ED49884206D101210820FFF720FCC6
:104880000021082055E0E949884206D10121102085
:10489000FFF716FC002110204BE0E549884206D1C5
:1048A00001212020FFF70CFC0021202041E0E149FC
:1048B000884206D101210220FFF70CFC00210220D2
:1048C00015E0DD49884202D101210C040AE0DB49F0
:1048D000884202D101214C0404E0D94988420AD11E
:1048E00001218C042046FFF7F5FB00212046BDE89E
:1048F0001040FFF7EFBBD349884206D10121402089
:10490000FFF7DEFB0021402013E0CF49884206D1AB
:1049100001218020FFF7D4FB0021802009E0CB4952
:1049200088420AD1841501212046FFF7C9FB0021E6
:104930002046BDE81040FFF7C3BB10BD30B502886C
:10494000B64BBC4C98420DD0A0420BD0B0F1804F7A
:1049500008D0B34DA84205D0B24DA84202D0B24D06
:10496000A84203D122F070054A882A43AF4DA842DD
:1049700006D0AF4DA84203D022F440750A892A43DD
:1049800002804A68C2620A880285984201D0A04229
:1049900001D1897A01860121818230BD4FF0FF313A
:1049A0004160002101800181418081727047018551
:1049B00082827047028822F070020A4302807047A8
:1049C00041627047C1627047406A7047008D70470E
:1049D0000029018802D041F0020101E021F002012A
:1049E000018070470029018802D041F0040101E0F4
:1049F00021F00401018070470029018802D041F0B4
:104A0000800101E021F0800101807047028822F0DE
:104A10000802028002880A4302807047028822F45A
:104A20004072028002880A43028070470029018890
:104A300002D041F0010101E021F001010180704745
:104A400030B5028C22F001020284028C8388048B30
:104A500022F0020224F073050C882C438D89154343
:104A60004A882A436D4DA84202D0724DA8420DD10A
:104A700022F00805CA8923F440732A4322F0040572
:104A80008A882A430D8A1D434B8A2B4383800483E3
:104A900089684163028430BD70B5028C22F0100237
:104AA0000284028C8488038B0D8823F4E6464FF63B
:104AB000FF7303EA052535438E8922F0200203EABD
:104AC000061616434A8803EA02123243534EB04296
:104AD00002D0584EB04215D122F08006CA8924F483
:104AE000406403EA0212324322F040068A8803EA55
:104AF000021232430E8A03EA860626434C8A03EAF0
:104B0000840434438480058389688163028470BD92
:104B100070B5028C22F480720284028C8488838BAC
:104B20000D8823F073031D4322F400738E894FF622
:104B3000FF7202EA06261E434B8802EA0323334330
:104B4000364EB04202D03B4EB04215D123F400663F
:104B5000CB8924F4405402EA0323334323F48066D0
:104B60008B8802EA032333430E8A02EA06162643A1
:104B70004C8A02EA04143443848085838968C163C3
:104B8000038470BD70B5028C22F480520284048CC0
:104B90008288838B0D8823F4E6464FF6FF7303EA81
:104BA0000525354324F400568C8903EA0434344344
:104BB0004E8803EA06362643184CA04202D01D4C0C
:104BC000A04205D122F480440A8A03EA82122243D9
:104BD0008280858389680164068470BD002101801C
:104BE0004180818081608181C181018241827047E1
:104BF00030B50124058C00F118038C40A5430584D1
:104C000031B308292CD0091FC1F34E0018440168A4
:104C100048F6FF731940016001681AE00000014086
:104C20000004004000080040000C0040001000405C
:104C300000140040000401400040014000440140D5
:104C40000048014000180040001C004000200040C7
:104C500006E04FF6FF7303EA02221143016030BD04
:104C600003EB510001684FF68F7319400160016832
:104C7000F3E74163704781637047C1637047016424
:104C80007047028B22F070020A4302837047028B46
:104C90004FF6FF7322F4E04203EA0121114301833E
:104CA0007047828B22F070020A4382837047828BA6
:104CB0004FF6FF7322F4E04203EA0121114381839E
:104CC0007047028B22F008020A4302837047028B6E
:104CD0004FF6FF7322F4006203EA012111430183BE
:104CE0007047828B22F008020A4382837047828BCE
:104CF0004FF6FF7322F4006203EA0121114381831E
:104D00007047028B22F004020A4302837047028B31
:104D10004FF6FF7322F4806203EA012111430183FD
:104D20007047828B22F004020A4382837047828B91
:104D30004FF6FF7322F4806203EA0121114381835D
:104D40007047028B22F080020A4302837047028B75
:104D50004FF6FF73C2F30E0203EA012111430183F0
:104D60007047828B22F080020A4382837047828BD5
:104D70004FF6FF73C2F30E0203EA01211143818350
:104D80007047028C22F002020A4302847047028CB0
:104D900022F008020A4302847047028C4FF6FF7328
:104DA00022F0200203EA0111114301847047028CB2
:104DB0004FF6FF7322F0800203EA011111430184D0
:104DC0007047028C4FF6FF7322F4007203EA012150
:104DD000114301847047028C4FF6FF7322F4006286
:104DE00003EA0121114301847047028C4FF6FF73DF
:104DF00022F4005203EA013111430184704710B5D7
:104E00000123048C8B409C430484038C8A4013430D
:104E1000038410BD10B50423048C8B409C43048490
:104E2000038C8A401343038410BD828B22F44062BA
:104E30008283828B4FF6FF7303EA01210A43828348
:104E40007047828B22F00C028283828B0A4382831A
:104E50007047028B22F440620283028B4FF6FF738D
:104E600003EA01210A4302837047F0B5048C24F061
:104E700010040484078B068C4FF6FF7404EA0115B6
:104E800027F4734704EA0331394304EA02220A4350
:104E900026F0A001294341F0100102830184F0BDF6
:104EA000028B22F00C020283028B0A4302837047BA
:104EB0002DE9F0410D460E884988AA882B890446C1
:104EC0000EB3042E26D0082E268C4FF6FF7028D065
:104ED00026F480562684A78B268C00EA022200EA5C
:104EE000013127F473473A4300EA0330104326F4B4
:104EF00020420A4342F48051A0832184E98820465D
:104F0000BDE8F04191E700F062F9E9882046BDE88C
:104F1000F041C5E7FFF7A9FFE9882046BDE8F04169
:104F200097E726F480762684A78B268C00EA012159
:104F300000EA0310104327F0F307384326F42062F9
:104F40000A4342F48071A0832184E9882046BDE8A9
:104F5000F04176E700210180418001228280C180FA
:104F6000018170472DE9F0410C460026498807462B
:104F7000012501B90226A288012A00D10225208834
:104F800023890028384610D0FFF76FFFE1883846A4
:104F9000FFF75FFF23892A463146384600F017F9AC
:104FA000E1883846BDE8F0417AE700F010F9E18881
:104FB0003846FFF775FF23892A4631463846FFF702
:104FC00054FFE1883846BDE8F04142E7406B704746
:104FD000806B7047C06B7047006C704710B50A88D3
:104FE0004B88CC881A438B8823431A430B891A4376
:104FF0004B8989891A430A43A0F8442010BD002137
:10500000018041808180C18001814181818170471F
:10501000002930F8441F02D041F4004101E0C1F3FF
:105020000E01018070470029818802D041F00401FF
:1050300001E021F00401818070470029818802D0BD
:1050400041F0010101E021F0010181807047002A57
:10505000828901D00A4300E08A43828170478182BD
:10506000704702460020128A0A4200D00120704791
:10507000C9430182704702460020138A92890B427D
:1050800002EA010202D0002A00D001207047C94381
:10509000018270471143A0F848107047002A8289A6
:1050A00001D00A4300E08A43828170470029818849
:1050B00002D041F0080101E021F008018180704731
:1050C000018921F0070101817047028922F07002F5
:1050D0000A430281704700B50346FFF7F6FF1889BF
:1050E00040F00700188100BD70B516460D466029D6
:1050F00004464FF0010231460AD000F068F8294614
:105100002046FFF7E2FF208940F00700208170BDB4
:10511000FFF7ABFEF3E730B504894FF6FF7505EAFC
:1051200003231343E4B20B432343038130BD10B583
:105130000446FFF7F0FF208940F07700208110BD82
:1051400010B50446FFF7E7FF208940F48040208136
:1051500010BD828822F07002828082880A43828099
:105160007047028922F00702028102890A43028104
:105170007047028922F08002028102890A4302817B
:10518000704770B50589048B068C25F007050D4323
:105190004FF6FC410C4040F201110C434FF6FF71F9
:1051A00001EA031126F022061143314305810483ED
:1051B000018470BD0029818802D041F0800101E0A6
:1051C00021F0800181807047A0F85010704770B5C1
:1051D000048C24F001040484058B048C4FF6FF76C4
:1051E00006EA0313134325F0F3052B4324F00A02C8
:1051F0000A4342F001010383018470BDC74910B521
:10520000884206D101211020FEF764FF0021102002
:1052100028E0C349884202D101214C0410E0C14971
:10522000884202D101218C040AE0BF49884202D1A0
:105230000121CC0404E0BD4988420AD101210C05BA
:105240002046FEF73DFF2046BDE810400021FEF756
:1052500037BFB749884209D101212020FEF73AFF24
:1052600000212020BDE81040FEF734BF10BD7FB5FF
:105270000446008A0D4620F44051E8880843208205
:10528000A08941F20C618843A9882A8911436A895F
:1052900002431143A181A08A20F44071A8890843E8
:1052A000A0826846FEF758FE9C48844202D0A0487F
:1052B000844201D1039800E00298A189090400EB1F
:1052C000C00101EB0010296801D5490000E0890008
:1052D000B0FBF1F26420B2FBF0F109010B096FF0B1
:1052E00018056B4302EB8302A3891D044FF03203C0
:1052F00006D503EBC202B2FBF0F000F0070005E0B8
:1053000003EB0212B2FBF0F000F00F000843208123
:105310007FBD4FF41651016000218180C180018161
:105320000C2242818181704710B5028A4C8822F498
:1053300070630A8822438C88C9880C4322431A432D
:10534000028210BD0021018041808180C1807047B0
:105350000029818902D041F4005101E021F400517B
:1053600081817047028B02F47F420283028B0A43E1
:10537000028370470029818902D041F4004101E095
:10538000C1F30E01818170470029818A02D041F466
:10539000006101E021F4006181827047C1F30801DE
:1053A000818070478088C0F308007047028A22F02D
:1053B0000F020282028A0A43028270470029818911
:1053C00002D041F0020101E021F002018181704729
:1053D000828922F40062828182890A438281704735
:1053E000028A22F020020282028A0A430282704765
:1053F0000029018A02D041F4804101E021F480417A
:1054000001827047818941F0010181817047002943
:10541000818A02D041F0080101E021F00801818277
:105420007047028BD2B20283028B42EA01210183D0
:1054300070470029818A02D041F0200101E021F06B
:105440002001818270470029818A02D041F0100139
:1054500001E021F0100181827047828A22F004026B
:105460008282828A0A43828270470029818A02D01E
:1054700041F0020101E021F0020181827047002A1F
:10548000828A01D00A4300E08A438282704710B5C5
:10549000C1F3421301F01F040121A140012B07D0E9
:1054A000022B07D01430002A026805D00A4304E01A
:1054B0000C30F8E71030F6E78A43026010BD024670
:1054C000002012880A4200D001207047C9430180A1
:1054D000704730B501F01F0201240025C1F34213CB
:1054E00004FA02F2012B0FD0022B0FD0838A4FEA6D
:1054F00011210088134204FA01F400EA040001D0EB
:1055000000B10125284630BD8389F0E7038AEEE724
:105510000A0A01219140C9430180704700100140EF
:105520000044004000480040004C00400050004053
:105530000014014000F108014FF0FF32C0E90112F0
:10554000C160016100210160704700210161704765
:10555000426853684B6043688B6053689960516040
:10556000416008610168491C0160704710B50B6813
:105570005A1C02D000F1080202E0026904E05268FD
:10558000546824689C42FAD953684B6099608A60D9
:10559000516008610168491C016010BDD0E9011229
:1055A0008A60D0E90112516001694A68824201D1E2
:1055B00082684A60002202610868401E086008682C
:1055C0007047000070B50D4604001FD000F0EBFCE2
:1055D000D4E90F21206802FB010363600023A36369
:1055E000521EA06002FB0100E060581E6064A064CF
:1055F00004F110006DB1FFF79DFF04F12400FFF7E7
:1056000099FF00BF00F0D7FC012070BDFAF710FE33
:10561000FEE721690029F5D001F07BF90128F1D1DD
:1056200000F0BBFCEEE72DE9F04117460E46050001
:1056300019D0502000F0DEFC040014D005FB06F069
:10564000401C00F0D7FC206050B1C4E90F56012186
:105650002046FFF7B7FF84F84D702046BDE8F08183
:10566000204600F01CFDFAF7E3FDFEE770B50446A6
:1056700000F099FC04F124050AE0606A58B128465C
:1056800001F047F908B101F0BFF9A06C401EA06419
:10569000A06C0028F1DC4FF0FF36A66400F08BFC14
:1056A00000F081FC04F110050AE0206958B1284699
:1056B00001F02FF908B101F0A7F9606C401E606499
:1056C000606C0028F1DC6664BDE8704000F073BCDB
:1056D00010B51346026C04468AB1CBB1E06801F004
:1056E00027FAE168206C091AE1602268914202D22F
:1056F0006168081AE060A06B401CA06310BD2068C0
:105700000028F8D1606801F0C7F900206060F2E776
:10571000A06801F00DFA216CA0680844A0606168DF
:105720008842E8D32068A060E5E72DE9FF4182B018
:1057300098460F4604004FF0000502D000261FB126
:1057400007E0FAF775FDFEE7206C10B1FAF770FD7F
:10575000FEE700F028FCA16BE06B814213D24246C9
:1057600039462046FFF7B4FF606A38B104F12400DF
:1057700001F0CFF8012801D100F00FFC00F01BFC74
:10578000012006B06AE7049808B11DB106E000F0F8
:1057900012FC1DE0684601F0E9F8012500F00BFC61
:1057A00000F046FE00F0FFFB606C401C00D1666418
:1057B000A06C401C00D1A66400F0FDFB04A9684663
:1057C00001F0DFF830B12046FFF750FF00F0C2FDD6
:1057D0000020D6E700F0E7FBA06BE16B884210D118
:1057E00000F0E9FB04F11000049901F061F8204693
:1057F000FFF73CFF00F0AEFD0028AAD100F0CDFB82
:10580000A7E700F0D8FB2046FFF730FF00F0A2FD2D
:105810009FE770B50546502000F0ECFB04001DD05A
:10582000002161602160A160E160A1630120C4E901
:105830000F01801E6064A06484F84D5004F11000D4
:10584000FFF778FE04F12400FFF774FE00231A46E8
:1058500019462046FFF769FF204670BDFAF7E8FCBD
:10586000FEE710B5040009D001F0DAF8616888425B
:105870000FD1E068401EE06003D008E0FAF7D8FCE2
:10588000FEE700231A4619462046FFF74EFF012087
:1058900010BD002010BD30B403680D46002B0CD0A5
:1058A000026CC1688C18C46041688C4200D3C3602C
:1058B000C168284630BC01F03BB930BC70472DE9C7
:1058C000FF4383B01F46884604004FF0000506D012
:1058D000002604F12409B8F1000F03D007E0FAF71D
:1058E000A7FCFEE7206C10B1FAF7A2FCFEE700F07F
:1058F0005AFBA06B30B341462046E568FFF7CBFF6B
:1059000077B1E560606A28B1484601F002F808B155
:1059100000F043FB00F04FFB012007B0BDE8F0832F
:10592000A06B401EA063206810B901F079F8606098
:1059300020690028EED004F1100000F0EAFF0128F1
:10594000E6D0E7E7059808B11DB106E000F033FBAB
:105950001DE0684601F00AF8012500F02CFB00F07C
:1059600067FD00F020FB606C401C00D16664A06CF9
:10597000401C00D1A66400F01EFB05A9684601F09A
:1059800000F830B12046FFF771FE00F0E3FC002084
:10599000C3E700F008FBA06B38B100F00CFB204619
:1059A000FFF764FE00F0D6FCA1E700F004FB2068DE
:1059B00030B900F0F8FA606801F040F800F0FBFA46
:1059C0004846059900F074FF2046FFF74FFE00F0AF
:1059D000C1FC00288BD100F0E0FA88E770B50D46D5
:1059E000040009D001F01CF86168884207D1E06822
:1059F000401CE060012070BDFAF71AFCFEE70023AE
:105A00002A4619462046FFF75AFF0128F3D1E168DC
:105A1000491CE16070BD10B50C4602220021FFF761
:105A200002FE08B1846310BDFAF702FCFEE72DE91F
:105A3000F041984615460F46040001D01FB107E01B
:105A4000FAF7F6FBFEE7206C10B1FAF7F1FBFEE780
:105A5000FAF7EEFB0646A06BE16B88421AD242468B
:105A600039462046FFF734FEA06C401C04D0A06CE1
:105A7000401CA06401240EE0606A0028FAD004F102
:105A8000240000F046FF0028F4D0002DF2D00120C1
:105A90002860EFE700243046FAF7D1FB2046DDE529
:105AA0002DE9F04115460F46040001D01FB107E073
:105AB000FAF7BEFBFEE7206C10B1FAF7B9FBFEE780
:105AC000FAF7B6FB0646A06BE0B139462046FFF771
:105AD000E2FEA06B401EA063606C401C04D0606CB2
