:020000040800F2
:1000000080300020B5030008D9030008DB03000896
:10001000DD030008DF030008E10300080000000022
:100020000000000000000000000000009D0100082A
:10003000E303000800000000E101000893570008F6
:10004000CF030008CF030008CF030008CF03000848
:10005000CF030008CF030008CF030008CF03000838
:10006000CF030008B7050008CF0300089504000877
:1000700057040008E1040008CF0300080904000841
:10008000CF03000811040008CF030008CF030008C5
:10009000CF030008CF030008CF030008CF030008F8
:1000A000CF0300081105000831050008CF03000840
:1000B000330500085305000873050008CF03000846
:1000C000CF030008CF030008CF030008B3050008E2
:1000D000CF030008E9030008CF030008CF0300089E
:1000E000CF030008CF030008CF030008CF030008A8
:1000F000CF030008CF030008CF030008B7040008AF
:10010000CF030008CF03000893050008B5050008D9
:10011000CF030008CF030008EB040008FF04000829
:10012000CF030008CF03000833040008CF03000802
:10013000CF030008CF030008CF030008CF03000857
:10014000CF030008CF030008CF030008CF03000847
:100150004D040008CF030008CF030008CF030008B8
:10016000CF030008CF030008CF030008CF03000827
:10017000CF030008CF030008CF030008CF03000817
:10018000CF030008CF030008DFF80CD006F0DEFB39
:10019000004800476932000880300020234B19686E
:1001A0000868B0E8F04F80F309884FF0000080F352
:1001B000118870470000000003480068006880F361
:1001C000088862B600DF00BF08ED00E0DFF80C0031
:1001D000016841F470010160704700BF88ED00E0E4
:1001E000EFF30980114B1A681EF0100F08BF20EDC5
:1001F000108A20E9F04F106008B54FF0140080F32A
:10020000118805F09CFD4FF0000080F31188BDE8D7
:10021000084019680868B0E8F04F1EF0100F08BFDA
:10022000B0EC108A80F30988704700BF6401002099
:10023000EFF311804FF0140181F31188704780F3C0
:10024000118870470CB500205149019000900A6850
:1002500042F480320A604FF4A0630A6802F400326C
:100260000092019A521C0192009A12B9019A9A4284
:10027000F3D10A68920334D50120009044484030FD
:10028000026842F0805202604248026842F48042B2
:1002900002603F48083002680260026842F400428F
:1002A0000260026842F4A0520260031F3A4A1A60D8
:1002B0000A6842F080720A600A689201FCD5374AE7
:1002C00040F205611160016821F0030101600168DD
:1002D00041F0020101600168C1F381010229FAD1F4
:1002E0000CBD00900CBD2A4810B5016841F0010119
:1002F0000160274A0021083211600268284B1A4029
:100300000260031D274A1A60026822F480220260FC
:100310001F480C300160FFF795FF23494FF0006044
:10032000086010BD70B51A4C083420681F4A10F0E0
:100330000C011F4804D05510042903D0082903D00C
:1003400002601BE0056019E01149091D0B68C3F349
:1003500080560B6803F03F0316B1B5FBF3F201E0E2
:10036000B2FBF3F20B680968C3F388135A43C1F375
:100370000141491C4900B2FBF1F1016021680C4ABE
:10038000C1F30311121D515C0268CA40026070BDC6
:10039000003802400070004008544007003C024012
:1003A000FFFFF6FE1030002408ED00E00024F4000A
:1003B000000000200648804706480047FEE7FEE7A9
:1003C000FEE7FEE7FEE7FEE7FEE7FEE7FEE7FEE705
:1003D000E7020008890100087047FEE7FEE7FEE734
:1003E000FEE770477047704710B5734C40F22551D7
:1003F000204604F054FC002805D02046BDE81040FB
:10040000202104F049BC10BD6C496D4803F0CDBDFE
:1004100070B56B4D6B4C30352146284603F0A2FD7C
:10042000002805D021462846BDE8704003F0BDBD38
:1004300070BD10B56449654803F0B7FD6448417864
:10044000007841EA00206349088010BD5F48624996
:10045000483003F0AABD70B5594D604C483D214667
:10046000284603F07FFD002813D02146284603F0DC
:100470009CFD5B4801F09EFC00280AD1594C0021EC
:10048000204604F04BFB2046BDE87040012104F0FB
:1004900045BB70BD70B54A4D534C603D2146284662
:1004A00003F060FD002805D021462846BDE87040D5
:1004B00003F07BBD70BD70B5414C4C4D48342946AE
:1004C000204603F04FFD002809D00021204603F00C
:1004D000BEFC29462046BDE8704003F066BD70BDF5
:1004E00037483649303803F060BD10B50121404827
:1004F00004F0B3F93F480168491C016010BD10B514
:1005000001213D4804F0A9F92B497A20888010BDCB
:1005100010B53A4C0121204604F09FF92088C1060D
:100520003748016801D5491E00E0491C016010BD33
:10053000704710B501218C07204604F08EF9208801
:10054000C1063048016801D5491E00E0491C016020
:1005500010BD10B52C4C0121204604F07EF92088F6
:10056000C1062A48016801D5491E00E0491C016006
:1005700010BD10B5264C0121204604F06EF92088EC
:10058000C1062448016801D5491E00E0491C0160EC
:1005900010BD10B5204C0121204604F05EF92088E2
:1005A000C1061E48016801D5491E00E0491C0160D2
:1005B00010BD704770477047001001402080002038
:1005C00070600240008020200080201040640240C3
:1005D0006802002018000020008800200088001019
:1005E0008602002000480040208000100080002883
:1005F00000100040D0000020001400400000014026
:100600001C000020200000200004004024000020E6
:100610000008004024010020000C004028000020B9
:1006200070B50546002405F0A5FEFE4902E02A5DEE
:100630000A55641C8442FADBBDE870400121FA4887
:1006400003F005BC70B5F94D06460024315D002964
:100650000BD0284604F088FA8021284604F015FBC8
:100660000028F9D0641CE4B2F0E770BD70B5EF4E1D
:1006700005460024002D0DD02946304604F074FABA
:100680008021304604F001FB0028F9D0641CE4B25C
:10069000032CEFD370BD73B50C460020FFF7E6FFC7
:1006A000E3A0FFF7CFFFDF482246E2A1823806F041
:1006B000C7F9DC488238FFF7C5FFDFA0FFF7C2FFAC
:1006C000DFA0FFF7BFFFD748DAA18238009A06F013
:1006D000B7F9D44E0024D54D823E2846315D04F052
:1006E00043FA4021284604F0D0FA0028F9D0641CCF
:1006F000142CF2DBD2A0FFF7A5FFFF20FFF7B6FF17
:10070000FF20FFF7B3FFBDE87C40FF20AEE770B5E8
:1007100005460C46C6A0FFF795FFC2482246C5A174
:10072000823806F08DF9BF488238FFF78BFFC5A0ED
:10073000FFF788FF2846FFF785FFC1A0FFF782FF7C
:10074000BDE87040FF2091E777B5BEA185B00646B1
:10075000D1E90001CDE90001B9A0002200680390B1
:10076000B3A0B04D0068283DA5F128030290AD4C20
:100770001146A3F13200A95499548154A154521C3A
:10078000D2B21E2AF7D30A210170FF24447084706C
:10079000C470A448A7A15038079A06F051F9A1499E
:1007A00002A8503905F0CEFD9E4802A9823805F016
:1007B000C9FD9C486946823805F0C4FD9948314618
:1007C000823805F0BFFD97489AA15038069A06F086
:1007D00037F994495039A1F1320005F0B3FD914841
:1007E00003A9823805F0AEFD8E492C706C70283953
:1007F000AC70A1F15A0005F0A5FD8A488238FFF7D8
:100800000FFF08B070BD2DE9F74188468DA185B076
:100810000646D1E90001CDE9000189A00022006867
:10082000039083A07F4D0068283DA5F12801029028
:100830001446A1F13200AC548C548454521CD2B2F0
:100840000A2AF8D30A210170FF2747708770C77002
:10085000744878A15038079A06F0F2F8714902A856
:10086000503905F06FFD6F4802A9823805F06AFD26
:100870006C486946823805F065FD6A483146823821
:1008800005F060FD67484146823805F05BFD65482C
:1008900003A9823805F056FD2F706F706149AF7063
:1008A000EC7028392C71A1F15A0005F04BFD5D4820
:1008B0008238FFF7B5FE08B0BDE8F08170B50020C2
:1008C000FFF7D4FE5AA0FFF7BDFE56480D2259A1EE
:1008D000823806F0B5F853488238FFF7B3FE59A0C6
:1008E000FFF7B0FE594C2021204602F017FE0246C9
:1008F0004C4850A1823806F0A3F84A488238FFF7E6
:10090000A1FE1021204602F009FE0246454849A1F9
:10091000823806F095F843488238FFF793FE4C4D35
:100920008021284602F0FAFD02463E4841A1823865
:1009300006F086F83B488238FFF784FE40212846BF
:1009400002F0ECFD024637483AA1823806F078F80A
:1009500034488238FFF776FE4FF40041204602F01B
:10096000DDFD02462F4833A1823806F069F82D4894
:100970008238FFF767FE4FF48041204602F0CEFD3B
:10098000024628482BA1823806F05AF825488238BA
:10099000FFF758FE4FF40051204602F0BFFD02461B
:1009A000204824A1823806F04BF81E488238FFF711
:1009B00049FE4021274802F0B1FD024619481DA119
:1009C000823806F03DF817488238FFF73BFE1CA03E
:1009D000FFF738FEFF20FFF749FEFF20FFF746FE36
:1009E000BDE87040FF2041E6FEB51BA10646D1E9F7
:1009F0000001CDE900011AA000210A4D0068283D40
:100A0000A5F1280202900C46A2F132006C54545415
:100A10004454491CC9B23229F8D30A210170FF2776
:100A200047701FE026020020B860024000500040DE
:100A300074000000256400002E7478743D000000EE
:100A4000220000002E7478743D220000000802404D
:100A500000000240001002402E76616C3D00000054
:100A60006A0000008770C7700022AFF23801FE48AC
:100A700005F0E6FFFC4902A805F064FCFA4802A96B
:100A8000323805F05FFCF8486946323805F05AFC08
:100A90003246AFF26001F44805F0D2FFF249A1F10D
:100AA000320005F04FFC2F706F70EF49AF70EC70A3
:100AB00028312C71A1F15A0005F044FCEA48323883
:100AC000FFF7AEFDFEBD2DE9FC4101211F2002F024
:100AD0008DFE01248DF8044000268DF806604FF647
:100AE000FF758DF80740032700958DF8057069465E
:100AF000DE4802F0ADFC8DF804408DF806608DF8FC
:100B0000074000958DF805706946D94802F0A0FCB1
:100B10008DF804408DF806608DF8074000958DF83B
:100B200005706946D34802F093FCBDE8FC817CB5B2
:100B300001217E2002F05AFE0024C0208DF80440DE
:100B4000012500908DF8075002268DF80560694652
:100B5000C94802F07DFC06208DF8044000908DF815
:100B600007508DF805606946C04802F071FC04200A
:100B70008DF8044000908DF807508DF805606946A7
:100B8000BB4802F065FC7CBD1FB54FF4E06002F08D
:100B9000A7FB36208DF80C0000248DF80D408DF851
:100BA0000E4001208DF80F0003A802F09EFB0121EA
:100BB000102002F039FE5320ADF80000ADF80840D7
:100BC000ADF8024040F2E730AC4C01906946204657
:100BD00003F09AFA0121204603F03FFE012211465C
:100BE000204603F01AFE0021204603F0CFFA01212F
:100BF000204603F001FB1FBD1FB54FF4E06002F07B
:100C00006FFB37208DF80C0000248DF80D408DF817
:100C10000E4001208DF80F0003A802F066FB0121B1
:100C2000202002F001FE4FF4FA70ADF80000ADF89C
:100C30000840ADF8024040F2E730914C019069461F
:100C4000204603F061FA0121204603F006FE01224E
:100C50001146204603F0E1FD0021204603F096FAFC
:100C60000121204603F0C8FA1FBD70B58AB00121EA
:100C7000022002F0E3FD01210C2002F0B7FD7C4EC2
:100C800003220621304602F06CFC03220721304685
:100C900002F067FC03220821304602F062FC0322C6
:100CA0000921304602F05DFC4FF47070059002207F
:100CB0008DF8180003208DF8190000248DF81A40D3
:100CC00001258DF81B5005A9304602F0C1FBA42078
:100CD000ADF81C0040F6B83008902802694EADF817
:100CE0002400ADF81E4007A9304603F00DFA60203D
:100CF000ADF80000ADF802500294ADF80C400121AF
:100D0000304603F079FA0021304603F03FFA694695
:100D1000304603F07BFA6946304603F0A3FA694691
:100D2000304603F0DBFA6946304603F011FB01213F
:100D3000304603F053FD0AB070BD70B58AB0012192
:100D4000082002F071FD0121084602F04FFD4A4ED5
:100D500002220021304602F004FC0222012130462A
:100D600002F0FFFB02221146304602F0FAFB02229B
:100D70000321304602F0F5FB0F20059002208DF88C
:100D8000180003208DF8190000248DF81A40012561
:100D90008DF81B5005A9304602F05AFBBA20ADF879
:100DA0001C0042F21070384E0890ADF82440ADF8A7
:100DB0001E4007A9304603F0A7F96020ADF80000F7
:100DC000ADF802500294ADF80C400121304603F01A
:100DD00013FA0021304603F0D9F96946304603F092
:100DE00015FA6946304603F03DFA6946304603F08D
:100DF00075FA6946304603F0ABFA0121304603F03C
:100E0000EDFC98E770B58AB00121042002F00CFDDA
:100E100001210D2002F0EAFC164E02220C21304680
:100E200002F09FFB02220D21304602F09AFB0222C3
:100E30000E21304602F095FB02220F21304602F0CF
:100E400090FB4FF47040059002208DF818000320AD
:100E50008DF8190000248DF81A4001258DF81B50DB
:100E600005A9304612E00000D6010020000402402F
:100E700000080240000C0240000002400010004048
:100E80000014004000040140000C004002F0E0FAB1
:100E9000A420ADF81C0040F6B83008902802ADF848
:100EA0002400ADF81E4007A9FE4E304603F02CF991
:100EB0006020ADF80000ADF802500294ADF80C408F
:100EC0000121304603F098F90021304603F05EF925
:100ED0006946304603F09AF96946304603F0C2F994
:100EE0006946304603F0FAF96946304603F030FAB5
:100EF00021E770B5012188B0080402F09FFC0121B0
:100F0000084602F073FCE84E03221146304602F018
:100F100028FB03220221304602F023FB0C20009024
:100F200002208DF8040003208DF8050000248DF8C0
:100F3000064001258DF807506946304602F088FAD0
:100F40004FF6FF70D94EADF808400390ADF8104051
:100F5000ADF80A4002A9304603F0D6F80420ADF8F7
:100F60001400C820ADF81C00ADF81640ADF81850BC
:100F700005A9304603F082FBCD4C00231A4603211D
:100F8000204603F0E4FC0121204603F066FC012228
:100F90001146204603F041FC0121304603F02CF9B4
:100FA0000021204603F0F2F82BE42DE9F04701215F
:100FB0008AB0084602F038FC0121022002F034FC1D
:100FC0000121032002F012FCDFF8DC9201220F2144
:100FD000484602F0C6FADFF8DC82012203214046CF
:100FE00002F0BFFA02220421404602F0BAFA0222BD
:100FF0000521404602F0B5FA02268DF80460032769
:1010000038208DF80570002400908DF806400125E9
:101010008DF807506946404602F01AFA8DF80460D0
:10102000E8038DF8057000908DF806408DF80750A4
:101030006946484602F00CFA4FF6FF70ADF80C40D6
:1010400004904FF08049ADF81440ADF80E4003A96C
:10105000484603F059F8DFF860A203A9504603F0B0
:1010600053F84FF004081420ADF81880ADF82000B4
:10107000ADF81A60ADF81C5006A9484603F0FEFA18
:1010800006A9504603F0FAFA02231A4603214846FD
:1010900003F05DFC02231A460321504603F057FC7F
:1010A0000121484603F0D9FB0121504603F0D5FB4E
:1010B00001221146484603F0B0FB0122114650467A
:1010C00003F0ABFB0121484603F096F8012150469E
:1010D00003F092F80021484603F058F800215046EA
:1010E00003F054F8780202F0FBF81D208DF8080098
:1010F0008DF809708DF80A408DF80B5002A802F0A7
:10110000F4F81C208DF808008DF809808DF80A404D
:101110008DF80B5002A802F0E8F80AB0BDE8F0879D
:1011200070B501218AB0084602F088FB0121102029
:1011300002F05CFB4FF42060009002208DF8040068
:1011400003208DF8050000245C4E8DF80640012533
:101150008DF807506946304602F07AF901220921DC
:10116000304602F0FEF901220B21304602F0F9F977
:101170004FF6FF704D4EADF808400390ADF81040AB
:10118000ADF80A4002A9304602F0BEFF0420ADF8D7
:1011900014000A20ADF81C00ADF81640ADF8185048
:1011A00005A9304603F06AFA00231A4603213046A7
:1011B00003F0CDFB0121304603F04FFB0122114625
:1011C000304603F02AFB0121304603F046FB0122A2
:1011D0001146304603F021FB0121304603F00CF8A4
:1011E0000021304602F0D2FF4FF4C06002F078F8E0
:1011F00019208DF820008DF821508DF822408DF8AF
:10120000235008A802F071F895E52DE9F0418AB065
:101210000121042002F008FB0121082002F0E6FA77
:101220004FF44050022600908DF8046003208DF8A2
:1012300005000024224F8DF8064001258DF8075047
:101240006946384602F004F94FF6FF70DFF8548023
:10125000ADF808400390ADF81040ADF80A4002A97F
:10126000404602F051FF02220C21384602F079F983
:1012700002220D21384602F074F90427C820ADF887
:101280001470ADF81C00ADF81660ADF8185005A943
:10129000404603F0F3F902231A460321404603F0C7
:1012A00056FB0FE000080040000002400000014033
:1012B00000400140000402400004004000100240D1
:1012C000000C02400121404603F0C7FA01221146FA
:1012D000404603F0A2FA0121404602F08DFF42F29F
:1012E0001071404602F052FFFE480480A8F80050FA
:1012F0004FF4C06001F0F4FF1E208DF820008DF83F
:1013000021708DF822408DF8235008A801F0EDFFE0
:101310000AB0BDE8F0812DE9F0418AB00121082032
:1013200002F082FA0121084602F060FA0320022648
:101330008DF804608DF805000024EB4F00908DF8C7
:10134000064001258DF807506946384602F080F8BE
:101350004FF6FF70DFF89483ADF808400390ADF8C6
:101360001040ADF80A4002A9404602F0CDFE02222C
:101370000021384602F0F5F802220121384602F039
:10138000F0F80427C820ADF81470ADF81C00ADF8D3
:101390001660ADF8185005A9404603F06FF9022316
:1013A0001A460321404603F0D2FA0121404603F0D9
:1013B00054FA01221146404603F02FFA012140461B
:1013C00002F01AFF0021404602F0E0FEC748143048
:1013D0000480A8F800504FF4C06001F081FF322073
:1013E0008DF820008DF821708DF822408DF8235063
:1013F00008A801F07AFF8BE72DE9F0419CB00121AC
:10140000BB4802F0F3F901210D02284602F016FA5A
:10141000B8480024CDE90040B74802A94FF00808B9
:1014200081E81101A800CDE9054040000790800047
:10143000CDE908050AA90001012581E83100AF4E78
:101440000D94694630460E9402F0C8FC01213046E6
:1014500002F0FDFC03273C268DF8587015968DF898
:101460005B4015A9A04801F0F3FF8DF85870159660
:101470008DF85B4015A9A24801F0EAFF3804CDE9D8
:101480001740B001CDE9194017A802F0ACFA119449
:10149000129413942806974C0F908DF840504C3CB2
:1014A0008DF841508DF850800FA9204602F070FA57
:1014B000042301220221204602F0DFFA0423022243
:1014C0000321204602F0D9FA0423032219462046BC
:1014D00002F0D3FA04231A460521204602F0CDFA81
:1014E000042305220C21204602F0C7FA0423062219
:1014F0000D21204602F0C1FA042307220E212046C6
:1015000002F0BBFA042308220F21204602F0B5FAAC
:101510000121204602F02EFB0121204602F020FB93
:101520000121204602F076FA204602F0E0FA1CB0D3
:10153000EFE608B54FF4E06001F0D2FE25208DF80B
:10154000000000208DF801008DF8020001208DF8C8
:101550000300684601F0C9FE08BD70B5054696B0A7
:101560000121102002F06AF90121084602F03EF93B
:101570000121880502F03AF94FF4C060139002206F
:101580008DF8500000248DF852408DF85340564E8F
:101590008DF8510013A9304601F05AFF07220921A6
:1015A000304601F0DEFF07220A21304601F0D9FF64
:1015B0000F95ADF844400C20524DADF84040ADF8C9
:1015C0004600ADF84240ADF848400FA9284603F068
:1015D00034FA0121284603F0A1FA4FF4A06001F08B
:1015E0007FFE3A208DF854008DF855408DF8564016
:1015F00001208DF8570015A801F077FE3F4E3036D8
:10160000304602F063FB4FF0006000903A486946B4
:101610001030CDE902040A200490281D0190001525
:10162000CDE905408010CDE9084040020A90042031
:101630000B9007940320CDE90C0430460E9402F081
:10164000CDFB01224021284603F0FFFA01221021A0
:10165000304602F071FC0121304602F0F8FB16B072
:1016600070BDF0B50646012197B0480502F0BEF8FE
:1016700001214D04284602F0D7F80121082002F08C
:10168000B5F86020139002208DF8500000248DF8EA
:1016900052408DF853401C4F8DF8510013A9384625
:1016A00001F0D6FE07220521384601F05AFF072235
:1016B0000621384601F055FF0F96ADF844400C2046
:1016C000124EADF84040ADF84600ADF84240ADF8DE
:1016D00048400FA9304603F0B0F90121304603F02D
:1016E0001DFA15E01408004000000240000C004004
:1016F000050040004C2001405802002010640240C8
:101700000008024000100140000C0240004400406C
:101710004FF4A06001F0E4FD11208DF854008DF825
:1017200055408DF8564001208DF8570015A801F05E
:10173000DCFDF94F384602F0C9FAA80200904020BB
:101740000390F64802903C200490301D0190001553
:10175000CDE905408010CDE908400420CDE90A50CC
:1017600007940320CDE90C04694638460E9402F034
:1017700035FB01228021304603F067FA01228021E7
:10178000304603F062FA01221021384602F0D4FB01
:101790000121384602F05BFB17B0F0BD70B505467D
:1017A000012196B0880402F03FF80121082002F0E0
:1017B0001DF80121480502F019F84FF4407013900C
:1017C00002208DF8500000248DF852408DF85340CF
:1017D000D34E8DF8510013A9304601F039FE07228F
:1017E0000821304601F0BDFE07220921304601F0F4
:1017F000B8FE0F95CB4EADF84040ADF844400C25F7
:10180000ADF84240ADF84840ADF846500FA930461B
:1018100003F013F90121304603F080F94FF4A06082
:1018200001F05EFD8DF854508DF855408DF856400E
:1018300001208DF8570015A801F057FDB64D783DF1
:10184000284602F043FA4FF000600090B648CDE918
:10185000020408200490301D01900015CDE90540D8
:101860008010CDE9084040020A9004200B900794B4
:101870000320CDE90C04694628460E9402F0AEFA26
:1018800001224021304603F0E0F901224021304698
:1018900003F0DBF901221021284602F04DFB012163
:1018A000284602F0D4FADAE6F0B50646012197B0F0
:1018B000C80401F0B9FF0121084601F097FF01219A
:1018C000480501F093FF02208DF8500000248DF8A8
:1018D00052408DF85340954F03258DF851001395D4
:1018E00013A9384601F0B4FD08220021384601F062
:1018F00038FE08220121384601F033FE0F96ADF87C
:1019000044400C208A4EADF84040ADF84600ADF89A
:101910004240ADF848400FA9304603F08EF801214F
:10192000304603F0FBF84FF4A06001F0D9FC0D2025
:101930008DF854008DF855408DF8564001208DF8F3
:10194000570015A801F0D1FC734F603F384602F0F4
:10195000BDF978050090744869460F38CDE9020456
:1019600008200490301D01900015CDE9054080103D
:10197000CDE90840400207940A900420CDE90C54B8
:101980000B9038460E9402F029FA0122402130468D
:1019900003F05BF901224021304603F056F90122A1
:1019A0001021384602F0C8FA0121384602F04FFAF9
:1019B000F2E62DE9F0418046012196B0480501F09C
:1019C00015FF0121080501F02FFF01210C2001F076
:1019D0000DFF02258DF8405000248DF84240504FF5
:1019E00004268DF843400F968DF841500FA93846D4
:1019F00001F02EFD8DF840508DF842408DF84340A7
:101A0000E8028DF841504B4D0F900FA9284601F088
:101A10001FFD08220221384601F0A3FD08220C21F7
:101A2000284601F09EFD4FF4A06001F059FC2F20E4
:101A30008DF8540005208DF855008DF856000120D2
:101A40008DF8570015A801F050FCADF84C400C2063
:101A5000394DADF84840ADF84E00CDF84480ADF8B2
:101A60004A40ADF8504011A9284602F0E6FF012196
:101A7000284603F053F8284F1837384602F026F965
:101A80007006009040200390274869466038029015
:101A900031200490281D01900015CDE905408010EB
:101AA000CDE908404002CDE90A0607940320CDE9BC
:101AB0000C0438460E9402F091F901228021284648
:101AC00003F0C3F801221021384602F035FA012153
:101AD000384602F0BCF916B01BE410B5012810D04E
:101AE00003282DD0042836D0052809D1124C2046D1
:101AF00003F03AF84021204603F0C7F80028F9D057
:101B000010BD0E4C204603F02FF84021204603F074
:101B1000BCF80028F9D010BDA0600240D800002019
:101B2000000C0240004800408602002000000240F5
:101B3000004C0040000802400050004000100140EE
:101B4000FE4C204603F010F84021204603F09DF89B
:101B50000028F9D0DFE7FA4C204603F005F84021D1
:101B6000204603F092F80028F9D0D4E701B581B0FF
:101B7000019800EBC00040000090002801D0401EFA
:101B8000FAE70CBD01B581B044F2506101984843B9
:101B90000090002801D0401EFAE70CBD70B5E94D59
:101BA00000206870044661210120FFF796FF322073
:101BB000FFF7E8FF641C022CF5D3012068707A203F
:101BC000287070BD70B5DF4D0020E87004466121BB
:101BD0000320FFF782FF3220FFF7D4FF641C022CA2
:101BE000F5D30120E8707A20A87070BD0121D64895
:101BF00002F02DB910B5401A029CE41A6043511A44
:101C000090FBF1F0184486E710B510EE100A04F0CE
:101C100051FD9FEDCE1B53EC112B04F059FC04F049
:101C20005CFD00EE100A76E710B510EE100A04F025
:101C300041FD9FEDC81B53EC112B04F049FC04F04F
:101C40004CFD00EE100A66E790FBF1F010B5400085
:101C500004F01FFD9FEDC11B53EC112B04F038FC69
:101C600004F03BFD00EE100A55E710B5FFF7ECFF5E
:101C7000BDE81040C8E7904200DD1046884200DA17
:101C800008467047AF488030C06BAE49C8617047A6
:101C9000AC498031C96BAB4AD269891A00D5494237
:101CA000814201DD01207047002070472DE9F04797
:101CB0000025AC4E074601244FF400594FF48048EC
:101CC0004FF4805A00224146304601F03FFC10207C
:101CD000FFF74CFF274201D0012200E000224946D5
:101CE000304601F033FC01224146304601F02EFC23
:101CF0001020FFF73BFF5146304601F00FFC00B1CA
:101D00002543600010F0FF04DCD12846BDE8F087D1
:101D100070B5944E4FF4004500222946304601F03C
:101D200015FC1020FFF722FF0120FFF7BFFF422024
:101D3000FFF7BCFFFF20FFF7B9FFFF20FFF7B6FF5B
:101D4000894C2070FF20FFF7B1FF6070FF20FFF784
:101D5000ADFFA070FF20FFF7A9FFE070FF20FFF7A5
:101D6000A5FF2071FF20FFF7A1FF607129463046D3
:101D7000BDE87040012201F0E9BB70B5794E4FF427
:101D8000004500222946304601F0E0FB1020FFF715
:101D9000EDFE0120FFF78AFF4220FFF787FF044690
:101DA00001222946304601F0D1FB1020FFF7DEFE6C
:101DB000204670BD634A00211162C2796A490D2A2A
:101DC00009D0FF20087048708870C8700871487189
:101DD00088710020704702780A7042784A708278D1
:101DE0008A70C278CA7002790A7142794A71807920
:101DF0008871012070475C4852490278FF2A05D15A
:101E00004278FF2A02D18278FF2A09D00A6A531C3D
:101E10000B62C82A03DDFF21017041708170704799
:101E20000020086270475048807970474E4800781B
:101E3000400601D401207047002070474A480078CE
:101E4000800701D4012070470020704770B53D4BDA
:101E50000125002693F85440C433002803D004DD44
:101E6000D8709E7005E0DC7003E0C0F10000D8700F
:101E70009D70002903D004DDD9719D7105E0DC71EE
:101E800003E0C1F10000D8719E71002A03D004DD87
:101E9000DA729D7270BDDC7270BDC2F10000D87242
:101EA0009E7270BD30493C39C870C871C8727047A5
:101EB00024490120086570472B483C38C178032924
:101EC00007D2C179032904D2C07A032801D20120A4
:101ED0007047002070471B48C06FA0F5EA413039B9
:101EE00001D0012070470020704757E61548B0F92F
:101EF0000400404270471348B5EEC00AD0ED0A0A0C
:101F0000F1EE10FA02D230EE600A01E030EE200A63
:101F1000BDEEC00A10EE100A704710B5041E2DED7C
:101F2000048B08489FED118B806E2ED032DA04F0BE
:101F3000B0FB41EC190B20461CE0000000480040BB
:101F4000004C004014000020A0600240E5BF631A6E
:101F5000DCA54C40849E52A246DF913FEA2E4454B9
:101F6000FB210940000C0240140100209A99999924
:101F70009999B93F04F08DFB53EC182B04F0A8FAA3
:101F800053EC182B04F09EFA13E09FEDFE0ABDEC13
:101F9000048BC0E504F07DFB41EC190B204604F0F6
:101FA00078FB53EC182B04F093FA53EC182B04F045
:101FB000E8F953EC192B04F0FDFA04F08EFB00EE67
:101FC000100AE4E7B5EEC00AF1EE10FA01DAB1EE5C
:101FD000400A7047002800DA40427047EA4991ED14
:101FE000120AD1ED131AF1EE400A80EEA11A00EEAA
:101FF000900AF8EEE00A01EE200ABDEEC00A10EEEB
:10200000100A7047F0EE401A9FEDE00AF5EEC01A94
:10201000F1EE10FA01D2F1EE611AF5EEC00AF1EE1E
:1020200010FA01D2F1EE600AB5EEC01AF1EE10FA24
:1020300001D2B1EE411AF4EEC01AF1EE10FA01DD50
:10204000B0EE610AF4EEC00AF1EE10FA01DDB0EE76
:10205000600AB4EEC01AF1EE10FA01DDB0EE410AEA
:102060007047C948806E7047C748803040697047E4
:1020700070B5C54D2DED048BB0EE408A05F180049E
:10208000E86FA0F5EA41303975D0A268E169D4ED76
:10209000030A891A401A00EE100A95ED0D1A2069FC
:1020A000B8EEC00A00EEC10AD5ED0C0AC0EE208AD7
:1020B00004F000FB95ED170A41EC190B20EE280AFD
:1020C00010EE100A04F0F6FA41EC100B04F048FF91
:1020D00051EC100B81F0004153EC192B04F0F2F994
:1020E00004F0FBFAA062206904F0E4FA95ED0E0A10
:1020F000D5ED170A41EC190B38EE800A20EE200AC4
:1021000010EE100A04F0D6FA41EC100B04F028FF90
:1021100053EC192B51EC100B04F0D4F904F0DDFA58
:10212000E06295ED0F0AD5ED170A38EE800A20EE31
:10213000200A10EE100A04F0BDFA41EC100B04F076
:102140000FFF51EC100B04F0C8FA00EE100AB1EECC
:10215000400A84ED0C0A00BFB5EEC08AF1EE10FA19
:1021600038D0686E80B1012814D0022819D0032815
:1021700030D123E0FFE79FED830A84ED0C0A84ED64
:102180000B0A84ED0A0AE7E794ED0A0A30EE480AE2
:1021900084ED0A0A94ED0B0A30EE480A84ED0B0A2E
:1021A00005E094ED0A0A30EE480A84ED0A0A94ED3F
:1021B0000C0A30EE480A84ED0C0A0BE094ED0A0A92
:1021C00030EE480A84ED0A0A94ED0B0A30EE480A14
:1021D00084ED0B0A283494EC030AFFF713FFD5EDC6
:1021E000090AF8EEE00A80EE801ABDEEC10A10EE90
:1021F000100A2867A96E814200DDA86601202866C2
:10220000BDEC048B70BD604900220028CA66486797
:1022100011D19FED5C0A01F180008A6680ED040A0D
:1022200047F23053CB67036080ED030A4A66426091
:1022300042610A651CE7704753485349803090ED6E
:10224000030AB5EEC00AF1EE10FA04D14A6E12B9D3
:102250004268002A09D09FED4B0A002280ED030A54
:102260004A664260C169816002E770474648C0ED36
:10227000120A80ED130A7047434A30B4D46F02F15A
:102280008003844209D1D46E8C4206D1D3ED040A76
:10229000F4EE400AF1EE10FA0FD0D166916E09B952
:1022A00005219166D969996083ED040AD067002001
:1022B000906793ED030A30BCDAE630BC7047324BCE
:1022C00030B48033304A5C68844209D1D3ED030ACC
:1022D000F4EE400AF1EE10FA02D1546E8C42ECD0CA
:1022E000D56F47F23054A54219D13225D566052560
:1022F0009566A04213DAB5EEC00A0124F1EE10FA99
:102300005C6102DDDC69844207DCB5EEC00AF1EEF7
:1023100010FA04D2DC69844201DAB1EE400A586056
:10232000516683ED030A0020906730BCA0E6C4E745
:10233000014647F23050C2E79FED120A9CE710B504
:10234000114C01462DED028B8034F0EE608AD4ED05
:10235000000AB0EE418AF8EEE00AF4EE400AF1EE2F
:1023600010FA0CD10848C06E884208D1D4ED010A99
:10237000F8EEE00AF4EE680AF1EE10FA4FD0FDEE46
:10238000C00A05E000000000140000206F12833A2C
:10239000C4ED000AD4ED070AF8EEE00A30EE600A58
:1023A000BDEEC00A10EE100A1FED0A0AFFF764FF27
:1023B00094ED070AF8EEC00A78EEE00AFDEEE00AB6
:1023C00010EE900A002800DA4042B8EEC00A6428F5
:1023D00018DDF4EEC08AF1EE10FA01DCB1EE488AA5
:1023E00018EE100A04F066F904F077F9FDEEE80A39
:1023F000BDEC028B00EE100ABDE81040002110EE8B
:10240000900A5CE738EEC00A10EE100A04F052F9A8
:102410009FEDFE1B53EC112B04F05AF8E4E7BDECE2
:10242000028B10E4FB4910B5486901282ADDCA690E
:102430004868801AFFF7CEFD052809DA4869421C72
:102440004A61B0F57A7F1DDDBDE810400020DAE674
:10245000F04A0520803A4B69D066B3F5FA7F906662
:1024600002DD40F2F51048614A68C869904202DD19
:10247000BFEE000A01E0B7EE000A81ED030ABDE8F5
:102480001040F5E510BD70B5E24991ED040AB5EED6
:10249000C00AF1EE10FA73D1A1F18002936E002B05
:1024A0006ED0486847F23054A04269DA91ED030AD1
:1024B000B5EEC00AF1EE10FA7DD0D56FA54260D11D
:1024C000B5EEC00A1346F1EE10FA5B6C03DDCD6980
:1024D000C41AAC4208DBB5EEC00AF1EE10FA17D20E
:1024E000CC690344A34213DD4B69032B48DACB6963
:1024F000C01AFFF76FFD0A2848680ADA88610020D1
:1025000090661FED600AD06681ED030A02204861E3
:1025100079E092ED1A0AD1ED030ACB69B8EEC00A50
:10252000984260EE200A92ED110AB8EEC01A80EED1
:10253000810A0FDDFFF746FD4868C969401AFFF7B9
:1025400049FD00EE900AB8EEE01AD2ED0B0A40EE1B
:10255000010A0EE0FFF736FD4868C969401AFFF727
:1025600039FD00EE900AB8EEE01AD2ED0B0A50EEFB
:10257000410A92ED1A0AB8EEC01A80EE810A42E0D2
:1025800046E0A44AB5EEC00A803AD2ED100AF1EE58
:1025900010FA18DD01EE100AF8EEC11A01EE103A39
:1025A000B8EEC11A41EE401AB8EEE01A71EEC11A47
:1025B00091ED071A00E029E0B8EEC11AF4EEC11A55
:1025C000F1EE10FA1BD3B5EEC00AF1EE10FA1AD2F2
:1025D00001EE100AF8EEE00AF8EEC11A01EE103A28
:1025E000B8EEC11A41EE401A31EEA01AD1ED070A39
:1025F000F8EEE00AB4EEE01AF1EE10FA03DDC96974
:10260000401AFFF78AFCBDE8704031E58868F6E7BC
:1026100070BD8048A0F180014269022A0CDA1FEDEA
:10262000A70A002380ED040A80ED030A47F2305226
:102630004B66CA67C0E900238B6F76485B1C8B67CB
:1026400080388A6D406D934202DB8A67096D01B163
:1026500028E40020FCE76F4A803A936F5B1C936785
:10266000834204DD906E08449066002090677047B6
:1026700070B5FFF73BFC674DE861FFF7D3FEA5F1AE
:1026800080044FF0FF31E26EA06E002A0BDD904215
:102690000ED006DA216F88420ADAFFF79FFC01218B
:1026A00004E0686A02E0002831DD606FFFF7D3FFC5
:1026B000D5E90701814203D0FFF7E5FEE86928620A
:1026C000206E002826D094ED1A0AD5ED0C0AB8EE3B
:1026D000C00A20EE200AFFF70EFC94ED1A0AD5ED91
:1026E0000B0A0246B8EEC00A20EE200AFFF703FCF0
:1026F00094ED1A0AD5ED0A0A0146B8EEC00A20EE9A
:10270000200AFFF7F8FBBDE87040FFF79FBBBDE86C
:1027100070407EE770BD404BDA880021D888821A6D
:1027200000D55242322A01DA491C89B202460229F6
:10273000F4D3002800DA404270473748032138308C
:10274000B0EE080A01604FF46171416080ED040A47
:1027500002213222C0E9021240F2C312C0E905216F
:1027600000224FF41673C261C0E908310121C0E9AB
:102770000A127047401A00D54042052801DA0120AC
:1027800070470020704700B5FFF7C5FF224B024697
:1027900038331146186AFFF7EDFF1E49443108B17E
:1027A000187A07E0186A904201DD012000E000205D
:1027B0008874187BC87400BD17483830D0ED010A02
:1027C00090ED041AF8EEE00A40EE410ABDEEE00A90
:1027D00010EE100A704700B5FFF7EEFF0E493831D2
:1027E000086200BD7047704770472DE9F041DFF87F
:1027F0002C80404601F0CEFC064E803E7169642775
:1028000040EA014090FBF7F4002509E07B14AE4755
:10281000E17A743F9400002058020020000C004030
:10282000404601F0B7FC716940EA014090FBF7F0C7
:10283000011B00D54942322900DA6D1C0446022DE5
:10284000E3DBBDE8F0812DE9F041DFF8008440468C
:1028500001F0A0FCFE4E31690A2740EA014090FBDE
:10286000F7F40025404601F095FC316940EA01404B
:1028700090FBF7F0011B00D54942322901DA6D1CAB
:10288000ADB20446022DEDD3DBE710B5F248F34CB0
:10289000F049C0E9001400214FF4E172C0E90212CE
:1028A00002223223C0E90423C0E90612C0E9081459
:1028B000C0E90A21016334306FF009040460E84C78
:1028C000C0E901414FF4D274C460C0E90423C0E9F7
:1028D00006126FF41773C0E90813C0E90A210163F7
:1028E00010BD401A00D54042142801DA012070477B
:1028F000002070472DE9F047D74ED54DC435307DC7
:10290000E8760027AF76D24C4FF48058DFF8549326
:10291000A76102E0012003F0A4F94146484600F017
:10292000FDFD0028F6D1A069401CA0613228F4DB2F
:10293000307CE876CC4807606761052003F091F9A8
:10294000307DE8760120A876A76102E0012003F03F
:1029500088F9FFF74AFF71688842F7DCA069401CDC
:10296000A0613228F5DB307CE876BDE8F087BA4913
:102970000A684243C86892FBF0F0704710B5FFF751
:1029800034FFB54B02461146586AFFF7AAFFB0491B
:10299000C43108B1187C07E0586A904201DD00207C
:1029A00000E001208876187DC87610BD00B5FFF7DD
:1029B000DEFFA949486200BDA44900202431086017
:1029C000A34908617047A44934310A684243C86882
:1029D00092FBF0F0704710B5FFF735FF9E4B0246B3
:1029E00034331146586AFFF77CFF9949C43108B166
:1029F000187C07E0586A904201DD002000E00120C9
:102A00008875187DC87510BD00B5FFF7DCFF9249C9
:102A10003431486200BD2DE9F0478F4E8C4D34367D
:102A2000C435307DE8754FF0000885F81680884C75
:102A30008C4F4FF48069C4F8188002E0012003F045
:102A400010F94946384600F069FD0028F6D1A06922
:102A5000401CA0613228F4DB307CE875FFF7ACFF46
:102A6000307DE8750120A875C4F8188002E00120C7
:102A700003F0F7F88021384600F050FD0028F6D129
:102A8000A069401CA0613228F4DB307CE8756CE75B
:102A900070B505460C46684301FB04002DED028B22
:102AA00003F0F7FD41EC100B04F0BEFA51EC100BF3
:102AB00003F013FE664E80367063284603F0E9FD8E
:102AC00041EC180B204603F0E4FD41EC100BB0EE96
:102AD000481AF0EE681A04F04BF99FED641B51ECB4
:102AE000100B53EC112B03F0F3FC03F0F6FDB06375
:102AF000BDEC028B70BD10B5FFF7CAFF544B80339D
:102B000093ED0D0ABDEEC00A10EE100AFFF74EFF5E
:102B100093ED0E0ABDE810405DE64F4A3432C2E93B
:102B20000901704738B54C4C0D463434616800914A
:102B3000D4E902122368FFF75DF8C4E9090538BD3E
:102B40002DE9F14F96B0002014908DF800008DF81B
:102B5000280041481699474A474E6838474BDFF8E6
:102B600004813B4C64254FF400494FF480474FF4F7
:102B7000806A4FF4805B112966D2DFE801F0092AF0
:102B80003034383C4753CED9E5E9F2FAFFEEED0098
:102B90000221104600F0C2FC68B100224C464946B2
:102BA000304600F0D3FC2146304600F0C1FC01461F
:102BB000002233A0E9E001224C464946304600F0AD
:102BC000C5FC2146304600F0B3FC0146002234A08B
:102BD000DBE01F4801228030C16939A0D5E00189BE
:102BE000022239A0D1E0418903223BA0CDE08189B6
:102BF00004223CA0C9E0184601F0CCFAA1680522E5
:102C000040EA014090FBF5F13AA0BEE04FF0804071
:102C100001F0C0FAE168062240EA014090FBF5F1BC
:102C200037A0B2E0184601F0B5FAA16840EA0140C9
:102C300090FBF5F64FF0804001F0ACFAE16840EA15
:102C4000014090FBF5F063E0A1E0000000040040CB
:102C500014000020A8E4FFFFC002002044FDFFFF95
:102C600050FBFFFF00100240240C0040F8C1631A23
:102C7000DCA54C4000040240000802400000014076
:102C8000524F424F5420322044414E472043484146
:102C9000592053414E2058414E483A2020200000F0
:102CA000524F424F5420322044414E472043484126
:102CB000592053414E20444F3A202020000000006C
:102CC000494D553A000000004C415A4552204652A9
:102CD0004F4E543A000000004C415A4552204C459A
:102CE00046543A004C415A45522052494748543ABA
:102CF00000000000454E205748204C4546543A00FD
:102D0000454E2057482052494748543A0000000099
:102D100031180722FAA0FDF717FDFC4801F03AFA36
:102D20006169082240EA014090FBF5F1F8A02CE02F
:102D3000FA4801F02FFA216940EA01400A2190FB8C
:102D4000F1F10922F6A020E0C1880A22F7A01CE0D8
:102D500081880B22F8A018E0F3E01BE00EE008E009
:102D6000FFE78021404600F0D9FB01460C22F5A088
:102D70000BE0F7480D22016BF6A006E0394640460D
:102D800000F0CCFB01460E22F6A0FDF7DDFC17B0EB
:102D9000BDE8F08F0121404600F0C0FB0246F4A1DF
:102DA000684603F04DFE69460AA803F0CBFA0221FB
:102DB000404600F0B3FB0246EDA1684603F040FE3A
:102DC00069460AA803F0BEFA3946404600F0A6FB61
:102DD0000246E7A1684603F033FE69460AA803F0FD
:102DE000B1FA4946404600F099FB0246E0A1684628
:102DF00003F026FE69460AA803F0A4FA082140461B
:102E000000F08CFB0246DAA1684603F019FE694621
:102E10000AA803F097FA4FF48071404600F07EFB59
:102E20000246D3A1684603F00BFE69460AA803F0E8
:102E300089FA0421404600F071FB0246CCA16846A5
:102E400003F0FEFD69460AA803F07CFA80214046A3
:102E500000F064FB0246C6A1684603F0F1FD694636
:102E60000AA803F06FFA4021404600F057FB0246E3
:102E7000BFA1684603F0E4FD69460AA803F062FAC0
:102E80005146404600F04AFB0246B9A1684603F0AD
:102E9000D7FD69460AA803F055FA5946404600F0A6
:102EA0003DFB0246B2A1684603F0CAFD69460AA886
:102EB00003F048FA4FF400542146404600F02EFB40
:102EC0000246ABA1684603F0BBFD69460AA803F0C1
:102ED00039FA2021404600F021FB0246A4A16846B1
:102EE00003F0AEFD69460AA803F02CFA1021404613
:102EF00000F014FB02469EA1684603F0A1FD69465E
:102F00000AA803F01FFA2146304600F007FB0246EC
:102F100097A1684603F094FD69460AA803F012FAE7
:102F20003946304600F0FAFA024691A1684603F0AD
:102F300087FD69460AA803F005FA10220AA98DA0A8
:102F4000DBE0544651469046104600F0F1FA024646
:102F500087A1684603F074FD69460AA803F0F2F9F8
:102F60008021304600F0E4FA024681A1684603F071
:102F700067FD69460AA803F0E5F94FF40071304691
:102F800000F0D6FA02467AA1684603F059FD694678
:102F90000AA803F0D7F9784E2146304600F0C8FA67
:102FA000024673A1684603F04BFD69460AA803F088
:102FB000C9F94FF4006A5146404600F0B9FA02469A
:102FC0006BA1684603F03CFD69460AA803F0BAF914
:102FD0005D465946404600F0ABFA024664A1684699
:102FE00003F02EFD69460AA803F0ACF94FF4005136
:102FF000404600F09DFA02465DA1684603F020FDC0
:1030000069460AA803F09EF93946404600F090FA56
:10301000024657A1684603F013FD69460AA803F06B
:1030200091F94946404600F083FA024650A16846AD
:1030300003F006FD69460AA803F084F921463046EC
:1030400000F076FA02464AA1684603F0F9FC6946A8
:103050000AA803F077F93946304600F069FA0246CB
:1030600043A1684603F0ECFC69460AA803F06AF93C
:103070005146304600F05CFA02463DA1684603F036
:10308000DFFC69460AA803F05DF93C4CB115204607
:1030900000F04EFA024636A1684603F0D1FC6946BC
:1030A0000AA803F04FF95146204600F041FA0246C3
:1030B0002FA1684603F0C4FC69460AA803F042F950
:1030C0002946204600F034FA024629A1684603F05A
:1030D000B7FC69460AA803F035F94021404600F0E4
:1030E00027FA024622A1684603F0AAFC69460AA80C
:1030F00003F028F911220AA921A0FDF784FB46E676
:10310000454E2033205748533A000000000C004041
:10311000454E2041524D20583A0000000004004026
:10312000454E2041524D20593A0000004254204261
:103130004153453A00000000425420475249505044
:1031400045523A00434254205920546F703A0000CF
:10315000C0020020434254205920426F74746F6DA6
:103160003A000000434254205820496E3A000000C3
:1031700025640000493A0000000C024000000240B3
:103180004F55543A0000000011B44648016C009AB3
:10319000914201DD002101E0016C491C0164006CD9
:1031A00018BCCDE410B5FDF78EFCFDF7C0FCFDF7B3
:1031B000FCFEFDF7B5FFFEF71FF9FDF7E5FCFDF797
:1031C0001BFD4FF4E1342046FEF7C7F92046FEF719
:1031D00048FA2046FEF7E2FA2046FEF765FBE000DB
:1031E000FEF7E7FBFEF797F8BDE81040052002F078
:1031F00038BD1020FFF7C8FF0F2002F032FDF8E7BE
:10320000FFF7BCFBFFF7E7FBFFF7BDFA052002F075
:1032100028FDF5E71FB5FFF7C5FFFFF736FBFFF702
:103220008CFAFFF7F8FBFFF765FB00200090019098
:103230000290034603904FF480721BA11F4802F0D6
:1032400039FB1F4CC820FFF7DFFBC820FFF7AEFBA0
:10325000B3EE0E0AFFF7BFFA052002F002FD2021AF
:10326000204600F05BF9EDE77FB500244FF4807550
:1032700000940194029423462A4612A11448039410
:1032800002F018FB00940194029400232A4611A135
:103290001248039402F00EFB02F032FE04B000204C
:1032A00070BD0000940000207461736B4469657503
:1032B0004B6869656E436F43617500000132000819
:1032C000001002407461736B4D61696E0000000074
:1032D000153200087461736B4C434400F3310008ED
:1032E0002849084328490860704730B50F22C47840
:1032F00001780123FCB1244C246801F1E02104F49D
:10330000E064C4F5E064C4F30724C4F10405E240BA
:103310004478AC408578154025432A0181F8002483
:10332000007800F01F018B404009800000F1E02090
:10333000C0F8003130BD01F01F0083404809800013
:1033400000F1E020C0F8803130BD104A1140014347
:103350000D48001F016070470B4A121D00291168BB
:1033600001D0014300E08143116070474FF0E0213C
:103370000428086903D020F004000861704740F079
:103380000400FAE70000FA050CED00E080FFFF1FE3
:103390007C4910B5884206D10121084600F058FA50
:1033A000002101204FE07849884206D10121022006
:1033B00000F04EFA0021022045E07449884206D10F
:1033C0000121042000F044FA002104203BE0704970
:1033D000884206D10121082000F03AFA0021082095
:1033E00031E06C49884206D10121102000F030FA0A
:1033F0000021102027E06849884206D101212020C1
:1034000000F026FA002120201DE06449884206D100
:103410000121402000F01CFA0021402013E0604907
:10342000884206D10121802000F012FA002180207C
:1034300009E05C4988420AD184150121204600F048
:1034400007FA00212046BDE8104000F001BA10BD87
:10345000F0B50023012403270D6804FA03F2154098
:10346000954242D1D0F800C05E0007FA06F52CEA7A
:10347000050CC0F800C091F804C0D0F800E00CFAC8
:1034800006FC4CEA0E0CC0F800C091F804C0BCF178
:10349000010F02D0BCF1020F1FD1D0F808C02CEAF6
:1034A000050CC0F808C091F805C0D0F808E00CFA87
:1034B00006FC4CEA0E0CC0F808C0D0F804C02CEA98
:1034C000020CC0F804C0426891F806C00CFA03FC74
:1034D0001FFA8CFC42EA0C024260C268AA43C26036
:1034E000CA79C568B2402A43C2605B1C102BB3D3B3
:1034F000F0BD4FF6FF7101600021017141718171D2
:10350000C171704708B541F480320092C261C16157
:103510000099C161C169C069009008BD02460020E0
:1035200012690A4200D001207047006980B27047DA
:103530000246002052690A4200D0012070474069CB
:1035400080B2704701837047418370470AB101839D
:103550007047418370474161704742694A40426108
:1035600070474B07DB0E9A40C90810B500EB81008D
:10357000016A0F249C40A1430162016A1143016268
:1035800010BD00000000024000040240000802409C
:10359000000C0240001002400014024000180240DB
:1035A000001C024000200240EA48016841F001018D
:1035B0000160E84A0021083211600268E64B1A40B7
:1035C0000260031DE54A1A60026822F4802202604C
:1035D000E0480C3001607047DE490022891C0A7007
:1035E0000870704702460020510901290CD00229B9
:1035F0000CD0D8497431096802F01F0201239340AE
:103600000B4200D001207047D249F4E7D149703114
:10361000F1E718B500204FF4A06400903120FFF7C7
:10362000E1FF0099491C0091A14201D00028F5D08A
:103630003120FFF7D7FF002800D0012018BDC54971
:103640000A6822F0F80242EAC00008607047C449E4
:1036500008607047BF49002270310A700A70012863
:1036600002D0042801D1052008707047BD490860C8
:10367000704741EA82115A0810B5BB4B029C03EB1C
:1036800002421143014341EA0460B249091D086046
:1036900010BDB34908667047800140EA0170AD492A
:1036A000843108607047AE4988667047AC49C86489
:1036B0007047A84A08321368084323F0EC631843A4
:1036C00010607047A34A08321368084323F0784318
:1036D0001843106070479F4A0832116821F00301B7
:1036E0000143116070479B480830006800F00C00EF
:1036F0007047984A0832116821F0F00101431160C7
:103700007047944A0832116821F4E0510143116076
:103710007047904908310A6822F4604242EAC000CA
:103720000860704770B58B4A083211688F4C11F0F1
:103730000C0104D06610042903D0082903D00460CA
:103740001BE0066019E08349091D0B68C3F380552F
:103750000B6803F03F0315B1B6FBF3F301E0B4FBD4
:10376000F3F30C680968C4F388146343C1F301419F
:10377000491C4900B3FBF1F1016011680F2303EA12
:1037800011117B4B5C5C0168E140416014680725C6
:1037900005EA94241C5D21FA04F48460126805EAA9
:1037A00052329A5CD140C16070BDC0F3012103293F
:1037B00008D1684A0832116821F4F8136D490140B4
:1037C00019431160634970310A68C0F30B0002436A
:1037D0000A6070476349443908607047614940395D
:1037E000086070475E49C1F85C017047594A303241
:1037F0000029116801D0014300E081431160704746
:10380000544A34320029116801D0014300E0814359
:10381000116070474F4A38320029116801D00143C6
:1038200000E08143116070474A4A40320029116824
:1038300001D0014300E0814311607047454A4432A2
:103840000029116801D0014300E0814311607047F5
:10385000404A10320029116801D0014300E0814341
:10386000116070473B4A14320029116801D00143AE
:1038700000E0814311607047364A18320029116810
:1038800001D0014300E0814311607047314A20328A
:103890000029116801D0014300E0814311607047A5
:1038A0002C4A24320029116801D0014300E08143F1
:1038B00011607047274A50320029116801D0014336
:1038C00000E0814311607047224A54320029116898
:1038D00001D0014300E08143116070471D4A583216
:1038E0000029116801D0014300E081431160704755
:1038F000184A60320029116801D0014300E0814379
:1039000011607047134A64320029116801D00143E5
:1039100000E08143116070470E4A0D320029117892
:1039200001D0014300E081431170704709487430B1
:10393000016841F08071016070470146054A00202E
:103940000C3212680A4200D00120704701490E3142
:103950000870704700380240FFFFF6FE1030002468
:1039600000004742800E47420000FFFF0024F400A1
:1039700028010020FFFCFF0F10B501210C0220469A
:10398000FFF78EFF2046BDE810400021FFF788BFFB
:1039900030B54268C84B0C791A400B6842EA0422E1
:1039A000134343608268C54B4D791A40D1E9034304
:1039B00023438C6844EA4504234313438360C26A6B
:1039C000097D22F47002491EC9B242EA0151C16266
:1039D00030BD00210160017141718160C1600161F0
:1039E000012101757047B64B10B5D3F80423B549D2
:1039F0000A40D0E900142143D0E9024004432143A6
:103A00001143C3F8041310BD0021016041608160BF
:103A1000C16070470029816802D041F0010101E0D6
:103A200021F00101816070474268A74B1A400A43A8
:103A300042607047416282627047426822F01F0212
:103A40000A43426070479E490028D1F8040302D01F
:103A500040F4000001E020F40000C1F804037047C6
:103A600097490028D1F8040302D040F4800001E017
:103A700020F48000C1F80403704770B507240929B9
:103A80000AD9C568A1F10A0606EB4606B440A5436B
:103A9000B3401D43C56007E0056901EB4106B44032
:103AA000A543B3401D4305611F23072A09D2446B78
:103AB000521E02EB820293409C4391400C434463AC
:103AC00070BD0D2A09D2046BD21F02EB8202934013
:103AD0009C4391400C43046370BDC46A0D3A02EBF1
:103AE000820293409C4391400C43C46270BD816844
:103AF00041F0804181607047014600208968490299
:103B000000D5012070470029816802D041F480610E
:103B100001E021F48061816070470029816802D052
:103B200041F0020101E021F002018160704742682A
:103B3000491E22F4604242EA413141607047002947
:103B4000416802D041F4006101E021F4006141606C
:103B50007047C06C80B270475948D0F8080370476E
:103B60000029816802D041F4807101E021F4807164
:103B7000816070470029816802D041F4007101E042
:103B800021F40071816070474D490028D1F8040389
:103B900002D040F4005001E020F40050C1F80403CA
:103BA000704770B5072409290AD9C568A1F10A062A
:103BB00006EB4606B440A543B3401D43C56007E08D
:103BC000056901EB4106B440A543B3401D430561BF
:103BD000836BC3F30154121B921C02EB82041F225D
:103BE000A2409343A1400B43836370BD826B491E87
:103BF00022F4401242EA01518163704708B508443B
:103C00000090026008BD826822F470220A4382603C
:103C10007047826822F440120A43826070478168CC
:103C200041F48001816070470146002089684902A3
:103C300000D5012070470029416802D041F480611D
:103C400001E021F48061416070470029416802D0A1
:103C500041F4805101E021F480514160704708B582
:103C6000084428300090006880B208BD01238B40D2
:103C700041680AB1194300E0994341607047024628
:103C8000002012680A4200D001207047C943016039
:103C9000704730B50246002053680C0A01258D405C
:103CA00011682B40214202D0002B00D0012030BDF2
:103CB0006FEA112101607047FFFEFFFCFDF7FFC0B6
:103CC00000200140E030FCFFFFFD3FFF2DE9F04305
:103CD000016821F001010160002101604160816003
:103CE000C160016121214161B849B84A3D251039BF
:103CF000904202D18D60BDE8F083B44A4FF47466FF
:103D00001832904201D18E60F5E7B04A4FF4741733
:103D10003032904201D18F60EDE7AC4A4FF0746CC5
:103D20004832904202D1C1F808C0E4E7A74BA84A44
:103D30006033984201D1CA60DDE7A44CA54B7834CA
:103D4000A04201D1CB60D6E7DFF88082A24C08F117
:103D50009008404501D1CC60CDE7DFF870824FF08C
:103D60003D5908F1A808404502D1C1F80C90C2E7BE
:103D70009A49DFF868820839404501D10D60BAE7F9
:103D8000964D1835A84201D10E60B4E7934D3035F9
:103D9000A84201D10F60AEE7904D4835A84202D14C
:103DA000C1F800C0A7E78D4D8C496035091FA842B6
:103DB00001D10A609FE7894A7832904201D10B60B5
:103DC00099E7864A9032904201D10C6093E7834A8A
:103DD000A83290428FD1C1F800908CE730B50368CB
:103DE0007F4ACC6813400A682243D1E905452C4339
:103DF0002243CC6922430C6A22434C6A22438C6AD8
:103E000022434C6B22438C6B22431A43026042696B
:103E100022F00703D1E90B2422431A4342610A69C5
:103E200042604A6882608968C16030BD00210160DB
:103E300041608160C160016141618161C161016274
:103E400041628162C16201634163816370470029FD
:103E5000016802D041F0010101E021F0010101609F
:103E600070470029016802D041F4004101E021F4CB
:103E70000041016070470029016802D041F0200133
:103E800001E021F020010160704741607047406807
:103E900080B27047002A026802D042F4002201E09A
:103EA00022F400220260016170470029016802D0FB
:103EB00041F4802101E021F48021016070470AB1C2
:103EC00001617047C160704701460020096809031D
:103ED00000D501207047014600200968C90700D0BD
:103EE00001207047406900F03800704702463B4BA4
:103EF00000209A4202D2354A103A01E0374A103A7D
:103F00008B0001D5526800E01268364B1A400A4215
:103F100000D001207047314A904202D22B4810381D
:103F200001E02E4810382F4A8B0001EA020101D52A
:103F3000C1607047816070470B0607D5436912B1B5
:103F400043F0800301E023F080034361802908D01F
:103F5000002A026801F01E0101D00A4300E08A43F2
:103F60000260704730B51D4A0024904202D2174BC0
:103F7000103B01E0194B103B1B4A114205D01E2299
:103F800002EAD12502682A4002E0406900F080027E
:103F9000880001D5586800E01868124B18400842A4
:103FA00001D002B10124204630BD0C4A904202D219
:103FB0000648103801E0094810380A4A8B0001EA27
:103FC000020101D5C16070478160704710600240F6
:103FD0003D000020400F002000003D201064024002
:103FE0003F801CF07D0F7D0F3C0F3C0FFE4910B54C
:103FF000884206D101210846FFF752FC002101202A
:104000005BE0B0F1804F09D0F84988420DD1012121
:104010000220FFF73BFC0021022070E0012108464E
:10402000FFF734FC0021012069E0F149884206D104
:1040300001210420FFF72AFC002104205FE0ED4964
:10404000884206D101210820FFF720FC002108202A
:1040500055E0E949884206D101211020FFF716FCFE
:10406000002110204BE0E549884206D101212020A3
:10407000FFF70CFC0021202041E0E149884206D1F5
:1040800001210220FFF70CFC0021022015E0DD4990
:10409000884202D101210C040AE0DB49884202D1A6
:1040A00001214C0404E0D94988420AD101218C0441
:1040B0002046FFF7F5FB00212046BDE81040FFF742
:1040C000EFBBD349884206D101214020FFF7DEFB38
:1040D0000021402013E0CF49884206D101218020F1
:1040E000FFF7D4FB0021802009E0CB4988420AD1A8
:1040F000841501212046FFF7C9FB00212046BDE8B9
:104100001040FFF7C3BB10BD30B50288B64BBC4CA6
:1041100098420DD0A0420BD0B0F1804F08D0B34DE3
:10412000A84205D0B24DA84202D0B24DA84203D158
:1041300022F070054A882A43AF4DA84206D0AF4D01
:10414000A84203D022F440750A892A4302804A68B3
:10415000C2620A880285984201D0A04201D1897AC0
:1041600001860121818230BD4FF0FF314160002185
:104170000180018141808172704701858282704790
:10418000028822F070020A43028070474162704741
:10419000C1627047406A7047008D704700290188EE
:1041A00002D041F0020101E021F0020101807047DC
:1041B0000029018802D041F0040101E021F004014E
:1041C000018070470029018802D041F0800101E0A0
:1041D00021F0800101807047028822F008020280ED
:1041E00002880A4302807047028822F440720280EB
:1041F00002880A43028070470029018802D041F0FA
:10420000010101E021F001010180704730B5028C0D
:1042100022F001020284028C8388048B22F00202C5
:1042200024F073050C882C438D8915434A882A4352
:104230006D4DA84202D0724DA8420DD122F0080562
:10424000CA8923F440732A4322F004058A882A434A
:104250000D8A1D434B8A2B43838004838968416305
:10426000028430BD70B5028C22F010020284028CF0
:104270008488038B0D8823F4E6464FF6FF7303EA28
:10428000052535438E8922F0200203EA06161643DF
:104290004A8803EA02123243534EB04202D0584ECB
:1042A000B04215D122F08006CA8924F4406403EAA2
:1042B0000212324322F040068A8803EA0212324395
:1042C0000E8A03EA860626434C8A03EA84043443B2
:1042D0008480058389688163028470BD70B5028C17
:1042E00022F480720284028C8488838B0D8823F0F0
:1042F00073031D4322F400738E894FF6FF7202EAA6
:1043000006261E434B8802EA03233343364EB0424F
:1043100002D03B4EB04215D123F40066CB8924F481
:10432000405402EA0323334323F480668B8802EA75
:10433000032333430E8A02EA061626434C8A02EA16
:1043400004143443848085838968C163038470BD09
:1043500070B5028C22F480520284048C8288838B94
:104360000D8823F4E6464FF6FF7303EA052535432F
:1043700024F400568C8903EA043434434E8803EA5B
:1043800006362643184CA04202D01D4CA04205D14F
:1043900022F480440A8A03EA8212224382808583BF
:1043A00089680164068470BD00210180418081809C
:1043B00081608181C18101824182704730B50124D1
:1043C000058C00F118038C40A543058431B30829FE
:1043D0002CD0091FC1F34E001844016848F6FF7342
:1043E0001940016001681AE000000140000400402B
:1043F00000080040000C0040001000400014004085
:1044000000040140004001400044014000480140D8
:1044100000180040001C00400020004006E04FF65D
:10442000FF7303EA02221143016030BD03EB510028
:1044300001684FF68F73194001600168F3E741632B
:10444000704781637047C163704701647047028B96
:1044500022F070020A4302837047028B4FF6FF730B
:1044600022F4E04203EA0121114301837047828B69
:1044700022F070020A4382837047828B4FF6FF73EB
:1044800022F4E04203EA0121114381837047028B49
:1044900022F008020A4302837047028B4FF6FF7333
:1044A00022F4006203EA0121114301837047828BE9
:1044B00022F008020A4382837047828B4FF6FF7313
:1044C00022F4006203EA0121114381837047028BC9
:1044D00022F004020A4302837047028B4FF6FF73F7
:1044E00022F4806203EA0121114301837047828B29
:1044F00022F004020A4382837047828B4FF6FF73D7
:1045000022F4806203EA0121114381837047028B08
:1045100022F080020A4302837047028B4FF6FF733A
:10452000C2F30E0203EA0121114301837047828B1B
:1045300022F080020A4382837047828B4FF6FF731A
:10454000C2F30E0203EA0121114381837047028CFA
:1045500022F002020A4302847047028C22F0080211
:104560000A4302847047028C4FF6FF7322F0200248
:1045700003EA0111114301847047028C4FF6FF7367
:1045800022F0800203EA0111114301847047028C7A
:104590004FF6FF7322F4007203EA012111430184F4
:1045A0007047028C4FF6FF7322F4006203EA012188
:1045B000114301847047028C4FF6FF7322F40052BE
:1045C00003EA013111430184704710B50123048CC3
:1045D0008B409C430484038C8A401343038410BDA6
:1045E00010B50423048C8B409C430484038C8A40C4
:1045F0001343038410BD828B22F440628283828B3A
:104600004FF6FF7303EA01210A4382837047828BCE
:1046100022F00C028283828B0A4382837047028BD2
:1046200022F440620283028B4FF6FF7303EA0121FA
:104630000A4302837047F0B5048C24F0100404840C
:10464000078B068C4FF6FF7404EA011527F47347B5
:1046500004EA0331394304EA02220A4326F0A001A6
:10466000294341F0100102830184F0BD028B22F046
:104670000C020283028B0A43028370472DE9F0414A
:104680000D460E884988AA882B8904460EB3042E4D
:1046900026D0082E268C4FF6FF7028D026F48056A0
:1046A0002684A78B268C00EA022200EA013127F437
:1046B00073473A4300EA0330104326F420420A438A
:1046C00042F48051A0832184E9882046BDE8F0416E
:1046D00091E700F062F9E9882046BDE8F041C5E7BE
:1046E000FFF7A9FFE9882046BDE8F04197E726F4E7
:1046F00080762684A78B268C00EA012100EA03102D
:10470000104327F0F307384326F420620A4342F4AB
:104710008071A0832184E9882046BDE8F04176E7D6
:1047200000210180418001228280C1800181704787
:104730002DE9F0410C46002649880746012501B9BC
:104740000226A288012A00D1022520882389002878
:10475000384610D0FFF76FFFE1883846FFF75FFF5C
:1047600023892A463146384600F017F9E188384651
:10477000BDE8F0417AE700F010F9E1883846FFF72C
:1047800075FF23892A4631463846FFF754FFE188F2
:104790003846BDE8F04142E7406B7047806B704798
:1047A000C06B7047006C704710B50A884B88CC8886
:1047B0001A438B8823431A430B891A434B898989EF
:1047C0001A430A43A0F8442010BD00210180418013
:1047D0008180C1800181418181817047002930F849
:1047E000441F02D041F4004101E0C1F30E010180F9
:1047F00070470029818802D041F0040101E021F0D6
:104800000401818070470029818802D041F00101B4
:1048100001E021F0010181807047002A828901D0E6
:104820000A4300E08A4382817047818270470246D2
:104830000020128A0A4200D001207047C943018239
:10484000704702460020138A92890B4202EA010255
:1048500002D0002A00D001207047C943018270476E
:104860001143A0F848107047002A828901D00A43FA
:1048700000E08A43828170470029818802D041F09C
:10488000080101E021F0080181807047018921F0D1
:10489000070101817047028922F070020A430281F8
:1048A000704700B50346FFF7F6FF188940F0070090
:1048B000188100BD70B516460D46602904464FF0BC
:1048C000010231460AD000F068F829462046FFF779
:1048D000E2FF208940F00700208170BDFFF7ABFEAA
:1048E000F3E730B504894FF6FF7505EA0323134358
:1048F000E4B20B432343038130BD10B50446FFF7F8
:10490000F0FF208940F07700208110BD10B50446EB
:10491000FFF7E7FF208940F48040208110BD8288A6
:1049200022F07002828082880A4382807047028966
:1049300022F00702028102890A430281704702893C
:1049400022F08002028102890A430281704770B519
:104950000589048B068C25F007050D434FF6FC41B5
:104960000C4040F201110C434FF6FF7101EA0311B4
:1049700026F022061143314305810483018470BD72
:104980000029818802D041F0800101E021F08001FE
:1049900081807047A0F85010704770B5048C24F0E7
:1049A00001040484058B048C4FF6FF7606EA03139A
:1049B000134325F0F3052B4324F00A020A4342F087
:1049C00001010383018470BDC74910B5884206D137
:1049D00001211020FEF764FF0021102028E0C349C8
:1049E000884202D101214C0410E0C149884202D121
:1049F00001218C040AE0BF49884202D10121CC0484
:104A000004E0BD4988420AD101210C052046FEF789
:104A10003DFF2046BDE810400021FEF737BFB749F3
:104A2000884209D101212020FEF73AFF00212020F1
:104A3000BDE81040FEF734BF10BD7FB50446008AC4
:104A40000D4620F44051E88808432082A08941F2B5
:104A50000C618843A9882A8911436A89024311435A
:104A6000A181A08A20F44071A8890843A0826846E9
:104A7000FEF758FE9C48844202D0A048844201D1EF
:104A8000039800E00298A189090400EBC00101EB42
:104A90000010296801D5490000E08900B0FBF1F25F
:104AA0006420B2FBF0F109010B096FF018056B43AC
:104AB00002EB8302A3891D044FF0320306D503EBFA
:104AC000C202B2FBF0F000F0070005E003EB0212B7
:104AD000B2FBF0F000F00F00084320817FBD4FF4DF
:104AE0001651016000218180C18001810C22428128
:104AF0008181704710B5028A4C8822F470630A885D
:104B000022438C88C9880C4322431A43028210BD79
:104B10000021018041808180C18070470029818906
:104B200002D041F4005101E021F40051818170472D
:104B3000028B02F47F420283028B0A430283704796
:104B40000029818902D041F4004101E0C1F30E0146
:104B5000818170470029818A02D041F4006101E01F
:104B600021F4006181827047C1F3080181807047A0
:104B70008088C0F308007047028A22F00F02028288
:104B8000028A0A43028270470029818902D041F0DB
:104B9000020101E021F0020181817047828922F443
:104BA0000062828182890A4382817047028A22F0F0
:104BB00020020282028A0A43028270470029018A87
:104BC00002D041F4804101E021F48041018270472C
:104BD000818941F00101818170470029818A02D0D9
:104BE00041F0080101E021F0080181827047028B49
:104BF000D2B20283028B42EA01210183704700296D
:104C0000818A02D041F0200101E021F0200181825F
:104C100070470029818A02D041F0100101E021F0A3
:104C2000100181827047828A22F004028282828A85
:104C30000A43828270470029818A02D041F0020132
:104C400001E021F0020181827047002A828A01D0AE
:104C50000A4300E08A438282704710B5C1F34213D1
:104C600001F01F040121A140012B07D0022B07D026
:104C70001430002A026805D00A4304E00C30F8E73B
:104C80001030F6E78A43026010BD02460020128809
:104C90000A4200D001207047C9430180704730B5F7
:104CA00001F01F0201240025C1F3421304FA02F2AD
:104CB000012B0FD0022B0FD0838A4FEA11210088DD
:104CC000134204FA01F400EA040001D000B1012506
:104CD000284630BD8389F0E7038AEEE70A0A0121FE
:104CE0009140C943018070470010014000440040DA
:104CF00000480040004C00400050004000140140BB
:104D000000F108014FF0FF32C0E90112C1600161FA
:104D100000210160704700210161704742685368BB
:104D20004B6043688B6053689960516041600861D3
:104D30000168491C0160704710B50B685A1C02D00D
:104D400000F1080202E0026904E052685468246835
:104D50009C42FAD953684B6099608A60516008613F
:104D60000168491C016010BDD0E901128A60D0E9D8
:104D70000112516001694A68824201D182684A6029
:104D8000002202610868401E086008687047000041
:104D900070B50D4604001FD000F0EBFCD4E90F21E4
:104DA000206802FB010363600023A363521EA0601E
:104DB00002FB0100E060581E6064A06404F1100072
:104DC0006DB1FFF79DFF04F12400FFF799FF00BFCD
:104DD00000F0D7FC012070BDFBF72AFAFEE721693D
:104DE0000029F5D001F07BF90128F1D100F0BBFCDE
:104DF000EEE72DE9F04117460E46050019D0502088
:104E000000F0DEFC040014D005FB06F0401C00F0AE
:104E1000D7FC206050B1C4E90F5601212046FFF7AE
:104E2000B7FF84F84D702046BDE8F081204600F0C1
:104E30001CFDFBF7FDF9FEE770B5044600F099FC98
:104E400004F124050AE0606A58B1284601F047F9E8
:104E500008B101F0BFF9A06C401EA064A06C00284E
:104E6000F1DC4FF0FF36A66400F08BFC00F081FC13
:104E700004F110050AE0206958B1284601F02FF925
:104E800008B101F0A7F9606C401E6064606C0028F6
:104E9000F1DC6664BDE8704000F073BC10B51346E9
:104EA000026C04468AB1CBB1E06801F027FAE168F0
:104EB000206C091AE1602268914202D26168081AE6
:104EC000E060A06B401CA06310BD20680028F8D1F2
:104ED000606801F0C7F900206060F2E7A06801F0A7
:104EE0000DFA216CA0680844A06061688842E8D38C
:104EF0002068A060E5E72DE9FF4182B098460F46A3
:104F000004004FF0000502D000261FB107E0FBF7B8
:104F10008FF9FEE7206C10B1FBF78AF9FEE700F08D
:104F200028FCA16BE06B814213D2424639462046F1
:104F3000FFF7B4FF606A38B104F1240001F0CFF844
:104F4000012801D100F00FFC00F01BFC012006B08D
:104F50006AE7049808B11DB106E000F012FC1DE0FC
:104F6000684601F0E9F8012500F00BFC00F046FE70
:104F700000F0FFFB606C401C00D16664A06C401C1C
:104F800000D1A66400F0FDFB04A9684601F0DFF83B
:104F900030B12046FFF750FF00F0C2FD0020D6E7F9
:104FA00000F0E7FBA06BE16B884210D100F0E9FB59
:104FB00004F11000049901F061F82046FFF73CFF6E
:104FC00000F0AEFD0028AAD100F0CDFBA7E700F06D
:104FD000D8FB2046FFF730FF00F0A2FD9FE770B539
:104FE0000546502000F0ECFB04001DD0002161605C
:104FF0002160A160E160A1630120C4E90F01801E6E
:105000006064A06484F84D5004F11000FFF778FE4E
:1050100004F12400FFF774FE00231A4619462046C7
:10502000FFF769FF204670BDFBF702F9FEE710B5F8
:10503000040009D001F0DAF8616888420FD1E06815
:10504000401EE06003D008E0FBF7F2F8FEE7002323
:105050001A4619462046FFF74EFF012010BD0020DA
:1050600010BD30B403680D46002B0CD0026CC16833
:105070008C18C46041688C4200D3C360C168284664
:1050800030BC01F03BB930BC70472DE9FF4383B021
:105090001F46884604004FF0000506D0002604F1A4
:1050A0002409B8F1000F03D007E0FBF7C1F8FEE7D1
:1050B000206C10B1FBF7BCF8FEE700F05AFBA06BC8
:1050C00030B341462046E568FFF7CBFF77B1E56096
:1050D000606A28B1484601F002F808B100F043FBCD
:1050E00000F04FFB012007B0BDE8F083A06B401E2D
:1050F000A063206810B901F079F860602069002889
:10510000EED004F1100000F0EAFF0128E6D0E7E756
:10511000059808B11DB106E000F033FB1DE06846BC
:1051200001F00AF8012500F02CFB00F067FD00F00B
:1051300020FB606C401C00D16664A06C401C00D158
:10514000A66400F01EFB05A9684601F000F830B126
:105150002046FFF771FE00F0E3FC0020C3E700F0FB
:1051600008FBA06B38B100F00CFB2046FFF764FE93
:1051700000F0D6FCA1E700F004FB206830B900F095
:10518000F8FA606801F040F800F0FBFA484605992B
:1051900000F074FF2046FFF74FFE00F0C1FC00282E
:1051A0008BD100F0E0FA88E770B50D46040009D015
:1051B00001F01CF86168884207D1E068401CE0609B
:1051C000012070BDFBF734F8FEE700232A4619469C
:1051D0002046FFF75AFF0128F3D1E168491CE1603E
:1051E00070BD10B50C4602220021FFF702FE08B187
:1051F000846310BDFBF71CF8FEE72DE9F0419846EB
:1052000015460F46040001D01FB107E0FBF710F868
:10521000FEE7206C10B1FBF70BF8FEE7FBF708F890
:105220000646A06BE16B88421AD2424639462046B8
:10523000FFF734FEA06C401C04D0A06C401CA0649E
:1052400001240EE0606A0028FAD004F1240000F086
:1052500046FF0028F4D0002DF2D001202860EFE7AF
:1052600000243046FAF7EBFF2046DDE52DE9F0415A
:1052700015460F46040001D01FB107E0FAF7D8FF2A
:10528000FEE7206C10B1FAF7D3FFFEE7FAF7D0FF84
:105290000646A06BE0B139462046FFF7E2FEA06B60
:1052A000401EA063606C401C04D0606C401C6064B5
:1052B00001240EE020690028FAD004F1100000F06B
:1052C0000EFF0028F4D0002DF2D001202860EFE777
:1052D00000243046FAF7B3FF2046A5E510B50400D8
:1052E00006D000F046FAA46B00F04BFA204610BD41
:1052F000FAF79EFFFEE710B508B1806B10BDFAF714
:1053000097FFFEE710B504000BD03348002100BF23
:1053100000EBC1025368A34206D1002240F83120BD
:1053200005E0FAF785FFFEE7491C0829F0D320685D
:1053300000F09BFA2046BDE8104000F096BA90F8C5
:105340004C00704780F84C10704790F84D00704743
:1053500010B518B1806B20B1002010BDFAF768FFBE
:10536000FEE7012010BD10B528B1816BC06B8142F2
:1053700004D1012010BDFAF75BFFFEE7002010BD4D
:1053800010B5154B002200BF53F832401CB1521C1F
:10539000082AF9D310BD43F8321003EBC20148606C
:1053A00010BD70B50D46044600F0E3F9626C0020B4
:1053B000521C00D16064A16C491C00D1A06400F0B3
:1053C000E0F9A06B20B9294604F1240000F073FE37
:1053D0002046BDE870402FE52803002070B500246A
:1053E0004160BF4D0061914206D8D11A8269914255
:1053F00006D2011DE86807E09A4203D2994201D320
:10540000012403E0011DA868FFF796FC204670BD4B
:10541000FEB5B34C1D46034627680020089E002FAA
:1054200008D08DE80E0035B100232A46694638467B
:10543000FFF7E3FEFEBD00F0DCFE01284FF00003A5
:1054400005D0002269462068FFF755FDFEBD3246B3
:10545000F8E770B5054600F080FDA14E044670687F
:10546000844203D200F078F8012000E00020286098
:105470002046746070BD9A4CA068016839B1C0685C
:105480000021006800F0E7F800F095F8F4E701214A
:105490000020F7E710B500F06CF9914C206880B956
:1054A0009048FFF72DFC8F481430FFF729FC8D48FA
:1054B000A0601430E06000220C210A20FFF799FC64
:1054C0002060BDE8104000F05CB91FB5FFF7E2FFB7
:1054D0008348006868B100200221CDE900100290E5
:1054E00003460A02039080A1814800F0E3F90028F6
:1054F00002D1FAF79DFEFEE704B010BD2DE9F0479A
:105500001E46DDF8209017460D00804612D0282058
:1055100000F056F904000AD0FFF7BCFFC4F8008081
:10552000C4E90657C4E90869201DFFF7F4FB2046CB
:10553000BDE8F087FAF77CFEFEE710B5044600F000
:1055400018F9606908B1012400E0002400F019F99D
:10555000204610BD006A7047F8B5614D20E0C16873
:105560000E68C068C468201DFFF7FEFB616A204614
:105570008847E069012813D1A0693044B04206D9B8
:1055800024616060211DA868FFF7D6FB08E00020B9
:1055900003460146009032462046FFF739FF38B1F6
:1055A000A86801680029DAD1E968C5E90210F8BDE8
:1055B000FAF73EFEFEE770B588B002A8FFF749FF94
:1055C0000546474E3DE0069C24B1606910B1201DA0
:1055D000FFF7CAFB049830B1012832D0022820D04E
:1055E00003282ED12AE00598A169034601442A46E2
:1055F0002046FFF7F3FE012823D1616A2046884741
:10560000E06901281DD1002000900598A1690023C0
:10561000421819462046FFF7FBFE90B9FAF708FE3C
:10562000FEE70598A06130B141192B461A46204685
:10563000FFF7D4FE05E0FAF7FBFDFEE7204600F099
:1056400014F900231A4604A93068FFF71EFD00284C
:10565000B9D108B070BD2DE9FC410F46054600F0F8
:10566000CDFA01A8FFF7F5FE0446019818B100F045
:1056700057FABDE8FC811A4E37BBA54224D800F08A
:105680004FFAB0682746C068C468201DFFF76CFB5E
:10569000E069012811D1A0692B4641193A462046FC
:1056A000FFF79CFE012808D1002003460146009028
:1056B0002A462046FFF7ACFE18B1616A20468847AB
:1056C000D7E7FAF7B5FDFEE7291B3068FFF769FE5B
:1056D00000F026FA0028CCD100F045F8C9E7000018
:1056E0003801002068030020546D72205376630057
:1056F0007754000810B5031F4FF080741C601B1F07
:105700001960191F00230B6014390A60091FDA1E83
:1057100044380A6010BD264842F210710068B0FBA0
:10572000F1F14FF0E020491E41610721016170470E
:10573000204810B5016841F47C010160016841F026
:105740007C410160FFF7E7FF1B4900200860FAF782
:105750003DFD1A48016841F040410160FAF72CFD17
:10576000002010BD704713494FF080501C3908606D
:10577000704710B5FAF75CFD0F480168491C0160DD
:1057800010BD0D490868401E086001D1FAF757BDE9
:105790007047084910B51C394FF080500860FAF77F
:1057A00047FD00F06CF9BDE810400020FAF747BD56
:1057B0000000002020ED00E04801002034EF00E070
:1057C0002DE9F0410446002500F018FA374A02F1AD
:1057D0000801506801F1080360B9354808600020ED
:1057E0004FF420564860C3E900063148C0E900364E
:1057F0000120506042F2FF7094B31034660704D069
:1058000004F00706C6F108063444661E864227D215
:1058100026480968083001E0084631464E68A6422D
:1058200002D20E68002EF7D1994219D005680B6894
:10583000036048681035001B20280DD90B195860EB
:105840001A484C6008305E6800E0204604686768CB
:10585000B742FAD31C60036048681168081A1060E8
:1058600000F05EF92846BDE8F08110B5002817D099
:10587000A0F1100400F0C2F90C486168083000E0A3
:105880001046026853688B42FAD3226004600748CE
:105890006168026811440160BDE8104000F040B941
:1058A00010BD024800687047704700004C0100209E
:1058B000900300202DE9FF5FDDE90E68109F15467B
:1058C0008A465FEA000B04D0052E05D3FAF7B0FC38
:1058D000FEE7FAF7ADFCFEE74C20FFF771FF04008E
:1058E0001CD0A80081469FB13846206398B1A522FC
:1058F000494600F015FD6FF00301206B01EB8501B7
:10590000084420F0070568070BD0FAF791FCFEE782
:10591000FFF756FFE9E72046FFF7A7FF4FF0FF34F8
:105920007BE051460A2204F1340000F017FD00200C
:1059300084F83D00E662201DA664FFF7ECF904F14F
:105940001800FFF7E8F92461C6F105006462A06160
:1059500059462846039AFFF7CDFE2060B8F1000FA4
:1059600001D0C8F80040FFF704FFF94DA868401CBB
:10597000A8602868DFF8DC8310B1A86948B32DE07F
:105980002C60A868012829D15FF0000707EB870188
:1059900008EB8100FFF7B4F97F1C052FF6D3ED4823
:1059A0006430FFF7ADF9EB487830FFF7A9F9E94823
:1059B0008C30FFF7A5F9E748A030FFF7A1F9E548DB
:1059C000B430FFF79DF9E348643068631430A8638E
:1059D00004E02868C06AB04200D82C60E06A2969F7
:1059E000884200D92861E96A2164491CE962696931
:1059F000884200D9686100EB800108EB8100211D1D
:105A0000FFF78CF90124FFF7BCFEA86928B12868CC
:105A1000C06AB04201D2FFF7A6FE04B02046BDE83E
:105A2000F09F70B50646FFF7A4FEC94C2068864279
:105A300001D1002620E0FEB13546281DFFF794F97C
:105A4000A86A18B105F11800FFF78EF9C148291DA1
:105A5000A030FFF763F96068401C6060E06A401C9A
:105A6000E062FFF78EFEA069002807D0002E05D166
:105A7000BDE87040FFF777BE2568DEE770BD2DE911
:105A8000F041B34CE06920B1206A401C2062BDE8BF
:105A9000F081E068401CE060E0684FF0FF36A0B99C
:105AA000606B006810B1FAF7C3FBFEE7606BA16B97
:105AB0006163A063A06A401CA062606B0068A8B12B
:105AC000606BC068C06840682063E068216B8842F2
:105AD000DDD3A04F606B006850B1606BC068C568D3
